{"abi":[{"type":"constructor","inputs":[{"name":"_admin","type":"address","internalType":"address"}],"stateMutability":"nonpayable"},{"type":"function","name":"admin","inputs":[],"outputs":[{"name":"","type":"address","internalType":"contract AdminManager"}],"stateMutability":"view"},{"type":"function","name":"cancelOrder","inputs":[{"name":"orderId","type":"uint256","internalType":"uint256"}],"outputs":[],"stateMutability":"nonpayable"},{"type":"function","name":"getOrder","inputs":[{"name":"orderId","type":"uint256","internalType":"uint256"}],"outputs":[{"name":"","type":"tuple","internalType":"struct OrderBook.Order","components":[{"name":"user","type":"address","internalType":"address"},{"name":"isBuy","type":"bool","internalType":"bool"},{"name":"price","type":"uint256","internalType":"uint256"},{"name":"amount","type":"uint256","internalType":"uint256"},{"name":"filled","type":"uint256","internalType":"uint256"},{"name":"finished","type":"bool","internalType":"bool"}]}],"stateMutability":"view"},{"type":"function","name":"getUserOrders","inputs":[{"name":"user","type":"address","internalType":"address"}],"outputs":[{"name":"","type":"uint256[]","internalType":"uint256[]"}],"stateMutability":"view"},{"type":"function","name":"matchOrder","inputs":[{"name":"orderId","type":"uint256","internalType":"uint256"},{"name":"fillAmount","type":"uint256","internalType":"uint256"}],"outputs":[],"stateMutability":"nonpayable"},{"type":"function","name":"orderCount","inputs":[],"outputs":[{"name":"","type":"uint256","internalType":"uint256"}],"stateMutability":"view"},{"type":"function","name":"orders","inputs":[{"name":"","type":"uint256","internalType":"uint256"}],"outputs":[{"name":"user","type":"address","internalType":"address"},{"name":"isBuy","type":"bool","internalType":"bool"},{"name":"price","type":"uint256","internalType":"uint256"},{"name":"amount","type":"uint256","internalType":"uint256"},{"name":"filled","type":"uint256","internalType":"uint256"},{"name":"finished","type":"bool","internalType":"bool"}],"stateMutability":"view"},{"type":"function","name":"placeOrder","inputs":[{"name":"isBuy","type":"bool","internalType":"bool"},{"name":"price","type":"uint256","internalType":"uint256"},{"name":"amount","type":"uint256","internalType":"uint256"}],"outputs":[],"stateMutability":"nonpayable"},{"type":"event","name":"CancelOrder","inputs":[{"name":"user","type":"address","indexed":true,"internalType":"address"},{"name":"orderId","type":"uint256","indexed":false,"internalType":"uint256"}],"anonymous":false},{"type":"event","name":"MatchOrder","inputs":[{"name":"orderId","type":"uint256","indexed":false,"internalType":"uint256"},{"name":"taker","type":"address","indexed":true,"internalType":"address"},{"name":"fillAmount","type":"uint256","indexed":false,"internalType":"uint256"}],"anonymous":false},{"type":"event","name":"PlaceOrder","inputs":[{"name":"user","type":"address","indexed":true,"internalType":"address"},{"name":"isBuy","type":"bool","indexed":false,"internalType":"bool"},{"name":"price","type":"uint256","indexed":false,"internalType":"uint256"},{"name":"amount","type":"uint256","indexed":false,"internalType":"uint256"},{"name":"orderId","type":"uint256","indexed":false,"internalType":"uint256"}],"anonymous":false},{"type":"error","name":"ReentrancyGuardReentrantCall","inputs":[]}],"bytecode":{"object":"0x608034609357601f61096a38819003918201601f19168301916001600160401b03831184841017609757808492602094604052833981010312609357516001600160a01b0381169081900360935760017f9b779b17422d0df92223018b32b4d1fa46e071723d6817e2486d003becc55f00555f80546001600160a01b0319169190911790556040516108be90816100ac8239f35b5f80fd5b634e487b7160e01b5f52604160045260245ffdfe60806040526004361015610011575f80fd5b5f3560e01c80630ca41aac146106465780632453ffa814610629578063514fcac71461058c57806363c69f0814610443578063a85c38ef146103c9578063ca8b4f7a14610172578063d09ef2411461009c5763f851a44014610071575f80fd5b34610098575f366003190112610098575f546040516001600160a01b039091168152602090f35b5f80fd5b34610098576020366003190112610098575f60a06040516100bc816107da565b828152826020820152826040820152826060820152826080820152015260c06100e6600435610774565b506040516100f3816107da565b81549160018060a01b0383169283835260ff602084019160a01c16151581526001820154604084019081526002830154916060850192835260a060ff60046003870154966080890197885201541695019415158552604051958652511515602086015251604085015251606084015251608083015251151560a0820152f35b34610098576060366003190112610098576004358015158091036100985760243560443561019e610830565b5f54604051635c975abb60e01b815290602090829060049082906001600160a01b03165afa9081156103be575f91610383575b50610355578115158061034c575b6101e890610790565b6040516101f4816107da565b338152602081019084825260408101918483526060820184815260808301905f825260a08401945f865260015468010000000000000000811015610338578060016102429201600155610774565b9490946103255760049560018060a01b03905116855491816bffffffffffffffffffffffff60a01b841617875560ff60a01b9051151560a01b16916affffffffffffffffffffff60a81b1617178455516001840155516002830155516003820155019051151560ff80198354169116179055600154915f198301928311610311576040519384526020840152604083015260608201527f7f9c480796e5263ee6554c3b7d04a43344be7713857495b40df8e22fca41742060803392a260015f5160206108695f395f51905f5255005b634e487b7160e01b5f52601160045260245ffd5b634e487b7160e01b5f525f60045260245ffd5b634e487b7160e01b5f52604160045260245ffd5b508015156101df565b60405162461bcd60e51b815260206004820152600660248201526514185d5cd95960d21b6044820152606490fd5b90506020813d6020116103b6575b8161039e602093836107f6565b810103126100985751801515810361009857846101d1565b3d9150610391565b6040513d5f823e3d90fd5b3461009857602036600319011261009857600435600154811015610098576103f260c091610774565b50805490600181015490600281015460ff60046003840154930154169260ff6040519560018060a01b038116875260a01c1615156020860152604085015260608401526080830152151560a0820152f35b34610098576020366003190112610098576004356001600160a01b03811690819003610098576001545f91825b828110610555575061049a61048484610818565b9361049260405195866107f6565b808552610818565b602084019290601f19013684375f915f5b8281106104f6578486604051918291602083019060208452518091526040830191905f5b8181106104dd575050500390f35b82518452859450602093840193909201916001016104cf565b8161050082610774565b50546001600160a01b031614610519575b6001016104ab565b92610523816107cc565b9386518210156105415780602060019360051b890101529050610511565b634e487b7160e01b5f52603260045260245ffd5b8161055f82610774565b50546001600160a01b031614610578575b600101610470565b926105846001916107cc565b939050610570565b34610098576020366003190112610098576004356105a8610830565b60046105b382610774565b5080546001600160a01b031633148061061b575b6105d090610790565b01600160ff198254161790556040519081527fc0e68d6b69f741c21e955cad2ae4d505b6f6735c7e7b278251b3f6283a5f07eb60203392a260015f5160206108695f395f51905f5255005b508082015460ff16156105c7565b34610098575f366003190112610098576020600154604051908152f35b3461009857604036600319011261009857600435602435610665610830565b61066e82610774565b50600481019081549060ff821661073e57600360028201549101805490818303838111610311578611610705578582018092116103115781905510156106f5575b505060405191825260208201527f64636e643acfcd8b6a0c9ea156e4bc0c5389e25d3ce734b88644e0653fdd155860403392a260015f5160206108695f395f51905f5255005b60ff1916600117905582806106af565b60405162461bcd60e51b8152602060048201526011602482015270457863656564732072656d61696e696e6760781b6044820152606490fd5b60405162461bcd60e51b815260206004820152600e60248201526d13dc99195c88199a5b9a5cda195960921b6044820152606490fd5b6001548110156105415760015f52600560205f20910201905f90565b1561079757565b60405162461bcd60e51b815260206004820152600d60248201526c24b73b30b634b21037b93232b960991b6044820152606490fd5b5f1981146103115760010190565b60c0810190811067ffffffffffffffff82111761033857604052565b90601f8019910116810190811067ffffffffffffffff82111761033857604052565b67ffffffffffffffff81116103385760051b60200190565b60025f5160206108695f395f51905f5254146108595760025f5160206108695f395f51905f5255565b633ee5aeb560e01b5f5260045ffdfe9b779b17422d0df92223018b32b4d1fa46e071723d6817e2486d003becc55f00a26469706673582212206a643e8b583921a6facc1006ff9b91ed0bce485acf20e46b21165ca54f0fc77e64736f6c63430008230033","linkReferences":{}},"methodIdentifiers":{"admin()":"f851a440","cancelOrder(uint256)":"514fcac7","getOrder(uint256)":"d09ef241","getUserOrders(address)":"63c69f08","matchOrder(uint256,uint256)":"0ca41aac","orderCount()":"2453ffa8","orders(uint256)":"a85c38ef","placeOrder(bool,uint256,uint256)":"ca8b4f7a"},"id":13}