{"abi":[{"type":"constructor","inputs":[{"name":"_admin","type":"address","internalType":"address"},{"name":"_lpToken","type":"address","internalType":"address"},{"name":"_rewardToken","type":"address","internalType":"address"},{"name":"_rewardPerSecond","type":"uint256","internalType":"uint256"}],"stateMutability":"nonpayable"},{"type":"function","name":"accRewardPerShare","inputs":[],"outputs":[{"name":"","type":"uint256","internalType":"uint256"}],"stateMutability":"view"},{"type":"function","name":"admin","inputs":[],"outputs":[{"name":"","type":"address","internalType":"contract AdminManager"}],"stateMutability":"view"},{"type":"function","name":"claimReward","inputs":[{"name":"ionProtocolFee","type":"uint256","internalType":"uint256"}],"outputs":[],"stateMutability":"nonpayable"},{"type":"function","name":"feeReceiver","inputs":[],"outputs":[{"name":"","type":"address","internalType":"address"}],"stateMutability":"view"},{"type":"function","name":"lastUpdateTime","inputs":[],"outputs":[{"name":"","type":"uint256","internalType":"uint256"}],"stateMutability":"view"},{"type":"function","name":"lpToken","inputs":[],"outputs":[{"name":"","type":"address","internalType":"contract IERC20"}],"stateMutability":"view"},{"type":"function","name":"pendingReward","inputs":[{"name":"_user","type":"address","internalType":"address"}],"outputs":[{"name":"","type":"uint256","internalType":"uint256"}],"stateMutability":"view"},{"type":"function","name":"rewardPerSecond","inputs":[],"outputs":[{"name":"","type":"uint256","internalType":"uint256"}],"stateMutability":"view"},{"type":"function","name":"rewardToken","inputs":[],"outputs":[{"name":"","type":"address","internalType":"contract IERC20"}],"stateMutability":"view"},{"type":"function","name":"setFeeReceiver","inputs":[{"name":"_feeReceiver","type":"address","internalType":"address"}],"outputs":[],"stateMutability":"nonpayable"},{"type":"function","name":"setRewardPerSecond","inputs":[{"name":"_rewardPerSecond","type":"uint256","internalType":"uint256"}],"outputs":[],"stateMutability":"nonpayable"},{"type":"function","name":"stake","inputs":[{"name":"amount","type":"uint256","internalType":"uint256"},{"name":"ionProtocolFee","type":"uint256","internalType":"uint256"}],"outputs":[],"stateMutability":"nonpayable"},{"type":"function","name":"totalStaked","inputs":[],"outputs":[{"name":"","type":"uint256","internalType":"uint256"}],"stateMutability":"view"},{"type":"function","name":"unstake","inputs":[{"name":"amount","type":"uint256","internalType":"uint256"}],"outputs":[],"stateMutability":"nonpayable"},{"type":"function","name":"userInfo","inputs":[{"name":"","type":"address","internalType":"address"}],"outputs":[{"name":"stakeAmount","type":"uint256","internalType":"uint256"},{"name":"rewardDebt","type":"uint256","internalType":"uint256"},{"name":"pendingReward","type":"uint256","internalType":"uint256"}],"stateMutability":"view"},{"type":"event","name":"RewardClaim","inputs":[{"name":"user","type":"address","indexed":true,"internalType":"address"},{"name":"reward","type":"uint256","indexed":false,"internalType":"uint256"}],"anonymous":false},{"type":"event","name":"Stake","inputs":[{"name":"user","type":"address","indexed":true,"internalType":"address"},{"name":"amount","type":"uint256","indexed":false,"internalType":"uint256"}],"anonymous":false},{"type":"event","name":"Unstake","inputs":[{"name":"user","type":"address","indexed":true,"internalType":"address"},{"name":"amount","type":"uint256","indexed":false,"internalType":"uint256"}],"anonymous":false},{"type":"error","name":"IonDexFeeReceiverNotSet","inputs":[]},{"type":"error","name":"IonDexIonFeeTransferFailed","inputs":[]},{"type":"error","name":"ReentrancyGuardReentrantCall","inputs":[]}],"bytecode":{"object":"0x608060405234801561000f575f80fd5b506040516200141b3803806200141b833981016040819052610030916100b7565b60017f9b779b17422d0df92223018b32b4d1fa46e071723d6817e2486d003becc55f00555f80546001600160a01b03199081166001600160a01b0396871617909155600180548216948616949094179093556002805490931691909316179055600455426008556100ff565b80516001600160a01b03811681146100b2575f80fd5b919050565b5f805f80608085870312156100ca575f80fd5b6100d38561009c565b93506100e16020860161009c565b92506100ef6040860161009c565b6060959095015193969295505050565b61130e806200010d5f395ff3fe608060405234801561000f575f80fd5b50600436106100f0575f3560e01c8063939d623711610093578063efdcd97411610063578063efdcd97414610200578063f40f0f5214610213578063f7c618c114610226578063f851a44014610239575f80fd5b8063939d6237146101c8578063ae169a50146101d1578063b3f00674146101e4578063c8f33c91146101f7575f80fd5b806366da5815116100ce57806366da5815146101825780637b0472f014610195578063817b1cd2146101a85780638f10369a146101bf575f80fd5b80631959a002146100f45780632e17de78146101425780635fcbd28514610157575b5f80fd5b61012261010236600461116e565b60066020525f908152604090208054600182015460029092015490919083565b604080519384526020840192909252908201526060015b60405180910390f35b610155610150366004611190565b61024b565b005b60015461016a906001600160a01b031681565b6040516001600160a01b039091168152602001610139565b610155610190366004611190565b610574565b6101556101a33660046111a7565b610737565b6101b160055481565b604051908152602001610139565b6101b160045481565b6101b160075481565b6101556101df366004611190565b610a6b565b60035461016a906001600160a01b031681565b6101b160085481565b61015561020e36600461116e565b610d49565b6101b161022136600461116e565b610e29565b60025461016a906001600160a01b031681565b5f5461016a906001600160a01b031681565b610253610ef5565b6005543390156102b7575f6008544261026c91906111db565b90505f6004548261027d91906111f4565b60055490915061029582670de0b6b3a76400006111f4565b61029f919061120b565b60075f8282546102af919061122a565b909155505050505b426008556001600160a01b03811615610352576001600160a01b0381165f90815260066020526040902060018101546007548254670de0b6b3a7640000916102fe916111f4565b610308919061120b565b61031291906111db565b816002015f828254610324919061122a565b90915550506007548154670de0b6b3a764000091610341916111f4565b61034b919061120b565b6001909101555b5f8054906101000a90046001600160a01b03166001600160a01b0316635c975abb6040518163ffffffff1660e01b8152600401602060405180830381865afa1580156103a0573d5f803e3d5ffd5b505050506040513d601f19601f820116820180604052508101906103c4919061123d565b156103ea5760405162461bcd60e51b81526004016103e19061125c565b60405180910390fd5b335f908152600660205260409020805483111561043e5760405162461bcd60e51b8152602060048201526012602482015271496e73756666696369656e74207374616b6560701b60448201526064016103e1565b82815f015f82825461045091906111db565b925050819055508260055f82825461046891906111db565b90915550506007548154670de0b6b3a764000091610485916111f4565b61048f919061120b565b6001828101919091555460405163a9059cbb60e01b8152336004820152602481018590526001600160a01b039091169063a9059cbb906044016020604051808303815f875af11580156104e4573d5f803e3d5ffd5b505050506040513d601f19601f82011682018060405250810190610508919061123d565b6105245760405162461bcd60e51b81526004016103e19061127c565b60405183815233907f85082129d87b2fe11527cb1b3b7a520aeb5aa6913f88a3d8757fe40d1db02fdd9060200160405180910390a2505061057160015f805160206112b983398151915255565b50565b6005545f90156105d8575f6008544261058d91906111db565b90505f6004548261059e91906111f4565b6005549091506105b682670de0b6b3a76400006111f4565b6105c0919061120b565b60075f8282546105d0919061122a565b909155505050505b426008556001600160a01b03811615610673576001600160a01b0381165f90815260066020526040902060018101546007548254670de0b6b3a76400009161061f916111f4565b610629919061120b565b61063391906111db565b816002015f828254610645919061122a565b90915550506007548154670de0b6b3a764000091610662916111f4565b61066c919061120b565b6001909101555b5f8054906101000a90046001600160a01b03166001600160a01b0316638da5cb5b6040518163ffffffff1660e01b8152600401602060405180830381865afa1580156106c1573d5f803e3d5ffd5b505050506040513d601f19601f820116820180604052508101906106e5919061129d565b6001600160a01b0316336001600160a01b0316146107315760405162461bcd60e51b81526020600482015260096024820152682737ba1037bbb732b960b91b60448201526064016103e1565b50600455565b61073f610ef5565b6005543390156107a3575f6008544261075891906111db565b90505f6004548261076991906111f4565b60055490915061078182670de0b6b3a76400006111f4565b61078b919061120b565b60075f82825461079b919061122a565b909155505050505b426008556001600160a01b0381161561083e576001600160a01b0381165f90815260066020526040902060018101546007548254670de0b6b3a7640000916107ea916111f4565b6107f4919061120b565b6107fe91906111db565b816002015f828254610810919061122a565b90915550506007548154670de0b6b3a76400009161082d916111f4565b610837919061120b565b6001909101555b5f8054906101000a90046001600160a01b03166001600160a01b0316635c975abb6040518163ffffffff1660e01b8152600401602060405180830381865afa15801561088c573d5f803e3d5ffd5b505050506040513d601f19601f820116820180604052508101906108b0919061123d565b156108cd5760405162461bcd60e51b81526004016103e19061125c565b5f831161090a5760405162461bcd60e51b815260206004820152600b60248201526a416d6f756e74207a65726f60a81b60448201526064016103e1565b600354610922906001600160a01b0316303385610f10565b6001546040516323b872dd60e01b8152336004820152306024820152604481018590526001600160a01b03909116906323b872dd906064016020604051808303815f875af1158015610976573d5f803e3d5ffd5b505050506040513d601f19601f8201168201806040525081019061099a919061123d565b6109b65760405162461bcd60e51b81526004016103e19061127c565b8260055f8282546109c7919061122a565b9091555050335f9081526006602052604081208054909185918391906109ee90849061122a565b90915550506007548154670de0b6b3a764000091610a0b916111f4565b610a15919061120b565b600182015560405184815233907febedb8b3c678666e7f36970bc8f57abf6d8fa2e828c0da91ea5b75bf68ed101a9060200160405180910390a25050610a6760015f805160206112b983398151915255565b5050565b610a73610ef5565b600554339015610ad7575f60085442610a8c91906111db565b90505f60045482610a9d91906111f4565b600554909150610ab582670de0b6b3a76400006111f4565b610abf919061120b565b60075f828254610acf919061122a565b909155505050505b426008556001600160a01b03811615610b72576001600160a01b0381165f90815260066020526040902060018101546007548254670de0b6b3a764000091610b1e916111f4565b610b28919061120b565b610b3291906111db565b816002015f828254610b44919061122a565b90915550506007548154670de0b6b3a764000091610b61916111f4565b610b6b919061120b565b6001909101555b5f8054906101000a90046001600160a01b03166001600160a01b0316635c975abb6040518163ffffffff1660e01b8152600401602060405180830381865afa158015610bc0573d5f803e3d5ffd5b505050506040513d601f19601f82011682018060405250810190610be4919061123d565b15610c015760405162461bcd60e51b81526004016103e19061125c565b600354610c19906001600160a01b0316303385610f10565b335f908152600660205260409020600281015480610c655760405162461bcd60e51b8152602060048201526009602482015268139bc81c995dd85c9960ba1b60448201526064016103e1565b5f6002838101919091555460405163a9059cbb60e01b8152336004820152602481018390526001600160a01b039091169063a9059cbb906044016020604051808303815f875af1158015610cbb573d5f803e3d5ffd5b505050506040513d601f19601f82011682018060405250810190610cdf919061123d565b610cfb5760405162461bcd60e51b81526004016103e19061127c565b60405181815233907f75690555e75b04e280e646889defdcbefd8401507e5394d1173fd84290944c299060200160405180910390a250505061057160015f805160206112b983398151915255565b5f8054906101000a90046001600160a01b03166001600160a01b0316638da5cb5b6040518163ffffffff1660e01b8152600401602060405180830381865afa158015610d97573d5f803e3d5ffd5b505050506040513d601f19601f82011682018060405250810190610dbb919061129d565b6001600160a01b0316336001600160a01b031614610e075760405162461bcd60e51b81526020600482015260096024820152682737ba1037bbb732b960b91b60448201526064016103e1565b600380546001600160a01b0319166001600160a01b0392909216919091179055565b6001600160a01b0381165f90815260066020526040812080548203610e52576002015492915050565b60075460055415610eae575f60085442610e6c91906111db565b90505f60045482610e7d91906111f4565b600554909150610e9582670de0b6b3a76400006111f4565b610e9f919061120b565b610ea9908461122a565b925050505b60018201548254670de0b6b3a764000090610eca9084906111f4565b610ed4919061120b565b8360020154610ee3919061122a565b610eed91906111db565b949350505050565b610efd611129565b60025f805160206112b983398151915255565b8015611123576001600160a01b038416610f3d57604051631d5dec5760e21b815260040160405180910390fd5b5f846001600160a01b031663b0b5df6c6040518163ffffffff1660e01b8152600401602060405180830381865afa158015610f7a573d5f803e3d5ffd5b505050506040513d601f19601f82011682018060405250810190610f9e919061129d565b6040516323b872dd60e01b81526001600160a01b038581166004830152868116602483015260448201859052919250908216906323b872dd906064016020604051808303815f875af1158015610ff6573d5f803e3d5ffd5b505050506040513d601f19601f8201168201806040525081019061101a919061123d565b6110375760405163b180eb2560e01b815260040160405180910390fd5b60405163095ea7b360e01b81526001600160a01b0386811660048301526024820184905282169063095ea7b3906044016020604051808303815f875af1158015611083573d5f803e3d5ffd5b505050506040513d601f19601f820116820180604052508101906110a7919061123d565b6110c45760405163b180eb2560e01b815260040160405180910390fd5b6040516348fef59560e01b81526001600160a01b038281166004830152602482018490528616906348fef595906044015f604051808303815f87803b15801561110b575f80fd5b505af115801561111d573d5f803e3d5ffd5b50505050505b50505050565b5f805160206112b98339815191525460020361115857604051633ee5aeb560e01b815260040160405180910390fd5b565b6001600160a01b0381168114610571575f80fd5b5f6020828403121561117e575f80fd5b81356111898161115a565b9392505050565b5f602082840312156111a0575f80fd5b5035919050565b5f80604083850312156111b8575f80fd5b50508035926020909101359150565b634e487b7160e01b5f52601160045260245ffd5b818103818111156111ee576111ee6111c7565b92915050565b80820281158282048414176111ee576111ee6111c7565b5f8261122557634e487b7160e01b5f52601260045260245ffd5b500490565b808201808211156111ee576111ee6111c7565b5f6020828403121561124d575f80fd5b81518015158114611189575f80fd5b60208082526006908201526514185d5cd95960d21b604082015260600190565b60208082526007908201526615118819985a5b60ca1b604082015260600190565b5f602082840312156112ad575f80fd5b81516111898161115a56fe9b779b17422d0df92223018b32b4d1fa46e071723d6817e2486d003becc55f00a2646970667358221220987de653bc268544ba1fef0ad7c37603f976fc808f6b13e84145f34b43b3342564736f6c63430008180033","linkReferences":{}},"methodIdentifiers":{"accRewardPerShare()":"939d6237","admin()":"f851a440","claimReward(uint256)":"ae169a50","feeReceiver()":"b3f00674","lastUpdateTime()":"c8f33c91","lpToken()":"5fcbd285","pendingReward(address)":"f40f0f52","rewardPerSecond()":"8f10369a","rewardToken()":"f7c618c1","setFeeReceiver(address)":"efdcd974","setRewardPerSecond(uint256)":"66da5815","stake(uint256,uint256)":"7b0472f0","totalStaked()":"817b1cd2","unstake(uint256)":"2e17de78","userInfo(address)":"1959a002"},"id":19}