{"abi":[{"type":"constructor","inputs":[{"name":"_admin","type":"address","internalType":"address"},{"name":"_lpToken","type":"address","internalType":"address"},{"name":"_rewardToken","type":"address","internalType":"address"},{"name":"_rewardPerSecond","type":"uint256","internalType":"uint256"}],"stateMutability":"nonpayable"},{"type":"function","name":"MIN_REWARD_PER_SECOND","inputs":[],"outputs":[{"name":"","type":"uint256","internalType":"uint256"}],"stateMutability":"view"},{"type":"function","name":"accRewardPerShare","inputs":[],"outputs":[{"name":"","type":"uint256","internalType":"uint256"}],"stateMutability":"view"},{"type":"function","name":"admin","inputs":[],"outputs":[{"name":"","type":"address","internalType":"contract AdminManager"}],"stateMutability":"view"},{"type":"function","name":"claimReward","inputs":[{"name":"ionProtocolFee","type":"uint256","internalType":"uint256"}],"outputs":[],"stateMutability":"nonpayable"},{"type":"function","name":"feeReceiver","inputs":[],"outputs":[{"name":"","type":"address","internalType":"address"}],"stateMutability":"view"},{"type":"function","name":"lastUpdateTime","inputs":[],"outputs":[{"name":"","type":"uint256","internalType":"uint256"}],"stateMutability":"view"},{"type":"function","name":"lpToken","inputs":[],"outputs":[{"name":"","type":"address","internalType":"contract IERC20"}],"stateMutability":"view"},{"type":"function","name":"pendingReward","inputs":[{"name":"_user","type":"address","internalType":"address"}],"outputs":[{"name":"","type":"uint256","internalType":"uint256"}],"stateMutability":"view"},{"type":"function","name":"rewardPerSecond","inputs":[],"outputs":[{"name":"","type":"uint256","internalType":"uint256"}],"stateMutability":"view"},{"type":"function","name":"rewardToken","inputs":[],"outputs":[{"name":"","type":"address","internalType":"contract IERC20"}],"stateMutability":"view"},{"type":"function","name":"setFeeReceiver","inputs":[{"name":"_feeReceiver","type":"address","internalType":"address"}],"outputs":[],"stateMutability":"nonpayable"},{"type":"function","name":"setRewardPerSecond","inputs":[{"name":"_rewardPerSecond","type":"uint256","internalType":"uint256"}],"outputs":[],"stateMutability":"nonpayable"},{"type":"function","name":"stake","inputs":[{"name":"amount","type":"uint256","internalType":"uint256"},{"name":"ionProtocolFee","type":"uint256","internalType":"uint256"}],"outputs":[],"stateMutability":"nonpayable"},{"type":"function","name":"totalStaked","inputs":[],"outputs":[{"name":"","type":"uint256","internalType":"uint256"}],"stateMutability":"view"},{"type":"function","name":"unstake","inputs":[{"name":"amount","type":"uint256","internalType":"uint256"}],"outputs":[],"stateMutability":"nonpayable"},{"type":"function","name":"userInfo","inputs":[{"name":"","type":"address","internalType":"address"}],"outputs":[{"name":"stakeAmount","type":"uint256","internalType":"uint256"},{"name":"rewardDebt","type":"uint256","internalType":"uint256"},{"name":"pendingReward","type":"uint256","internalType":"uint256"}],"stateMutability":"view"},{"type":"event","name":"RewardClaim","inputs":[{"name":"user","type":"address","indexed":true,"internalType":"address"},{"name":"reward","type":"uint256","indexed":false,"internalType":"uint256"}],"anonymous":false},{"type":"event","name":"RewardRateSet","inputs":[{"name":"oldRate","type":"uint256","indexed":false,"internalType":"uint256"},{"name":"newRate","type":"uint256","indexed":false,"internalType":"uint256"}],"anonymous":false},{"type":"event","name":"Stake","inputs":[{"name":"user","type":"address","indexed":true,"internalType":"address"},{"name":"amount","type":"uint256","indexed":false,"internalType":"uint256"}],"anonymous":false},{"type":"event","name":"Unstake","inputs":[{"name":"user","type":"address","indexed":true,"internalType":"address"},{"name":"amount","type":"uint256","indexed":false,"internalType":"uint256"}],"anonymous":false},{"type":"error","name":"IonDexFeeReceiverNotSet","inputs":[]},{"type":"error","name":"IonDexInsufficientStake","inputs":[]},{"type":"error","name":"IonDexIonFeeTransferFailed","inputs":[]},{"type":"error","name":"IonDexNoReward","inputs":[]},{"type":"error","name":"IonDexUnauthorized","inputs":[]},{"type":"error","name":"IonDexZeroAmount","inputs":[]},{"type":"error","name":"ReentrancyGuardReentrantCall","inputs":[]}],"bytecode":{"object":"0x608060405234801562000010575f80fd5b506040516200141638038062001416833981016040819052620000339162000103565b60017f9b779b17422d0df92223018b32b4d1fa46e071723d6817e2486d003becc55f005560018110156200009e5760405162461bcd60e51b815260206004820152600e60248201526d52657761726420746f6f206c6f7760901b604482015260640160405180910390fd5b5f80546001600160a01b03199081166001600160a01b03968716179091556001805482169486169490941790935560028054909316919093161790556004554260085562000152565b80516001600160a01b0381168114620000fe575f80fd5b919050565b5f805f806080858703121562000117575f80fd5b6200012285620000e7565b93506200013260208601620000e7565b92506200014260408601620000e7565b6060959095015193969295505050565b6112b680620001605f395ff3fe608060405234801561000f575f80fd5b50600436106100fb575f3560e01c8063939d623711610093578063efdcd97411610063578063efdcd97414610213578063f40f0f5214610226578063f7c618c114610239578063f851a4401461024c575f80fd5b8063939d6237146101db578063ae169a50146101e4578063b3f00674146101f7578063c8f33c911461020a575f80fd5b806366da5815116100ce57806366da5815146101a35780637b0472f0146101b6578063817b1cd2146101c95780638f10369a146101d2575f80fd5b806302f604c8146100ff5780631959a0021461011a5780632e17de78146101635780635fcbd28514610178575b5f80fd5b610107600181565b6040519081526020015b60405180910390f35b610148610128366004611136565b60066020525f908152604090208054600182015460029092015490919083565b60408051938452602084019290925290820152606001610111565b610176610171366004611158565b61025e565b005b60015461018b906001600160a01b031681565b6040516001600160a01b039091168152602001610111565b6101766101b1366004611158565b610554565b6101766101c436600461116f565b61074e565b61010760055481565b61010760045481565b61010760075481565b6101766101f2366004611158565b610a56565b60035461018b906001600160a01b031681565b61010760085481565b610176610221366004611136565b610d11565b610107610234366004611136565b610dd6565b60025461018b906001600160a01b031681565b5f5461018b906001600160a01b031681565b610266610ebd565b6005543390156102ca575f6008544261027f91906111a3565b90505f6004548261029091906111bc565b6005549091506102a882670de0b6b3a76400006111bc565b6102b291906111d3565b60075f8282546102c291906111f2565b909155505050505b426008556001600160a01b03811615610355576001600160a01b0381165f9081526006602052604081206007548154919291670de0b6b3a76400009161030f916111bc565b61031991906111d3565b9050816001015481111561034e57600182015461033690826111a3565b826002015f82825461034891906111f2565b90915550505b6001909101555b5f8054906101000a90046001600160a01b03166001600160a01b0316635c975abb6040518163ffffffff1660e01b8152600401602060405180830381865afa1580156103a3573d5f803e3d5ffd5b505050506040513d601f19601f820116820180604052508101906103c79190611205565b156103e5576040516326392e5760e11b815260040160405180910390fd5b335f908152600660205260409020805483111561041557604051632f3ea3bb60e11b815260040160405180910390fd5b82815f015f82825461042791906111a3565b925050819055508260055f82825461043f91906111a3565b90915550506007548154670de0b6b3a76400009161045c916111bc565b61046691906111d3565b6001828101919091555460405163a9059cbb60e01b8152336004820152602481018590526001600160a01b039091169063a9059cbb906044016020604051808303815f875af11580156104bb573d5f803e3d5ffd5b505050506040513d601f19601f820116820180604052508101906104df9190611205565b6105045760405162461bcd60e51b81526004016104fb90611224565b60405180910390fd5b60405183815233907f85082129d87b2fe11527cb1b3b7a520aeb5aa6913f88a3d8757fe40d1db02fdd9060200160405180910390a2505061055160015f8051602061126183398151915255565b50565b6005545f90156105b8575f6008544261056d91906111a3565b90505f6004548261057e91906111bc565b60055490915061059682670de0b6b3a76400006111bc565b6105a091906111d3565b60075f8282546105b091906111f2565b909155505050505b426008556001600160a01b03811615610643576001600160a01b0381165f9081526006602052604081206007548154919291670de0b6b3a7640000916105fd916111bc565b61060791906111d3565b9050816001015481111561063c57600182015461062490826111a3565b826002015f82825461063691906111f2565b90915550505b6001909101555b5f8054906101000a90046001600160a01b03166001600160a01b0316638da5cb5b6040518163ffffffff1660e01b8152600401602060405180830381865afa158015610691573d5f803e3d5ffd5b505050506040513d601f19601f820116820180604052508101906106b59190611245565b6001600160a01b0316336001600160a01b0316146106e6576040516326392e5760e11b815260040160405180910390fd5b6001821015610708576040516377b0874f60e11b815260040160405180910390fd5b600480549083905560408051828152602081018590527f45e1b857394f54806156e6c3c35b79213af3de735bf9b1832622d802aa5ff918910160405180910390a1505050565b610756610ebd565b6005543390156107ba575f6008544261076f91906111a3565b90505f6004548261078091906111bc565b60055490915061079882670de0b6b3a76400006111bc565b6107a291906111d3565b60075f8282546107b291906111f2565b909155505050505b426008556001600160a01b03811615610845576001600160a01b0381165f9081526006602052604081206007548154919291670de0b6b3a7640000916107ff916111bc565b61080991906111d3565b9050816001015481111561083e57600182015461082690826111a3565b826002015f82825461083891906111f2565b90915550505b6001909101555b5f8054906101000a90046001600160a01b03166001600160a01b0316635c975abb6040518163ffffffff1660e01b8152600401602060405180830381865afa158015610893573d5f803e3d5ffd5b505050506040513d601f19601f820116820180604052508101906108b79190611205565b156108d5576040516326392e5760e11b815260040160405180910390fd5b825f036108f5576040516377b0874f60e11b815260040160405180910390fd5b60035461090d906001600160a01b0316303385610ed8565b6001546040516323b872dd60e01b8152336004820152306024820152604481018590526001600160a01b03909116906323b872dd906064016020604051808303815f875af1158015610961573d5f803e3d5ffd5b505050506040513d601f19601f820116820180604052508101906109859190611205565b6109a15760405162461bcd60e51b81526004016104fb90611224565b8260055f8282546109b291906111f2565b9091555050335f9081526006602052604081208054909185918391906109d99084906111f2565b90915550506007548154670de0b6b3a7640000916109f6916111bc565b610a0091906111d3565b600182015560405184815233907febedb8b3c678666e7f36970bc8f57abf6d8fa2e828c0da91ea5b75bf68ed101a9060200160405180910390a25050610a5260015f8051602061126183398151915255565b5050565b610a5e610ebd565b600554339015610ac2575f60085442610a7791906111a3565b90505f60045482610a8891906111bc565b600554909150610aa082670de0b6b3a76400006111bc565b610aaa91906111d3565b60075f828254610aba91906111f2565b909155505050505b426008556001600160a01b03811615610b4d576001600160a01b0381165f9081526006602052604081206007548154919291670de0b6b3a764000091610b07916111bc565b610b1191906111d3565b90508160010154811115610b46576001820154610b2e90826111a3565b826002015f828254610b4091906111f2565b90915550505b6001909101555b5f8054906101000a90046001600160a01b03166001600160a01b0316635c975abb6040518163ffffffff1660e01b8152600401602060405180830381865afa158015610b9b573d5f803e3d5ffd5b505050506040513d601f19601f82011682018060405250810190610bbf9190611205565b15610bdd576040516326392e5760e11b815260040160405180910390fd5b600354610bf5906001600160a01b0316303385610ed8565b335f90815260066020526040812060028101549091819003610c2d57604051600162fd2e7d60e01b0319815260040160405180910390fd5b5f6002838101919091555460405163a9059cbb60e01b8152336004820152602481018390526001600160a01b039091169063a9059cbb906044016020604051808303815f875af1158015610c83573d5f803e3d5ffd5b505050506040513d601f19601f82011682018060405250810190610ca79190611205565b610cc35760405162461bcd60e51b81526004016104fb90611224565b60405181815233907f75690555e75b04e280e646889defdcbefd8401507e5394d1173fd84290944c299060200160405180910390a250505061055160015f8051602061126183398151915255565b5f8054906101000a90046001600160a01b03166001600160a01b0316638da5cb5b6040518163ffffffff1660e01b8152600401602060405180830381865afa158015610d5f573d5f803e3d5ffd5b505050506040513d601f19601f82011682018060405250810190610d839190611245565b6001600160a01b0316336001600160a01b031614610db4576040516326392e5760e11b815260040160405180910390fd5b600380546001600160a01b0319166001600160a01b0392909216919091179055565b6001600160a01b0381165f90815260066020526040812080548203610dff576002015492915050565b60075460055415610e5b575f60085442610e1991906111a3565b90505f60045482610e2a91906111bc565b600554909150610e4282670de0b6b3a76400006111bc565b610e4c91906111d3565b610e5690846111f2565b925050505b5f670de0b6b3a764000082845f0154610e7491906111bc565b610e7e91906111d3565b90505f83600101548211610e92575f610ea1565b6001840154610ea190836111a3565b9050808460020154610eb391906111f2565b9695505050505050565b610ec56110f1565b60025f8051602061126183398151915255565b80156110eb576001600160a01b038416610f0557604051631d5dec5760e21b815260040160405180910390fd5b5f846001600160a01b031663b0b5df6c6040518163ffffffff1660e01b8152600401602060405180830381865afa158015610f42573d5f803e3d5ffd5b505050506040513d601f19601f82011682018060405250810190610f669190611245565b6040516323b872dd60e01b81526001600160a01b038581166004830152868116602483015260448201859052919250908216906323b872dd906064016020604051808303815f875af1158015610fbe573d5f803e3d5ffd5b505050506040513d601f19601f82011682018060405250810190610fe29190611205565b610fff5760405163b180eb2560e01b815260040160405180910390fd5b60405163095ea7b360e01b81526001600160a01b0386811660048301526024820184905282169063095ea7b3906044016020604051808303815f875af115801561104b573d5f803e3d5ffd5b505050506040513d601f19601f8201168201806040525081019061106f9190611205565b61108c5760405163b180eb2560e01b815260040160405180910390fd5b6040516348fef59560e01b81526001600160a01b038281166004830152602482018490528616906348fef595906044015f604051808303815f87803b1580156110d3575f80fd5b505af11580156110e5573d5f803e3d5ffd5b50505050505b50505050565b5f805160206112618339815191525460020361112057604051633ee5aeb560e01b815260040160405180910390fd5b565b6001600160a01b0381168114610551575f80fd5b5f60208284031215611146575f80fd5b813561115181611122565b9392505050565b5f60208284031215611168575f80fd5b5035919050565b5f8060408385031215611180575f80fd5b50508035926020909101359150565b634e487b7160e01b5f52601160045260245ffd5b818103818111156111b6576111b661118f565b92915050565b80820281158282048414176111b6576111b661118f565b5f826111ed57634e487b7160e01b5f52601260045260245ffd5b500490565b808201808211156111b6576111b661118f565b5f60208284031215611215575f80fd5b81518015158114611151575f80fd5b60208082526007908201526615118819985a5b60ca1b604082015260600190565b5f60208284031215611255575f80fd5b81516111518161112256fe9b779b17422d0df92223018b32b4d1fa46e071723d6817e2486d003becc55f00a26469706673582212209b5628ee5359fba2d7f8e133f1857e75ade75ee040b7c83cad6eef9dcb92cdfe64736f6c63430008180033","linkReferences":{}},"methodIdentifiers":{"MIN_REWARD_PER_SECOND()":"02f604c8","accRewardPerShare()":"939d6237","admin()":"f851a440","claimReward(uint256)":"ae169a50","feeReceiver()":"b3f00674","lastUpdateTime()":"c8f33c91","lpToken()":"5fcbd285","pendingReward(address)":"f40f0f52","rewardPerSecond()":"8f10369a","rewardToken()":"f7c618c1","setFeeReceiver(address)":"efdcd974","setRewardPerSecond(uint256)":"66da5815","stake(uint256,uint256)":"7b0472f0","totalStaked()":"817b1cd2","unstake(uint256)":"2e17de78","userInfo(address)":"1959a002"},"id":26}