{"abi":[{"type":"constructor","inputs":[{"name":"_admin","type":"address","internalType":"address"},{"name":"_lpToken","type":"address","internalType":"address"},{"name":"_rewardToken","type":"address","internalType":"address"},{"name":"_rewardPerSecond","type":"uint256","internalType":"uint256"}],"stateMutability":"nonpayable"},{"type":"function","name":"accRewardPerShare","inputs":[],"outputs":[{"name":"","type":"uint256","internalType":"uint256"}],"stateMutability":"view"},{"type":"function","name":"admin","inputs":[],"outputs":[{"name":"","type":"address","internalType":"contract AdminManager"}],"stateMutability":"view"},{"type":"function","name":"claimReward","inputs":[],"outputs":[],"stateMutability":"nonpayable"},{"type":"function","name":"lastUpdateTime","inputs":[],"outputs":[{"name":"","type":"uint256","internalType":"uint256"}],"stateMutability":"view"},{"type":"function","name":"lpToken","inputs":[],"outputs":[{"name":"","type":"address","internalType":"contract IERC20"}],"stateMutability":"view"},{"type":"function","name":"pendingReward","inputs":[{"name":"_user","type":"address","internalType":"address"}],"outputs":[{"name":"","type":"uint256","internalType":"uint256"}],"stateMutability":"view"},{"type":"function","name":"rewardPerSecond","inputs":[],"outputs":[{"name":"","type":"uint256","internalType":"uint256"}],"stateMutability":"view"},{"type":"function","name":"rewardToken","inputs":[],"outputs":[{"name":"","type":"address","internalType":"contract IERC20"}],"stateMutability":"view"},{"type":"function","name":"setRewardPerSecond","inputs":[{"name":"_rewardPerSecond","type":"uint256","internalType":"uint256"}],"outputs":[],"stateMutability":"nonpayable"},{"type":"function","name":"stake","inputs":[{"name":"amount","type":"uint256","internalType":"uint256"}],"outputs":[],"stateMutability":"nonpayable"},{"type":"function","name":"totalStaked","inputs":[],"outputs":[{"name":"","type":"uint256","internalType":"uint256"}],"stateMutability":"view"},{"type":"function","name":"unstake","inputs":[{"name":"amount","type":"uint256","internalType":"uint256"}],"outputs":[],"stateMutability":"nonpayable"},{"type":"function","name":"userInfo","inputs":[{"name":"","type":"address","internalType":"address"}],"outputs":[{"name":"stakeAmount","type":"uint256","internalType":"uint256"},{"name":"rewardDebt","type":"uint256","internalType":"uint256"},{"name":"pendingReward","type":"uint256","internalType":"uint256"}],"stateMutability":"view"},{"type":"event","name":"RewardClaim","inputs":[{"name":"user","type":"address","indexed":true,"internalType":"address"},{"name":"reward","type":"uint256","indexed":false,"internalType":"uint256"}],"anonymous":false},{"type":"event","name":"Stake","inputs":[{"name":"user","type":"address","indexed":true,"internalType":"address"},{"name":"amount","type":"uint256","indexed":false,"internalType":"uint256"}],"anonymous":false},{"type":"event","name":"Unstake","inputs":[{"name":"user","type":"address","indexed":true,"internalType":"address"},{"name":"amount","type":"uint256","indexed":false,"internalType":"uint256"}],"anonymous":false},{"type":"error","name":"ReentrancyGuardReentrantCall","inputs":[]}],"bytecode":{"object":"0x608060405234801561000f575f80fd5b5060405161105b38038061105b83398101604081905261002e916100b5565b60017f9b779b17422d0df92223018b32b4d1fa46e071723d6817e2486d003becc55f00555f80546001600160a01b03199081166001600160a01b0396871617909155600180548216948616949094179093556002805490931691909316179055600355426007556100fd565b80516001600160a01b03811681146100b0575f80fd5b919050565b5f805f80608085870312156100c8575f80fd5b6100d18561009a565b93506100df6020860161009a565b92506100ed6040860161009a565b6060959095015193969295505050565b610f518061010a5f395ff3fe608060405234801561000f575f80fd5b50600436106100cb575f3560e01c8063939d623711610088578063c8f33c9111610063578063c8f33c91146101b4578063f40f0f52146101bd578063f7c618c1146101d0578063f851a440146101e3575f80fd5b8063939d623714610190578063a694fc3a14610199578063b88a802f146101ac575f80fd5b80631959a002146100cf5780632e17de781461011d5780635fcbd2851461013257806366da58151461015d578063817b1cd2146101705780638f10369a14610187575b5f80fd5b6100fd6100dd366004610dd1565b60056020525f908152604090208054600182015460029092015490919083565b604080519384526020840192909252908201526060015b60405180910390f35b61013061012b366004610df3565b6101f5565b005b600154610145906001600160a01b031681565b6040516001600160a01b039091168152602001610114565b61013061016b366004610df3565b61051f565b61017960045481565b604051908152602001610114565b61017960035481565b61017960065481565b6101306101a7366004610df3565b6106e2565b6101306109df565b61017960075481565b6101796101cb366004610dd1565b610ca7565b600254610145906001600160a01b031681565b5f54610145906001600160a01b031681565b6101fd610d73565b600454339015610261575f600754426102169190610e1e565b90505f600354826102279190610e37565b60045490915061023f82670de0b6b3a7640000610e37565b6102499190610e4e565b60065f8282546102599190610e6d565b909155505050505b426007556001600160a01b038116156102fc576001600160a01b0381165f90815260056020526040902060018101546006548254670de0b6b3a7640000916102a891610e37565b6102b29190610e4e565b6102bc9190610e1e565b816002015f8282546102ce9190610e6d565b90915550506006548154670de0b6b3a7640000916102eb91610e37565b6102f59190610e4e565b6001909101555b5f8054906101000a90046001600160a01b03166001600160a01b0316635c975abb6040518163ffffffff1660e01b8152600401602060405180830381865afa15801561034a573d5f803e3d5ffd5b505050506040513d601f19601f8201168201806040525081019061036e9190610e80565b156103945760405162461bcd60e51b815260040161038b90610e9f565b60405180910390fd5b335f90815260056020526040902080548311156103e85760405162461bcd60e51b8152602060048201526012602482015271496e73756666696369656e74207374616b6560701b604482015260640161038b565b82815f015f8282546103fa9190610e1e565b925050819055508260045f8282546104129190610e1e565b90915550506006548154670de0b6b3a76400009161042f91610e37565b6104399190610e4e565b6001828101919091555460405163a9059cbb60e01b8152336004820152602481018590526001600160a01b039091169063a9059cbb906044016020604051808303815f875af115801561048e573d5f803e3d5ffd5b505050506040513d601f19601f820116820180604052508101906104b29190610e80565b6104ce5760405162461bcd60e51b815260040161038b90610ebf565b60405183815233907f85082129d87b2fe11527cb1b3b7a520aeb5aa6913f88a3d8757fe40d1db02fdd906020015b60405180910390a2505061051c60015f80516020610efc83398151915255565b50565b6004545f9015610583575f600754426105389190610e1e565b90505f600354826105499190610e37565b60045490915061056182670de0b6b3a7640000610e37565b61056b9190610e4e565b60065f82825461057b9190610e6d565b909155505050505b426007556001600160a01b0381161561061e576001600160a01b0381165f90815260056020526040902060018101546006548254670de0b6b3a7640000916105ca91610e37565b6105d49190610e4e565b6105de9190610e1e565b816002015f8282546105f09190610e6d565b90915550506006548154670de0b6b3a76400009161060d91610e37565b6106179190610e4e565b6001909101555b5f8054906101000a90046001600160a01b03166001600160a01b0316638da5cb5b6040518163ffffffff1660e01b8152600401602060405180830381865afa15801561066c573d5f803e3d5ffd5b505050506040513d601f19601f820116820180604052508101906106909190610ee0565b6001600160a01b0316336001600160a01b0316146106dc5760405162461bcd60e51b81526020600482015260096024820152682737ba1037bbb732b960b91b604482015260640161038b565b50600355565b6106ea610d73565b60045433901561074e575f600754426107039190610e1e565b90505f600354826107149190610e37565b60045490915061072c82670de0b6b3a7640000610e37565b6107369190610e4e565b60065f8282546107469190610e6d565b909155505050505b426007556001600160a01b038116156107e9576001600160a01b0381165f90815260056020526040902060018101546006548254670de0b6b3a76400009161079591610e37565b61079f9190610e4e565b6107a99190610e1e565b816002015f8282546107bb9190610e6d565b90915550506006548154670de0b6b3a7640000916107d891610e37565b6107e29190610e4e565b6001909101555b5f8054906101000a90046001600160a01b03166001600160a01b0316635c975abb6040518163ffffffff1660e01b8152600401602060405180830381865afa158015610837573d5f803e3d5ffd5b505050506040513d601f19601f8201168201806040525081019061085b9190610e80565b156108785760405162461bcd60e51b815260040161038b90610e9f565b5f82116108b55760405162461bcd60e51b815260206004820152600b60248201526a416d6f756e74207a65726f60a81b604482015260640161038b565b6001546040516323b872dd60e01b8152336004820152306024820152604481018490526001600160a01b03909116906323b872dd906064016020604051808303815f875af1158015610909573d5f803e3d5ffd5b505050506040513d601f19601f8201168201806040525081019061092d9190610e80565b6109495760405162461bcd60e51b815260040161038b90610ebf565b8160045f82825461095a9190610e6d565b9091555050335f908152600560205260408120805490918491839190610981908490610e6d565b90915550506006548154670de0b6b3a76400009161099e91610e37565b6109a89190610e4e565b600182015560405183815233907febedb8b3c678666e7f36970bc8f57abf6d8fa2e828c0da91ea5b75bf68ed101a906020016104fc565b6109e7610d73565b600454339015610a4b575f60075442610a009190610e1e565b90505f60035482610a119190610e37565b600454909150610a2982670de0b6b3a7640000610e37565b610a339190610e4e565b60065f828254610a439190610e6d565b909155505050505b426007556001600160a01b03811615610ae6576001600160a01b0381165f90815260056020526040902060018101546006548254670de0b6b3a764000091610a9291610e37565b610a9c9190610e4e565b610aa69190610e1e565b816002015f828254610ab89190610e6d565b90915550506006548154670de0b6b3a764000091610ad591610e37565b610adf9190610e4e565b6001909101555b5f8054906101000a90046001600160a01b03166001600160a01b0316635c975abb6040518163ffffffff1660e01b8152600401602060405180830381865afa158015610b34573d5f803e3d5ffd5b505050506040513d601f19601f82011682018060405250810190610b589190610e80565b15610b755760405162461bcd60e51b815260040161038b90610e9f565b335f908152600560205260409020600281015480610bc15760405162461bcd60e51b8152602060048201526009602482015268139bc81c995dd85c9960ba1b604482015260640161038b565b5f6002838101919091555460405163a9059cbb60e01b8152336004820152602481018390526001600160a01b039091169063a9059cbb906044016020604051808303815f875af1158015610c17573d5f803e3d5ffd5b505050506040513d601f19601f82011682018060405250810190610c3b9190610e80565b610c575760405162461bcd60e51b815260040161038b90610ebf565b60405181815233907f75690555e75b04e280e646889defdcbefd8401507e5394d1173fd84290944c299060200160405180910390a2505050610ca560015f80516020610efc83398151915255565b565b6001600160a01b0381165f90815260056020526040812080548203610cd0576002015492915050565b60065460045415610d2c575f60075442610cea9190610e1e565b90505f60035482610cfb9190610e37565b600454909150610d1382670de0b6b3a7640000610e37565b610d1d9190610e4e565b610d279084610e6d565b925050505b60018201548254670de0b6b3a764000090610d48908490610e37565b610d529190610e4e565b8360020154610d619190610e6d565b610d6b9190610e1e565b949350505050565b610d7b610d8e565b60025f80516020610efc83398151915255565b5f80516020610efc83398151915254600203610ca557604051633ee5aeb560e01b815260040160405180910390fd5b6001600160a01b038116811461051c575f80fd5b5f60208284031215610de1575f80fd5b8135610dec81610dbd565b9392505050565b5f60208284031215610e03575f80fd5b5035919050565b634e487b7160e01b5f52601160045260245ffd5b81810381811115610e3157610e31610e0a565b92915050565b8082028115828204841417610e3157610e31610e0a565b5f82610e6857634e487b7160e01b5f52601260045260245ffd5b500490565b80820180821115610e3157610e31610e0a565b5f60208284031215610e90575f80fd5b81518015158114610dec575f80fd5b60208082526006908201526514185d5cd95960d21b604082015260600190565b60208082526007908201526615118819985a5b60ca1b604082015260600190565b5f60208284031215610ef0575f80fd5b8151610dec81610dbd56fe9b779b17422d0df92223018b32b4d1fa46e071723d6817e2486d003becc55f00a2646970667358221220b206e18e13d2adaa21505c2c4a70bfd7635c6d587648301583e571ccc6754c3c64736f6c63430008180033","linkReferences":{}},"methodIdentifiers":{"accRewardPerShare()":"939d6237","admin()":"f851a440","claimReward()":"b88a802f","lastUpdateTime()":"c8f33c91","lpToken()":"5fcbd285","pendingReward(address)":"f40f0f52","rewardPerSecond()":"8f10369a","rewardToken()":"f7c618c1","setRewardPerSecond(uint256)":"66da5815","stake(uint256)":"a694fc3a","totalStaked()":"817b1cd2","unstake(uint256)":"2e17de78","userInfo(address)":"1959a002"},"id":14}