{"abi":[{"type":"constructor","inputs":[{"name":"owner_","type":"address","internalType":"address"},{"name":"vault_","type":"address","internalType":"address"},{"name":"quorum_","type":"uint8","internalType":"uint8"}],"stateMutability":"nonpayable"},{"type":"function","name":"MAX_RELAYERS","inputs":[],"outputs":[{"name":"","type":"uint256","internalType":"uint256"}],"stateMutability":"view"},{"type":"function","name":"addRelayer","inputs":[{"name":"relayer","type":"address","internalType":"address"}],"outputs":[],"stateMutability":"nonpayable"},{"type":"function","name":"attestInbound","inputs":[{"name":"nonce","type":"bytes32","internalType":"bytes32"},{"name":"token","type":"address","internalType":"address"},{"name":"user","type":"address","internalType":"address"},{"name":"amount","type":"uint256","internalType":"uint256"}],"outputs":[],"stateMutability":"nonpayable"},{"type":"function","name":"attestationCount","inputs":[{"name":"","type":"bytes32","internalType":"bytes32"}],"outputs":[{"name":"","type":"uint8","internalType":"uint8"}],"stateMutability":"view"},{"type":"function","name":"attestationMask","inputs":[{"name":"","type":"bytes32","internalType":"bytes32"}],"outputs":[{"name":"","type":"uint256","internalType":"uint256"}],"stateMutability":"view"},{"type":"function","name":"consumedNonce","inputs":[{"name":"","type":"bytes32","internalType":"bytes32"}],"outputs":[{"name":"","type":"bool","internalType":"bool"}],"stateMutability":"view"},{"type":"function","name":"isRelayer","inputs":[{"name":"","type":"address","internalType":"address"}],"outputs":[{"name":"","type":"bool","internalType":"bool"}],"stateMutability":"view"},{"type":"function","name":"nonceParamHash","inputs":[{"name":"","type":"bytes32","internalType":"bytes32"}],"outputs":[{"name":"","type":"bytes32","internalType":"bytes32"}],"stateMutability":"view"},{"type":"function","name":"owner","inputs":[],"outputs":[{"name":"","type":"address","internalType":"address"}],"stateMutability":"view"},{"type":"function","name":"quorum","inputs":[],"outputs":[{"name":"","type":"uint8","internalType":"uint8"}],"stateMutability":"view"},{"type":"function","name":"relayerCount","inputs":[],"outputs":[{"name":"","type":"uint256","internalType":"uint256"}],"stateMutability":"view"},{"type":"function","name":"relayerList","inputs":[{"name":"","type":"uint256","internalType":"uint256"}],"outputs":[{"name":"","type":"address","internalType":"address"}],"stateMutability":"view"},{"type":"function","name":"removeRelayer","inputs":[{"name":"relayer","type":"address","internalType":"address"}],"outputs":[],"stateMutability":"nonpayable"},{"type":"function","name":"setQuorum","inputs":[{"name":"quorum_","type":"uint8","internalType":"uint8"}],"outputs":[],"stateMutability":"nonpayable"},{"type":"function","name":"setVault","inputs":[{"name":"vault_","type":"address","internalType":"address"}],"outputs":[],"stateMutability":"nonpayable"},{"type":"function","name":"vault","inputs":[],"outputs":[{"name":"","type":"address","internalType":"address"}],"stateMutability":"view"},{"type":"event","name":"AttestationRecorded","inputs":[{"name":"nonce","type":"bytes32","indexed":true,"internalType":"bytes32"},{"name":"relayer","type":"address","indexed":true,"internalType":"address"},{"name":"count","type":"uint8","indexed":false,"internalType":"uint8"}],"anonymous":false},{"type":"event","name":"MessageRelayed","inputs":[{"name":"nonce","type":"bytes32","indexed":true,"internalType":"bytes32"},{"name":"token","type":"address","indexed":true,"internalType":"address"},{"name":"user","type":"address","indexed":true,"internalType":"address"},{"name":"amount","type":"uint256","indexed":false,"internalType":"uint256"},{"name":"releaseId","type":"bytes32","indexed":false,"internalType":"bytes32"}],"anonymous":false},{"type":"event","name":"QuorumUpdated","inputs":[{"name":"quorum","type":"uint8","indexed":false,"internalType":"uint8"}],"anonymous":false},{"type":"event","name":"RelayerAdded","inputs":[{"name":"relayer","type":"address","indexed":true,"internalType":"address"},{"name":"index","type":"uint8","indexed":false,"internalType":"uint8"}],"anonymous":false},{"type":"event","name":"RelayerRemoved","inputs":[{"name":"relayer","type":"address","indexed":true,"internalType":"address"}],"anonymous":false},{"type":"error","name":"IonDexDuplicateNonce","inputs":[]},{"type":"error","name":"IonDexInvalidQuorum","inputs":[]},{"type":"error","name":"IonDexParamMismatch","inputs":[]},{"type":"error","name":"IonDexQuorumNotMet","inputs":[{"name":"attestations","type":"uint256","internalType":"uint256"},{"name":"required","type":"uint256","internalType":"uint256"}]},{"type":"error","name":"IonDexUnauthorized","inputs":[]},{"type":"error","name":"IonDexZeroAddress","inputs":[]},{"type":"error","name":"IonDexZeroAmount","inputs":[]},{"type":"error","name":"ReentrancyGuardReentrantCall","inputs":[]}],"bytecode":{"object":"0x608060405234801561000f575f80fd5b50604051610ea3380380610ea383398101604081905261002e91610128565b82828260017f9b779b17422d0df92223018b32b4d1fa46e071723d6817e2486d003becc55f00556001600160a01b038316158061007257506001600160a01b038216155b15610090576040516394844c1960e01b815260040160405180910390fd5b60ff811615806100a3575060208160ff16115b156100c1576040516373c2724160e01b815260040160405180910390fd5b5f80546001600160a01b039485166001600160a01b03199091161790556001805460ff909216600160a01b026001600160a81b0319909216929093169190911717905550610171915050565b80516001600160a01b0381168114610123575f80fd5b919050565b5f805f6060848603121561013a575f80fd5b6101438461010d565b92506101516020850161010d565b9150604084015160ff81168114610166575f80fd5b809150509250925092565b610d258061017e5f395ff3fe608060405234801561000f575f80fd5b50600436106100fb575f3560e01c80638da5cb5b11610093578063d65ddd5211610063578063d65ddd5214610246578063dd39f00d14610268578063eb4437d51461027b578063fbfa77cf1461029a575f80fd5b80638da5cb5b146101f75780639debb3bd14610209578063cc31cba01461021f578063cf1a7a211461023e575f80fd5b80636817031b116100ce5780636817031b1461019c5780636a2b6bdd146101af5780636dcab78f146101c257806381c5de3c146101d5575f80fd5b806311162be7146100ff5780631703a0181461012f578063541d55481461015557806360f0a5ac14610187575b5f80fd5b61011261010d366004610bce565b6102ad565b6040516001600160a01b0390911681526020015b60405180910390f35b60015461014390600160a01b900460ff1681565b60405160ff9091168152602001610126565b610177610163366004610c00565b60036020525f908152604090205460ff1681565b6040519015158152602001610126565b61019a610195366004610c00565b6102d5565b005b61019a6101aa366004610c00565b6104f8565b61019a6101bd366004610c20565b61056b565b61019a6101d0366004610c61565b6108db565b6101776101e3366004610bce565b60046020525f908152604090205460ff1681565b5f54610112906001600160a01b031681565b610211602081565b604051908152602001610126565b61021161022d366004610bce565b60056020525f908152604090205481565b600254610211565b610143610254366004610bce565b60066020525f908152604090205460ff1681565b61019a610276366004610c00565b61098f565b610211610289366004610bce565b60076020525f908152604090205481565b600154610112906001600160a01b031681565b600281815481106102bc575f80fd5b5f918252602090912001546001600160a01b0316905081565b5f546001600160a01b031633146102ff576040516326392e5760e11b815260040160405180910390fd5b6001600160a01b0381165f9081526003602052604090205460ff16610337576040516326392e5760e11b815260040160405180910390fd5b6001600160a01b0381165f908152600360205260408120805460ff191690555b60025481101561044b57816001600160a01b03166002828154811061037e5761037e610c81565b5f918252602090912001546001600160a01b03160361044357600280546103a790600190610ca9565b815481106103b7576103b7610c81565b5f91825260209091200154600280546001600160a01b0390921691839081106103e2576103e2610c81565b905f5260205f20015f6101000a8154816001600160a01b0302191690836001600160a01b03160217905550600280548061041e5761041e610cc2565b5f8281526020902081015f1990810180546001600160a01b031916905501905561044b565b600101610357565b5060025460015460ff918216600160a01b90910490911611156104c2576002546001805460ff60a01b1916600160a01b60ff93841681029190911791829055604051910490911681527f209c836d424319a2cc9b1b388a1938ffe724afa8b94ffc505b26f908dff40e909060200160405180910390a15b6040516001600160a01b038216907f10e1f7ce9fd7d1b90a66d13a2ab3cb8dd7f29f3f8d520b143b063ccfbab6906b905f90a250565b5f546001600160a01b03163314610522576040516326392e5760e11b815260040160405180910390fd5b6001600160a01b038116610549576040516394844c1960e01b815260040160405180910390fd5b600180546001600160a01b0319166001600160a01b0392909216919091179055565b610573610ae7565b335f9081526003602052604090205460ff166105a2576040516326392e5760e11b815260040160405180910390fd5b6001600160a01b03831615806105bf57506001600160a01b038216155b156105dd576040516394844c1960e01b815260040160405180910390fd5b805f036105fd576040516377b0874f60e11b815260040160405180910390fd5b8361061b576040516394844c1960e01b815260040160405180910390fd5b5f8481526004602052604090205460ff161561064a57604051631a2b4e0f60e21b815260040160405180910390fd5b6040516bffffffffffffffffffffffff19606085811b8216602084015284901b166034820152604881018290525f9060680160408051601f1981840301815291815281516020928301205f8881526007909352912054909150806106bd575f8681526007602052604090208290556106dd565b8181146106dd57604051631a7fa8e560e21b815260040160405180910390fd5b5f6106e733610b15565b5f88815260056020526040902054909150600160ff83161b81161561071f576040516326392e5760e11b815260040160405180910390fd5b5f888152600560209081526040808320600160ff80881682901b871790925560069093529083205461075392911690610cd6565b5f8a815260066020908152604091829020805460ff191660ff8516908117909155915191825291925033918b917fbff0e9bcc67b21272c08afd6ead7e97b5807f5a46903ff43c73bab7b8bb8ed9b910160405180910390a360015460ff600160a01b9091048116908216106108a7575f89815260046020819052604091829020805460ff19166001908117909155549151631183e92160e21b81526001600160a01b038b811692820192909252898216602482015260448101899052606481018c905291169063460fa484906084015f604051808303815f87803b158015610839575f80fd5b505af115801561084b573d5f803e3d5ffd5b50505050866001600160a01b0316886001600160a01b03168a7f0df0e82148913a096f5f37939ed88a786bf72ba2cf8bc66a582ddc1dea243118898d60405161089e929190918252602082015260400190565b60405180910390a45b50505050506108d560017f9b779b17422d0df92223018b32b4d1fa46e071723d6817e2486d003becc55f0055565b50505050565b5f546001600160a01b03163314610905576040516326392e5760e11b815260040160405180910390fd5b60ff8116158061091d575060025460ff908116908216115b1561093b576040516373c2724160e01b815260040160405180910390fd5b6001805460ff60a01b1916600160a01b60ff8416908102919091179091556040519081527f209c836d424319a2cc9b1b388a1938ffe724afa8b94ffc505b26f908dff40e909060200160405180910390a150565b5f546001600160a01b031633146109b9576040516326392e5760e11b815260040160405180910390fd5b6001600160a01b0381166109e0576040516394844c1960e01b815260040160405180910390fd5b6001600160a01b0381165f9081526003602052604090205460ff1615610a19576040516326392e5760e11b815260040160405180910390fd5b600254602011610a3c576040516373c2724160e01b815260040160405180910390fd5b6001600160a01b0381165f818152600360205260408120805460ff19166001908117909155600280548083018255928190527f405787fa12a823e0f2b7631cc41b3ba8828b3321ca811111fa75cd3aa3bb5ace90920180546001600160a01b0319168417905590547fff5a8cb7dc7b04674b0196576f501e01359249f418292d9734890bf1b2bcf46791610acf91610ca9565b60405160ff909116815260200160405180910390a250565b610aef610b8a565b60027f9b779b17422d0df92223018b32b4d1fa46e071723d6817e2486d003becc55f0055565b5f805b60025460ff9081169082161015610b7057826001600160a01b031660028260ff1681548110610b4957610b49610c81565b5f918252602090912001546001600160a01b031603610b685792915050565b600101610b18565b506040516326392e5760e11b815260040160405180910390fd5b7f9b779b17422d0df92223018b32b4d1fa46e071723d6817e2486d003becc55f0054600203610bcc57604051633ee5aeb560e01b815260040160405180910390fd5b565b5f60208284031215610bde575f80fd5b5035919050565b80356001600160a01b0381168114610bfb575f80fd5b919050565b5f60208284031215610c10575f80fd5b610c1982610be5565b9392505050565b5f805f8060808587031215610c33575f80fd5b84359350610c4360208601610be5565b9250610c5160408601610be5565b9396929550929360600135925050565b5f60208284031215610c71575f80fd5b813560ff81168114610c19575f80fd5b634e487b7160e01b5f52603260045260245ffd5b634e487b7160e01b5f52601160045260245ffd5b81810381811115610cbc57610cbc610c95565b92915050565b634e487b7160e01b5f52603160045260245ffd5b60ff8181168382160190811115610cbc57610cbc610c9556fea26469706673582212209ab508a43572bfa41bac2fb95679330e9a2f3c1e974e053b8f4b06b3cca70eaf64736f6c63430008180033","linkReferences":{}},"methodIdentifiers":{"MAX_RELAYERS()":"9debb3bd","addRelayer(address)":"dd39f00d","attestInbound(bytes32,address,address,uint256)":"6a2b6bdd","attestationCount(bytes32)":"d65ddd52","attestationMask(bytes32)":"cc31cba0","consumedNonce(bytes32)":"81c5de3c","isRelayer(address)":"541d5548","nonceParamHash(bytes32)":"eb4437d5","owner()":"8da5cb5b","quorum()":"1703a018","relayerCount()":"cf1a7a21","relayerList(uint256)":"11162be7","removeRelayer(address)":"60f0a5ac","setQuorum(uint8)":"6dcab78f","setVault(address)":"6817031b","vault()":"fbfa77cf"},"id":4}