{"abi":[{"type":"constructor","inputs":[{"name":"owner_","type":"address","internalType":"address"},{"name":"vault_","type":"address","internalType":"address"},{"name":"quorum_","type":"uint8","internalType":"uint8"}],"stateMutability":"nonpayable"},{"type":"function","name":"MAX_RELAYERS","inputs":[],"outputs":[{"name":"","type":"uint256","internalType":"uint256"}],"stateMutability":"view"},{"type":"function","name":"addRelayer","inputs":[{"name":"relayer","type":"address","internalType":"address"}],"outputs":[],"stateMutability":"nonpayable"},{"type":"function","name":"attestInbound","inputs":[{"name":"nonce","type":"bytes32","internalType":"bytes32"},{"name":"token","type":"address","internalType":"address"},{"name":"user","type":"address","internalType":"address"},{"name":"amount","type":"uint256","internalType":"uint256"}],"outputs":[],"stateMutability":"nonpayable"},{"type":"function","name":"consumedNonce","inputs":[{"name":"","type":"bytes32","internalType":"bytes32"}],"outputs":[{"name":"","type":"bool","internalType":"bool"}],"stateMutability":"view"},{"type":"function","name":"isRelayer","inputs":[{"name":"","type":"address","internalType":"address"}],"outputs":[{"name":"","type":"bool","internalType":"bool"}],"stateMutability":"view"},{"type":"function","name":"owner","inputs":[],"outputs":[{"name":"","type":"address","internalType":"address"}],"stateMutability":"view"},{"type":"function","name":"quorum","inputs":[],"outputs":[{"name":"","type":"uint8","internalType":"uint8"}],"stateMutability":"view"},{"type":"function","name":"relayerCount","inputs":[],"outputs":[{"name":"","type":"uint256","internalType":"uint256"}],"stateMutability":"view"},{"type":"function","name":"relayerList","inputs":[{"name":"","type":"uint256","internalType":"uint256"}],"outputs":[{"name":"","type":"address","internalType":"address"}],"stateMutability":"view"},{"type":"function","name":"removeRelayer","inputs":[{"name":"relayer","type":"address","internalType":"address"}],"outputs":[],"stateMutability":"nonpayable"},{"type":"function","name":"setQuorum","inputs":[{"name":"quorum_","type":"uint8","internalType":"uint8"}],"outputs":[],"stateMutability":"nonpayable"},{"type":"function","name":"setVault","inputs":[{"name":"vault_","type":"address","internalType":"address"}],"outputs":[],"stateMutability":"nonpayable"},{"type":"function","name":"vault","inputs":[],"outputs":[{"name":"","type":"address","internalType":"address"}],"stateMutability":"view"},{"type":"event","name":"MessageRelayed","inputs":[{"name":"nonce","type":"bytes32","indexed":true,"internalType":"bytes32"},{"name":"token","type":"address","indexed":true,"internalType":"address"},{"name":"user","type":"address","indexed":true,"internalType":"address"},{"name":"amount","type":"uint256","indexed":false,"internalType":"uint256"},{"name":"releaseId","type":"bytes32","indexed":false,"internalType":"bytes32"}],"anonymous":false},{"type":"event","name":"QuorumUpdated","inputs":[{"name":"quorum","type":"uint8","indexed":false,"internalType":"uint8"}],"anonymous":false},{"type":"event","name":"RelayerAdded","inputs":[{"name":"relayer","type":"address","indexed":true,"internalType":"address"}],"anonymous":false},{"type":"event","name":"RelayerRemoved","inputs":[{"name":"relayer","type":"address","indexed":true,"internalType":"address"}],"anonymous":false},{"type":"error","name":"IonDexDuplicateNonce","inputs":[]},{"type":"error","name":"IonDexInvalidQuorum","inputs":[]},{"type":"error","name":"IonDexUnauthorized","inputs":[]},{"type":"error","name":"IonDexZeroAddress","inputs":[]},{"type":"error","name":"IonDexZeroAmount","inputs":[]}],"bytecode":{"object":"0x608060405234801561000f575f80fd5b50604051610a96380380610a9683398101604081905261002e916100fd565b6001600160a01b038316158061004b57506001600160a01b038216155b15610069576040516394844c1960e01b815260040160405180910390fd5b60ff8116158061007c575060208160ff16115b1561009a576040516373c2724160e01b815260040160405180910390fd5b5f80546001600160a01b039485166001600160a01b03199091161790556001805460ff909216600160a01b026001600160a81b03199092169290931691909117179055610146565b80516001600160a01b03811681146100f8575f80fd5b919050565b5f805f6060848603121561010f575f80fd5b610118846100e2565b9250610126602085016100e2565b9150604084015160ff8116811461013b575f80fd5b809150509250925092565b610943806101535f395ff3fe608060405234801561000f575f80fd5b50600436106100cb575f3560e01c80636dcab78f116100885780639debb3bd116100635780639debb3bd146101d9578063cf1a7a21146101ef578063dd39f00d146101f7578063fbfa77cf1461020a575f80fd5b80636dcab78f1461019257806381c5de3c146101a55780638da5cb5b146101c7575f80fd5b806311162be7146100cf5780631703a018146100ff578063541d55481461012557806360f0a5ac146101575780636817031b1461016c5780636a2b6bdd1461017f575b5f80fd5b6100e26100dd36600461080d565b61021d565b6040516001600160a01b0390911681526020015b60405180910390f35b60015461011390600160a01b900460ff1681565b60405160ff90911681526020016100f6565b61014761013336600461083f565b60036020525f908152604090205460ff1681565b60405190151581526020016100f6565b61016a61016536600461083f565b610245565b005b61016a61017a36600461083f565b6103f2565b61016a61018d36600461085f565b610465565b61016a6101a03660046108a0565b610626565b6101476101b336600461080d565b60046020525f908152604090205460ff1681565b5f546100e2906001600160a01b031681565b6101e1602081565b6040519081526020016100f6565b6002546101e1565b61016a61020536600461083f565b6106d5565b6001546100e2906001600160a01b031681565b6002818154811061022c575f80fd5b5f918252602090912001546001600160a01b0316905081565b5f546001600160a01b0316331461026f576040516326392e5760e11b815260040160405180910390fd5b6001600160a01b0381165f9081526003602052604090205460ff166102a7576040516326392e5760e11b815260040160405180910390fd5b6001600160a01b0381165f908152600360205260408120805460ff191690555b6002548110156103bb57816001600160a01b0316600282815481106102ee576102ee6108c0565b5f918252602090912001546001600160a01b0316036103b35760028054610317906001906108d4565b81548110610327576103276108c0565b5f91825260209091200154600280546001600160a01b039092169183908110610352576103526108c0565b905f5260205f20015f6101000a8154816001600160a01b0302191690836001600160a01b03160217905550600280548061038e5761038e6108f9565b5f8281526020902081015f1990810180546001600160a01b03191690550190556103bb565b6001016102c7565b506040516001600160a01b038216907f10e1f7ce9fd7d1b90a66d13a2ab3cb8dd7f29f3f8d520b143b063ccfbab6906b905f90a250565b5f546001600160a01b0316331461041c576040516326392e5760e11b815260040160405180910390fd5b6001600160a01b038116610443576040516394844c1960e01b815260040160405180910390fd5b600180546001600160a01b0319166001600160a01b0392909216919091179055565b335f9081526003602052604090205460ff16610494576040516326392e5760e11b815260040160405180910390fd5b6001600160a01b03831615806104b157506001600160a01b038216155b156104cf576040516394844c1960e01b815260040160405180910390fd5b805f036104ef576040516377b0874f60e11b815260040160405180910390fd5b8361050d576040516394844c1960e01b815260040160405180910390fd5b5f8481526004602052604090205460ff161561053c57604051631a2b4e0f60e21b815260040160405180910390fd5b5f84815260046020819052604091829020805460ff19166001908117909155549151631183e92160e21b81526001600160a01b03868116928201929092528482166024820152604481018490526064810187905291169063460fa484906084015f604051808303815f87803b1580156105b3575f80fd5b505af11580156105c5573d5f803e3d5ffd5b50505050816001600160a01b0316836001600160a01b0316857f0df0e82148913a096f5f37939ed88a786bf72ba2cf8bc66a582ddc1dea2431188488604051610618929190918252602082015260400190565b60405180910390a450505050565b5f546001600160a01b03163314610650576040516326392e5760e11b815260040160405180910390fd5b60ff81161580610663575060208160ff16115b15610681576040516373c2724160e01b815260040160405180910390fd5b6001805460ff60a01b1916600160a01b60ff8416908102919091179091556040519081527f209c836d424319a2cc9b1b388a1938ffe724afa8b94ffc505b26f908dff40e909060200160405180910390a150565b5f546001600160a01b031633146106ff576040516326392e5760e11b815260040160405180910390fd5b6001600160a01b038116610726576040516394844c1960e01b815260040160405180910390fd5b6001600160a01b0381165f9081526003602052604090205460ff161561075f576040516326392e5760e11b815260040160405180910390fd5b600254602011610782576040516373c2724160e01b815260040160405180910390fd5b6001600160a01b0381165f81815260036020526040808220805460ff1916600190811790915560028054918201815583527f405787fa12a823e0f2b7631cc41b3ba8828b3321ca811111fa75cd3aa3bb5ace0180546001600160a01b03191684179055517f03580ee9f53a62b7cb409a2cb56f9be87747dd15017afc5cef6eef321e4fb2c59190a250565b5f6020828403121561081d575f80fd5b5035919050565b80356001600160a01b038116811461083a575f80fd5b919050565b5f6020828403121561084f575f80fd5b61085882610824565b9392505050565b5f805f8060808587031215610872575f80fd5b8435935061088260208601610824565b925061089060408601610824565b9396929550929360600135925050565b5f602082840312156108b0575f80fd5b813560ff81168114610858575f80fd5b634e487b7160e01b5f52603260045260245ffd5b818103818111156108f357634e487b7160e01b5f52601160045260245ffd5b92915050565b634e487b7160e01b5f52603160045260245ffdfea26469706673582212202b89812e6e81e2731fa5a5a5437b5a110850a681f11e0948e78ee5d20a44cbca64736f6c63430008180033","linkReferences":{}},"methodIdentifiers":{"MAX_RELAYERS()":"9debb3bd","addRelayer(address)":"dd39f00d","attestInbound(bytes32,address,address,uint256)":"6a2b6bdd","consumedNonce(bytes32)":"81c5de3c","isRelayer(address)":"541d5548","owner()":"8da5cb5b","quorum()":"1703a018","relayerCount()":"cf1a7a21","relayerList(uint256)":"11162be7","removeRelayer(address)":"60f0a5ac","setQuorum(uint8)":"6dcab78f","setVault(address)":"6817031b","vault()":"fbfa77cf"},"id":3}