{"src/IonWrapper.sol":{"IonWrapper":{"abi":[{"type":"constructor","inputs":[{"name":"_bridge","type":"address","internalType":"address"},{"name":"_owner","type":"address","internalType":"address"},{"name":"_mintCap","type":"uint256","internalType":"uint256"}],"stateMutability":"nonpayable"},{"type":"function","name":"allowance","inputs":[{"name":"owner","type":"address","internalType":"address"},{"name":"spender","type":"address","internalType":"address"}],"outputs":[{"name":"","type":"uint256","internalType":"uint256"}],"stateMutability":"view"},{"type":"function","name":"approve","inputs":[{"name":"spender","type":"address","internalType":"address"},{"name":"value","type":"uint256","internalType":"uint256"}],"outputs":[{"name":"","type":"bool","internalType":"bool"}],"stateMutability":"nonpayable"},{"type":"function","name":"balanceOf","inputs":[{"name":"account","type":"address","internalType":"address"}],"outputs":[{"name":"","type":"uint256","internalType":"uint256"}],"stateMutability":"view"},{"type":"function","name":"bridge","inputs":[],"outputs":[{"name":"","type":"address","internalType":"address"}],"stateMutability":"view"},{"type":"function","name":"burn","inputs":[{"name":"amount","type":"uint256","internalType":"uint256"},{"name":"bridgeTxHash","type":"bytes32","internalType":"bytes32"}],"outputs":[],"stateMutability":"nonpayable"},{"type":"function","name":"decimals","inputs":[],"outputs":[{"name":"","type":"uint8","internalType":"uint8"}],"stateMutability":"view"},{"type":"function","name":"eip712Domain","inputs":[],"outputs":[{"name":"fields","type":"bytes1","internalType":"bytes1"},{"name":"name","type":"string","internalType":"string"},{"name":"version","type":"string","internalType":"string"},{"name":"chainId","type":"uint256","internalType":"uint256"},{"name":"verifyingContract","type":"address","internalType":"address"},{"name":"salt","type":"bytes32","internalType":"bytes32"},{"name":"extensions","type":"uint256[]","internalType":"uint256[]"}],"stateMutability":"view"},{"type":"function","name":"mint","inputs":[{"name":"to","type":"address","internalType":"address"},{"name":"amount","type":"uint256","internalType":"uint256"},{"name":"bridgeTxHash","type":"bytes32","internalType":"bytes32"}],"outputs":[],"stateMutability":"nonpayable"},{"type":"function","name":"mintCap","inputs":[],"outputs":[{"name":"","type":"uint256","internalType":"uint256"}],"stateMutability":"view"},{"type":"function","name":"name","inputs":[],"outputs":[{"name":"","type":"string","internalType":"string"}],"stateMutability":"view"},{"type":"function","name":"owner","inputs":[],"outputs":[{"name":"","type":"address","internalType":"address"}],"stateMutability":"view"},{"type":"function","name":"pause","inputs":[],"outputs":[],"stateMutability":"nonpayable"},{"type":"function","name":"paused","inputs":[],"outputs":[{"name":"","type":"bool","internalType":"bool"}],"stateMutability":"view"},{"type":"function","name":"processedTxs","inputs":[{"name":"","type":"bytes32","internalType":"bytes32"}],"outputs":[{"name":"","type":"bool","internalType":"bool"}],"stateMutability":"view"},{"type":"function","name":"renounceOwnership","inputs":[],"outputs":[],"stateMutability":"nonpayable"},{"type":"function","name":"setBridge","inputs":[{"name":"_bridge","type":"address","internalType":"address"}],"outputs":[],"stateMutability":"nonpayable"},{"type":"function","name":"setMintCap","inputs":[{"name":"_mintCap","type":"uint256","internalType":"uint256"}],"outputs":[],"stateMutability":"nonpayable"},{"type":"function","name":"symbol","inputs":[],"outputs":[{"name":"","type":"string","internalType":"string"}],"stateMutability":"view"},{"type":"function","name":"totalBridged","inputs":[],"outputs":[{"name":"","type":"uint256","internalType":"uint256"}],"stateMutability":"view"},{"type":"function","name":"totalSupply","inputs":[],"outputs":[{"name":"","type":"uint256","internalType":"uint256"}],"stateMutability":"view"},{"type":"function","name":"transfer","inputs":[{"name":"to","type":"address","internalType":"address"},{"name":"value","type":"uint256","internalType":"uint256"}],"outputs":[{"name":"","type":"bool","internalType":"bool"}],"stateMutability":"nonpayable"},{"type":"function","name":"transferFrom","inputs":[{"name":"from","type":"address","internalType":"address"},{"name":"to","type":"address","internalType":"address"},{"name":"value","type":"uint256","internalType":"uint256"}],"outputs":[{"name":"","type":"bool","internalType":"bool"}],"stateMutability":"nonpayable"},{"type":"function","name":"transferOwnership","inputs":[{"name":"newOwner","type":"address","internalType":"address"}],"outputs":[],"stateMutability":"nonpayable"},{"type":"function","name":"unpause","inputs":[],"outputs":[],"stateMutability":"nonpayable"},{"type":"event","name":"Approval","inputs":[{"name":"owner","type":"address","indexed":true,"internalType":"address"},{"name":"spender","type":"address","indexed":true,"internalType":"address"},{"name":"value","type":"uint256","indexed":false,"internalType":"uint256"}],"anonymous":false},{"type":"event","name":"Burn","inputs":[{"name":"from","type":"address","indexed":true,"internalType":"address"},{"name":"amount","type":"uint256","indexed":false,"internalType":"uint256"},{"name":"bridgeTxHash","type":"bytes32","indexed":true,"internalType":"bytes32"}],"anonymous":false},{"type":"event","name":"EIP712DomainChanged","inputs":[],"anonymous":false},{"type":"event","name":"Mint","inputs":[{"name":"to","type":"address","indexed":true,"internalType":"address"},{"name":"amount","type":"uint256","indexed":false,"internalType":"uint256"},{"name":"bridgeTxHash","type":"bytes32","indexed":true,"internalType":"bytes32"}],"anonymous":false},{"type":"event","name":"OwnershipTransferred","inputs":[{"name":"previousOwner","type":"address","indexed":true,"internalType":"address"},{"name":"newOwner","type":"address","indexed":true,"internalType":"address"}],"anonymous":false},{"type":"event","name":"Paused","inputs":[{"name":"account","type":"address","indexed":false,"internalType":"address"}],"anonymous":false},{"type":"event","name":"Transfer","inputs":[{"name":"from","type":"address","indexed":true,"internalType":"address"},{"name":"to","type":"address","indexed":true,"internalType":"address"},{"name":"value","type":"uint256","indexed":false,"internalType":"uint256"}],"anonymous":false},{"type":"event","name":"Unpaused","inputs":[{"name":"account","type":"address","indexed":false,"internalType":"address"}],"anonymous":false},{"type":"error","name":"ERC20InsufficientAllowance","inputs":[{"name":"spender","type":"address","internalType":"address"},{"name":"allowance","type":"uint256","internalType":"uint256"},{"name":"needed","type":"uint256","internalType":"uint256"}]},{"type":"error","name":"ERC20InsufficientBalance","inputs":[{"name":"sender","type":"address","internalType":"address"},{"name":"balance","type":"uint256","internalType":"uint256"},{"name":"needed","type":"uint256","internalType":"uint256"}]},{"type":"error","name":"ERC20InvalidApprover","inputs":[{"name":"approver","type":"address","internalType":"address"}]},{"type":"error","name":"ERC20InvalidReceiver","inputs":[{"name":"receiver","type":"address","internalType":"address"}]},{"type":"error","name":"ERC20InvalidSender","inputs":[{"name":"sender","type":"address","internalType":"address"}]},{"type":"error","name":"ERC20InvalidSpender","inputs":[{"name":"spender","type":"address","internalType":"address"}]},{"type":"error","name":"EnforcedPause","inputs":[]},{"type":"error","name":"ExceedsMintCap","inputs":[{"name":"requested","type":"uint256","internalType":"uint256"},{"name":"cap","type":"uint256","internalType":"uint256"}]},{"type":"error","name":"ExpectedPause","inputs":[]},{"type":"error","name":"InvalidAmount","inputs":[]},{"type":"error","name":"InvalidShortString","inputs":[]},{"type":"error","name":"NotBridge","inputs":[]},{"type":"error","name":"OwnableInvalidOwner","inputs":[{"name":"owner","type":"address","internalType":"address"}]},{"type":"error","name":"OwnableUnauthorizedAccount","inputs":[{"name":"account","type":"address","internalType":"address"}]},{"type":"error","name":"StringTooLong","inputs":[{"name":"str","type":"string","internalType":"string"}]},{"type":"error","name":"TxAlreadyProcessed","inputs":[{"name":"txHash","type":"bytes32","internalType":"bytes32"}]}],"userdoc":{},"devdoc":{},"evm":{"bytecode":{"object":"610160604052348015610010575f80fd5b5060405161150238038061150283398101604081905261002f916102c0565b6040518060400160405280600a81526020016924b7b72bb930b83832b960b11b815250604051806040016040528060018152602001603160f81b815250836040518060400160405280600b81526020016a2bb930b83832b21024a7a760a91b815250604051806040016040528060048152602001633ba4a7a760e11b81525081600390816100bd9190610391565b5060046100ca8282610391565b5050506001600160a01b0381166100fb57604051631e4fbdf760e01b81525f60048201526024015b60405180910390fd5b610104816101e5565b50610110826006610236565b6101205261011f816007610236565b61014052815160208084019190912060e052815190820120610100524660a0526101ab60e05161010051604080517f8b73c3c69bb8fe3d512ecc4cf759cc79239f7b179b0ffacaa9a75d522b39400f60208201529081019290925260608201524660808201523060a08201525f9060c00160405160208183030381529060405280519060200120905090565b60805250503060c052600880546001600160a01b0319166001600160a01b038516179055600a8190556101dd826101e5565b5050506104a3565b600580546001600160a01b038381166001600160a01b0319831681179093556040519116919082907f8be0079c531659141344cd1fd0a4f28419497f9722a3daafe3b4186f6b6457e0905f90a35050565b5f6020835110156102515761024a83610268565b9050610262565b8161025c8482610391565b5060ff90505b92915050565b5f80829050601f81511115610292578260405163305a27a960e01b81526004016100f2919061044b565b805161029d82610480565b179392505050565b80516001600160a01b03811681146102bb575f80fd5b919050565b5f805f606084860312156102d2575f80fd5b6102db846102a5565b92506102e9602085016102a5565b9150604084015190509250925092565b634e487b7160e01b5f52604160045260245ffd5b600181811c9082168061032157607f821691505b60208210810361033f57634e487b7160e01b5f52602260045260245ffd5b50919050565b601f82111561038c57805f5260205f20601f840160051c8101602085101561036a5750805b601f840160051c820191505b81811015610389575f8155600101610376565b50505b505050565b81516001600160401b038111156103aa576103aa6102f9565b6103be816103b8845461030d565b84610345565b6020601f8211600181146103f0575f83156103d95750848201515b5f19600385901b1c1916600184901b178455610389565b5f84815260208120601f198516915b8281101561041f57878501518255602094850194600190920191016103ff565b508482101561043c57868401515f19600387901b60f8161c191681555b50505050600190811b01905550565b602081525f82518060208401528060208501604085015e5f604082850101526040601f19601f83011684010191505092915050565b8051602080830151919081101561033f575f1960209190910360031b1b16919050565b60805160a05160c05160e05161010051610120516101405161101d6104e55f395f6109ee01525f6109bc01525f50505f50505f50505f50505f505061101d5ff3fe608060405234801561000f575f80fd5b5060043610610153575f3560e01c806376c71ca1116100bf5780639e16f217116100795780639e16f217146102b3578063a9059cbb146102d5578063bcf64e05146102e8578063dd62ed3e146102fb578063e78cea9214610333578063f2fde38b14610346575f80fd5b806376c71ca1146102475780638456cb591461025057806384b0196e146102585780638da5cb5b146102735780638dd148021461029857806395d89b41146102ab575f80fd5b80633f4ba83a116101105780633f4ba83a146101e15780634070a0c9146101e95780635c975abb146101fc57806367a1791a1461020e57806370a0823114610217578063715018a61461023f575f80fd5b806306fdde0314610157578063095ea7b31461017557806318160ddd146101985780631e458bee146101aa57806323b872dd146101bf578063313ce567146101d2575b5f80fd5b61015f610359565b60405161016c9190610d98565b60405180910390f35b610188610183366004610dcc565b6103e9565b604051901515815260200161016c565b6002545b60405190815260200161016c565b6101bd6101b8366004610df4565b610402565b005b6101886101cd366004610e24565b61055a565b6040516012815260200161016c565b6101bd61057d565b6101bd6101f7366004610e5e565b61058f565b600554600160a01b900460ff16610188565b61019c600b5481565b61019c610225366004610e75565b6001600160a01b03165f9081526020819052604090205490565b6101bd61059c565b61019c600a5481565b6101bd6105ad565b6102606105bd565b60405161016c9796959493929190610e8e565b6005546001600160a01b03165b6040516001600160a01b03909116815260200161016c565b6101bd6102a6366004610e75565b6105ff565b61015f610629565b6101886102c1366004610e5e565b60096020525f908152604090205460ff1681565b6101886102e3366004610dcc565b610638565b6101bd6102f6366004610f24565b610645565b61019c610309366004610f44565b6001600160a01b039182165f90815260016020908152604080832093909416825291909152205490565b600854610280906001600160a01b031681565b6101bd610354366004610e75565b610714565b60606003805461036890610f75565b80601f016020809104026020016040519081016040528092919081815260200182805461039490610f75565b80156103df5780601f106103b6576101008083540402835291602001916103df565b820191905f5260205f20905b8154815290600101906020018083116103c257829003601f168201915b5050505050905090565b5f336103f6818585610751565b60019150505b92915050565b6008546001600160a01b0316331461042d57604051637fea9dc560e01b815260040160405180910390fd5b610435610763565b815f036104555760405163162908e360e11b815260040160405180910390fd5b5f8181526009602052604090205460ff161561048c5760405163060b240160e51b8152600481018290526024015b60405180910390fd5b600a5482600b5461049d9190610fc1565b1180156104ab57505f600a54115b156104d757600a546040516317b07de960e01b8152610483918491600401918252602082015260400190565b5f818152600960205260408120805460ff19166001179055600b8054849290610501908490610fc1565b909155506105119050838361078e565b80836001600160a01b03167f3dec94b8abc8f801eaade1616d3aadd3114b556a284267905e0a053b2df398928460405161054d91815260200190565b60405180910390a3505050565b5f336105678582856107c6565b610572858585610842565b506001949350505050565b61058561089f565b61058d6108cc565b565b61059761089f565b600a55565b6105a461089f565b61058d5f610921565b6105b561089f565b61058d610972565b5f6060805f805f60606105ce6109b5565b6105d66109e7565b604080515f80825260208201909252600f60f81b9b939a50919850469750309650945092509050565b61060761089f565b600880546001600160a01b0319166001600160a01b0392909216919091179055565b60606004805461036890610f75565b5f336103f6818585610842565b61064d610763565b815f0361066d5760405163162908e360e11b815260040160405180910390fd5b5f8181526009602052604090205460ff161561069f5760405163060b240160e51b815260048101829052602401610483565b5f818152600960205260408120805460ff19166001179055600b80548492906106c9908490610fd4565b909155506106d990503383610a14565b604051828152819033907fc6c4132f6250531f66c30d176444d900432e0ff7bb9e3e4ef8c8b336702184199060200160405180910390a35050565b61071c61089f565b6001600160a01b03811661074557604051631e4fbdf760e01b81525f6004820152602401610483565b61074e81610921565b50565b61075e8383836001610a48565b505050565b600554600160a01b900460ff161561058d5760405163d93c066560e01b815260040160405180910390fd5b6001600160a01b0382166107b75760405163ec442f0560e01b81525f6004820152602401610483565b6107c25f8383610b1a565b5050565b6001600160a01b038381165f908152600160209081526040808320938616835292905220545f1981101561083c578181101561082e57604051637dc7a0d960e11b81526001600160a01b03841660048201526024810182905260448101839052606401610483565b61083c84848484035f610a48565b50505050565b6001600160a01b03831661086b57604051634b637e8f60e11b81525f6004820152602401610483565b6001600160a01b0382166108945760405163ec442f0560e01b81525f6004820152602401610483565b61075e838383610b1a565b6005546001600160a01b0316331461058d5760405163118cdaa760e01b8152336004820152602401610483565b6108d4610c33565b6005805460ff60a01b191690557f5db9ee0a495bf2e6ff9c91a7834c1ba4fdd244a5e8aa4e537bd38aeae4b073aa335b6040516001600160a01b03909116815260200160405180910390a1565b600580546001600160a01b038381166001600160a01b0319831681179093556040519116919082907f8be0079c531659141344cd1fd0a4f28419497f9722a3daafe3b4186f6b6457e0905f90a35050565b61097a610763565b6005805460ff60a01b1916600160a01b1790557f62e78cea01bee320cd4e420270b5ea74000d11b0c9f74754ebdbfc544b05a2586109043390565b60606109e27f00000000000000000000000000000000000000000000000000000000000000006006610c5d565b905090565b60606109e27f00000000000000000000000000000000000000000000000000000000000000006007610c5d565b6001600160a01b038216610a3d57604051634b637e8f60e11b81525f6004820152602401610483565b6107c2825f83610b1a565b6001600160a01b038416610a715760405163e602df0560e01b81525f6004820152602401610483565b6001600160a01b038316610a9a57604051634a1406b160e11b81525f6004820152602401610483565b6001600160a01b038085165f908152600160209081526040808320938716835292905220829055801561083c57826001600160a01b0316846001600160a01b03167f8c5be1e5ebec7d5bd14f71427d1e84f3dd0314c0f7b2291e5b200ac8c7c3b92584604051610b0c91815260200190565b60405180910390a350505050565b6001600160a01b038316610b44578060025f828254610b399190610fc1565b90915550610bb49050565b6001600160a01b0383165f9081526020819052604090205481811015610b965760405163391434e360e21b81526001600160a01b03851660048201526024810182905260448101839052606401610483565b6001600160a01b0384165f9081526020819052604090209082900390555b6001600160a01b038216610bd057600280548290039055610bee565b6001600160a01b0382165f9081526020819052604090208054820190555b816001600160a01b0316836001600160a01b03167fddf252ad1be2c89b69c2b068fc378daa952ba7f163c4a11628f55a4df523b3ef8360405161054d91815260200190565b600554600160a01b900460ff1661058d57604051638dfc202b60e01b815260040160405180910390fd5b606060ff8314610c7757610c7083610d06565b90506103fc565b818054610c8390610f75565b80601f0160208091040260200160405190810160405280929190818152602001828054610caf90610f75565b8015610cfa5780601f10610cd157610100808354040283529160200191610cfa565b820191905f5260205f20905b815481529060010190602001808311610cdd57829003601f168201915b505050505090506103fc565b60605f610d1283610d43565b6040805160208082528183019092529192505f91906020820181803683375050509182525060208101929092525090565b5f60ff8216601f8111156103fc57604051632cd44ac360e21b815260040160405180910390fd5b5f81518084528060208401602086015e5f602082860101526020601f19601f83011685010191505092915050565b602081525f610daa6020830184610d6a565b9392505050565b80356001600160a01b0381168114610dc7575f80fd5b919050565b5f8060408385031215610ddd575f80fd5b610de683610db1565b946020939093013593505050565b5f805f60608486031215610e06575f80fd5b610e0f84610db1565b95602085013595506040909401359392505050565b5f805f60608486031215610e36575f80fd5b610e3f84610db1565b9250610e4d60208501610db1565b929592945050506040919091013590565b5f60208284031215610e6e575f80fd5b5035919050565b5f60208284031215610e85575f80fd5b610daa82610db1565b60ff60f81b8816815260e060208201525f610eac60e0830189610d6a565b8281036040840152610ebe8189610d6a565b606084018890526001600160a01b038716608085015260a0840186905283810360c0850152845180825260208087019350909101905f5b81811015610f13578351835260209384019390920191600101610ef5565b50909b9a5050505050505050505050565b5f8060408385031215610f35575f80fd5b50508035926020909101359150565b5f8060408385031215610f55575f80fd5b610f5e83610db1565b9150610f6c60208401610db1565b90509250929050565b600181811c90821680610f8957607f821691505b602082108103610fa757634e487b7160e01b5f52602260045260245ffd5b50919050565b634e487b7160e01b5f52601160045260245ffd5b808201808211156103fc576103fc610fad565b818103818111156103fc576103fc610fad56fea264697066735822122098fbc2595368454c66541d14632031c4896972211af9064c50fbe9b4eb2576ac64736f6c634300081a0033","linkReferences":{}},"methodIdentifiers":{"allowance(address,address)":"dd62ed3e","approve(address,uint256)":"095ea7b3","balanceOf(address)":"70a08231","bridge()":"e78cea92","burn(uint256,bytes32)":"bcf64e05","decimals()":"313ce567","eip712Domain()":"84b0196e","mint(address,uint256,bytes32)":"1e458bee","mintCap()":"76c71ca1","name()":"06fdde03","owner()":"8da5cb5b","pause()":"8456cb59","paused()":"5c975abb","processedTxs(bytes32)":"9e16f217","renounceOwnership()":"715018a6","setBridge(address)":"8dd14802","setMintCap(uint256)":"4070a0c9","symbol()":"95d89b41","totalBridged()":"67a1791a","totalSupply()":"18160ddd","transfer(address,uint256)":"a9059cbb","transferFrom(address,address,uint256)":"23b872dd","transferOwnership(address)":"f2fde38b","unpause()":"3f4ba83a"}}}}}