{"abi":[{"type":"constructor","inputs":[{"name":"_admin","type":"address","internalType":"address"},{"name":"_feeReceiver","type":"address","internalType":"address"}],"stateMutability":"nonpayable"},{"type":"function","name":"ION_TOKEN","inputs":[],"outputs":[{"name":"","type":"address","internalType":"address"}],"stateMutability":"view"},{"type":"function","name":"addPool","inputs":[{"name":"lpToken","type":"address","internalType":"address"},{"name":"rewardPerBlock","type":"uint256","internalType":"uint256"},{"name":"lockupDays","type":"uint256","internalType":"uint256"},{"name":"multiplier","type":"uint256","internalType":"uint256"},{"name":"aprBps","type":"uint256","internalType":"uint256"},{"name":"name","type":"string","internalType":"string"},{"name":"pairLabel","type":"string","internalType":"string"}],"outputs":[],"stateMutability":"nonpayable"},{"type":"function","name":"admin","inputs":[],"outputs":[{"name":"","type":"address","internalType":"contract AdminManager"}],"stateMutability":"view"},{"type":"function","name":"claimReward","inputs":[{"name":"poolId","type":"uint256","internalType":"uint256"},{"name":"ionProtocolFee","type":"uint256","internalType":"uint256"}],"outputs":[],"stateMutability":"nonpayable"},{"type":"function","name":"emergencyWithdraw","inputs":[{"name":"poolId","type":"uint256","internalType":"uint256"}],"outputs":[],"stateMutability":"nonpayable"},{"type":"function","name":"feeReceiver","inputs":[],"outputs":[{"name":"","type":"address","internalType":"address"}],"stateMutability":"view"},{"type":"function","name":"getPoolInfo","inputs":[{"name":"poolId","type":"uint256","internalType":"uint256"}],"outputs":[{"name":"lpToken","type":"address","internalType":"address"},{"name":"rewardPerBlock","type":"uint256","internalType":"uint256"},{"name":"totalStaked","type":"uint256","internalType":"uint256"},{"name":"lockupDays","type":"uint256","internalType":"uint256"},{"name":"multiplier","type":"uint256","internalType":"uint256"},{"name":"aprBps","type":"uint256","internalType":"uint256"},{"name":"name","type":"string","internalType":"string"},{"name":"pairLabel","type":"string","internalType":"string"},{"name":"active","type":"bool","internalType":"bool"}],"stateMutability":"view"},{"type":"function","name":"getUserInfo","inputs":[{"name":"poolId","type":"uint256","internalType":"uint256"},{"name":"account","type":"address","internalType":"address"}],"outputs":[{"name":"amount","type":"uint256","internalType":"uint256"},{"name":"weight","type":"uint256","internalType":"uint256"},{"name":"pending","type":"uint256","internalType":"uint256"},{"name":"stakedAt","type":"uint256","internalType":"uint256"},{"name":"lockupActive","type":"bool","internalType":"bool"}],"stateMutability":"view"},{"type":"function","name":"pendingReward","inputs":[{"name":"poolId","type":"uint256","internalType":"uint256"},{"name":"account","type":"address","internalType":"address"}],"outputs":[{"name":"","type":"uint256","internalType":"uint256"}],"stateMutability":"view"},{"type":"function","name":"poolLength","inputs":[],"outputs":[{"name":"","type":"uint256","internalType":"uint256"}],"stateMutability":"view"},{"type":"function","name":"pools","inputs":[{"name":"","type":"uint256","internalType":"uint256"}],"outputs":[{"name":"lpToken","type":"address","internalType":"contract IERC20"},{"name":"rewardPerBlock","type":"uint256","internalType":"uint256"},{"name":"accRewardPerShare","type":"uint256","internalType":"uint256"},{"name":"lastRewardBlock","type":"uint256","internalType":"uint256"},{"name":"totalStaked","type":"uint256","internalType":"uint256"},{"name":"totalWeight","type":"uint256","internalType":"uint256"},{"name":"lockupDays","type":"uint256","internalType":"uint256"},{"name":"multiplier","type":"uint256","internalType":"uint256"},{"name":"aprBps","type":"uint256","internalType":"uint256"},{"name":"name","type":"string","internalType":"string"},{"name":"pairLabel","type":"string","internalType":"string"},{"name":"active","type":"bool","internalType":"bool"}],"stateMutability":"view"},{"type":"function","name":"setFeeReceiver","inputs":[{"name":"_feeReceiver","type":"address","internalType":"address"}],"outputs":[],"stateMutability":"nonpayable"},{"type":"function","name":"setRewardPerBlock","inputs":[{"name":"poolId","type":"uint256","internalType":"uint256"},{"name":"rewardPerBlock","type":"uint256","internalType":"uint256"}],"outputs":[],"stateMutability":"nonpayable"},{"type":"function","name":"stake","inputs":[{"name":"poolId","type":"uint256","internalType":"uint256"},{"name":"amount","type":"uint256","internalType":"uint256"},{"name":"ionProtocolFee","type":"uint256","internalType":"uint256"}],"outputs":[],"stateMutability":"nonpayable"},{"type":"function","name":"unstake","inputs":[{"name":"poolId","type":"uint256","internalType":"uint256"},{"name":"amount","type":"uint256","internalType":"uint256"}],"outputs":[],"stateMutability":"nonpayable"},{"type":"function","name":"userInfo","inputs":[{"name":"","type":"uint256","internalType":"uint256"},{"name":"","type":"address","internalType":"address"}],"outputs":[{"name":"amount","type":"uint256","internalType":"uint256"},{"name":"weight","type":"uint256","internalType":"uint256"},{"name":"rewardDebt","type":"uint256","internalType":"uint256"},{"name":"pendingReward","type":"uint256","internalType":"uint256"},{"name":"stakedAt","type":"uint256","internalType":"uint256"}],"stateMutability":"view"},{"type":"event","name":"EmergencyWithdraw","inputs":[{"name":"user","type":"address","indexed":true,"internalType":"address"},{"name":"poolId","type":"uint256","indexed":true,"internalType":"uint256"},{"name":"amount","type":"uint256","indexed":false,"internalType":"uint256"}],"anonymous":false},{"type":"event","name":"PoolAdded","inputs":[{"name":"poolId","type":"uint256","indexed":true,"internalType":"uint256"},{"name":"lpToken","type":"address","indexed":false,"internalType":"address"},{"name":"name","type":"string","indexed":false,"internalType":"string"}],"anonymous":false},{"type":"event","name":"RewardClaim","inputs":[{"name":"user","type":"address","indexed":true,"internalType":"address"},{"name":"poolId","type":"uint256","indexed":true,"internalType":"uint256"},{"name":"reward","type":"uint256","indexed":false,"internalType":"uint256"}],"anonymous":false},{"type":"event","name":"Stake","inputs":[{"name":"user","type":"address","indexed":true,"internalType":"address"},{"name":"poolId","type":"uint256","indexed":true,"internalType":"uint256"},{"name":"amount","type":"uint256","indexed":false,"internalType":"uint256"}],"anonymous":false},{"type":"event","name":"Unstake","inputs":[{"name":"user","type":"address","indexed":true,"internalType":"address"},{"name":"poolId","type":"uint256","indexed":true,"internalType":"uint256"},{"name":"amount","type":"uint256","indexed":false,"internalType":"uint256"}],"anonymous":false},{"type":"error","name":"IonDexFeeReceiverNotSet","inputs":[]},{"type":"error","name":"IonDexIonFeeTransferFailed","inputs":[]},{"type":"error","name":"ReentrancyGuardReentrantCall","inputs":[]}],"bytecode":{"object":"0x60803460ab57601f611c8a38819003918201601f19168301916001600160401b0383118484101760af57808492604094855283398101031260ab57604b602060458360c3565b920160c3565b60017f9b779b17422d0df92223018b32b4d1fa46e071723d6817e2486d003becc55f008190555f80546001600160a01b03199081166001600160a01b039586161790915581541692909116919091179055604051611bb390816100d78239f35b5f80fd5b634e487b7160e01b5f52604160045260245ffd5b51906001600160a01b038216820360ab5756fe60806040526004361015610011575f80fd5b5f3560e01c8063070dac6814611322578063081e3eda146113055780631069f3b5146111d95780632f380b35146111105780635312ea8e14610f575780636ea1a8b814610f2957806386bb8f3714610d3f57806393f1a40b14610ccf57806398969e8214610ca15780639e2c8a5b14610a45578063a638f2e2146107d3578063ac4afa38146106f3578063b3f00674146106cb578063d58a210f146101b0578063efdcd974146100f45763f851a440146100c9575f80fd5b346100f0575f3660031901126100f0575f546040516001600160a01b039091168152602090f35b5f80fd5b346100f05760203660031901126100f05761010d6113eb565b5f54604051638da5cb5b60e01b815290602090829060049082906001600160a01b03165afa80156101a557610154915f91610176575b506001600160a01b0316331461156c565b600180546001600160a01b0319166001600160a01b0392909216919091179055005b610198915060203d60201161019e575b610190818361145d565b81019061154d565b83610143565b503d610186565b6040513d5f823e3d90fd5b346100f05760e03660031901126100f0576101c96113eb565b60643560a43567ffffffffffffffff81116100f0576101ec90369060040161151f565b9160c43567ffffffffffffffff81116100f05761020d90369060040161151f565b5f54604051638da5cb5b60e01b8152929691939290602090829060049082906001600160a01b03165afa80156101a557610258915f916106ac57506001600160a01b0316331461156c565b6001600160a01b031691821561067d578115610646576002549560405191610180830183811067ffffffffffffffff82111761056b5788948891604052868552848860208201956024358752604083015f815260608401904382526102fb60808601935f85526102eb60a08801965f885261010060c08a01996044358b5260e081019b8c52019a6084358c523691611806565b996101208d019a8b523691611806565b986101408b01998a526101608b019b60018d525f52600360205260405f209a60018060a01b039051166bffffffffffffffffffffffff60a01b8c5416178b555160018b01555160028a015551600389015551600488015551600587015551600686015551600785015551600884015560098301905180519067ffffffffffffffff821161056b57819061038e8454611425565b601f81116105ed575b50602090601f831160011461058a575f9261057f575b50508160011b915f199060031b1c19161790555b518051600a83019167ffffffffffffffff821161056b576103e28354611425565b601f811161051a575b50602090601f83116001146104b357600b949392915f91836104a8575b50508160011b915f199060031b1c19161790555b019051151560ff801983541691161790556002549060018201809211610494577f8516b0c2986adc04bdee56f860dbb5b1f2b9b6481f36be686553084e1b3365bf9360609260025580604051948593845260406020850152816040850152848401375f828201840152601f01601f19168101030190a2005b634e487b7160e01b5f52601160045260245ffd5b015190508a80610408565b90601f19831691845f52815f20925f5b8181106105025750916001939185600b98979694106104ea575b505050811b01905561041c565b01515f1960f88460031b161c191690558a80806104dd565b929360206001819287860151815501950193016104c3565b828111156103eb57835f5260205f20601f840160051c9060208510610563575b81601f9101920160051c03905f5b8281106105565750506103eb565b5f82820155600101610548565b5f915061053a565b634e487b7160e01b5f52604160045260245ffd5b015190508a806103ad565b5f8581528281209350601f198516905b8181106105d557509084600195949392106105bd575b505050811b0190556103c1565b01515f1960f88460031b161c191690558a80806105b0565b9293602060018192878601518155019501930161059a565b8281111561039757909150835f5260205f20601f840160051c906020851061063e575b849392601f0160051c82900391015f5b82811061062e575050610397565b5f81830155859450600101610620565b5f9150610610565b60405162461bcd60e51b815260206004820152600f60248201526e4d756c7469706c696572207a65726f60881b6044820152606490fd5b60405162461bcd60e51b81526020600482015260076024820152664c50207a65726f60c81b6044820152606490fd5b6106c5915060203d60201161019e57610190818361145d565b88610143565b346100f0575f3660031901126100f0576001546040516001600160a01b039091168152602090f35b346100f05760203660031901126100f0576004355f526003602052602060405f2060018060a01b03815416906107c66001820154916107b7600282015460038301546004840154600585015460068601549060078701549260088801549461075d60098a0161147f565b9660ff600b61076e600a8d0161147f565b9b0154169b6040519e8f9e8f908152015260408d015260608c015260808b015260a08a015260c089015260e0880152610100870152610180610120870152610180860190611401565b90848203610140860152611401565b9015156101608301520390f35b346100f05760603660031901126100f0576004356024356107f261197a565b5f54604051635c975abb60e01b815290602090829060049082906001600160a01b03165afa80156101a55761082f915f91610a26575b5015611617565b6108388261184c565b61084233836118ee565b61084f60025483106115a4565b61085a8115156117cc565b815f52600360205260405f2060ff600b82015416156109f1576001546108909060443590339030906001600160a01b03166119b2565b80546040516323b872dd60e01b81523360048201523060248201526044810184905290602090829060649082905f906001600160a01b03165af180156101a5576108e1915f916109c2575b50611659565b825f52600460205260405f2060018060a01b0333165f526020526002670de0b6b3a764000061097460405f209383855480156109b7575b6109348861271061092d6007870154836115df565b04926115f2565b875560018701906109468183546115f2565b8255600484016109578a82546115f2565b9055610968600585019182546115f2565b905554910154906115df565b049101556040519081527f5af417134f72a9d41143ace85b0a26dce6f550f894f2cbc1eeee8810603d91b660203392a360015f516020611b5e5f395f51905f5255005b426004880155610918565b6109e4915060203d6020116109ea575b6109dc818361145d565b8101906115ff565b856108db565b503d6109d2565b60405162461bcd60e51b815260206004820152600d60248201526c506f6f6c20696e61637469766560981b6044820152606490fd5b610a3f915060203d6020116109ea576109dc818361145d565b84610828565b346100f057610a53366113bf565b610a5b61197a565b5f54604051635c975abb60e01b815290602090829060049082906001600160a01b03165afa80156101a557610a97915f91610a26575015611617565b610aa08261184c565b610aaa33836118ee565b610ab760025483106115a4565b610ac28115156117cc565b5f828152600360209081526040808320600483528184203385529092529091208054838110610c6757600482015460068401546201518081029080820462015180149015171561049457610b15916115f2565b4210610c3257670de0b6b3a7640000610b87600292610b4687612710610b3f60078a0154836115df565b049261164c565b85556001850190610b5881835461164c565b825560048701610b6989825461164c565b9055610b7a6005880191825461164c565b90555483860154906115df565b049101555460405163a9059cbb60e01b81523360048201526024810183905290602090829060449082905f906001600160a01b03165af180156101a557610bd4915f91610c135750611659565b6040519081527ff960dbf9e5d0682f7a298ed974e33a28b4464914b7a2bfac12ae419a9afeb28060203392a360015f516020611b5e5f395f51905f5255005b610c2c915060203d6020116109ea576109dc818361145d565b846108db565b60405162461bcd60e51b815260206004820152600d60248201526c4c6f636b75702061637469766560981b6044820152606490fd5b60405162461bcd60e51b8152602060048201526012602482015271496e73756666696369656e74207374616b6560701b6044820152606490fd5b346100f05760403660031901126100f0576020610cc7610cbf6113d5565b6004356116ad565b604051908152f35b346100f05760403660031901126100f057610ce86113d5565b6004355f52600460205260405f209060018060a01b03165f5260205260a060405f20805490600181015490600281015460046003830154920154926040519485526020850152604084015260608301526080820152f35b346100f0576004610d4f366113bf565b610d5a92919261197a565b5f54604051635c975abb60e01b81529260209184919082906001600160a01b03165afa9182156101a557610dce92610d99915f91610f0a575015611617565b610da28361184c565b610dac33846118ee565b610db960025484106115a4565b600154339030906001600160a01b03166119b2565b5f81815260046020908152604080832033845290915290206003018054908115610ed9575f905560405163a9059cbb60e01b815233600482015260248101829052602081806044810103815f73e1ab61f7b093435204df32f5b3a405de55445ea85af19081156101a5575f91610eba575b5015610e84576040519081527f5a2ecdb14b94278f5a76efb2b0742090477e505b7d67ad574053b77dc045d48f60203392a360015f516020611b5e5f395f51905f5255005b60405162461bcd60e51b815260206004820152600e60248201526d14995dd85c990815118819985a5b60921b6044820152606490fd5b610ed3915060203d6020116109ea576109dc818361145d565b83610e3f565b60405162461bcd60e51b8152602060048201526009602482015268139bc81c995dd85c9960ba1b6044820152606490fd5b610f23915060203d6020116109ea576109dc818361145d565b85610828565b346100f0575f3660031901126100f057602060405173e1ab61f7b093435204df32f5b3a405de55445ea88152f35b346100f05760203660031901126100f057600435610f7361197a565b5f54604051635c975abb60e01b815290602090829060049082906001600160a01b03165afa80156101a557610faf915f916110f1575015611617565b610fb88161184c565b610fc233826118ee565b610fcf60025482106115a4565b5f818152600360209081526040808320600483528184203385529092529091208054919082156110bb5760025f916004840161100c86825461164c565b9055826001820180546110246005880191825461164c565b9055600383018290558183555501555460405163a9059cbb60e01b81523360048201526024810183905290602090829060449082905f906001600160a01b03165af180156101a55761107c915f91610c135750611659565b6040519081527fbb757047c2b5f3974fe26b7c10f732e7bce710b0952a71082702781e62ae059560203392a360015f516020611b5e5f395f51905f5255005b60405162461bcd60e51b815260206004820152600e60248201526d139bdd1a1a5b99c81cdd185ad95960921b6044820152606490fd5b61110a915060203d6020116109ea576109dc818361145d565b83610828565b346100f05760203660031901126100f05760043561113160025482106115a4565b5f52600360205260405f2060018060a01b038154166001820154916111cc60048201546111be600684015493600781015460088201549060ff600b8401541696611189600a6111826009870161147f565b950161147f565b956040519a8b9a8b5260208b015260408a01526060890152608088015260a087015261012060c0870152610120860190611401565b9084820360e0860152611401565b9015156101008301520390f35b346100f05760403660031901126100f0576004356111f56113d5565b61120260025483106115a4565b5f82815260036020908152604080832060048084528285206001600160a01b0396909616808652958452938290209151634c4b4f4160e11b815293840195909552602483019390935281604481305afa9081156101a5575f916112d3575b50815491821515918261129b575b60a09450600460018301549201549160405194855260208501526040840152606083015215156080820152f35b91506006600482015494015493620151808502948086046201518014901517156104945760a0946112cb916115f2565b42109161126e565b90506020813d6020116112fd575b816112ee6020938361145d565b810103126100f0575183611260565b3d91506112e1565b346100f0575f3660031901126100f0576020600254604051908152f35b346100f057611330366113bf565b9061133a8161184c565b5f54604051638da5cb5b60e01b815290602090829060049082906001600160a01b03165afa80156101a557611380915f916113a057506001600160a01b0316331461156c565b61138d60025482106115a4565b5f526003602052600160405f2001555f80f35b6113b9915060203d60201161019e57610190818361145d565b84610143565b60409060031901126100f0576004359060243590565b602435906001600160a01b03821682036100f057565b600435906001600160a01b03821682036100f057565b805180835260209291819084018484015e5f828201840152601f01601f1916010190565b90600182811c92168015611453575b602083101461143f57565b634e487b7160e01b5f52602260045260245ffd5b91607f1691611434565b90601f8019910116810190811067ffffffffffffffff82111761056b57604052565b9060405191825f82549261149284611425565b80845293600181169081156114fd57506001146114b9575b506114b79250038361145d565b565b90505f9291925260205f20905f915b8183106114e15750509060206114b7928201015f6114aa565b60209193508060019154838589010152019101909184926114c8565b9050602092506114b794915060ff191682840152151560051b8201015f6114aa565b9181601f840112156100f05782359167ffffffffffffffff83116100f057602083818601950101116100f057565b908160209103126100f057516001600160a01b03811681036100f05790565b1561157357565b60405162461bcd60e51b81526020600482015260096024820152682737ba1037bbb732b960b91b6044820152606490fd5b156115ab57565b60405162461bcd60e51b815260206004820152600c60248201526b125b9d985b1a59081c1bdbdb60a21b6044820152606490fd5b8181029291811591840414171561049457565b9190820180921161049457565b908160209103126100f0575180151581036100f05790565b1561161e57565b60405162461bcd60e51b815260206004820152600660248201526514185d5cd95960d21b6044820152606490fd5b9190820391821161049457565b1561166057565b60405162461bcd60e51b815260206004820152600760248201526615118819985a5b60ca1b6044820152606490fd5b8115611699570490565b634e487b7160e01b5f52601260045260245ffd5b906002548210156117c657815f52600360205260405f20915f52600460205260405f209060018060a01b03165f5260205260405f20600181015480156117bc57600283015492600581015490811515806117ae575b61173d575b5050611731600291670de0b6b3a764000061172a61173a966003870154936115df565b04906115f2565b9101549061164c565b90565b806001611751600361175a9401544361164c565b910154906115df565b91670de0b6b3a7640000830292808404670de0b6b3a7640000149015171561049457670de0b6b3a764000061172a6117a461173a9761179e6117319660029861168f565b906115f2565b9650505091611707565b5060ff600b82015416611702565b5060039150015490565b50505f90565b156117d357565b60405162461bcd60e51b815260206004820152600b60248201526a416d6f756e74207a65726f60a81b6044820152606490fd5b92919267ffffffffffffffff821161056b5760405191611830601f8201601f19166020018461145d565b8294818452818301116100f0578281602093845f960137010152565b5f52600360205260405f2060ff600b820154161580156118e2575b6118da57600381019061187b82544361164c565b80156118d557600182015461188f916115df565b670de0b6b3a7640000810290808204670de0b6b3a764000014901517156104945760026118c46118ce9260058501549061168f565b92019182546115f2565b9055439055565b505050565b600343910155565b50600581015415611867565b906001600160a01b0381161561197657815f52600360205260405f20915f52600460205260405f209060018060a01b03165f5260205260405f209060018201549081156118d557670de0b6b3a764000091600261194d920154906115df565b04906002810190815480841161196257505055565b60036118c4611971928661164c565b905555565b5050565b60025f516020611b5e5f395f51905f5254146119a35760025f516020611b5e5f395f51905f5255565b633ee5aeb560e01b5f5260045ffd5b929091928115611b57576001600160a01b038116938415611b4857604051632c2d77db60e21b815293602085600481895afa9485156101a5575f95611b24575b506040516323b872dd60e01b81526001600160a01b039283166004820152908216602482015260448101849052908416906020816064815f865af19081156101a5575f91611b05575b5015611ad75760405163095ea7b360e01b81526001600160a01b0392909216600483015260248201839052602090829060449082905f905af19081156101a5575f91611ae6575b5015611ad757823b156100f0576040516348fef59560e01b81526001600160a01b039290921660048301526024820152905f908290604490829084905af180156101a557611acd5750565b5f6114b79161145d565b63b180eb2560e01b5f5260045ffd5b611aff915060203d6020116109ea576109dc818361145d565b5f611a82565b611b1e915060203d6020116109ea576109dc818361145d565b5f611a3b565b84919550611b40602091823d841161019e57610190818361145d565b9591506119f2565b631d5dec5760e21b5f5260045ffd5b5050505056fe9b779b17422d0df92223018b32b4d1fa46e071723d6817e2486d003becc55f00a26469706673582212200d5f92245a87f0462fcc12d4392bdb8e4f98e2ee1865aef2706e620194c9716e64736f6c63430008230033","linkReferences":{}},"methodIdentifiers":{"ION_TOKEN()":"6ea1a8b8","addPool(address,uint256,uint256,uint256,uint256,string,string)":"d58a210f","admin()":"f851a440","claimReward(uint256,uint256)":"86bb8f37","emergencyWithdraw(uint256)":"5312ea8e","feeReceiver()":"b3f00674","getPoolInfo(uint256)":"2f380b35","getUserInfo(uint256,address)":"1069f3b5","pendingReward(uint256,address)":"98969e82","poolLength()":"081e3eda","pools(uint256)":"ac4afa38","setFeeReceiver(address)":"efdcd974","setRewardPerBlock(uint256,uint256)":"070dac68","stake(uint256,uint256,uint256)":"a638f2e2","unstake(uint256,uint256)":"9e2c8a5b","userInfo(uint256,address)":"93f1a40b"},"id":8}