{"abi":[{"type":"constructor","inputs":[{"name":"_vault","type":"address","internalType":"address"}],"stateMutability":"nonpayable"},{"type":"function","name":"attackPause","inputs":[],"outputs":[],"stateMutability":"nonpayable"},{"type":"function","name":"vault","inputs":[],"outputs":[{"name":"","type":"address","internalType":"contract IVault"}],"stateMutability":"view"}],"bytecode":{"object":"0x6080604052348015600e575f80fd5b50604051610179380380610179833981016040819052602b91604e565b5f80546001600160a01b0319166001600160a01b03929092169190911790556079565b5f60208284031215605d575f80fd5b81516001600160a01b03811681146072575f80fd5b9392505050565b60f4806100855f395ff3fe6080604052348015600e575f80fd5b50600436106030575f3560e01c806352be75d6146034578063fbfa77cf14603c575b5f80fd5b603a6069565b005b5f54604d906001600160a01b031681565b6040516001600160a01b03909116815260200160405180910390f35b5f805460408051638456cb5960e01b815290516001600160a01b0390921692638456cb599260048084019382900301818387803b15801560a7575f80fd5b505af115801560b8573d5f803e3d5ffd5b5050505056fea264697066735822122038572799344891c94d2277e275bbb8d63300aa10a1947790743f629218f8322864736f6c634300081a0033","linkReferences":{}},"methodIdentifiers":{"attackPause()":"52be75d6","vault()":"fbfa77cf"},"id":57}