{"abi":[{"type":"constructor","inputs":[{"name":"owner_","type":"address","internalType":"address"},{"name":"ionToken_","type":"address","internalType":"address"},{"name":"treasury_","type":"address","internalType":"address"},{"name":"team_","type":"address","internalType":"address"},{"name":"stakingRewards_","type":"address","internalType":"address"},{"name":"keeper_","type":"address","internalType":"address"},{"name":"oracle_","type":"address","internalType":"address"},{"name":"bearThreshold_","type":"uint256","internalType":"uint256"},{"name":"bullThreshold_","type":"uint256","internalType":"uint256"}],"stateMutability":"nonpayable"},{"type":"function","name":"BPS_TEAM_IMMUTABLE","inputs":[],"outputs":[{"name":"","type":"uint256","internalType":"uint256"}],"stateMutability":"view"},{"type":"function","name":"BSC_BURN_ADDRESS","inputs":[],"outputs":[{"name":"","type":"address","internalType":"address"}],"stateMutability":"view"},{"type":"function","name":"FEE_DENOMINATOR","inputs":[],"outputs":[{"name":"","type":"uint256","internalType":"uint256"}],"stateMutability":"view"},{"type":"function","name":"TIMELOCK_DURATION","inputs":[],"outputs":[{"name":"","type":"uint256","internalType":"uint256"}],"stateMutability":"view"},{"type":"function","name":"assertInvariants","inputs":[],"outputs":[],"stateMutability":"pure"},{"type":"function","name":"bearThreshold","inputs":[],"outputs":[{"name":"","type":"uint256","internalType":"uint256"}],"stateMutability":"view"},{"type":"function","name":"bullThreshold","inputs":[],"outputs":[{"name":"","type":"uint256","internalType":"uint256"}],"stateMutability":"view"},{"type":"function","name":"cancelTimelock","inputs":[],"outputs":[],"stateMutability":"nonpayable"},{"type":"function","name":"currentMode","inputs":[],"outputs":[{"name":"","type":"uint8","internalType":"enum MarketMode"}],"stateMutability":"view"},{"type":"function","name":"distributeFees","inputs":[{"name":"token","type":"address","internalType":"address"},{"name":"amount","type":"uint256","internalType":"uint256"}],"outputs":[],"stateMutability":"nonpayable"},{"type":"function","name":"executeTimelock","inputs":[],"outputs":[],"stateMutability":"nonpayable"},{"type":"function","name":"getEffectiveBps","inputs":[],"outputs":[{"name":"bpsBurn","type":"uint256","internalType":"uint256"},{"name":"bpsStaking","type":"uint256","internalType":"uint256"},{"name":"bpsTreasury","type":"uint256","internalType":"uint256"},{"name":"bpsKeeper","type":"uint256","internalType":"uint256"},{"name":"bpsTeam","type":"uint256","internalType":"uint256"}],"stateMutability":"view"},{"type":"function","name":"getMarketMode","inputs":[],"outputs":[{"name":"","type":"uint8","internalType":"enum MarketMode"}],"stateMutability":"view"},{"type":"function","name":"ionToken","inputs":[],"outputs":[{"name":"","type":"address","internalType":"address"}],"stateMutability":"view"},{"type":"function","name":"keeper","inputs":[],"outputs":[{"name":"","type":"address","internalType":"address"}],"stateMutability":"view"},{"type":"function","name":"oracle","inputs":[],"outputs":[{"name":"","type":"address","internalType":"contract IonOracle"}],"stateMutability":"view"},{"type":"function","name":"owner","inputs":[],"outputs":[{"name":"","type":"address","internalType":"address"}],"stateMutability":"view"},{"type":"function","name":"pendingProposal","inputs":[],"outputs":[{"name":"executeAfter","type":"uint256","internalType":"uint256"},{"name":"mode","type":"uint8","internalType":"enum MarketMode"},{"name":"newConfig","type":"tuple","internalType":"struct BpsConfig","components":[{"name":"bpsBurn","type":"uint256","internalType":"uint256"},{"name":"bpsStaking","type":"uint256","internalType":"uint256"},{"name":"bpsTreasury","type":"uint256","internalType":"uint256"},{"name":"bpsKeeper","type":"uint256","internalType":"uint256"},{"name":"bpsTeam","type":"uint256","internalType":"uint256"}]},{"name":"executed","type":"bool","internalType":"bool"}],"stateMutability":"view"},{"type":"function","name":"previewMode","inputs":[{"name":"price","type":"uint256","internalType":"uint256"}],"outputs":[{"name":"","type":"uint8","internalType":"enum MarketMode"}],"stateMutability":"view"},{"type":"function","name":"proposeThresholds","inputs":[{"name":"bearThreshold_","type":"uint256","internalType":"uint256"},{"name":"bullThreshold_","type":"uint256","internalType":"uint256"}],"outputs":[],"stateMutability":"nonpayable"},{"type":"function","name":"setDestinations","inputs":[{"name":"treasury_","type":"address","internalType":"address"},{"name":"team_","type":"address","internalType":"address"},{"name":"stakingRewards_","type":"address","internalType":"address"},{"name":"keeper_","type":"address","internalType":"address"}],"outputs":[],"stateMutability":"nonpayable"},{"type":"function","name":"setOracle","inputs":[{"name":"oracle_","type":"address","internalType":"address"}],"outputs":[],"stateMutability":"nonpayable"},{"type":"function","name":"stakingRewards","inputs":[],"outputs":[{"name":"","type":"address","internalType":"address"}],"stateMutability":"view"},{"type":"function","name":"team","inputs":[],"outputs":[{"name":"","type":"address","internalType":"address"}],"stateMutability":"view"},{"type":"function","name":"thresholdBreached","inputs":[],"outputs":[{"name":"nearBear","type":"bool","internalType":"bool"},{"name":"nearBull","type":"bool","internalType":"bool"}],"stateMutability":"view"},{"type":"function","name":"transferOwnership","inputs":[{"name":"newOwner","type":"address","internalType":"address"}],"outputs":[],"stateMutability":"nonpayable"},{"type":"function","name":"treasury","inputs":[],"outputs":[{"name":"","type":"address","internalType":"address"}],"stateMutability":"view"},{"type":"event","name":"DestinationsUpdated","inputs":[{"name":"treasury","type":"address","indexed":false,"internalType":"address"},{"name":"team","type":"address","indexed":false,"internalType":"address"},{"name":"stakingRewards","type":"address","indexed":false,"internalType":"address"},{"name":"keeper","type":"address","indexed":false,"internalType":"address"}],"anonymous":false},{"type":"event","name":"FeeDistributionDetail","inputs":[{"name":"token","type":"address","indexed":true,"internalType":"address"},{"name":"amount","type":"uint256","indexed":false,"internalType":"uint256"},{"name":"toBurn","type":"uint256","indexed":false,"internalType":"uint256"},{"name":"toTeam","type":"uint256","indexed":false,"internalType":"uint256"},{"name":"toStaking","type":"uint256","indexed":false,"internalType":"uint256"},{"name":"toTreasury","type":"uint256","indexed":false,"internalType":"uint256"},{"name":"toKeeper","type":"uint256","indexed":false,"internalType":"uint256"},{"name":"mode","type":"uint8","indexed":false,"internalType":"enum MarketMode"}],"anonymous":false},{"type":"event","name":"MarketModeChanged","inputs":[{"name":"oldMode","type":"uint8","indexed":false,"internalType":"enum MarketMode"},{"name":"newMode","type":"uint8","indexed":false,"internalType":"enum MarketMode"},{"name":"price","type":"uint256","indexed":false,"internalType":"uint256"},{"name":"oracleStale","type":"bool","indexed":false,"internalType":"bool"}],"anonymous":false},{"type":"event","name":"OracleStaleWarning","inputs":[{"name":"lastValidPrice","type":"uint256","indexed":false,"internalType":"uint256"},{"name":"currentTime","type":"uint256","indexed":false,"internalType":"uint256"}],"anonymous":false},{"type":"event","name":"ThresholdsUpdated","inputs":[{"name":"bearThreshold","type":"uint256","indexed":false,"internalType":"uint256"},{"name":"bullThreshold","type":"uint256","indexed":false,"internalType":"uint256"}],"anonymous":false},{"type":"event","name":"TimelockCancelled","inputs":[],"anonymous":false},{"type":"event","name":"TimelockExecuted","inputs":[{"name":"mode","type":"uint8","indexed":false,"internalType":"enum MarketMode"},{"name":"config","type":"tuple","indexed":false,"internalType":"struct BpsConfig","components":[{"name":"bpsBurn","type":"uint256","internalType":"uint256"},{"name":"bpsStaking","type":"uint256","internalType":"uint256"},{"name":"bpsTreasury","type":"uint256","internalType":"uint256"},{"name":"bpsKeeper","type":"uint256","internalType":"uint256"},{"name":"bpsTeam","type":"uint256","internalType":"uint256"}]}],"anonymous":false},{"type":"event","name":"TimelockProposed","inputs":[{"name":"mode","type":"uint8","indexed":false,"internalType":"enum MarketMode"},{"name":"config","type":"tuple","indexed":false,"internalType":"struct BpsConfig","components":[{"name":"bpsBurn","type":"uint256","internalType":"uint256"},{"name":"bpsStaking","type":"uint256","internalType":"uint256"},{"name":"bpsTreasury","type":"uint256","internalType":"uint256"},{"name":"bpsKeeper","type":"uint256","internalType":"uint256"},{"name":"bpsTeam","type":"uint256","internalType":"uint256"}]},{"name":"executeAfter","type":"uint256","indexed":false,"internalType":"uint256"}],"anonymous":false},{"type":"error","name":"IonDexBpsInvalid","inputs":[]},{"type":"error","name":"IonDexInvalidThreshold","inputs":[]},{"type":"error","name":"IonDexNoPendingProposal","inputs":[]},{"type":"error","name":"IonDexOnlyIon","inputs":[]},{"type":"error","name":"IonDexTeamBpsImmutable","inputs":[]},{"type":"error","name":"IonDexTimelockNotReady","inputs":[]},{"type":"error","name":"IonDexTokenTransferFailed","inputs":[]},{"type":"error","name":"IonDexUnauthorized","inputs":[]},{"type":"error","name":"IonDexZeroAddress","inputs":[]},{"type":"error","name":"IonDexZeroAmount","inputs":[]}],"bytecode":{"object":"0x60a0604052346102d257604051601f61174f38819003918201601f19168301916001600160401b038311848410176102d657808492610120946040528339810103126102d25761004e81610309565b9061005b60208201610309565b61006760408301610309565b61007360608401610309565b61007f60808501610309565b9061008c60a08601610309565b9261009960c08701610309565b9461010060e088015197015197600160115560018060a01b031691821580156102c1575b80156102b0575b61026e576001600160a01b0316918215801561029f575b801561028e575b801561027d575b61026e578888101561025f575f80546001600160a01b03199081169290921790556080919091526001805482169290921782556002805482166001600160a01b039485161790556003805482169484169490941790935560048054841694831694909417909355600580549092169316929092179091556006919091556007919091556008805460ff19169091179055610181610338565b506101be6101b96101906102ea565b610fa081526109c46020820152610320604082015260c860608201526109c4608082015261037f565b61031d565b6101c6610338565b506101ff6101b96101d56102ea565b610bb881526109c460208201526105dc60408201526101f460608201526109c4608082015261037f565b610207610338565b506102406101b96102166102ea565b6105dc8152610dac60208201526107d060408201526101f460608201526109c4608082015261037f565b60405161137890816103d7823960805181818161037e0152610a720152f35b63e82ea84d60e01b5f5260045ffd5b6394844c1960e01b5f5260045ffd5b506001600160a01b038616156100e9565b506001600160a01b038516156100e2565b506001600160a01b038416156100db565b506001600160a01b038716156100c4565b506001600160a01b038216156100bd565b5f80fd5b634e487b7160e01b5f52604160045260245ffd5b6040519060a082016001600160401b038111838210176102d657604052565b51906001600160a01b03821682036102d257565b1561032457565b634e487b7160e01b5f52600160045260245ffd5b6103406102ea565b905f82525f60208301525f60408301525f60608301525f6080830152565b9190820180921161036b57565b634e487b7160e01b5f52601160045260245ffd5b608081016109c4815114918261039457505090565b6127109250906103ca8260606103c16103b66103d2965160208501519061035e565b60408401519061035e565b9101519061035e565b90519061035e565b149056fe6080806040526004361015610012575f80fd5b5f905f3560e01c908163403fc6db14610f2c57508063417af58014610ed75780634623c81e14610eba57806348fef59514610a335780635bf20d7214610a0957806361d027b3146109e157806364b87a70146109b95780637adbf9731461095a5780637ca73feb146108115780637dc0d1d0146109325780637e26503a146108b45780637f93690a146108365780638125092f1461081157806385f2aef2146107e957806388fd205d146106805780638da5cb5b14610659578063a76e5f83146105dc578063a7a0ba3a146105bf578063a924c42b14610591578063aa5134ba146103d6578063aced1661146103ad578063b0b5df6c14610368578063c10340681461034a578063d73792a91461032d578063d87b976b146101d2578063f2fde38b146101675763fb5687d314610147575f80fd5b346101645780600319360112610164576020600654604051908152f35b80fd5b503461016457602036600319011261016457610181610f46565b8154906001600160a01b03821633036101c3576001600160a01b03169081156101b4576001600160a01b03191617815580f35b6394844c1960e01b8352600483fd5b6326392e5760e11b8352600483fd5b5034610164576080366003190112610164576101ec610f46565b6024356001600160a01b0381169190829003610329576044356001600160a01b03811690819003610329576064356001600160a01b03811692908390036103295784546001600160a01b0316330361031a576001600160a01b03169283158015610312575b801561030a575b8015610302575b6102f3579183916080937ffa32c6e769be143dc4bdf7264b797abecb035bceb2daad462e0b198057f44b3d956001600160601b0360a01b6001541617600155806001600160601b0360a01b6002541617600255816001600160601b0360a01b6003541617600355826001600160601b0360a01b6004541617600455604051938452602084015260408301526060820152a180f35b6394844c1960e01b8552600485fd5b50821561025f565b508115610258565b508015610251565b6326392e5760e11b8552600485fd5b5f80fd5b503461016457806003193601126101645760206040516127108152f35b50346101645780600319360112610164576020600754604051908152f35b50346101645780600319360112610164576040517f00000000000000000000000000000000000000000000000000000000000000006001600160a01b03168152602090f35b50346101645780600319360112610164576004546040516001600160a01b039091168152602090f35b503461016457806003193601126101645780546001600160a01b031633036105825760405161040481610f99565b600954815260ff600a54166020820190600381101561056e578152610427610fd7565b916040810192835260ff6010541660608201901515815281511561055f575161055057514210610541578151602081519101518082101561053257816040917fd081f5afbf5e2859f2be3d6c573e1cdd6c8fb93b18ec6145427882fe51507b6a9360065580600755600160ff19601054161760105582519182526020820152a15190600382101561051e577f24c83f0854da4bfdf7a6b38e841e66a3833de6d338995afd3024701767fdde879161051a60c092516104e86040518094610f5c565b602083019060808091805184526020810151602085015260408101516040850152606081015160608501520151910152565ba180f35b634e487b7160e01b83526021600452602483fd5b63e82ea84d60e01b8552600485fd5b63747cce0d60e01b8352600483fd5b63e269bd8360e01b8452600484fd5b63e269bd8360e01b8552600485fd5b634e487b7160e01b5f52602160045260245ffd5b6326392e5760e11b8152600490fd5b50346101645760203660031901126101645760206105b0600435611139565b6105bd6040518092610f5c565bf35b503461016457806003193601126101645760206040516109c48152f35b503461016457806003193601126101645761010060095460ff600a5416610650610604610fd7565b61061e60ff60105416936040519586526020860190610f5c565b604084019060808091805184526020810151602085015260408101516040850152606081015160608501520151910152565b151560e0820152f35b5034610164578060031936011261016457546040516001600160a01b039091168152602090f35b34610329576040366003190112610329575f5460243590600435906001600160a01b031633036107da57818110156107cb576202a3004201908142116107b7577f77dafc65dcc5b0b89fcdf8f501ef5bf28cf09771134b9294c7127556b15dec149260e09260806040516106f381610f69565b5f81525f60208201525f60408201525f60608201526109c4828201526040519261071c84610f99565b8352600160208401526040830190815260608301925f845251600955600160ff19600a541617600a55518051600b556020810151600c556040810151600d556060810151600e550151600f5551151560ff80196010541691161760105581600b5580600c5560095490604051926001845260208401526040830152600d546060830152600e546080830152600f5460a083015260c0820152a1005b634e487b7160e01b5f52601160045260245ffd5b63e82ea84d60e01b5f5260045ffd5b6326392e5760e11b5f5260045ffd5b34610329575f366003190112610329576002546040516001600160a01b039091168152602090f35b34610329575f36600319011261032957602060ff600854166105bd6040518092610f5c565b34610329575f366003190112610329575f546001600160a01b031633036107da57600954156108a5575f6009555f600a555f600b555f600c555f600d555f600e555f600f555f6010557fe073c8e5806556af67673b3277147b43987972ef766373a993bbe6f325aac9965f80a1005b63e269bd8360e01b5f5260045ffd5b34610329575f366003190112610329576108dc6108d76108d2611235565b611271565b611111565b6108ea6108d76108d26112c8565b6108f86108d76108d2611305565b6109106109c46080610908611235565b015114611111565b6109206109c460806109086112c8565b6109306109c46080610908611305565b005b34610329575f366003190112610329576005546040516001600160a01b039091168152602090f35b3461032957602036600319011261032957610973610f46565b5f546001600160a01b031633036107da576001600160a01b031680156109aa576001600160601b0360a01b60055416176005555f80f35b6394844c1960e01b5f5260045ffd5b34610329575f366003190112610329576003546040516001600160a01b039091168152602090f35b34610329575f366003190112610329576001546040516001600160a01b039091168152602090f35b34610329575f366003190112610329576040610a23611055565b8251911515825215156020820152f35b3461032957604036600319011261032957610a4c610f46565b602435906001601154036107da5760026011556001600160a01b0381169182156109aa577f00000000000000000000000000000000000000000000000000000000000000006001600160a01b03168303610eab578015610e9c576040516323b872dd60e01b8152336004820152306024820152604481018290526020816064815f885af1908115610d79575f91610e62575b5015610c975760055460408051634c6afee560e11b815291829060049082905f906001600160a01b03165af18015610d79575f915f91610e31575b508015610e07576001907f278e2cc756fcc536e3c76be5fed5407c24936fcdc0b0302f08cad33587b2899b60408051858152426020820152a15b60ff6008541690600382101561056e57600383101561056e57818303610da3575b50505050610b8061115a565b50610b8f60ff60085416611184565b90612710610b9e83518361100b565b04612710610bb060808501518461100b565b0490612710610bd3604082610bc960208901518861100b565b049601518561100b565b0494610bf086610beb87610beb87610beb888b61101e565b61101e565b9083151580610d84575b610c975782151580610d03575b610c975785151580610ce4575b610c975786151580610cc5575b610c9757818015159182610ca6575b5050610c97577f64a62f0355383a9bda29021dccaf86ed1089f1302eed4e8ebe618d6447c042a89560e095610c8f9460ff6008541694604051978852602088015260408701526060860152608085015260a084015260c0830190610f5c565ba26001601155005b63363b9cef60e21b5f5260045ffd5b600454610cbd93506001600160a01b0316906111bc565b158189610c30565b50600154610cde9088906001600160a01b0316836111bc565b15610c21565b50600354610cfd9087906001600160a01b0316836111bc565b15610c14565b5060405163a9059cbb60e01b815261dead6004820152602481018490526020816044815f8d5af1908115610d79575f91610d3f575b5015610c07565b90506020813d602011610d71575b81610d5a60209383610fb5565b8101031261032957610d6b9061102b565b89610d38565b3d9150610d4d565b6040513d5f823e3d90fd5b50600254610d9d9085906001600160a01b0316836111bc565b15610bfa565b7ff6634fce04ecde4e3230a33b0b5fa9873bfef53d0358aff6a48a9d479bd557f593610df160809460ff196008541660ff821617600855610de76040518096610f5c565b6020850190610f5c565b604083015215156060820152a183808080610b74565b600654821015610e18575f90610b53565b6007548210610e2957600290610b53565b600190610b53565b9050610e55915060403d604011610e5b575b610e4d8183610fb5565b810190611038565b85610b19565b503d610e43565b90506020813d602011610e94575b81610e7d60209383610fb5565b8101031261032957610e8e9061102b565b84610ade565b3d9150610e70565b6377b0874f60e11b5f5260045ffd5b630f859a9160e21b5f5260045ffd5b34610329575f3660031901126103295760206040516202a3008152f35b34610329575f3660031901126103295760a0610ef760ff60085416611184565b805190602081015190604081015160806060830151920151926040519485526020850152604084015260608301526080820152f35b34610329575f366003190112610329578061dead60209252f35b600435906001600160a01b038216820361032957565b90600382101561056e5752565b60a0810190811067ffffffffffffffff821117610f8557604052565b634e487b7160e01b5f52604160045260245ffd5b6080810190811067ffffffffffffffff821117610f8557604052565b90601f8019910116810190811067ffffffffffffffff821117610f8557604052565b60405190610fe482610f69565b600b548252600c546020830152600d546040830152600e546060830152600f546080830152565b818102929181159184041417156107b757565b919082039182116107b757565b5190811515820361032957565b91908260409103126103295761105260208351930161102b565b90565b60055460408051631f7cba4160e21b81529291839060049082906001600160a01b03165afa8015610d79575f925f916110ec575b506110e557600654600754928181101591826110cc575b508381101593846110b2575b50509190565b6110c391929450600a81049061112c565b11915f806110ac565b6110dc919250600a81049061112c565b8110905f6110a0565b5f91508190565b905061110891925060403d604011610e5b57610e4d8183610fb5565b9190915f611089565b1561111857565b634e487b7160e01b5f52600160045260245ffd5b919082018092116107b757565b600654811061115557600754111561115057600190565b600290565b505f90565b6040519061116782610f69565b5f6080838281528260208201528260408201528260608201520152565b61118c61115a565b50600381101561056e5780156111b3576001146111ab57611052611305565b6110526112c8565b50611052611235565b60405163a9059cbb60e01b81526001600160a01b0392831660048201526024810193909352602091839160449183915f91165af1908115610d79575f91611201575090565b90506020813d60201161122d575b8161121c60209383610fb5565b81010312610329576110529061102b565b3d915061120f565b61123d61115a565b5060405161124a81610f69565b610fa081526109c46020820152610320604082015260c860608201526109c4608082015290565b608081016109c4815114918261128657505090565b6127109250906112bc8260606112b36112a86112c4965160208501519061112c565b60408401519061112c565b9101519061112c565b90519061112c565b1490565b6112d061115a565b506040516112dd81610f69565b610bb881526109c460208201526105dc60408201526101f460608201526109c4608082015290565b61130d61115a565b5060405161131a81610f69565b6105dc8152610dac60208201526107d060408201526101f460608201526109c460808201529056fea26469706673582212209c7a5443f3f73109abe32d0011cc86a431ab610053e9cf1a0b9682b2f3d8d18e64736f6c63430008230033","linkReferences":{}},"methodIdentifiers":{"BPS_TEAM_IMMUTABLE()":"a7a0ba3a","BSC_BURN_ADDRESS()":"403fc6db","FEE_DENOMINATOR()":"d73792a9","TIMELOCK_DURATION()":"4623c81e","assertInvariants()":"7e26503a","bearThreshold()":"fb5687d3","bullThreshold()":"c1034068","cancelTimelock()":"7f93690a","currentMode()":"8125092f","distributeFees(address,uint256)":"48fef595","executeTimelock()":"aa5134ba","getEffectiveBps()":"417af580","getMarketMode()":"7ca73feb","ionToken()":"b0b5df6c","keeper()":"aced1661","oracle()":"7dc0d1d0","owner()":"8da5cb5b","pendingProposal()":"a76e5f83","previewMode(uint256)":"a924c42b","proposeThresholds(uint256,uint256)":"88fd205d","setDestinations(address,address,address,address)":"d87b976b","setOracle(address)":"7adbf973","stakingRewards()":"64b87a70","team()":"85f2aef2","thresholdBreached()":"5bf20d72","transferOwnership(address)":"f2fde38b","treasury()":"61d027b3"},"id":4}