{"abi":[{"type":"constructor","inputs":[{"name":"owner_","type":"address","internalType":"address"},{"name":"ionToken_","type":"address","internalType":"address"},{"name":"treasury_","type":"address","internalType":"address"},{"name":"team_","type":"address","internalType":"address"},{"name":"stakingRewards_","type":"address","internalType":"address"},{"name":"keeper_","type":"address","internalType":"address"}],"stateMutability":"nonpayable"},{"type":"function","name":"BPS_BURN","inputs":[],"outputs":[{"name":"","type":"uint256","internalType":"uint256"}],"stateMutability":"view"},{"type":"function","name":"BPS_KEEPER","inputs":[],"outputs":[{"name":"","type":"uint256","internalType":"uint256"}],"stateMutability":"view"},{"type":"function","name":"BPS_STAKING","inputs":[],"outputs":[{"name":"","type":"uint256","internalType":"uint256"}],"stateMutability":"view"},{"type":"function","name":"BPS_TEAM","inputs":[],"outputs":[{"name":"","type":"uint256","internalType":"uint256"}],"stateMutability":"view"},{"type":"function","name":"BPS_TREASURY","inputs":[],"outputs":[{"name":"","type":"uint256","internalType":"uint256"}],"stateMutability":"view"},{"type":"function","name":"BSC_BURN_ADDRESS","inputs":[],"outputs":[{"name":"","type":"address","internalType":"address"}],"stateMutability":"view"},{"type":"function","name":"FEE_DENOMINATOR","inputs":[],"outputs":[{"name":"","type":"uint256","internalType":"uint256"}],"stateMutability":"view"},{"type":"function","name":"distributeFees","inputs":[{"name":"token","type":"address","internalType":"address"},{"name":"amount","type":"uint256","internalType":"uint256"}],"outputs":[],"stateMutability":"nonpayable"},{"type":"function","name":"ionToken","inputs":[],"outputs":[{"name":"","type":"address","internalType":"address"}],"stateMutability":"view"},{"type":"function","name":"keeper","inputs":[],"outputs":[{"name":"","type":"address","internalType":"address"}],"stateMutability":"view"},{"type":"function","name":"owner","inputs":[],"outputs":[{"name":"","type":"address","internalType":"address"}],"stateMutability":"view"},{"type":"function","name":"setDestinations","inputs":[{"name":"treasury_","type":"address","internalType":"address"},{"name":"team_","type":"address","internalType":"address"},{"name":"stakingRewards_","type":"address","internalType":"address"},{"name":"keeper_","type":"address","internalType":"address"}],"outputs":[],"stateMutability":"nonpayable"},{"type":"function","name":"stakingRewards","inputs":[],"outputs":[{"name":"","type":"address","internalType":"address"}],"stateMutability":"view"},{"type":"function","name":"team","inputs":[],"outputs":[{"name":"","type":"address","internalType":"address"}],"stateMutability":"view"},{"type":"function","name":"treasury","inputs":[],"outputs":[{"name":"","type":"address","internalType":"address"}],"stateMutability":"view"},{"type":"event","name":"DestinationsUpdated","inputs":[{"name":"treasury","type":"address","indexed":false,"internalType":"address"},{"name":"team","type":"address","indexed":false,"internalType":"address"},{"name":"stakingRewards","type":"address","indexed":false,"internalType":"address"},{"name":"keeper","type":"address","indexed":false,"internalType":"address"}],"anonymous":false},{"type":"event","name":"FeeDistributed","inputs":[{"name":"token","type":"address","indexed":true,"internalType":"address"},{"name":"amount","type":"uint256","indexed":false,"internalType":"uint256"},{"name":"toBurn","type":"uint256","indexed":false,"internalType":"uint256"},{"name":"toTeam","type":"uint256","indexed":false,"internalType":"uint256"},{"name":"toStaking","type":"uint256","indexed":false,"internalType":"uint256"},{"name":"toTreasury","type":"uint256","indexed":false,"internalType":"uint256"},{"name":"toKeeper","type":"uint256","indexed":false,"internalType":"uint256"}],"anonymous":false},{"type":"error","name":"IonDexBpsInvalid","inputs":[]},{"type":"error","name":"IonDexOnlyIon","inputs":[]},{"type":"error","name":"IonDexTokenTransferFailed","inputs":[]},{"type":"error","name":"IonDexUnauthorized","inputs":[]},{"type":"error","name":"IonDexZeroAddress","inputs":[]},{"type":"error","name":"IonDexZeroAmount","inputs":[]}],"bytecode":{"object":"0x60a03461018f57601f61099b38819003918201601f19168301916001600160401b038311848410176101935780849260c09460405283398101031261018f57610047816101a7565b90610054602082016101a7565b610060604083016101a7565b61006c606084016101a7565b9161008560a061007e608087016101a7565b95016101a7565b946001600160a01b0316918215801561017e575b61013c576001600160a01b0316918215801561016d575b801561015c575b801561014b575b61013c575f80546001600160a01b0319908116929092179055608091909152600180548216929092179091556002805482166001600160a01b03938416179055600380548216938316939093179092556004805490921692169190911790556040516107df90816101bc823960805181818161026501526103c20152f35b6394844c1960e01b5f5260045ffd5b506001600160a01b038616156100be565b506001600160a01b038516156100b7565b506001600160a01b038416156100b0565b506001600160a01b03821615610099565b5f80fd5b634e487b7160e01b5f52604160045260245ffd5b51906001600160a01b038216820361018f5756fe6080806040526004361015610012575f80fd5b5f3560e01c90816308e4298c146106bd575080632288391a146106a1578063403fc6db1461068557806348fef5951461039357806361d027b31461036b57806364b87a70146103435780637013626b1461032757806385f2aef2146102ff5780638da5cb5b146102d85780639aa8c617146102bc578063aced166114610294578063b0b5df6c14610250578063d73792a914610234578063d87b976b146100e15763ededa9c7146100c1575f80fd5b346100dd575f3660031901126100dd5760206040516109c48152f35b5f80fd5b346100dd5760803660031901126100dd576100fa6106d7565b6024356001600160a01b038116908190036100dd576044356001600160a01b03811692908390036100dd576064356001600160a01b03811691908290036100dd575f546001600160a01b03163303610225576001600160a01b0316908115801561021d575b8015610215575b801561020d575b6101fe577ffa32c6e769be143dc4bdf7264b797abecb035bceb2daad462e0b198057f44b3d93608093836001600160601b0360a01b6001541617600155806001600160601b0360a01b6002541617600255816001600160601b0360a01b6003541617600355826001600160601b0360a01b6004541617600455604051938452602084015260408301526060820152a1005b6394844c1960e01b5f5260045ffd5b50801561016d565b508315610166565b50821561015f565b6326392e5760e11b5f5260045ffd5b346100dd575f3660031901126100dd5760206040516127108152f35b346100dd575f3660031901126100dd576040517f00000000000000000000000000000000000000000000000000000000000000006001600160a01b03168152602090f35b346100dd575f3660031901126100dd576004546040516001600160a01b039091168152602090f35b346100dd575f3660031901126100dd5760206040516107d08152f35b346100dd575f3660031901126100dd575f546040516001600160a01b039091168152602090f35b346100dd575f3660031901126100dd576002546040516001600160a01b039091168152602090f35b346100dd575f3660031901126100dd5760206040516101f48152f35b346100dd575f3660031901126100dd576003546040516001600160a01b039091168152602090f35b346100dd575f3660031901126100dd576001546040516001600160a01b039091168152602090f35b346100dd5760403660031901126100dd576103ac6106d7565b6001600160a01b0381169060243582156101fe577f00000000000000000000000000000000000000000000000000000000000000006001600160a01b03168303610676578015610667576040516323b872dd60e01b8152336004820152306024820152604481018290526020816064815f885af1908115610629575f91610648575b501561053357610dac8102818104610dac03610634576127109004906109c481028181046109c403610634576127109004926107d082028281046107d0036106345761271090046105dc83028381046105dc03610634576127109004906104a6826104a1836104a18a6104a18b8b6106ed565b6106ed565b92851515806105be575b610533578615158061059f575b6105335781151580610580575b6105335782151580610561575b61053357838015159182610542575b5050610533577fe205594824e0b766055113357eb9ca852cce628f1cd9cd5672527343a4e469079560c095604051958652602086015260408501526060840152608083015260a0820152a2005b63363b9cef60e21b5f5260045ffd5b60045461055993506001600160a01b031690610748565b1583896104e6565b5060015461057a9084906001600160a01b031683610748565b156104d7565b506003546105999083906001600160a01b031683610748565b156104ca565b506002546105b89088906001600160a01b031683610748565b156104bd565b5060405163a9059cbb60e01b815261dead6004820152602481018790526020816044815f8d5af1908115610629575f916105fa575b50156104b0565b61061c915060203d602011610622575b61061481836106fa565b810190610730565b896105f3565b503d61060a565b6040513d5f823e3d90fd5b634e487b7160e01b5f52601160045260245ffd5b610661915060203d6020116106225761061481836106fa565b8461042e565b6377b0874f60e11b5f5260045ffd5b630f859a9160e21b5f5260045ffd5b346100dd575f3660031901126100dd57602060405161dead8152f35b346100dd575f3660031901126100dd5760206040516105dc8152f35b346100dd575f3660031901126100dd5780610dac60209252f35b600435906001600160a01b03821682036100dd57565b9190820391821161063457565b90601f8019910116810190811067ffffffffffffffff82111761071c57604052565b634e487b7160e01b5f52604160045260245ffd5b908160209103126100dd575180151581036100dd5790565b60405163a9059cbb60e01b81526001600160a01b0392831660048201526024810193909352602091839160449183915f91165af1908115610629575f9161078d575090565b6107a6915060203d6020116106225761061481836106fa565b9056fea2646970667358221220bc45b45a138b8a9105f34a499264b988f249227618603b7ff71bcd38710191f864736f6c63430008230033","linkReferences":{}},"methodIdentifiers":{"BPS_BURN()":"08e4298c","BPS_KEEPER()":"7013626b","BPS_STAKING()":"9aa8c617","BPS_TEAM()":"ededa9c7","BPS_TREASURY()":"2288391a","BSC_BURN_ADDRESS()":"403fc6db","FEE_DENOMINATOR()":"d73792a9","distributeFees(address,uint256)":"48fef595","ionToken()":"b0b5df6c","keeper()":"aced1661","owner()":"8da5cb5b","setDestinations(address,address,address,address)":"d87b976b","stakingRewards()":"64b87a70","team()":"85f2aef2","treasury()":"61d027b3"},"id":7}