{"abi":[{"type":"constructor","inputs":[{"name":"owner_","type":"address","internalType":"address"},{"name":"vault_","type":"address","internalType":"address"},{"name":"quorum_","type":"uint8","internalType":"uint8"}],"stateMutability":"nonpayable"},{"type":"function","name":"MAX_RELAYERS","inputs":[],"outputs":[{"name":"","type":"uint256","internalType":"uint256"}],"stateMutability":"view"},{"type":"function","name":"addRelayer","inputs":[{"name":"relayer","type":"address","internalType":"address"}],"outputs":[],"stateMutability":"nonpayable"},{"type":"function","name":"attestInbound","inputs":[{"name":"nonce","type":"bytes32","internalType":"bytes32"},{"name":"token","type":"address","internalType":"address"},{"name":"user","type":"address","internalType":"address"},{"name":"amount","type":"uint256","internalType":"uint256"}],"outputs":[],"stateMutability":"nonpayable"},{"type":"function","name":"consumedNonce","inputs":[{"name":"","type":"bytes32","internalType":"bytes32"}],"outputs":[{"name":"","type":"bool","internalType":"bool"}],"stateMutability":"view"},{"type":"function","name":"isRelayer","inputs":[{"name":"","type":"address","internalType":"address"}],"outputs":[{"name":"","type":"bool","internalType":"bool"}],"stateMutability":"view"},{"type":"function","name":"owner","inputs":[],"outputs":[{"name":"","type":"address","internalType":"address"}],"stateMutability":"view"},{"type":"function","name":"quorum","inputs":[],"outputs":[{"name":"","type":"uint8","internalType":"uint8"}],"stateMutability":"view"},{"type":"function","name":"relayerCount","inputs":[],"outputs":[{"name":"","type":"uint256","internalType":"uint256"}],"stateMutability":"view"},{"type":"function","name":"relayerList","inputs":[{"name":"","type":"uint256","internalType":"uint256"}],"outputs":[{"name":"","type":"address","internalType":"address"}],"stateMutability":"view"},{"type":"function","name":"removeRelayer","inputs":[{"name":"relayer","type":"address","internalType":"address"}],"outputs":[],"stateMutability":"nonpayable"},{"type":"function","name":"setQuorum","inputs":[{"name":"quorum_","type":"uint8","internalType":"uint8"}],"outputs":[],"stateMutability":"nonpayable"},{"type":"function","name":"setVault","inputs":[{"name":"vault_","type":"address","internalType":"address"}],"outputs":[],"stateMutability":"nonpayable"},{"type":"function","name":"vault","inputs":[],"outputs":[{"name":"","type":"address","internalType":"address"}],"stateMutability":"view"},{"type":"event","name":"MessageRelayed","inputs":[{"name":"nonce","type":"bytes32","indexed":true,"internalType":"bytes32"},{"name":"token","type":"address","indexed":true,"internalType":"address"},{"name":"user","type":"address","indexed":true,"internalType":"address"},{"name":"amount","type":"uint256","indexed":false,"internalType":"uint256"},{"name":"releaseId","type":"bytes32","indexed":false,"internalType":"bytes32"}],"anonymous":false},{"type":"event","name":"QuorumUpdated","inputs":[{"name":"quorum","type":"uint8","indexed":false,"internalType":"uint8"}],"anonymous":false},{"type":"event","name":"RelayerAdded","inputs":[{"name":"relayer","type":"address","indexed":true,"internalType":"address"}],"anonymous":false},{"type":"event","name":"RelayerRemoved","inputs":[{"name":"relayer","type":"address","indexed":true,"internalType":"address"}],"anonymous":false},{"type":"error","name":"IonDexDuplicateNonce","inputs":[]},{"type":"error","name":"IonDexInvalidQuorum","inputs":[]},{"type":"error","name":"IonDexUnauthorized","inputs":[]},{"type":"error","name":"IonDexZeroAddress","inputs":[]},{"type":"error","name":"IonDexZeroAmount","inputs":[]}],"bytecode":{"object":"0x60803461011457601f6108d038819003918201601f19168301916001600160401b0383118484101761011857808492606094604052833981010312610114576100478161012c565b60406100556020840161012c565b9201519060ff821690818303610114576001600160a01b03169081158015610103575b6100f45780159081156100e9575b506100da575f80546001600160a01b031916919091179055600180546001600160a81b0319166001600160a01b03939093169290921760a09190911b60ff60a01b1617905560405161078f90816101418239f35b6373c2724160e01b5f5260045ffd5b60209150115f610086565b6394844c1960e01b5f5260045ffd5b506001600160a01b03841615610078565b5f80fd5b634e487b7160e01b5f52604160045260245ffd5b51906001600160a01b03821682036101145756fe60806040526004361015610011575f80fd5b5f5f3560e01c806311162be7146106d55780631703a018146106b2578063541d55481461067557806360f0a5ac1461052c5780636817031b146104d75780636a2b6bdd146103315780636dcab78f1461029857806381c5de3c146102695780638da5cb5b146102425780639debb3bd14610227578063cf1a7a2114610209578063dd39f00d146100d45763fbfa77cf146100a9575f80fd5b346100d157806003193601126100d1576001546040516001600160a01b039091168152602090f35b80fd5b50346100d15760203660031901126100d1576100ee610743565b81546001600160a01b031633036101fa576001600160a01b0381169081156101eb57818352600360205260ff6040842054166101dc57602060025410156101cd57818352600360205260408320805460ff19166001179055600254680100000000000000008110156101b9579061016e8260016101929401600255610717565b81546001600160a01b0393841660039290921b91821b9390911b1916919091179055565b7f03580ee9f53a62b7cb409a2cb56f9be87747dd15017afc5cef6eef321e4fb2c58280a280f35b634e487b7160e01b84526041600452602484fd5b6373c2724160e01b8352600483fd5b6326392e5760e11b8352600483fd5b6394844c1960e01b8352600483fd5b6326392e5760e11b8252600482fd5b50346100d157806003193601126100d1576020600254604051908152f35b50346100d157806003193601126100d1576020604051818152f35b50346100d157806003193601126100d157546040516001600160a01b039091168152602090f35b50346100d15760203660031901126100d15760ff60406020926004358152600484522054166040519015158152f35b50346100d15760203660031901126100d15760043560ff81169081810361032d5782546001600160a01b031633036101dc5781158015610323575b6101cd576001805460ff60a01b191660a09290921b60ff60a01b169190911790556040519081527f209c836d424319a2cc9b1b388a1938ffe724afa8b94ffc505b26f908dff40e9090602090a180f35b50602082116102d3565b8280fd5b503461048f57608036600319011261048f576004356024356001600160a01b0381169081900361048f576044356001600160a01b038116929083900361048f57606435335f52600360205260ff60405f205416156104c857821580156104c0575b6104a25780156104b15781156104a257815f52600460205260ff60405f205416610493575f828152600460205260409020805460ff19166001908117909155546001600160a01b0316803b1561048f575f8091608460405180948193631183e92160e21b83528960048401528a60248401528760448401528860648401525af1801561048457610451575b5060407f0df0e82148913a096f5f37939ed88a786bf72ba2cf8bc66a582ddc1dea243118918151908152836020820152a480f35b90945067ffffffffffffffff81116104705760409081525f949061041d565b634e487b7160e01b5f52604160045260245ffd5b6040513d5f823e3d90fd5b5f80fd5b631a2b4e0f60e21b5f5260045ffd5b6394844c1960e01b5f5260045ffd5b6377b0874f60e11b5f5260045ffd5b508315610392565b6326392e5760e11b5f5260045ffd5b3461048f57602036600319011261048f576104f0610743565b5f546001600160a01b031633036104c8576001600160a01b031680156104a2576bffffffffffffffffffffffff60a01b60015416176001555f80f35b3461048f57602036600319011261048f57610545610743565b5f546001600160a01b031633036104c8576001600160a01b03165f8181526003602052604090205460ff16156104c8575f818152600360205260408120805460ff191690555b600254908181101561066e57826105a182610717565b905460039190911b1c6001600160a01b0316146105c257600191500161058b565b5f19820191821161065a5761016e6105dc6105f493610717565b905460039190911b1c6001600160a01b031691610717565b6002548015610646575f190161060981610717565b81549060018060a01b039060031b1b191690556002555b7f10e1f7ce9fd7d1b90a66d13a2ab3cb8dd7f29f3f8d520b143b063ccfbab6906b5f80a2005b634e487b7160e01b5f52603160045260245ffd5b634e487b7160e01b5f52601160045260245ffd5b5050610620565b3461048f57602036600319011261048f576001600160a01b03610696610743565b165f526003602052602060ff60405f2054166040519015158152f35b3461048f575f36600319011261048f57602060ff60015460a01c16604051908152f35b3461048f57602036600319011261048f5760043560025481101561048f576106fe602091610717565b905460405160039290921b1c6001600160a01b03168152f35b60025481101561072f5760025f5260205f2001905f90565b634e487b7160e01b5f52603260045260245ffd5b600435906001600160a01b038216820361048f5756fea26469706673582212201b797623df5cd658bf1c2b56d8a868a1130cb15581eeef56e9b92fca07b1e3ca64736f6c63430008230033","linkReferences":{}},"methodIdentifiers":{"MAX_RELAYERS()":"9debb3bd","addRelayer(address)":"dd39f00d","attestInbound(bytes32,address,address,uint256)":"6a2b6bdd","consumedNonce(bytes32)":"81c5de3c","isRelayer(address)":"541d5548","owner()":"8da5cb5b","quorum()":"1703a018","relayerCount()":"cf1a7a21","relayerList(uint256)":"11162be7","removeRelayer(address)":"60f0a5ac","setQuorum(uint8)":"6dcab78f","setVault(address)":"6817031b","vault()":"fbfa77cf"},"id":3}