{"abi":[{"type":"constructor","inputs":[{"name":"owner_","type":"address","internalType":"address"},{"name":"oracle_","type":"address","internalType":"address"},{"name":"label_","type":"string","internalType":"string"}],"stateMutability":"nonpayable"},{"type":"function","name":"STALE_THRESHOLD","inputs":[],"outputs":[{"name":"","type":"uint256","internalType":"uint256"}],"stateMutability":"view"},{"type":"function","name":"getOracleInfo","inputs":[],"outputs":[{"name":"oracleAddr","type":"address","internalType":"address"},{"name":"decimals","type":"uint8","internalType":"uint8"},{"name":"cachedPrice","type":"uint256","internalType":"uint256"},{"name":"cachedTimestamp","type":"uint256","internalType":"uint256"},{"name":"label","type":"string","internalType":"string"}],"stateMutability":"view"},{"type":"function","name":"getPrice","inputs":[],"outputs":[{"name":"price","type":"uint256","internalType":"uint256"},{"name":"isStale","type":"bool","internalType":"bool"}],"stateMutability":"nonpayable"},{"type":"function","name":"getPriceView","inputs":[],"outputs":[{"name":"price","type":"uint256","internalType":"uint256"},{"name":"isStale","type":"bool","internalType":"bool"}],"stateMutability":"view"},{"type":"function","name":"lastValidPrice","inputs":[],"outputs":[{"name":"","type":"uint256","internalType":"uint256"}],"stateMutability":"view"},{"type":"function","name":"lastValidTimestamp","inputs":[],"outputs":[{"name":"","type":"uint256","internalType":"uint256"}],"stateMutability":"view"},{"type":"function","name":"oracleDecimals","inputs":[],"outputs":[{"name":"","type":"uint8","internalType":"uint8"}],"stateMutability":"view"},{"type":"function","name":"oracleLabel","inputs":[],"outputs":[{"name":"","type":"string","internalType":"string"}],"stateMutability":"view"},{"type":"function","name":"owner","inputs":[],"outputs":[{"name":"","type":"address","internalType":"address"}],"stateMutability":"view"},{"type":"function","name":"priceOracle","inputs":[],"outputs":[{"name":"","type":"address","internalType":"contract AggregatorV3Interface"}],"stateMutability":"view"},{"type":"function","name":"setOracle","inputs":[{"name":"newOracle","type":"address","internalType":"address"},{"name":"newLabel","type":"string","internalType":"string"}],"outputs":[],"stateMutability":"nonpayable"},{"type":"function","name":"transferOwnership","inputs":[{"name":"newOwner","type":"address","internalType":"address"}],"outputs":[],"stateMutability":"nonpayable"},{"type":"event","name":"FallbackPriceUsed","inputs":[{"name":"fallbackPrice","type":"uint256","indexed":false,"internalType":"uint256"},{"name":"reason","type":"string","indexed":false,"internalType":"string"}],"anonymous":false},{"type":"event","name":"OracleStaleWarning","inputs":[{"name":"updatedAt","type":"uint256","indexed":false,"internalType":"uint256"},{"name":"currentTime","type":"uint256","indexed":false,"internalType":"uint256"},{"name":"staleSeconds","type":"uint256","indexed":false,"internalType":"uint256"}],"anonymous":false},{"type":"event","name":"OracleUpdated","inputs":[{"name":"oldOracle","type":"address","indexed":true,"internalType":"address"},{"name":"newOracle","type":"address","indexed":true,"internalType":"address"}],"anonymous":false},{"type":"error","name":"IonDexInvalidOracle","inputs":[]},{"type":"error","name":"IonDexUnauthorized","inputs":[]},{"type":"error","name":"IonDexZeroAddress","inputs":[]}],"bytecode":{"object":"0x608080604052346102dc57610d0d803803809161001c8285610302565b83398101906060818303126102dc5761003481610325565b61004060208301610325565b604083015190926001600160401b0382116102dc570183601f820112156102dc578051906001600160401b038211610294576040519461008a601f8401601f191660200187610302565b828652602083830101116102dc57815f9260208093018388015e850101526001600160a01b03169081156102f3576001600160a01b03169081156102f3575f80546001600160a01b0319908116929092179055600180549182168317905560405163313ce56760e01b8152909190602081600481855afa9081156102e8575f916102a8575b506001600160a81b03199092161760a09190911b60ff60a01b161760015580516001600160401b03811161029457600454600181811c9116801561028a575b602082101461027657601f8111610208575b50602091601f82116001146101a8579181925f9261019d575b50508160011b915f199060031b1c1916176004555b6040516109d3908161033a8239f35b015190505f80610179565b601f1982169260045f52805f20915f5b8581106101f0575083600195106101d8575b505050811b0160045561018e565b01515f1960f88460031b161c191690555f80806101ca565b919260206001819286850151815501940192016101b8565b818111156101605760045f52601f820160051c7f8a35acfbc15ff81a39ae7d344fd709f28e8600b4aa8c65c6b64bfe7fe36bd19b6020841061026e575b81601f9101920160051c03905f5b828110610261575050610160565b5f82820155600101610253565b5f9150610245565b634e487b7160e01b5f52602260045260245ffd5b90607f169061014e565b634e487b7160e01b5f52604160045260245ffd5b90506020813d6020116102e0575b816102c360209383610302565b810103126102dc575160ff811681036102dc575f61010f565b5f80fd5b3d91506102b6565b6040513d5f823e3d90fd5b6394844c1960e01b5f5260045ffd5b601f909101601f19168101906001600160401b0382119082101761029457604052565b51906001600160a01b03821682036102dc5756fe60806040526004361015610011575f80fd5b5f3560e01c80630d64560a1461054457806316871f0f146105275780632630c12f146104ff5780632fd895891461022f5780635bdddcd0146102135780637df2e904146101fb5780638da5cb5b146101d4578063960e6a26146101b757806398d5fdca1461018d5780639c84cd101461012d578063e68b52e71461010a5763f2fde38b1461009d575f80fd5b34610106576020366003190112610106576100b66106a8565b5f54906001600160a01b03821633036100f7576001600160a01b03169081156100e8576001600160a01b031916175f55005b6394844c1960e01b5f5260045ffd5b6326392e5760e11b5f5260045ffd5b5f80fd5b34610106575f36600319011261010657602060ff60015460a01c16604051908152f35b34610106575f3660031901126101065760ff6001546101896002546003546101536105cd565b9160405195869560018060a01b038116875260a01c1660208601526040850152606084015260a0608084015260a0830190610684565b0390f35b34610106575f366003190112610106576101a56107de565b60408051928352901515602083015290f35b34610106575f366003190112610106576020600354604051908152f35b34610106575f366003190112610106575f546040516001600160a01b039091168152602090f35b34610106575f366003190112610106576101a561070a565b34610106575f366003190112610106576020604051610e108152f35b34610106576040366003190112610106576102486106a8565b6024359067ffffffffffffffff8211610106573660238301121561010657816004013567ffffffffffffffff81116104a45760405192610292601f8301601f1916602001856105ab565b818452366024838301011161010657815f9260246020930183870137840101525f546001600160a01b031633036100f7576001600160a01b031680156100e857600180546001600160a01b03198116831790915560405163313ce56760e01b8152602081600481865afa9081156104f4575f916104b8575b506001600160a81b03198216831760a09190911b60ff60a01b1617600155825167ffffffffffffffff81116104a457610344600454610573565b601f8111610436575b506020601f82116001146103b557819293945f926103aa575b50508160011b915f199060031b1c1916176004555b6001600160a01b03167f078c3b417dadf69374a59793b829c52001247130433427049317bde56607b1b75f80a3005b015190508480610366565b601f1982169060045f527f8a35acfbc15ff81a39ae7d344fd709f28e8600b4aa8c65c6b64bfe7fe36bd19b915f5b81811061041e57509583600195969710610406575b505050811b0160045561037b565b01515f1960f88460031b161c191690558480806103f8565b9192602060018192868b0151815501940192016103e3565b8181111561034d5760045f52601f820160051c906020831061049c575b601f82910160051c03905f5b82811061046d57505061034d565b5f8282017f8a35acfbc15ff81a39ae7d344fd709f28e8600b4aa8c65c6b64bfe7fe36bd19b015560010161045f565b5f9150610453565b634e487b7160e01b5f52604160045260245ffd5b90506020813d6020116104ec575b816104d3602093836105ab565b81010312610106575160ff81168103610106578461030a565b3d91506104c6565b6040513d5f823e3d90fd5b34610106575f366003190112610106576001546040516001600160a01b039091168152602090f35b34610106575f366003190112610106576020600254604051908152f35b34610106575f3660031901126101065761018961055f6105cd565b604051918291602083526020830190610684565b90600182811c921680156105a1575b602083101461058d57565b634e487b7160e01b5f52602260045260245ffd5b91607f1691610582565b90601f8019910116810190811067ffffffffffffffff8211176104a457604052565b604051905f82600454916105e083610573565b80835292600181169081156106655750600114610606575b610604925003836105ab565b565b5060045f90815290917f8a35acfbc15ff81a39ae7d344fd709f28e8600b4aa8c65c6b64bfe7fe36bd19b5b818310610649575050906020610604928201016105f8565b6020919350806001915483858901015201910190918492610631565b6020925061060494915060ff191682840152151560051b8201016105f8565b805180835260209291819084018484015e5f828201840152601f01601f1916010190565b600435906001600160a01b038216820361010657565b519069ffffffffffffffffffff8216820361010657565b908160a0910312610106576106e9816106be565b916020820151916040810151916107076080606084015193016106be565b90565b600154604051633fabe5a360e21b81529060a090829060049082906001600160a01b03165afa80156104f4575f915f9161079b575b505f821315610790578015908115610766575b5061075c57905f90565b5060025490600190565b9050610e10810180911161077c5742115f610752565b634e487b7160e01b5f52601160045260245ffd5b505060025490600190565b90506107bf915060a03d60a0116107ca575b6107b781836105ab565b8101906106d5565b50925050905f61073f565b503d6107ad565b9190820391821161077c57565b600154604051633fabe5a360e21b81529060a090829060049082906001600160a01b03165afa80156104f4575f915f91610977575b505f8213156108df57801580156108cb575b6108355781600255600355905f90565b7f7ff054e78aca5e9e2fad0183d3877c066e249522806efaecfecdf8d5fedb067d915080610865606092426107d1565b6040519182524260208301526040820152a16002547f1672c71029d767cf360035a4efcbf728b66a93fa3210db8cccf88f58ead02b1d608060405183815260406020820152600a60408201526964617461207374616c6560b01b6060820152a190600190565b50610e10810180821161077c574211610825565b50507f7ff054e78aca5e9e2fad0183d3877c066e249522806efaecfecdf8d5fedb067d6060610910600354426107d1565b604051905f82524260208301526040820152a16002547f1672c71029d767cf360035a4efcbf728b66a93fa3210db8cccf88f58ead02b1d608060405183815260406020820152600a60408201526907072696365203c3d20360b41b6060820152a190600190565b9050610992915060a03d60a0116107ca576107b781836105ab565b50925050905f61081356fea2646970667358221220713cc431b309f30813ec5944626a2cfabc2aa3f9ad7d337491d77c28316e5f3564736f6c63430008230033","linkReferences":{}},"methodIdentifiers":{"STALE_THRESHOLD()":"5bdddcd0","getOracleInfo()":"9c84cd10","getPrice()":"98d5fdca","getPriceView()":"7df2e904","lastValidPrice()":"16871f0f","lastValidTimestamp()":"960e6a26","oracleDecimals()":"e68b52e7","oracleLabel()":"0d64560a","owner()":"8da5cb5b","priceOracle()":"2630c12f","setOracle(address,string)":"2fd89589","transferOwnership(address)":"f2fde38b"},"id":5}