{"abi":[{"type":"constructor","inputs":[{"name":"_admin","type":"address","internalType":"address"},{"name":"_lpPool","type":"address","internalType":"address"}],"stateMutability":"nonpayable"},{"type":"function","name":"admin","inputs":[],"outputs":[{"name":"","type":"address","internalType":"contract AdminManager"}],"stateMutability":"view"},{"type":"function","name":"lpPool","inputs":[],"outputs":[{"name":"","type":"address","internalType":"address"}],"stateMutability":"view"},{"type":"function","name":"setFee","inputs":[{"name":"newFee","type":"uint256","internalType":"uint256"}],"outputs":[],"stateMutability":"nonpayable"},{"type":"function","name":"setLpPool","inputs":[{"name":"_lpPool","type":"address","internalType":"address"}],"outputs":[],"stateMutability":"nonpayable"},{"type":"function","name":"swap","inputs":[{"name":"tokenIn","type":"address","internalType":"address"},{"name":"tokenOut","type":"address","internalType":"address"},{"name":"amountIn","type":"uint256","internalType":"uint256"}],"outputs":[{"name":"amountOut","type":"uint256","internalType":"uint256"}],"stateMutability":"nonpayable"},{"type":"function","name":"swapFee","inputs":[],"outputs":[{"name":"","type":"uint256","internalType":"uint256"}],"stateMutability":"view"},{"type":"event","name":"Swap","inputs":[{"name":"user","type":"address","indexed":true,"internalType":"address"},{"name":"tokenIn","type":"address","indexed":false,"internalType":"address"},{"name":"tokenOut","type":"address","indexed":false,"internalType":"address"},{"name":"amountIn","type":"uint256","indexed":false,"internalType":"uint256"},{"name":"amountOut","type":"uint256","indexed":false,"internalType":"uint256"}],"anonymous":false},{"type":"error","name":"ReentrancyGuardReentrantCall","inputs":[]}],"bytecode":{"object":"0x60803460b057601f61091138819003918201601f19168301916001600160401b0383118484101760b457808492604094855283398101031260b057604b602060458360c8565b920160c8565b60017f9b779b17422d0df92223018b32b4d1fa46e071723d6817e2486d003becc55f00819055601e6002555f80546001600160a01b03199081166001600160a01b03958616179091558154169290911691909117905560405161083590816100dc8239f35b5f80fd5b634e487b7160e01b5f52604160045260245ffd5b51906001600160a01b038216820360b05756fe6080806040526004361015610012575f80fd5b5f3560e01c9081633737bcb4146106d85750806354cf2aeb146106bb57806369fe0e2d1461062257806371d6968314610571578063df791e50146100895763f851a4401461005e575f80fd5b34610085575f366003190112610085575f546040516001600160a01b039091168152602090f35b5f80fd5b34610085576060366003190112610085576100a26106fb565b6024356001600160a01b0381169190829003610085576044359060027f9b779b17422d0df92223018b32b4d1fa46e071723d6817e2486d003becc55f0054146105625760027f9b779b17422d0df92223018b32b4d1fa46e071723d6817e2486d003becc55f00555f54604051635c975abb60e01b815290602090829060049082906001600160a01b03165afa908115610339575f91610543575b506105155781156104e2576001600160a01b03168281146104b057801515806104a7575b15610473576001546040516323b872dd60e01b81523360048201526001600160a01b039091166024820152604481018390526020816064815f865af18015610339576101b3915f91610454575b506107b6565b6001546040516370a0823160e01b81526001600160a01b0390911660048201819052602082602481865afa918215610339575f92610420575b50604051906370a0823160e01b82526004820152602081602481885afa908115610339575f916103ee575b50811515806103e5575b156103a7576002546127100361271081116103935761271061024661024e92876107ec565b0491826107ec565b90820180921161039357811561037f57049182156103445760405163a9059cbb60e01b815233600482015260248101849052936020856044815f855af1948515610339576020956102a5915f9161030c57506107b6565b6040519283528483015260408201528160608201527fcd3829a3813dc3cdd188fd3d01dcf3268c16be2fdd2dd21d0665418816e4606260803392a260017f9b779b17422d0df92223018b32b4d1fa46e071723d6817e2486d003becc55f0055604051908152f35b61032c9150873d8911610332575b6103248183610711565b81019061079e565b876101ad565b503d61031a565b6040513d5f823e3d90fd5b60405162461bcd60e51b8152602060048201526013602482015272125b9cdd59999a58da595b9d081bdd5d1c1d5d606a1b6044820152606490fd5b634e487b7160e01b5f52601260045260245ffd5b634e487b7160e01b5f52601160045260245ffd5b60405162461bcd60e51b8152602060048201526016602482015275496e73756666696369656e74206c697175696469747960501b6044820152606490fd5b50801515610221565b90506020813d602011610418575b8161040960209383610711565b81010312610085575185610217565b3d91506103fc565b9091506020813d60201161044c575b8161043c60209383610711565b81010312610085575190856101ec565b3d915061042f565b61046d915060203d602011610332576103248183610711565b856101ad565b60405162461bcd60e51b815260206004820152600c60248201526b5a65726f206164647265737360a01b6044820152606490fd5b50821515610160565b60405162461bcd60e51b815260206004820152600a60248201526929b0b6b2903a37b5b2b760b11b6044820152606490fd5b60405162461bcd60e51b815260206004820152600b60248201526a416d6f756e74207a65726f60a81b6044820152606490fd5b60405162461bcd60e51b815260206004820152600660248201526514185d5cd95960d21b6044820152606490fd5b61055c915060203d602011610332576103248183610711565b8461013c565b633ee5aeb560e01b5f5260045ffd5b346100855760203660031901126100855761058a6106fb565b5f54604051638da5cb5b60e01b815290602090829060049082906001600160a01b03165afa8015610339576105d1915f916105f3575b506001600160a01b03163314610766565b600180546001600160a01b0319166001600160a01b0392909216919091179055005b610615915060203d60201161061b575b61060d8183610711565b810190610747565b836105c0565b503d610603565b34610085576020366003190112610085575f54604051638da5cb5b60e01b81526004803592602091839182906001600160a01b03165afa80156103395761067a915f916105f357506001600160a01b03163314610766565b6064811161068757600255005b60405162461bcd60e51b815260206004820152600c60248201526b08ccaca40e8dede40d0d2ced60a31b6044820152606490fd5b34610085575f366003190112610085576020600254604051908152f35b34610085575f366003190112610085576001546001600160a01b03168152602090f35b600435906001600160a01b038216820361008557565b90601f8019910116810190811067ffffffffffffffff82111761073357604052565b634e487b7160e01b5f52604160045260245ffd5b9081602091031261008557516001600160a01b03811681036100855790565b1561076d57565b60405162461bcd60e51b81526020600482015260096024820152682737ba1037bbb732b960b91b6044820152606490fd5b90816020910312610085575180151581036100855790565b156107bd57565b60405162461bcd60e51b815260206004820152600760248201526615118819985a5b60ca1b6044820152606490fd5b818102929181159184041417156103935756fea26469706673582212207da22464966830453d2eed9f2ccd7904b8184980c58af2039da2ed5a5787a3e464736f6c63430008230033","linkReferences":{}},"methodIdentifiers":{"admin()":"f851a440","lpPool()":"3737bcb4","setFee(uint256)":"69fe0e2d","setLpPool(address)":"71d69683","swap(address,address,uint256)":"df791e50","swapFee()":"54cf2aeb"},"id":5}