{"abi":[{"type":"constructor","inputs":[{"name":"_admin","type":"address","internalType":"address"},{"name":"_lpPool","type":"address","internalType":"address"}],"stateMutability":"nonpayable"},{"type":"function","name":"admin","inputs":[],"outputs":[{"name":"","type":"address","internalType":"contract AdminManager"}],"stateMutability":"view"},{"type":"function","name":"feeReceiver","inputs":[],"outputs":[{"name":"","type":"address","internalType":"address"}],"stateMutability":"view"},{"type":"function","name":"lpPool","inputs":[],"outputs":[{"name":"","type":"address","internalType":"address"}],"stateMutability":"view"},{"type":"function","name":"setFee","inputs":[{"name":"newFee","type":"uint256","internalType":"uint256"}],"outputs":[],"stateMutability":"nonpayable"},{"type":"function","name":"setFeeReceiver","inputs":[{"name":"_feeReceiver","type":"address","internalType":"address"}],"outputs":[],"stateMutability":"nonpayable"},{"type":"function","name":"setLpPool","inputs":[{"name":"_lpPool","type":"address","internalType":"address"}],"outputs":[],"stateMutability":"nonpayable"},{"type":"function","name":"swap","inputs":[{"name":"tokenIn","type":"address","internalType":"address"},{"name":"tokenOut","type":"address","internalType":"address"},{"name":"amountIn","type":"uint256","internalType":"uint256"},{"name":"ionProtocolFee","type":"uint256","internalType":"uint256"}],"outputs":[{"name":"amountOut","type":"uint256","internalType":"uint256"}],"stateMutability":"nonpayable"},{"type":"function","name":"swapFee","inputs":[],"outputs":[{"name":"","type":"uint256","internalType":"uint256"}],"stateMutability":"view"},{"type":"event","name":"Swap","inputs":[{"name":"user","type":"address","indexed":true,"internalType":"address"},{"name":"tokenIn","type":"address","indexed":false,"internalType":"address"},{"name":"tokenOut","type":"address","indexed":false,"internalType":"address"},{"name":"amountIn","type":"uint256","indexed":false,"internalType":"uint256"},{"name":"amountOut","type":"uint256","indexed":false,"internalType":"uint256"}],"anonymous":false},{"type":"error","name":"IonDexFeeReceiverNotSet","inputs":[]},{"type":"error","name":"IonDexIonFeeTransferFailed","inputs":[]},{"type":"error","name":"ReentrancyGuardReentrantCall","inputs":[]}],"bytecode":{"object":"0x60803460b057601f610b9438819003918201601f19168301916001600160401b0383118484101760b457808492604094855283398101031260b057604b602060458360c8565b920160c8565b60017f9b779b17422d0df92223018b32b4d1fa46e071723d6817e2486d003becc55f00819055601e6003555f80546001600160a01b03199081166001600160a01b039586161790915581541692909116919091179055604051610ab890816100dc8239f35b5f80fd5b634e487b7160e01b5f52604160045260245ffd5b51906001600160a01b038216820360b05756fe6080806040526004361015610012575f80fd5b5f3560e01c9081633737bcb4146107ae5750806354cf2aeb1461079157806369fe0e2d146106f857806371d6968314610677578063b3f006741461064f578063efdcd9741461059e578063f851a440146105775763fe02915614610074575f80fd5b346104205760803660031901126104205761008d6107d1565b6024356001600160a01b0381169190829003610420576044359060027f9b779b17422d0df92223018b32b4d1fa46e071723d6817e2486d003becc55f0054146105685760027f9b779b17422d0df92223018b32b4d1fa46e071723d6817e2486d003becc55f00555f54604051635c975abb60e01b815290602090829060049082906001600160a01b03165afa908115610341575f91610549575b5061051b5781156104e8576001600160a01b03168281146104b657801515806104ad575b156104795760025461016d9060643590339030906001600160a01b03166108d5565b6001546040516323b872dd60e01b81523360048201526001600160a01b039091166024820152604481018390526020816064815f865af18015610341576101bb915f91610460575b5061088c565b6001546040516370a0823160e01b81526001600160a01b0390911660048201819052602082602481865afa918215610341575f9261042c575b50604051906370a0823160e01b82526004820152602081602481885afa908115610341575f916103f6575b50811515806103ed575b156103af5760035461271003612710811161039b5761271061024e61025692876108c2565b0491826108c2565b90820180921161039b578115610387570491821561034c5760405163a9059cbb60e01b815233600482015260248101849052936020856044815f855af1948515610341576020956102ad915f91610314575061088c565b6040519283528483015260408201528160608201527fcd3829a3813dc3cdd188fd3d01dcf3268c16be2fdd2dd21d0665418816e4606260803392a260017f9b779b17422d0df92223018b32b4d1fa46e071723d6817e2486d003becc55f0055604051908152f35b6103349150873d891161033a575b61032c81836107e7565b810190610874565b5f6101b5565b503d610322565b6040513d5f823e3d90fd5b60405162461bcd60e51b8152602060048201526013602482015272125b9cdd59999a58da595b9d081bdd5d1c1d5d606a1b6044820152606490fd5b634e487b7160e01b5f52601260045260245ffd5b634e487b7160e01b5f52601160045260245ffd5b60405162461bcd60e51b8152602060048201526016602482015275496e73756666696369656e74206c697175696469747960501b6044820152606490fd5b50801515610229565b90506020813d602011610424575b81610411602093836107e7565b8101031261042057515f61021f565b5f80fd5b3d9150610404565b9091506020813d602011610458575b81610448602093836107e7565b810103126104205751905f6101f4565b3d915061043b565b610334915060203d60201161033a5761032c81836107e7565b60405162461bcd60e51b815260206004820152600c60248201526b5a65726f206164647265737360a01b6044820152606490fd5b5082151561014b565b60405162461bcd60e51b815260206004820152600a60248201526929b0b6b2903a37b5b2b760b11b6044820152606490fd5b60405162461bcd60e51b815260206004820152600b60248201526a416d6f756e74207a65726f60a81b6044820152606490fd5b60405162461bcd60e51b815260206004820152600660248201526514185d5cd95960d21b6044820152606490fd5b610562915060203d60201161033a5761032c81836107e7565b5f610127565b633ee5aeb560e01b5f5260045ffd5b34610420575f366003190112610420575f546040516001600160a01b039091168152602090f35b34610420576020366003190112610420576105b76107d1565b5f54604051638da5cb5b60e01b815290602090829060049082906001600160a01b03165afa8015610341576105fe915f91610620575b506001600160a01b0316331461083c565b600280546001600160a01b0319166001600160a01b0392909216919091179055005b610642915060203d602011610648575b61063a81836107e7565b81019061081d565b836105ed565b503d610630565b34610420575f366003190112610420576002546040516001600160a01b039091168152602090f35b34610420576020366003190112610420576106906107d1565b5f54604051638da5cb5b60e01b815290602090829060049082906001600160a01b03165afa8015610341576106d6915f9161062057506001600160a01b0316331461083c565b600180546001600160a01b0319166001600160a01b0392909216919091179055005b34610420576020366003190112610420575f54604051638da5cb5b60e01b81526004803592602091839182906001600160a01b03165afa801561034157610750915f9161062057506001600160a01b0316331461083c565b6064811161075d57600355005b60405162461bcd60e51b815260206004820152600c60248201526b08ccaca40e8dede40d0d2ced60a31b6044820152606490fd5b34610420575f366003190112610420576020600354604051908152f35b34610420575f366003190112610420576001546001600160a01b03168152602090f35b600435906001600160a01b038216820361042057565b90601f8019910116810190811067ffffffffffffffff82111761080957604052565b634e487b7160e01b5f52604160045260245ffd5b9081602091031261042057516001600160a01b03811681036104205790565b1561084357565b60405162461bcd60e51b81526020600482015260096024820152682737ba1037bbb732b960b91b6044820152606490fd5b90816020910312610420575180151581036104205790565b1561089357565b60405162461bcd60e51b815260206004820152600760248201526615118819985a5b60ca1b6044820152606490fd5b8181029291811591840414171561039b57565b929091928115610a7c576001600160a01b038116938415610a6d57604051632c2d77db60e21b815293602085600481895afa948515610341575f95610a49575b506040516323b872dd60e01b81526001600160a01b039283166004820152908216602482015260448101849052908416906020816064815f865af1908115610341575f91610a2a575b50156109fc5760405163095ea7b360e01b81526001600160a01b0392909216600483015260248201839052602090829060449082905f905af1908115610341575f91610a0b575b50156109fc57823b15610420576040516348fef59560e01b81526001600160a01b039290921660048301526024820152905f908290604490829084905af18015610341576109f05750565b5f6109fa916107e7565b565b63b180eb2560e01b5f5260045ffd5b610a24915060203d60201161033a5761032c81836107e7565b5f6109a5565b610a43915060203d60201161033a5761032c81836107e7565b5f61095e565b84919550610a65602091823d84116106485761063a81836107e7565b959150610915565b631d5dec5760e21b5f5260045ffd5b5050505056fea2646970667358221220ebbd0d15b72a48762484b86762aab8c6cb26ab737b18ae8519717ac26831361d64736f6c63430008230033","linkReferences":{}},"methodIdentifiers":{"admin()":"f851a440","feeReceiver()":"b3f00674","lpPool()":"3737bcb4","setFee(uint256)":"69fe0e2d","setFeeReceiver(address)":"efdcd974","setLpPool(address)":"71d69683","swap(address,address,uint256,uint256)":"fe029156","swapFee()":"54cf2aeb"},"id":2}