{"abi":[{"type":"constructor","inputs":[{"name":"owner_","type":"address","internalType":"address"}],"stateMutability":"nonpayable"},{"type":"function","name":"adjustLpShares","inputs":[{"name":"user","type":"address","internalType":"address"},{"name":"deltaShares","type":"int256","internalType":"int256"}],"outputs":[],"stateMutability":"nonpayable"},{"type":"function","name":"bridgeRelay","inputs":[],"outputs":[{"name":"","type":"address","internalType":"address"}],"stateMutability":"view"},{"type":"function","name":"feeReceiver","inputs":[],"outputs":[{"name":"","type":"address","internalType":"address"}],"stateMutability":"view"},{"type":"function","name":"lock","inputs":[{"name":"token","type":"address","internalType":"address"},{"name":"amount","type":"uint256","internalType":"uint256"},{"name":"ionRecipient","type":"bytes32","internalType":"bytes32"},{"name":"ionProtocolFee","type":"uint256","internalType":"uint256"}],"outputs":[],"stateMutability":"nonpayable"},{"type":"function","name":"lockedBalance","inputs":[{"name":"","type":"address","internalType":"address"},{"name":"","type":"address","internalType":"address"}],"outputs":[{"name":"","type":"uint256","internalType":"uint256"}],"stateMutability":"view"},{"type":"function","name":"lpShares","inputs":[{"name":"","type":"address","internalType":"address"}],"outputs":[{"name":"","type":"uint256","internalType":"uint256"}],"stateMutability":"view"},{"type":"function","name":"owner","inputs":[],"outputs":[{"name":"","type":"address","internalType":"address"}],"stateMutability":"view"},{"type":"function","name":"relayers","inputs":[{"name":"","type":"address","internalType":"address"}],"outputs":[{"name":"","type":"bool","internalType":"bool"}],"stateMutability":"view"},{"type":"function","name":"release","inputs":[{"name":"token","type":"address","internalType":"address"},{"name":"user","type":"address","internalType":"address"},{"name":"amount","type":"uint256","internalType":"uint256"},{"name":"releaseId","type":"bytes32","internalType":"bytes32"}],"outputs":[],"stateMutability":"nonpayable"},{"type":"function","name":"releaseConsumed","inputs":[{"name":"","type":"bytes32","internalType":"bytes32"}],"outputs":[{"name":"","type":"bool","internalType":"bool"}],"stateMutability":"view"},{"type":"function","name":"setBridgeRelay","inputs":[{"name":"relay","type":"address","internalType":"address"}],"outputs":[],"stateMutability":"nonpayable"},{"type":"function","name":"setFeeReceiver","inputs":[{"name":"feeReceiver_","type":"address","internalType":"address"}],"outputs":[],"stateMutability":"nonpayable"},{"type":"function","name":"setRelayer","inputs":[{"name":"relayer","type":"address","internalType":"address"},{"name":"allowed","type":"bool","internalType":"bool"}],"outputs":[],"stateMutability":"nonpayable"},{"type":"function","name":"tokenBalance","inputs":[{"name":"token","type":"address","internalType":"address"}],"outputs":[{"name":"","type":"uint256","internalType":"uint256"}],"stateMutability":"view"},{"type":"function","name":"transferOwnership","inputs":[{"name":"newOwner","type":"address","internalType":"address"}],"outputs":[],"stateMutability":"nonpayable"},{"type":"event","name":"Locked","inputs":[{"name":"user","type":"address","indexed":true,"internalType":"address"},{"name":"token","type":"address","indexed":true,"internalType":"address"},{"name":"amount","type":"uint256","indexed":false,"internalType":"uint256"},{"name":"ionRecipient","type":"bytes32","indexed":false,"internalType":"bytes32"}],"anonymous":false},{"type":"event","name":"LpSharesUpdated","inputs":[{"name":"user","type":"address","indexed":true,"internalType":"address"},{"name":"deltaShares","type":"int256","indexed":false,"internalType":"int256"}],"anonymous":false},{"type":"event","name":"RelayerSet","inputs":[{"name":"relayer","type":"address","indexed":true,"internalType":"address"},{"name":"allowed","type":"bool","indexed":false,"internalType":"bool"}],"anonymous":false},{"type":"event","name":"Released","inputs":[{"name":"user","type":"address","indexed":true,"internalType":"address"},{"name":"token","type":"address","indexed":true,"internalType":"address"},{"name":"amount","type":"uint256","indexed":false,"internalType":"uint256"},{"name":"releaseId","type":"bytes32","indexed":false,"internalType":"bytes32"}],"anonymous":false},{"type":"error","name":"IonDexFeeReceiverNotSet","inputs":[]},{"type":"error","name":"IonDexInsufficientLocked","inputs":[]},{"type":"error","name":"IonDexIonFeeTransferFailed","inputs":[]},{"type":"error","name":"IonDexTokenTransferFailed","inputs":[]},{"type":"error","name":"IonDexUnauthorized","inputs":[]},{"type":"error","name":"IonDexZeroAddress","inputs":[]},{"type":"error","name":"IonDexZeroAmount","inputs":[]},{"type":"error","name":"SafeCastOverflowedIntToUint","inputs":[{"name":"value","type":"int256","internalType":"int256"}]}],"bytecode":{"object":"0x608060405234801561000f575f80fd5b5060405161103c38038061103c83398101604081905261002e91610079565b6001600160a01b038116610055576040516394844c1960e01b815260040160405180910390fd5b5f80546001600160a01b0319166001600160a01b03929092169190911790556100a6565b5f60208284031215610089575f80fd5b81516001600160a01b038116811461009f575f80fd5b9392505050565b610f89806100b35f395ff3fe608060405234801561000f575f80fd5b50600436106100f0575f3560e01c80638da5cb5b11610093578063ecd8dc3a11610063578063ecd8dc3a14610242578063eedc966a14610255578063efdcd97414610268578063f2fde38b1461027b575f80fd5b80638da5cb5b146101eb578063b3f00674146101fd578063c109a6dc14610210578063d4a334b91461022f575f80fd5b80635300f841116100ce5780635300f841146101785780635cf3426b1461019a57806360023452146101ad5780636636e5b6146101c0575f80fd5b80633419d6ef146100f45780633edb24a514610131578063460fa48414610163575b5f80fd5b61011e610102366004610d38565b600460209081525f928352604080842090915290825290205481565b6040519081526020015b60405180910390f35b61015361013f366004610d6f565b60066020525f908152604090205460ff1681565b6040519015158152602001610128565b610176610171366004610d86565b61028e565b005b610153610186366004610dc9565b60036020525f908152604090205460ff1681565b6101766101a8366004610deb565b610478565b6101766101bb366004610e23565b61057b565b6001546101d3906001600160a01b031681565b6040516001600160a01b039091168152602001610128565b5f546101d3906001600160a01b031681565b6002546101d3906001600160a01b031681565b61011e61021e366004610dc9565b60056020525f908152604090205481565b61017661023d366004610dc9565b61071a565b610176610250366004610e5a565b61078d565b61011e610263366004610dc9565b610835565b610176610276366004610dc9565b6108a3565b610176610289366004610dc9565b610916565b5f546001600160a01b031633148015906102b75750335f9081526003602052604090205460ff16155b156102d5576040516326392e5760e11b815260040160405180910390fd5b6001600160a01b03841615806102f257506001600160a01b038316155b15610310576040516394844c1960e01b815260040160405180910390fd5b815f03610330576040516377b0874f60e11b815260040160405180910390fd5b8061034e576040516394844c1960e01b815260040160405180910390fd5b5f8181526006602052604090205460ff161561037d576040516326392e5760e11b815260040160405180910390fd5b6001600160a01b038085165f908152600460209081526040808320938716835292905220548211156103c257604051631827065d60e21b815260040160405180910390fd5b5f818152600660209081526040808320805460ff191660011790556001600160a01b0380881684526004835281842090871684529091528120805484929061040b908490610e9a565b9091555061041c9050848484610988565b836001600160a01b0316836001600160a01b03167fa665ffb445611e4a69ea6bd353374f390a656906ea2da3245a8aae47a360a6cc848460405161046a929190918252602082015260400190565b60405180910390a350505050565b6001600160a01b03841661049f576040516394844c1960e01b815260040160405180910390fd5b825f036104bf576040516377b0874f60e11b815260040160405180910390fd5b816104dd576040516394844c1960e01b815260040160405180910390fd5b6002546104f5906001600160a01b03163033846109de565b61050184333086610bf7565b6001600160a01b0384165f90815260046020908152604080832033845290915281208054859290610533908490610ead565b909155505060408051848152602081018490526001600160a01b0386169133917f02f55a15ef3feaca7f52632994447b0a215f8f3040c880a628915c61c985cb95910161046a565b5f546001600160a01b031633148015906105a45750335f9081526003602052604090205460ff16155b156105c2576040516326392e5760e11b815260040160405180910390fd5b6001600160a01b0382166105e9576040516394844c1960e01b815260040160405180910390fd5b5f81131561062c576105fa81610c50565b6001600160a01b0383165f9081526005602052604081208054909190610621908490610ead565b909155506106d39050565b5f8112156106d357600160ff1b810361065857604051631827065d60e21b815260040160405180910390fd5b5f61066a61066583610ec0565b610c50565b6001600160a01b0384165f908152600560205260409020549091508111156106a557604051631827065d60e21b815260040160405180910390fd5b6001600160a01b0383165f90815260056020526040812080548392906106cc908490610e9a565b9091555050505b816001600160a01b03167f1a0542e1f1886aeb4121216cd625f432f09ee2fe3775703775baefb7a782645b8260405161070e91815260200190565b60405180910390a25050565b5f546001600160a01b03163314610744576040516326392e5760e11b815260040160405180910390fd5b6001600160a01b03811661076b576040516394844c1960e01b815260040160405180910390fd5b600180546001600160a01b0319166001600160a01b0392909216919091179055565b5f546001600160a01b031633146107b7576040516326392e5760e11b815260040160405180910390fd5b6001600160a01b0382166107de576040516394844c1960e01b815260040160405180910390fd5b6001600160a01b0382165f81815260036020908152604091829020805460ff191685151590811790915591519182527fee42947bc760229eeff964017ac68eddb00ba98b0defcd90a1bc85a5afceb057910161070e565b6040516370a0823160e01b81523060048201525f906001600160a01b038316906370a0823190602401602060405180830381865afa158015610879573d5f803e3d5ffd5b505050506040513d601f19601f8201168201806040525081019061089d9190610eda565b92915050565b5f546001600160a01b031633146108cd576040516326392e5760e11b815260040160405180910390fd5b6001600160a01b0381166108f4576040516394844c1960e01b815260040160405180910390fd5b600280546001600160a01b0319166001600160a01b0392909216919091179055565b5f546001600160a01b03163314610940576040516326392e5760e11b815260040160405180910390fd5b6001600160a01b038116610967576040516394844c1960e01b815260040160405180910390fd5b5f80546001600160a01b0319166001600160a01b0392909216919091179055565b6040516001600160a01b0383166024820152604481018290526109d990849060640160408051601f198184030181529190526020810180516001600160e01b031663a9059cbb60e01b179052610c7d565b505050565b8015610bf1576001600160a01b038416610a0b57604051631d5dec5760e21b815260040160405180910390fd5b5f846001600160a01b031663b0b5df6c6040518163ffffffff1660e01b8152600401602060405180830381865afa158015610a48573d5f803e3d5ffd5b505050506040513d601f19601f82011682018060405250810190610a6c9190610ef1565b6040516323b872dd60e01b81526001600160a01b038581166004830152868116602483015260448201859052919250908216906323b872dd906064016020604051808303815f875af1158015610ac4573d5f803e3d5ffd5b505050506040513d601f19601f82011682018060405250810190610ae89190610f0c565b610b055760405163b180eb2560e01b815260040160405180910390fd5b60405163095ea7b360e01b81526001600160a01b0386811660048301526024820184905282169063095ea7b3906044016020604051808303815f875af1158015610b51573d5f803e3d5ffd5b505050506040513d601f19601f82011682018060405250810190610b759190610f0c565b610b925760405163b180eb2560e01b815260040160405180910390fd5b6040516348fef59560e01b81526001600160a01b038281166004830152602482018490528616906348fef595906044015f604051808303815f87803b158015610bd9575f80fd5b505af1158015610beb573d5f803e3d5ffd5b50505050505b50505050565b6040516001600160a01b0380851660248301528316604482015260648101829052610bf190859060840160408051601f198184030181529190526020810180516001600160e01b03166323b872dd60e01b179052610c7d565b5f80821215610c7957604051635467221960e11b81526004810183905260240160405180910390fd5b5090565b5f80836001600160a01b031683604051610c979190610f27565b5f604051808303815f865af19150503d805f8114610cd0576040519150601f19603f3d011682016040523d82523d5f602084013e610cd5565b606091505b5091509150811580610d035750805115801590610d03575080806020019051810190610d019190610f0c565b155b15610bf15760405163363b9cef60e21b815260040160405180910390fd5b6001600160a01b0381168114610d35575f80fd5b50565b5f8060408385031215610d49575f80fd5b8235610d5481610d21565b91506020830135610d6481610d21565b809150509250929050565b5f60208284031215610d7f575f80fd5b5035919050565b5f805f8060808587031215610d99575f80fd5b8435610da481610d21565b93506020850135610db481610d21565b93969395505050506040820135916060013590565b5f60208284031215610dd9575f80fd5b8135610de481610d21565b9392505050565b5f805f8060808587031215610dfe575f80fd5b8435610e0981610d21565b966020860135965060408601359560600135945092505050565b5f8060408385031215610e34575f80fd5b8235610e3f81610d21565b946020939093013593505050565b8015158114610d35575f80fd5b5f8060408385031215610e6b575f80fd5b8235610e7681610d21565b91506020830135610d6481610e4d565b634e487b7160e01b5f52601160045260245ffd5b8181038181111561089d5761089d610e86565b8082018082111561089d5761089d610e86565b5f600160ff1b8201610ed457610ed4610e86565b505f0390565b5f60208284031215610eea575f80fd5b5051919050565b5f60208284031215610f01575f80fd5b8151610de481610d21565b5f60208284031215610f1c575f80fd5b8151610de481610e4d565b5f82515f5b81811015610f465760208186018101518583015201610f2c565b505f92019182525091905056fea2646970667358221220d97dcdc6496d330b1d9d5eb357eb520846e8c44eae574630b1a6d4d801a48f9964736f6c63430008180033","linkReferences":{}},"methodIdentifiers":{"adjustLpShares(address,int256)":"60023452","bridgeRelay()":"6636e5b6","feeReceiver()":"b3f00674","lock(address,uint256,bytes32,uint256)":"5cf3426b","lockedBalance(address,address)":"3419d6ef","lpShares(address)":"c109a6dc","owner()":"8da5cb5b","relayers(address)":"5300f841","release(address,address,uint256,bytes32)":"460fa484","releaseConsumed(bytes32)":"3edb24a5","setBridgeRelay(address)":"d4a334b9","setFeeReceiver(address)":"efdcd974","setRelayer(address,bool)":"ecd8dc3a","tokenBalance(address)":"eedc966a","transferOwnership(address)":"f2fde38b"},"id":1}