{"abi":[{"type":"constructor","inputs":[{"name":"owner_","type":"address","internalType":"address"}],"stateMutability":"nonpayable"},{"type":"function","name":"adjustLpShares","inputs":[{"name":"user","type":"address","internalType":"address"},{"name":"deltaShares","type":"int256","internalType":"int256"}],"outputs":[],"stateMutability":"nonpayable"},{"type":"function","name":"bridgeRelay","inputs":[],"outputs":[{"name":"","type":"address","internalType":"address"}],"stateMutability":"view"},{"type":"function","name":"lock","inputs":[{"name":"token","type":"address","internalType":"address"},{"name":"amount","type":"uint256","internalType":"uint256"},{"name":"ionRecipient","type":"bytes32","internalType":"bytes32"}],"outputs":[],"stateMutability":"nonpayable"},{"type":"function","name":"lockedBalance","inputs":[{"name":"","type":"address","internalType":"address"},{"name":"","type":"address","internalType":"address"}],"outputs":[{"name":"","type":"uint256","internalType":"uint256"}],"stateMutability":"view"},{"type":"function","name":"lpShares","inputs":[{"name":"","type":"address","internalType":"address"}],"outputs":[{"name":"","type":"uint256","internalType":"uint256"}],"stateMutability":"view"},{"type":"function","name":"owner","inputs":[],"outputs":[{"name":"","type":"address","internalType":"address"}],"stateMutability":"view"},{"type":"function","name":"relayers","inputs":[{"name":"","type":"address","internalType":"address"}],"outputs":[{"name":"","type":"bool","internalType":"bool"}],"stateMutability":"view"},{"type":"function","name":"release","inputs":[{"name":"token","type":"address","internalType":"address"},{"name":"user","type":"address","internalType":"address"},{"name":"amount","type":"uint256","internalType":"uint256"},{"name":"releaseId","type":"bytes32","internalType":"bytes32"}],"outputs":[],"stateMutability":"nonpayable"},{"type":"function","name":"releaseConsumed","inputs":[{"name":"","type":"bytes32","internalType":"bytes32"}],"outputs":[{"name":"","type":"bool","internalType":"bool"}],"stateMutability":"view"},{"type":"function","name":"setBridgeRelay","inputs":[{"name":"relay","type":"address","internalType":"address"}],"outputs":[],"stateMutability":"nonpayable"},{"type":"function","name":"setRelayer","inputs":[{"name":"relayer","type":"address","internalType":"address"},{"name":"allowed","type":"bool","internalType":"bool"}],"outputs":[],"stateMutability":"nonpayable"},{"type":"function","name":"tokenBalance","inputs":[{"name":"token","type":"address","internalType":"address"}],"outputs":[{"name":"","type":"uint256","internalType":"uint256"}],"stateMutability":"view"},{"type":"function","name":"transferOwnership","inputs":[{"name":"newOwner","type":"address","internalType":"address"}],"outputs":[],"stateMutability":"nonpayable"},{"type":"event","name":"Locked","inputs":[{"name":"user","type":"address","indexed":true,"internalType":"address"},{"name":"token","type":"address","indexed":true,"internalType":"address"},{"name":"amount","type":"uint256","indexed":false,"internalType":"uint256"},{"name":"ionRecipient","type":"bytes32","indexed":false,"internalType":"bytes32"}],"anonymous":false},{"type":"event","name":"LpSharesUpdated","inputs":[{"name":"user","type":"address","indexed":true,"internalType":"address"},{"name":"deltaShares","type":"int256","indexed":false,"internalType":"int256"}],"anonymous":false},{"type":"event","name":"RelayerSet","inputs":[{"name":"relayer","type":"address","indexed":true,"internalType":"address"},{"name":"allowed","type":"bool","indexed":false,"internalType":"bool"}],"anonymous":false},{"type":"event","name":"Released","inputs":[{"name":"user","type":"address","indexed":true,"internalType":"address"},{"name":"token","type":"address","indexed":true,"internalType":"address"},{"name":"amount","type":"uint256","indexed":false,"internalType":"uint256"},{"name":"releaseId","type":"bytes32","indexed":false,"internalType":"bytes32"}],"anonymous":false},{"type":"error","name":"IonDexInsufficientLocked","inputs":[]},{"type":"error","name":"IonDexTokenTransferFailed","inputs":[]},{"type":"error","name":"IonDexUnauthorized","inputs":[]},{"type":"error","name":"IonDexZeroAddress","inputs":[]},{"type":"error","name":"IonDexZeroAmount","inputs":[]}],"bytecode":{"object":"0x608060405234801561000f575f80fd5b50604051610c8c380380610c8c83398101604081905261002e91610079565b6001600160a01b038116610055576040516394844c1960e01b815260040160405180910390fd5b5f80546001600160a01b0319166001600160a01b03929092169190911790556100a6565b5f60208284031215610089575f80fd5b81516001600160a01b038116811461009f575f80fd5b9392505050565b610bd9806100b35f395ff3fe608060405234801561000f575f80fd5b50600436106100cb575f3560e01c80638da5cb5b11610088578063d4a334b911610063578063d4a334b9146101f7578063ecd8dc3a1461020a578063eedc966a1461021d578063f2fde38b14610230575f80fd5b80638da5cb5b146101b3578063c109a6dc146101c5578063ca3369c6146101e4575f80fd5b80633419d6ef146100cf5780633edb24a51461010c578063460fa4841461013e5780635300f8411461015357806360023452146101755780636636e5b614610188575b5f80fd5b6100f96100dd3660046109d9565b600360209081525f928352604080842090915290825290205481565b6040519081526020015b60405180910390f35b61012e61011a366004610a0a565b60056020525f908152604090205460ff1681565b6040519015158152602001610103565b61015161014c366004610a21565b610243565b005b61012e610161366004610a60565b60026020525f908152604090205460ff1681565b610151610183366004610a80565b61044a565b60015461019b906001600160a01b031681565b6040516001600160a01b039091168152602001610103565b5f5461019b906001600160a01b031681565b6100f96101d3366004610a60565b60046020525f908152604090205481565b6101516101f2366004610aa8565b6105b4565b610151610205366004610a60565b6106c4565b610151610218366004610ae8565b610737565b6100f961022b366004610a60565b6107df565b61015161023e366004610a60565b61084d565b5f546001600160a01b0316331480159061026c5750335f9081526002602052604090205460ff16155b1561028a576040516326392e5760e11b815260040160405180910390fd5b6001600160a01b03841615806102a757506001600160a01b038316155b156102c5576040516394844c1960e01b815260040160405180910390fd5b815f036102e5576040516377b0874f60e11b815260040160405180910390fd5b80610303576040516394844c1960e01b815260040160405180910390fd5b5f8181526005602052604090205460ff1615610332576040516326392e5760e11b815260040160405180910390fd5b6001600160a01b038085165f9081526003602090815260408083209387168352929052205482111561037757604051631827065d60e21b815260040160405180910390fd5b5f818152600560209081526040808320805460ff191660011790556001600160a01b038088168452600383528184209087168452909152812080548492906103c0908490610b31565b909155506103d190508484846108bf565b6103ee5760405163363b9cef60e21b815260040160405180910390fd5b836001600160a01b0316836001600160a01b03167fa665ffb445611e4a69ea6bd353374f390a656906ea2da3245a8aae47a360a6cc848460405161043c929190918252602082015260400190565b60405180910390a350505050565b5f546001600160a01b031633148015906104735750335f9081526002602052604090205460ff16155b15610491576040516326392e5760e11b815260040160405180910390fd5b6001600160a01b0382166104b8576040516394844c1960e01b815260040160405180910390fd5b5f8113156104f2576001600160a01b0382165f90815260046020526040812080548392906104e7908490610b44565b9091555061056d9050565b5f81121561056d575f61050482610b57565b6001600160a01b0384165f9081526004602052604090205490915081111561053f57604051631827065d60e21b815260040160405180910390fd5b6001600160a01b0383165f9081526004602052604081208054839290610566908490610b31565b9091555050505b816001600160a01b03167f1a0542e1f1886aeb4121216cd625f432f09ee2fe3775703775baefb7a782645b826040516105a891815260200190565b60405180910390a25050565b6001600160a01b0383166105db576040516394844c1960e01b815260040160405180910390fd5b815f036105fb576040516377b0874f60e11b815260040160405180910390fd5b80610619576040516394844c1960e01b815260040160405180910390fd5b6106258333308561093a565b6106425760405163363b9cef60e21b815260040160405180910390fd5b6001600160a01b0383165f90815260036020908152604080832033845290915281208054849290610674908490610b44565b909155505060408051838152602081018390526001600160a01b0385169133917f02f55a15ef3feaca7f52632994447b0a215f8f3040c880a628915c61c985cb95910160405180910390a3505050565b5f546001600160a01b031633146106ee576040516326392e5760e11b815260040160405180910390fd5b6001600160a01b038116610715576040516394844c1960e01b815260040160405180910390fd5b600180546001600160a01b0319166001600160a01b0392909216919091179055565b5f546001600160a01b03163314610761576040516326392e5760e11b815260040160405180910390fd5b6001600160a01b038216610788576040516394844c1960e01b815260040160405180910390fd5b6001600160a01b0382165f81815260026020908152604091829020805460ff191685151590811790915591519182527fee42947bc760229eeff964017ac68eddb00ba98b0defcd90a1bc85a5afceb05791016105a8565b6040516370a0823160e01b81523060048201525f906001600160a01b038316906370a0823190602401602060405180830381865afa158015610823573d5f803e3d5ffd5b505050506040513d601f19601f820116820180604052508101906108479190610b71565b92915050565b5f546001600160a01b03163314610877576040516326392e5760e11b815260040160405180910390fd5b6001600160a01b03811661089e576040516394844c1960e01b815260040160405180910390fd5b5f80546001600160a01b0319166001600160a01b0392909216919091179055565b60405163a9059cbb60e01b81526001600160a01b038381166004830152602482018390525f919085169063a9059cbb906044016020604051808303815f875af115801561090e573d5f803e3d5ffd5b505050506040513d601f19601f820116820180604052508101906109329190610b88565b949350505050565b6040516323b872dd60e01b81526001600160a01b0384811660048301528381166024830152604482018390525f91908616906323b872dd906064016020604051808303815f875af1158015610991573d5f803e3d5ffd5b505050506040513d601f19601f820116820180604052508101906109b59190610b88565b95945050505050565b80356001600160a01b03811681146109d4575f80fd5b919050565b5f80604083850312156109ea575f80fd5b6109f3836109be565b9150610a01602084016109be565b90509250929050565b5f60208284031215610a1a575f80fd5b5035919050565b5f805f8060808587031215610a34575f80fd5b610a3d856109be565b9350610a4b602086016109be565b93969395505050506040820135916060013590565b5f60208284031215610a70575f80fd5b610a79826109be565b9392505050565b5f8060408385031215610a91575f80fd5b610a9a836109be565b946020939093013593505050565b5f805f60608486031215610aba575f80fd5b610ac3846109be565b95602085013595506040909401359392505050565b8015158114610ae5575f80fd5b50565b5f8060408385031215610af9575f80fd5b610b02836109be565b91506020830135610b1281610ad8565b809150509250929050565b634e487b7160e01b5f52601160045260245ffd5b8181038181111561084757610847610b1d565b8082018082111561084757610847610b1d565b5f600160ff1b8201610b6b57610b6b610b1d565b505f0390565b5f60208284031215610b81575f80fd5b5051919050565b5f60208284031215610b98575f80fd5b8151610a7981610ad856fea26469706673582212207aa3cfc0f323ee1a756baf6d5372f85bcbe8f2cc2c64022bd80cb7cf94ded9a864736f6c63430008180033","linkReferences":{}},"methodIdentifiers":{"adjustLpShares(address,int256)":"60023452","bridgeRelay()":"6636e5b6","lock(address,uint256,bytes32)":"ca3369c6","lockedBalance(address,address)":"3419d6ef","lpShares(address)":"c109a6dc","owner()":"8da5cb5b","relayers(address)":"5300f841","release(address,address,uint256,bytes32)":"460fa484","releaseConsumed(bytes32)":"3edb24a5","setBridgeRelay(address)":"d4a334b9","setRelayer(address,bool)":"ecd8dc3a","tokenBalance(address)":"eedc966a","transferOwnership(address)":"f2fde38b"},"id":1}