{"abi":[{"type":"constructor","inputs":[{"name":"owner_","type":"address","internalType":"address"}],"stateMutability":"nonpayable"},{"type":"function","name":"TIMELOCK","inputs":[],"outputs":[{"name":"","type":"uint256","internalType":"uint256"}],"stateMutability":"view"},{"type":"function","name":"adjustLpShares","inputs":[{"name":"user","type":"address","internalType":"address"},{"name":"deltaShares","type":"int256","internalType":"int256"}],"outputs":[],"stateMutability":"nonpayable"},{"type":"function","name":"bridgeRelay","inputs":[],"outputs":[{"name":"","type":"address","internalType":"address"}],"stateMutability":"view"},{"type":"function","name":"cancelSetRelayer","inputs":[],"outputs":[],"stateMutability":"nonpayable"},{"type":"function","name":"executeSetRelayer","inputs":[],"outputs":[],"stateMutability":"nonpayable"},{"type":"function","name":"feeReceiver","inputs":[],"outputs":[{"name":"","type":"address","internalType":"address"}],"stateMutability":"view"},{"type":"function","name":"lock","inputs":[{"name":"token","type":"address","internalType":"address"},{"name":"amount","type":"uint256","internalType":"uint256"},{"name":"ionRecipient","type":"bytes32","internalType":"bytes32"},{"name":"ionProtocolFee","type":"uint256","internalType":"uint256"}],"outputs":[],"stateMutability":"nonpayable"},{"type":"function","name":"lockedBalance","inputs":[{"name":"","type":"address","internalType":"address"},{"name":"","type":"address","internalType":"address"}],"outputs":[{"name":"","type":"uint256","internalType":"uint256"}],"stateMutability":"view"},{"type":"function","name":"lpShares","inputs":[{"name":"","type":"address","internalType":"address"}],"outputs":[{"name":"","type":"uint256","internalType":"uint256"}],"stateMutability":"view"},{"type":"function","name":"owner","inputs":[],"outputs":[{"name":"","type":"address","internalType":"address"}],"stateMutability":"view"},{"type":"function","name":"pendingRelayer","inputs":[],"outputs":[{"name":"relayer","type":"address","internalType":"address"},{"name":"allowed","type":"bool","internalType":"bool"},{"name":"unlockTime","type":"uint256","internalType":"uint256"}],"stateMutability":"view"},{"type":"function","name":"relayers","inputs":[{"name":"","type":"address","internalType":"address"}],"outputs":[{"name":"","type":"bool","internalType":"bool"}],"stateMutability":"view"},{"type":"function","name":"release","inputs":[{"name":"token","type":"address","internalType":"address"},{"name":"user","type":"address","internalType":"address"},{"name":"amount","type":"uint256","internalType":"uint256"},{"name":"releaseId","type":"bytes32","internalType":"bytes32"}],"outputs":[],"stateMutability":"nonpayable"},{"type":"function","name":"releaseConsumed","inputs":[{"name":"","type":"bytes32","internalType":"bytes32"}],"outputs":[{"name":"","type":"bool","internalType":"bool"}],"stateMutability":"view"},{"type":"function","name":"scheduleSetRelayer","inputs":[{"name":"relayer","type":"address","internalType":"address"},{"name":"allowed","type":"bool","internalType":"bool"}],"outputs":[],"stateMutability":"nonpayable"},{"type":"function","name":"setBridgeRelay","inputs":[{"name":"relay","type":"address","internalType":"address"}],"outputs":[],"stateMutability":"nonpayable"},{"type":"function","name":"setFeeReceiver","inputs":[{"name":"feeReceiver_","type":"address","internalType":"address"}],"outputs":[],"stateMutability":"nonpayable"},{"type":"function","name":"setRelayerDirect","inputs":[{"name":"relayer","type":"address","internalType":"address"},{"name":"allowed","type":"bool","internalType":"bool"}],"outputs":[],"stateMutability":"nonpayable"},{"type":"function","name":"tokenBalance","inputs":[{"name":"token","type":"address","internalType":"address"}],"outputs":[{"name":"","type":"uint256","internalType":"uint256"}],"stateMutability":"view"},{"type":"function","name":"transferOwnership","inputs":[{"name":"newOwner","type":"address","internalType":"address"}],"outputs":[],"stateMutability":"nonpayable"},{"type":"event","name":"Locked","inputs":[{"name":"user","type":"address","indexed":true,"internalType":"address"},{"name":"token","type":"address","indexed":true,"internalType":"address"},{"name":"amount","type":"uint256","indexed":false,"internalType":"uint256"},{"name":"ionRecipient","type":"bytes32","indexed":false,"internalType":"bytes32"}],"anonymous":false},{"type":"event","name":"LpSharesUpdated","inputs":[{"name":"user","type":"address","indexed":true,"internalType":"address"},{"name":"deltaShares","type":"int256","indexed":false,"internalType":"int256"}],"anonymous":false},{"type":"event","name":"PendingRelayerCancelled","inputs":[],"anonymous":false},{"type":"event","name":"PendingRelayerExecuted","inputs":[{"name":"relayer","type":"address","indexed":true,"internalType":"address"},{"name":"allowed","type":"bool","indexed":false,"internalType":"bool"}],"anonymous":false},{"type":"event","name":"PendingRelayerScheduled","inputs":[{"name":"relayer","type":"address","indexed":true,"internalType":"address"},{"name":"allowed","type":"bool","indexed":false,"internalType":"bool"},{"name":"unlockTime","type":"uint256","indexed":false,"internalType":"uint256"}],"anonymous":false},{"type":"event","name":"RelayerSet","inputs":[{"name":"relayer","type":"address","indexed":true,"internalType":"address"},{"name":"allowed","type":"bool","indexed":false,"internalType":"bool"}],"anonymous":false},{"type":"event","name":"Released","inputs":[{"name":"user","type":"address","indexed":true,"internalType":"address"},{"name":"token","type":"address","indexed":true,"internalType":"address"},{"name":"amount","type":"uint256","indexed":false,"internalType":"uint256"},{"name":"releaseId","type":"bytes32","indexed":false,"internalType":"bytes32"}],"anonymous":false},{"type":"error","name":"IonDexFeeReceiverNotSet","inputs":[]},{"type":"error","name":"IonDexInsufficientLocked","inputs":[]},{"type":"error","name":"IonDexIonFeeTransferFailed","inputs":[]},{"type":"error","name":"IonDexTimelockActive","inputs":[{"name":"unlockTime","type":"uint256","internalType":"uint256"}]},{"type":"error","name":"IonDexTokenTransferFailed","inputs":[]},{"type":"error","name":"IonDexUnauthorized","inputs":[]},{"type":"error","name":"IonDexZeroAddress","inputs":[]},{"type":"error","name":"IonDexZeroAmount","inputs":[]},{"type":"error","name":"SafeCastOverflowedIntToUint","inputs":[{"name":"value","type":"int256","internalType":"int256"}]}],"bytecode":{"object":"0x608060405234801561000f575f80fd5b5060405161135038038061135083398101604081905261002e91610079565b6001600160a01b038116610055576040516394844c1960e01b815260040160405180910390fd5b5f80546001600160a01b0319166001600160a01b03929092169190911790556100a6565b5f60208284031215610089575f80fd5b81516001600160a01b038116811461009f575f80fd5b9392505050565b61129d806100b35f395ff3fe608060405234801561000f575f80fd5b5060043610610127575f3560e01c80637aadef8b116100a9578063d1d72a9e1161006e578063d1d72a9e146102e7578063d4a334b9146102ef578063eedc966a14610302578063efdcd97414610315578063f2fde38b14610328575f80fd5b80637aadef8b146102505780638da5cb5b1461025a578063b3f006741461026c578063c109a6dc1461027f578063cb39b7a81461029e575f80fd5b80635cf3426b116100ef5780635cf3426b146101e457806360023452146101f75780636636e5b61461020a5780636b21e607146102355780636d411e891461023d575f80fd5b80633419d6ef1461012b5780633edb24a514610168578063460fa4841461019a578063526fd106146101af5780635300f841146101c2575b5f80fd5b61015561013936600461104c565b600460209081525f928352604080842090915290825290205481565b6040519081526020015b60405180910390f35b61018a610176366004611083565b60066020525f908152604090205460ff1681565b604051901515815260200161015f565b6101ad6101a836600461109a565b61033b565b005b6101ad6101bd3660046110ea565b610525565b61018a6101d0366004611116565b60036020525f908152604090205460ff1681565b6101ad6101f2366004611138565b6105ff565b6101ad610205366004611170565b610702565b60015461021d906001600160a01b031681565b6040516001600160a01b03909116815260200161015f565b6101ad610895565b6101ad61024b3660046110ea565b6109c9565b6101556202a30081565b5f5461021d906001600160a01b031681565b60025461021d906001600160a01b031681565b61015561028d366004611116565b60056020525f908152604090205481565b6007546008546102c2916001600160a01b03811691600160a01b90910460ff169083565b604080516001600160a01b03909416845291151560208401529082015260600161015f565b6101ad610a71565b6101ad6102fd366004611116565b610ada565b610155610310366004611116565b610b4d565b6101ad610323366004611116565b610bbb565b6101ad610336366004611116565b610c2e565b5f546001600160a01b031633148015906103645750335f9081526003602052604090205460ff16155b15610382576040516326392e5760e11b815260040160405180910390fd5b6001600160a01b038416158061039f57506001600160a01b038316155b156103bd576040516394844c1960e01b815260040160405180910390fd5b815f036103dd576040516377b0874f60e11b815260040160405180910390fd5b806103fb576040516394844c1960e01b815260040160405180910390fd5b5f8181526006602052604090205460ff161561042a576040516326392e5760e11b815260040160405180910390fd5b6001600160a01b038085165f9081526004602090815260408083209387168352929052205482111561046f57604051631827065d60e21b815260040160405180910390fd5b5f818152600660209081526040808320805460ff191660011790556001600160a01b038088168452600483528184209087168452909152812080548492906104b89084906111ae565b909155506104c99050848484610ca0565b836001600160a01b0316836001600160a01b03167fa665ffb445611e4a69ea6bd353374f390a656906ea2da3245a8aae47a360a6cc8484604051610517929190918252602082015260400190565b60405180910390a350505050565b5f546001600160a01b0316331461054f576040516326392e5760e11b815260040160405180910390fd5b6001600160a01b038216610576576040516394844c1960e01b815260040160405180910390fd5b60078054821515600160a01b026001600160a81b03199091166001600160a01b038516171790556105aa6202a300426111c1565b60088190556040516001600160a01b038416917f75d38af8587d590fd1989e678a66e45eba7b8b088b817cd0650f37e5652e8c62916105f3918515158252602082015260400190565b60405180910390a25050565b6001600160a01b038416610626576040516394844c1960e01b815260040160405180910390fd5b825f03610646576040516377b0874f60e11b815260040160405180910390fd5b81610664576040516394844c1960e01b815260040160405180910390fd5b60025461067c906001600160a01b0316303384610cf6565b61068884333086610f0f565b6001600160a01b0384165f908152600460209081526040808320338452909152812080548592906106ba9084906111c1565b909155505060408051848152602081018490526001600160a01b0386169133917f02f55a15ef3feaca7f52632994447b0a215f8f3040c880a628915c61c985cb959101610517565b5f546001600160a01b0316331480159061072b5750335f9081526003602052604090205460ff16155b15610749576040516326392e5760e11b815260040160405180910390fd5b6001600160a01b038216610770576040516394844c1960e01b815260040160405180910390fd5b5f8113156107b35761078181610f68565b6001600160a01b0383165f90815260056020526040812080549091906107a89084906111c1565b9091555061085a9050565b5f81121561085a57600160ff1b81036107df57604051631827065d60e21b815260040160405180910390fd5b5f6107f16107ec836111d4565b610f68565b6001600160a01b0384165f9081526005602052604090205490915081111561082c57604051631827065d60e21b815260040160405180910390fd5b6001600160a01b0383165f90815260056020526040812080548392906108539084906111ae565b9091555050505b816001600160a01b03167f1a0542e1f1886aeb4121216cd625f432f09ee2fe3775703775baefb7a782645b826040516105f391815260200190565b5f546001600160a01b031633146108bf576040516326392e5760e11b815260040160405180910390fd5b6008544210156108ee57600854604051633172008b60e01b815260048101919091526024015b60405180910390fd5b600780546001600160a01b038082165f90815260036020908152604091829020805460ff1916600160a01b9586900460ff908116151591909117909155945491519382049094161515835216917fee42947bc760229eeff964017ac68eddb00ba98b0defcd90a1bc85a5afceb057910160405180910390a2600754604051600160a01b820460ff16151581526001600160a01b03909116907fb87f4ed21380cd77d210f8ab3c29cf229d683c7f22edcecb1b4767f6665c5a449060200160405180910390a2600780546001600160a81b03191690555f600855565b5f546001600160a01b031633146109f3576040516326392e5760e11b815260040160405180910390fd5b6001600160a01b038216610a1a576040516394844c1960e01b815260040160405180910390fd5b6001600160a01b0382165f81815260036020908152604091829020805460ff191685151590811790915591519182527fee42947bc760229eeff964017ac68eddb00ba98b0defcd90a1bc85a5afceb05791016105f3565b5f546001600160a01b03163314610a9b576040516326392e5760e11b815260040160405180910390fd5b600780546001600160a81b03191690555f60088190556040517fa9165c9c497c4ceab993bfb44dd65c9a6a30c8819c5b9598ca1a9fc7943c83269190a1565b5f546001600160a01b03163314610b04576040516326392e5760e11b815260040160405180910390fd5b6001600160a01b038116610b2b576040516394844c1960e01b815260040160405180910390fd5b600180546001600160a01b0319166001600160a01b0392909216919091179055565b6040516370a0823160e01b81523060048201525f906001600160a01b038316906370a0823190602401602060405180830381865afa158015610b91573d5f803e3d5ffd5b505050506040513d601f19601f82011682018060405250810190610bb591906111ee565b92915050565b5f546001600160a01b03163314610be5576040516326392e5760e11b815260040160405180910390fd5b6001600160a01b038116610c0c576040516394844c1960e01b815260040160405180910390fd5b600280546001600160a01b0319166001600160a01b0392909216919091179055565b5f546001600160a01b03163314610c58576040516326392e5760e11b815260040160405180910390fd5b6001600160a01b038116610c7f576040516394844c1960e01b815260040160405180910390fd5b5f80546001600160a01b0319166001600160a01b0392909216919091179055565b6040516001600160a01b038316602482015260448101829052610cf190849060640160408051601f198184030181529190526020810180516001600160e01b031663a9059cbb60e01b179052610f91565b505050565b8015610f09576001600160a01b038416610d2357604051631d5dec5760e21b815260040160405180910390fd5b5f846001600160a01b031663b0b5df6c6040518163ffffffff1660e01b8152600401602060405180830381865afa158015610d60573d5f803e3d5ffd5b505050506040513d601f19601f82011682018060405250810190610d849190611205565b6040516323b872dd60e01b81526001600160a01b038581166004830152868116602483015260448201859052919250908216906323b872dd906064016020604051808303815f875af1158015610ddc573d5f803e3d5ffd5b505050506040513d601f19601f82011682018060405250810190610e009190611220565b610e1d5760405163b180eb2560e01b815260040160405180910390fd5b60405163095ea7b360e01b81526001600160a01b0386811660048301526024820184905282169063095ea7b3906044016020604051808303815f875af1158015610e69573d5f803e3d5ffd5b505050506040513d601f19601f82011682018060405250810190610e8d9190611220565b610eaa5760405163b180eb2560e01b815260040160405180910390fd5b6040516348fef59560e01b81526001600160a01b038281166004830152602482018490528616906348fef595906044015f604051808303815f87803b158015610ef1575f80fd5b505af1158015610f03573d5f803e3d5ffd5b50505050505b50505050565b6040516001600160a01b0380851660248301528316604482015260648101829052610f0990859060840160408051601f198184030181529190526020810180516001600160e01b03166323b872dd60e01b179052610f91565b5f80821215610f8d57604051635467221960e11b8152600481018390526024016108e5565b5090565b5f80836001600160a01b031683604051610fab919061123b565b5f604051808303815f865af19150503d805f8114610fe4576040519150601f19603f3d011682016040523d82523d5f602084013e610fe9565b606091505b509150915081158061101757508051158015906110175750808060200190518101906110159190611220565b155b15610f095760405163363b9cef60e21b815260040160405180910390fd5b6001600160a01b0381168114611049575f80fd5b50565b5f806040838503121561105d575f80fd5b823561106881611035565b9150602083013561107881611035565b809150509250929050565b5f60208284031215611093575f80fd5b5035919050565b5f805f80608085870312156110ad575f80fd5b84356110b881611035565b935060208501356110c881611035565b93969395505050506040820135916060013590565b8015158114611049575f80fd5b5f80604083850312156110fb575f80fd5b823561110681611035565b91506020830135611078816110dd565b5f60208284031215611126575f80fd5b813561113181611035565b9392505050565b5f805f806080858703121561114b575f80fd5b843561115681611035565b966020860135965060408601359560600135945092505050565b5f8060408385031215611181575f80fd5b823561118c81611035565b946020939093013593505050565b634e487b7160e01b5f52601160045260245ffd5b81810381811115610bb557610bb561119a565b80820180821115610bb557610bb561119a565b5f600160ff1b82016111e8576111e861119a565b505f0390565b5f602082840312156111fe575f80fd5b5051919050565b5f60208284031215611215575f80fd5b815161113181611035565b5f60208284031215611230575f80fd5b8151611131816110dd565b5f82515f5b8181101561125a5760208186018101518583015201611240565b505f92019182525091905056fea2646970667358221220f3fa7fd9a64c94ae204624126688c8dcc1f44a2159dc48266c9230612238451564736f6c63430008180033","linkReferences":{}},"methodIdentifiers":{"TIMELOCK()":"7aadef8b","adjustLpShares(address,int256)":"60023452","bridgeRelay()":"6636e5b6","cancelSetRelayer()":"d1d72a9e","executeSetRelayer()":"6b21e607","feeReceiver()":"b3f00674","lock(address,uint256,bytes32,uint256)":"5cf3426b","lockedBalance(address,address)":"3419d6ef","lpShares(address)":"c109a6dc","owner()":"8da5cb5b","pendingRelayer()":"cb39b7a8","relayers(address)":"5300f841","release(address,address,uint256,bytes32)":"460fa484","releaseConsumed(bytes32)":"3edb24a5","scheduleSetRelayer(address,bool)":"526fd106","setBridgeRelay(address)":"d4a334b9","setFeeReceiver(address)":"efdcd974","setRelayerDirect(address,bool)":"6d411e89","tokenBalance(address)":"eedc966a","transferOwnership(address)":"f2fde38b"},"id":1}