{"abi":[{"type":"constructor","inputs":[{"name":"ionToken_","type":"address","internalType":"address"},{"name":"teamWallet_","type":"address","internalType":"address"},{"name":"stakingWallet_","type":"address","internalType":"address"},{"name":"treasuryWallet_","type":"address","internalType":"address"},{"name":"operationsWallet_","type":"address","internalType":"address"},{"name":"feeRouter_","type":"address","internalType":"address"},{"name":"initialSigners_","type":"address[]","internalType":"address[]"},{"name":"threshold_","type":"uint256","internalType":"uint256"}],"stateMutability":"nonpayable"},{"type":"function","name":"BPS_BURN","inputs":[],"outputs":[{"name":"","type":"uint256","internalType":"uint256"}],"stateMutability":"view"},{"type":"function","name":"BPS_DENOMINATOR","inputs":[],"outputs":[{"name":"","type":"uint256","internalType":"uint256"}],"stateMutability":"view"},{"type":"function","name":"BPS_OPS","inputs":[],"outputs":[{"name":"","type":"uint256","internalType":"uint256"}],"stateMutability":"view"},{"type":"function","name":"BPS_STAKING","inputs":[],"outputs":[{"name":"","type":"uint256","internalType":"uint256"}],"stateMutability":"view"},{"type":"function","name":"BPS_TEAM","inputs":[],"outputs":[{"name":"","type":"uint256","internalType":"uint256"}],"stateMutability":"view"},{"type":"function","name":"BPS_TREASURY","inputs":[],"outputs":[{"name":"","type":"uint256","internalType":"uint256"}],"stateMutability":"view"},{"type":"function","name":"BURN_ADDRESS","inputs":[],"outputs":[{"name":"","type":"address","internalType":"address"}],"stateMutability":"view"},{"type":"function","name":"PANCAKE_ROUTER","inputs":[],"outputs":[{"name":"","type":"address","internalType":"address"}],"stateMutability":"view"},{"type":"function","name":"acceptOwnership","inputs":[],"outputs":[],"stateMutability":"nonpayable"},{"type":"function","name":"accruedFees","inputs":[],"outputs":[{"name":"","type":"uint256","internalType":"uint256"}],"stateMutability":"view"},{"type":"function","name":"depositIonFee","inputs":[{"name":"amount","type":"uint256","internalType":"uint256"}],"outputs":[],"stateMutability":"nonpayable"},{"type":"function","name":"distributeFees","inputs":[],"outputs":[],"stateMutability":"nonpayable"},{"type":"function","name":"distributeFeesWithSignatures","inputs":[{"name":"deadline","type":"uint256","internalType":"uint256"},{"name":"signatures","type":"bytes[]","internalType":"bytes[]"}],"outputs":[],"stateMutability":"nonpayable"},{"type":"function","name":"distributeNonce","inputs":[],"outputs":[{"name":"","type":"uint256","internalType":"uint256"}],"stateMutability":"view"},{"type":"function","name":"eip712Domain","inputs":[],"outputs":[{"name":"fields","type":"bytes1","internalType":"bytes1"},{"name":"name","type":"string","internalType":"string"},{"name":"version","type":"string","internalType":"string"},{"name":"chainId","type":"uint256","internalType":"uint256"},{"name":"verifyingContract","type":"address","internalType":"address"},{"name":"salt","type":"bytes32","internalType":"bytes32"},{"name":"extensions","type":"uint256[]","internalType":"uint256[]"}],"stateMutability":"view"},{"type":"function","name":"feeRouter","inputs":[],"outputs":[{"name":"","type":"address","internalType":"address"}],"stateMutability":"view"},{"type":"function","name":"ionToken","inputs":[],"outputs":[{"name":"","type":"address","internalType":"contract IERC20"}],"stateMutability":"view"},{"type":"function","name":"isSigner","inputs":[{"name":"","type":"address","internalType":"address"}],"outputs":[{"name":"","type":"bool","internalType":"bool"}],"stateMutability":"view"},{"type":"function","name":"operationsWallet","inputs":[],"outputs":[{"name":"","type":"address","internalType":"address"}],"stateMutability":"view"},{"type":"function","name":"owner","inputs":[],"outputs":[{"name":"","type":"address","internalType":"address"}],"stateMutability":"view"},{"type":"function","name":"pancakeRouter","inputs":[],"outputs":[{"name":"","type":"address","internalType":"address"}],"stateMutability":"pure"},{"type":"function","name":"pause","inputs":[],"outputs":[],"stateMutability":"nonpayable"},{"type":"function","name":"paused","inputs":[],"outputs":[{"name":"","type":"bool","internalType":"bool"}],"stateMutability":"view"},{"type":"function","name":"pendingOwner","inputs":[],"outputs":[{"name":"","type":"address","internalType":"address"}],"stateMutability":"view"},{"type":"function","name":"renounceOwnership","inputs":[],"outputs":[],"stateMutability":"nonpayable"},{"type":"function","name":"setFeeWallets","inputs":[{"name":"teamWallet_","type":"address","internalType":"address"},{"name":"stakingWallet_","type":"address","internalType":"address"},{"name":"treasuryWallet_","type":"address","internalType":"address"},{"name":"operationsWallet_","type":"address","internalType":"address"},{"name":"feeRouter_","type":"address","internalType":"address"}],"outputs":[],"stateMutability":"nonpayable"},{"type":"function","name":"setSigners","inputs":[{"name":"newSigners","type":"address[]","internalType":"address[]"},{"name":"threshold_","type":"uint256","internalType":"uint256"}],"outputs":[],"stateMutability":"nonpayable"},{"type":"function","name":"signers","inputs":[{"name":"","type":"uint256","internalType":"uint256"}],"outputs":[{"name":"","type":"address","internalType":"address"}],"stateMutability":"view"},{"type":"function","name":"stakingWallet","inputs":[],"outputs":[{"name":"","type":"address","internalType":"address"}],"stateMutability":"view"},{"type":"function","name":"teamWallet","inputs":[],"outputs":[{"name":"","type":"address","internalType":"address"}],"stateMutability":"view"},{"type":"function","name":"threshold","inputs":[],"outputs":[{"name":"","type":"uint256","internalType":"uint256"}],"stateMutability":"view"},{"type":"function","name":"totalDistributed","inputs":[],"outputs":[{"name":"","type":"uint256","internalType":"uint256"}],"stateMutability":"view"},{"type":"function","name":"transferOwnership","inputs":[{"name":"newOwner","type":"address","internalType":"address"}],"outputs":[],"stateMutability":"nonpayable"},{"type":"function","name":"treasuryWallet","inputs":[],"outputs":[{"name":"","type":"address","internalType":"address"}],"stateMutability":"view"},{"type":"function","name":"unpause","inputs":[],"outputs":[],"stateMutability":"nonpayable"},{"type":"event","name":"EIP712DomainChanged","inputs":[],"anonymous":false},{"type":"event","name":"FeeWalletsUpdated","inputs":[{"name":"teamWallet","type":"address","indexed":false,"internalType":"address"},{"name":"stakingWallet","type":"address","indexed":false,"internalType":"address"},{"name":"treasuryWallet","type":"address","indexed":false,"internalType":"address"},{"name":"operationsWallet","type":"address","indexed":false,"internalType":"address"},{"name":"feeRouter","type":"address","indexed":false,"internalType":"address"}],"anonymous":false},{"type":"event","name":"FeesDistributed","inputs":[{"name":"gross","type":"uint256","indexed":false,"internalType":"uint256"},{"name":"burned","type":"uint256","indexed":false,"internalType":"uint256"},{"name":"team","type":"uint256","indexed":false,"internalType":"uint256"},{"name":"staking","type":"uint256","indexed":false,"internalType":"uint256"},{"name":"treasury","type":"uint256","indexed":false,"internalType":"uint256"},{"name":"operations","type":"uint256","indexed":false,"internalType":"uint256"}],"anonymous":false},{"type":"event","name":"IonFeeDeposited","inputs":[{"name":"from","type":"address","indexed":true,"internalType":"address"},{"name":"amount","type":"uint256","indexed":false,"internalType":"uint256"},{"name":"accruedFees","type":"uint256","indexed":false,"internalType":"uint256"}],"anonymous":false},{"type":"event","name":"OwnershipTransferStarted","inputs":[{"name":"previousOwner","type":"address","indexed":true,"internalType":"address"},{"name":"newOwner","type":"address","indexed":true,"internalType":"address"}],"anonymous":false},{"type":"event","name":"OwnershipTransferred","inputs":[{"name":"previousOwner","type":"address","indexed":true,"internalType":"address"},{"name":"newOwner","type":"address","indexed":true,"internalType":"address"}],"anonymous":false},{"type":"event","name":"Paused","inputs":[{"name":"account","type":"address","indexed":false,"internalType":"address"}],"anonymous":false},{"type":"event","name":"SignersUpdated","inputs":[{"name":"signers","type":"address[]","indexed":false,"internalType":"address[]"},{"name":"threshold","type":"uint256","indexed":false,"internalType":"uint256"}],"anonymous":false},{"type":"event","name":"Unpaused","inputs":[{"name":"account","type":"address","indexed":false,"internalType":"address"}],"anonymous":false},{"type":"error","name":"ECDSAInvalidSignature","inputs":[]},{"type":"error","name":"ECDSAInvalidSignatureLength","inputs":[{"name":"length","type":"uint256","internalType":"uint256"}]},{"type":"error","name":"ECDSAInvalidSignatureS","inputs":[{"name":"s","type":"bytes32","internalType":"bytes32"}]},{"type":"error","name":"EnforcedPause","inputs":[]},{"type":"error","name":"ExpectedPause","inputs":[]},{"type":"error","name":"InsufficientSignatures","inputs":[{"name":"required","type":"uint256","internalType":"uint256"},{"name":"provided","type":"uint256","internalType":"uint256"}]},{"type":"error","name":"InvalidDeadline","inputs":[{"name":"deadline","type":"uint256","internalType":"uint256"}]},{"type":"error","name":"InvalidShortString","inputs":[]},{"type":"error","name":"InvalidThreshold","inputs":[]},{"type":"error","name":"NotAuthorized","inputs":[]},{"type":"error","name":"NothingToDistribute","inputs":[]},{"type":"error","name":"OwnableInvalidOwner","inputs":[{"name":"owner","type":"address","internalType":"address"}]},{"type":"error","name":"OwnableUnauthorizedAccount","inputs":[{"name":"account","type":"address","internalType":"address"}]},{"type":"error","name":"ReentrancyGuardReentrantCall","inputs":[]},{"type":"error","name":"SafeERC20FailedOperation","inputs":[{"name":"token","type":"address","internalType":"address"}]},{"type":"error","name":"StringTooLong","inputs":[{"name":"str","type":"string","internalType":"string"}]},{"type":"error","name":"ZeroAddress","inputs":[]}],"bytecode":{"object":"0x610180604052348015610010575f80fd5b5060405161241438038061241483398101604081905261002f9161054f565b604080518082018252600b81526a1094d0d1995955985d5b1d60aa1b602080830191909152825180840190935260018352603160f81b9083015290338061009057604051631e4fbdf760e01b81525f60048201526024015b60405180910390fd5b610099816101c6565b5060017f9b779b17422d0df92223018b32b4d1fa46e071723d6817e2486d003becc55f00556100c98260026101e2565b610120526100d88160036101e2565b61014052815160208084019190912060e052815190820120610100524660a05261016460e05161010051604080517f8b73c3c69bb8fe3d512ecc4cf759cc79239f7b179b0ffacaa9a75d522b39400f60208201529081019290925260608201524660808201523060a08201525f9060c00160405160208183030381529060405280519060200120905090565b60805250503060c0526001600160a01b0388166101945760405163d92e233d60e01b815260040160405180910390fd5b6001600160a01b038816610160526101af8787878787610214565b6101b98282610336565b5050505050505050610889565b600180546001600160a01b03191690556101df81610494565b50565b5f6020835110156101fd576101f6836104e3565b905061020e565b81610208848261070b565b5060ff90505b92915050565b6001600160a01b038516158061023157506001600160a01b038416155b8061024357506001600160a01b038316155b8061025557506001600160a01b038216155b8061026757506001600160a01b038116155b156102855760405163d92e233d60e01b815260040160405180910390fd5b600480546001600160a01b038781166001600160a01b031992831681179093556005805488831690841681179091556006805488841690851681179091556007805488851690861681179091556008805494881694909516841790945560408051958652602086019290925290840152606083019190915260808201527f2aafff1f7e71c881a16b467ee2651db586e8fa567d84798a5d461852e9f64fd69060a00160405180910390a15050505050565b8015806103435750815181115b156103615760405163aabd5a0960e01b815260040160405180910390fd5b5f5b825181101561044f575f83828151811061037f5761037f6107c5565b602002602001015190505f6001600160a01b0316816001600160a01b0316036103bb5760405163d92e233d60e01b815260040160405180910390fd5b6001600160a01b0381165f908152600d602052604090205460ff1661042557600e80546001810182555f919091527fbb7b4a454dc3493923482f07822329ed19e8244eff582cc204f8554c3620c3fd0180546001600160a01b0319166001600160a01b0383161790555b6001600160a01b03165f908152600d60205260409020805460ff1916600190811790915501610363565b5060098190556040517feb4dc7fab86d67670d7a4d7443a38860da1aa053f26529c8f41cc68e5d6a93369061048890600e9084906107d9565b60405180910390a15050565b5f80546001600160a01b038381166001600160a01b0319831681178455604051919092169283917f8be0079c531659141344cd1fd0a4f28419497f9722a3daafe3b4186f6b6457e09190a35050565b5f80829050601f8151111561050d578260405163305a27a960e01b81526004016100879190610831565b805161051882610866565b179392505050565b80516001600160a01b0381168114610536575f80fd5b919050565b634e487b7160e01b5f52604160045260245ffd5b5f805f805f805f80610100898b031215610567575f80fd5b61057089610520565b975061057e60208a01610520565b965061058c60408a01610520565b955061059a60608a01610520565b94506105a860808a01610520565b93506105b660a08a01610520565b60c08a01519093506001600160401b038111156105d1575f80fd5b8901601f81018b136105e1575f80fd5b80516001600160401b038111156105fa576105fa61053b565b604051600582901b90603f8201601f191681016001600160401b03811182821017156106285761062861053b565b60405291825260208184018101929081018e841115610645575f80fd5b6020850194505b8385101561066b5761065d85610520565b81526020948501940161064c565b5060e09c909c01519a9d999c50979a9699959894975050505050565b600181811c9082168061069b57607f821691505b6020821081036106b957634e487b7160e01b5f52602260045260245ffd5b50919050565b601f82111561070657805f5260205f20601f840160051c810160208510156106e45750805b601f840160051c820191505b81811015610703575f81556001016106f0565b50505b505050565b81516001600160401b038111156107245761072461053b565b610738816107328454610687565b846106bf565b6020601f82116001811461076a575f83156107535750848201515b5f19600385901b1c1916600184901b178455610703565b5f84815260208120601f198516915b828110156107995787850151825560209485019460019092019101610779565b50848210156107b657868401515f19600387901b60f8161c191681555b50505050600190811b01905550565b634e487b7160e01b5f52603260045260245ffd5b604080825283549082018190525f8481526020812090916060840190835b8181101561081e5783546001600160a01b03168352600193840193602090930192016107f7565b5050602093909301939093525092915050565b602081525f82518060208401528060208501604085015e5f604082850101526040601f19601f83011684010191505092915050565b805160208083015191908110156106b9575f1960209190910360031b1b16919050565b60805160a05160c05160e05161010051610120516101405161016051611b0661090e5f395f81816103840152818161049001528181610da601528181610de601528181610e2601528181610e660152610ea601525f610b8701525f610b5501525f61137001525f61134801525f6112a301525f6112cd01525f6112f70152611b065ff3fe608060405234801561000f575f80fd5b5060043610610208575f3560e01c80638b5dadc91161011f578063e08836dd116100a9578063efca2eed11610079578063efca2eed14610422578063f29ebf611461042b578063f2fde38b1461043e578063fccc281314610451578063fd72e22a1461045a575f80fd5b8063e08836dd146103e4578063e1a45218146103ff578063e30c397814610408578063ededa9c714610419575f80fd5b8063b0b5df6c116100ef578063b0b5df6c1461037f578063b1865b35146103a6578063b4368904146103af578063bb57ad20146103c2578063c21ebd07146103ca575f80fd5b80638b5dadc91461034a5780638da5cb5b146103535780639744d2e2146103635780639aa8c61714610376575f80fd5b806359927044116101a0578063715018a611610170578063715018a6146102f557806379ba5097146102fd5780637df73e27146103055780638456cb591461032757806384b0196e1461032f575f80fd5b806359927044146102a85780635c975abb146102bb578063682c2058146102d95780636c9af74a146102e2575f80fd5b80632288391a116101db5780632288391a1461027b5780633f4ba83a1461028457806342cde4e81461028c5780634626402b14610295575f80fd5b806306ee6ad81461020c57806308e4298c1461023c5780631669a9d7146102535780632079fb9a14610268575b5f80fd5b60055461021f906001600160a01b031681565b6040516001600160a01b0390911681526020015b60405180910390f35b610245610dac81565b604051908152602001610233565b6102666102613660046116de565b61046d565b005b61021f6102763660046116de565b61052c565b6102456105dc81565b610266610554565b61024560095481565b60065461021f906001600160a01b031681565b60045461021f906001600160a01b031681565b600154600160a01b900460ff165b6040519015158152602001610233565b610245600a5481565b6102666102f0366004611710565b610566565b610266610582565b610266610593565b6102c9610313366004611771565b600d6020525f908152604090205460ff1681565b6102666105d9565b6103376105e9565b60405161023397969594939291906117bf565b610245600c5481565b5f546001600160a01b031661021f565b61026661037136600461189d565b61062b565b6102456107d081565b61021f7f000000000000000000000000000000000000000000000000000000000000000081565b6102456101f481565b6102666103bd3660046118e5565b610757565b610266610806565b7310ed43c718714eb63d5aa57b78b54704e256024e61021f565b61021f7310ed43c718714eb63d5aa57b78b54704e256024e81565b61024561271081565b6001546001600160a01b031661021f565b6102456109c481565b610245600b5481565b60085461021f906001600160a01b031681565b61026661044c366004611771565b61085d565b61021f61dead81565b60075461021f906001600160a01b031681565b6104756108cd565b61047d6108e8565b8015610513576104b86001600160a01b037f000000000000000000000000000000000000000000000000000000000000000016333084610913565b80600a5f8282546104c99190611941565b9091555050600a5460405133917fba41d5ddab1a64d2163d3111940bcd69abd5d04255ad8d25c7a16b9bd7e3760e9161050a91858252602082015260400190565b60405180910390a25b61052960015f80516020611ab183398151915255565b50565b600e818154811061053b575f80fd5b5f918252602090912001546001600160a01b0316905081565b61055c61094f565b61056461097b565b565b61056e61094f565b61057b85858585856109d0565b5050505050565b61058a61094f565b6105645f610af2565b60015433906001600160a01b031681146105d05760405163118cdaa760e01b81526001600160a01b03821660048201526024015b60405180910390fd5b61052981610af2565b6105e161094f565b610564610b0b565b5f6060805f805f60606105fa610b4e565b610602610b80565b604080515f80825260208201909252600f60f81b9b939a50919850469750309650945092509050565b6106336108cd565b61063b6108e8565b8242111561065f576040516309decb5d60e21b8152600481018490526024016105c7565b600a545f8190036106825760405162598fc960e21b815260040160405180910390fd5b600c54604080517f42b77b48495ec3e4df0516b9976b73bebaab0a868a00711f56a869ff7a63687e6020820152908101829052606081018690525f906106e09060800160405160208183030381529060405280519060200120610bad565b90505f6106ee828787610bdf565b9050600954811015610721576009546040516378f4355360e11b81526004810191909152602481018290526044016105c7565b61072c836001611941565b600c5561073884610cb9565b5050505061075260015f80516020611ab183398151915255565b505050565b61075f61094f565b5f5b600e548110156107bd575f600d5f600e848154811061078257610782611954565b5f918252602080832091909101546001600160a01b031683528201929092526040019020805460ff1916911515919091179055600101610761565b506107c9600e5f6116b0565b6107528383808060200260200160405190810160405280939291908181526020018383602002808284375f92019190915250859250610f2d915050565b61080e6108cd565b6108166108e8565b61081f3361108b565b61083c5760405163ea8e4eb560e01b815260040160405180910390fd5b610847600a54610cb9565b61056460015f80516020611ab183398151915255565b61086561094f565b600180546001600160a01b0383166001600160a01b031990911681179091556108955f546001600160a01b031690565b6001600160a01b03167f38d16b8cac22d99fc7c124b9cd0de2d3fa1faef420bfe791d8c362d765e2270060405160405180910390a350565b6108d56110d8565b60025f80516020611ab183398151915255565b600154600160a01b900460ff16156105645760405163d93c066560e01b815260040160405180910390fd5b610921848484846001611107565b61094957604051635274afe760e01b81526001600160a01b03851660048201526024016105c7565b50505050565b5f546001600160a01b031633146105645760405163118cdaa760e01b81523360048201526024016105c7565b610983611174565b6001805460ff60a01b191690557f5db9ee0a495bf2e6ff9c91a7834c1ba4fdd244a5e8aa4e537bd38aeae4b073aa335b6040516001600160a01b03909116815260200160405180910390a1565b6001600160a01b03851615806109ed57506001600160a01b038416155b806109ff57506001600160a01b038316155b80610a1157506001600160a01b038216155b80610a2357506001600160a01b038116155b15610a415760405163d92e233d60e01b815260040160405180910390fd5b600480546001600160a01b038781166001600160a01b031992831681179093556005805488831690841681179091556006805488841690851681179091556007805488851690861681179091556008805494881694909516841790945560408051958652602086019290925290840152606083019190915260808201527f2aafff1f7e71c881a16b467ee2651db586e8fa567d84798a5d461852e9f64fd69060a00160405180910390a15050505050565b600180546001600160a01b03191690556105298161119e565b610b136108e8565b6001805460ff60a01b1916600160a01b1790557f62e78cea01bee320cd4e420270b5ea74000d11b0c9f74754ebdbfc544b05a2586109b33390565b6060610b7b7f000000000000000000000000000000000000000000000000000000000000000060026111ed565b905090565b6060610b7b7f000000000000000000000000000000000000000000000000000000000000000060036111ed565b5f610bd9610bb9611297565b8360405161190160f01b8152600281019290925260228201526042902090565b92915050565b5f80805b83811015610cb0575f610c4f868684818110610c0157610c01611954565b9050602002810190610c139190611968565b8080601f0160208091040260200160405190810160405280939291908181526020018383808284375f920191909152508b939250506113c09050565b6001600160a01b0381165f908152600d602052604090205490915060ff161580610c8b5750826001600160a01b0316816001600160a01b031611155b15610c965750610ca8565b91508183610ca3816119ab565b945050505b600101610be3565b50509392505050565b805f03610cd85760405162598fc960e21b815260040160405180910390fd5b5f612710610ce8610dac846119c3565b610cf291906119da565b90505f612710610d046109c4856119c3565b610d0e91906119da565b90505f612710610d206107d0866119c3565b610d2a91906119da565b90505f612710610d3c6105dc876119c3565b610d4691906119da565b90505f818385610d56888a6119f9565b610d6091906119f9565b610d6a91906119f9565b610d7491906119f9565b90505f600a8190555085600b5f828254610d8e9190611941565b90915550508415610dcf57610dcf6001600160a01b037f00000000000000000000000000000000000000000000000000000000000000001661dead876113e8565b8315610e0f57600454610e0f906001600160a01b037f000000000000000000000000000000000000000000000000000000000000000081169116866113e8565b8215610e4f57600554610e4f906001600160a01b037f000000000000000000000000000000000000000000000000000000000000000081169116856113e8565b8115610e8f57600654610e8f906001600160a01b037f000000000000000000000000000000000000000000000000000000000000000081169116846113e8565b8015610ecf57600754610ecf906001600160a01b037f000000000000000000000000000000000000000000000000000000000000000081169116836113e8565b6040805187815260208101879052908101859052606081018490526080810183905260a081018290527f38d88191b63cf68a195fd4227b1927ec70d40961b7713eb5f8e0576aadc77ece9060c00160405180910390a1505050505050565b801580610f3a5750815181115b15610f585760405163aabd5a0960e01b815260040160405180910390fd5b5f5b8251811015611046575f838281518110610f7657610f76611954565b602002602001015190505f6001600160a01b0316816001600160a01b031603610fb25760405163d92e233d60e01b815260040160405180910390fd5b6001600160a01b0381165f908152600d602052604090205460ff1661101c57600e80546001810182555f919091527fbb7b4a454dc3493923482f07822329ed19e8244eff582cc204f8554c3620c3fd0180546001600160a01b0319166001600160a01b0383161790555b6001600160a01b03165f908152600d60205260409020805460ff1916600190811790915501610f5a565b5060098190556040517feb4dc7fab86d67670d7a4d7443a38860da1aa053f26529c8f41cc68e5d6a93369061107f90600e908490611a0c565b60405180910390a15050565b5f80546001600160a01b03838116911614806110b457506008546001600160a01b038381169116145b80610bd95750506001600160a01b03165f908152600d602052604090205460ff1690565b5f80516020611ab18339815191525460020361056457604051633ee5aeb560e01b815260040160405180910390fd5b6040516323b872dd60e01b5f8181526001600160a01b038781166004528616602452604485905291602083606481808c5af1925060015f51148316611163578383151615611157573d5f823e3d81fd5b5f883b113d1516831692505b604052505f60605295945050505050565b600154600160a01b900460ff1661056457604051638dfc202b60e01b815260040160405180910390fd5b5f80546001600160a01b038381166001600160a01b0319831681178455604051919092169283917f8be0079c531659141344cd1fd0a4f28419497f9722a3daafe3b4186f6b6457e09190a35050565b606060ff8314611207576112008361141d565b9050610bd9565b81805461121390611a64565b80601f016020809104026020016040519081016040528092919081815260200182805461123f90611a64565b801561128a5780601f106112615761010080835404028352916020019161128a565b820191905f5260205f20905b81548152906001019060200180831161126d57829003601f168201915b5050505050905092915050565b5f306001600160a01b037f0000000000000000000000000000000000000000000000000000000000000000161480156112ef57507f000000000000000000000000000000000000000000000000000000000000000046145b1561131957507f000000000000000000000000000000000000000000000000000000000000000090565b610b7b604080517f8b73c3c69bb8fe3d512ecc4cf759cc79239f7b179b0ffacaa9a75d522b39400f60208201527f0000000000000000000000000000000000000000000000000000000000000000918101919091527f000000000000000000000000000000000000000000000000000000000000000060608201524660808201523060a08201525f9060c00160405160208183030381529060405280519060200120905090565b5f805f806113ce868661145a565b9250925092506113de82826114a3565b5090949350505050565b6113f5838383600161155f565b61075257604051635274afe760e01b81526001600160a01b03841660048201526024016105c7565b60605f611429836115c1565b6040805160208082528183019092529192505f91906020820181803683375050509182525060208101929092525090565b5f805f8351604103611491576020840151604085015160608601515f1a611483888285856115e8565b95509550955050505061149c565b505081515f91506002905b9250925092565b5f8260038111156114b6576114b6611a9c565b036114bf575050565b60018260038111156114d3576114d3611a9c565b036114f15760405163f645eedf60e01b815260040160405180910390fd5b600282600381111561150557611505611a9c565b036115265760405163fce698f760e01b8152600481018290526024016105c7565b600382600381111561153a5761153a611a9c565b0361155b576040516335e2f38360e21b8152600481018290526024016105c7565b5050565b60405163a9059cbb60e01b5f8181526001600160a01b038616600452602485905291602083604481808b5af1925060015f511483166115b55783831516156115a9573d5f823e3d81fd5b5f873b113d1516831692505b60405250949350505050565b5f60ff8216601f811115610bd957604051632cd44ac360e21b815260040160405180910390fd5b5f80807f7fffffffffffffffffffffffffffffff5d576e7357a4501ddfe92f46681b20a084111561162157505f915060039050826116a6565b604080515f808252602082018084528a905260ff891692820192909252606081018790526080810186905260019060a0016020604051602081039080840390855afa158015611672573d5f803e3d5ffd5b5050604051601f1901519150506001600160a01b03811661169d57505f9250600191508290506116a6565b92505f91508190505b9450945094915050565b5080545f8255905f5260205f209081019061052991905b808211156116da575f81556001016116c7565b5090565b5f602082840312156116ee575f80fd5b5035919050565b80356001600160a01b038116811461170b575f80fd5b919050565b5f805f805f60a08688031215611724575f80fd5b61172d866116f5565b945061173b602087016116f5565b9350611749604087016116f5565b9250611757606087016116f5565b9150611765608087016116f5565b90509295509295909350565b5f60208284031215611781575f80fd5b61178a826116f5565b9392505050565b5f81518084528060208401602086015e5f602082860101526020601f19601f83011685010191505092915050565b60ff60f81b8816815260e060208201525f6117dd60e0830189611791565b82810360408401526117ef8189611791565b606084018890526001600160a01b038716608085015260a0840186905283810360c0850152845180825260208087019350909101905f5b81811015611844578351835260209384019390920191600101611826565b50909b9a5050505050505050505050565b5f8083601f840112611865575f80fd5b50813567ffffffffffffffff81111561187c575f80fd5b6020830191508360208260051b8501011115611896575f80fd5b9250929050565b5f805f604084860312156118af575f80fd5b83359250602084013567ffffffffffffffff8111156118cc575f80fd5b6118d886828701611855565b9497909650939450505050565b5f805f604084860312156118f7575f80fd5b833567ffffffffffffffff81111561190d575f80fd5b61191986828701611855565b909790965060209590950135949350505050565b634e487b7160e01b5f52601160045260245ffd5b80820180821115610bd957610bd961192d565b634e487b7160e01b5f52603260045260245ffd5b5f808335601e1984360301811261197d575f80fd5b83018035915067ffffffffffffffff821115611997575f80fd5b602001915036819003821315611896575f80fd5b5f600182016119bc576119bc61192d565b5060010190565b8082028115828204841417610bd957610bd961192d565b5f826119f457634e487b7160e01b5f52601260045260245ffd5b500490565b81810381811115610bd957610bd961192d565b604080825283549082018190525f8481526020812090916060840190835b81811015611a515783546001600160a01b0316835260019384019360209093019201611a2a565b5050602093909301939093525092915050565b600181811c90821680611a7857607f821691505b602082108103611a9657634e487b7160e01b5f52602260045260245ffd5b50919050565b634e487b7160e01b5f52602160045260245ffdfe9b779b17422d0df92223018b32b4d1fa46e071723d6817e2486d003becc55f00a2646970667358221220bdabe652f4168294e2b23b8f887d8741e1a86ddb117c7118211c03268fdfa49664736f6c634300081a0033","linkReferences":{}},"methodIdentifiers":{"BPS_BURN()":"08e4298c","BPS_DENOMINATOR()":"e1a45218","BPS_OPS()":"b1865b35","BPS_STAKING()":"9aa8c617","BPS_TEAM()":"ededa9c7","BPS_TREASURY()":"2288391a","BURN_ADDRESS()":"fccc2813","PANCAKE_ROUTER()":"e08836dd","acceptOwnership()":"79ba5097","accruedFees()":"682c2058","depositIonFee(uint256)":"1669a9d7","distributeFees()":"bb57ad20","distributeFeesWithSignatures(uint256,bytes[])":"9744d2e2","distributeNonce()":"8b5dadc9","eip712Domain()":"84b0196e","feeRouter()":"f29ebf61","ionToken()":"b0b5df6c","isSigner(address)":"7df73e27","operationsWallet()":"fd72e22a","owner()":"8da5cb5b","pancakeRouter()":"c21ebd07","pause()":"8456cb59","paused()":"5c975abb","pendingOwner()":"e30c3978","renounceOwnership()":"715018a6","setFeeWallets(address,address,address,address,address)":"6c9af74a","setSigners(address[],uint256)":"b4368904","signers(uint256)":"2079fb9a","stakingWallet()":"06ee6ad8","teamWallet()":"59927044","threshold()":"42cde4e8","totalDistributed()":"efca2eed","transferOwnership(address)":"f2fde38b","treasuryWallet()":"4626402b","unpause()":"3f4ba83a"},"id":25}