{"abi":[{"type":"function","name":"batchCollect","inputs":[{"name":"token","type":"address","internalType":"address"},{"name":"mainAddr","type":"address","internalType":"address"},{"name":"fromAddrs","type":"address[]","internalType":"address[]"}],"outputs":[],"stateMutability":"nonpayable"},{"type":"function","name":"batchErc20","inputs":[{"name":"token","type":"address","internalType":"address"},{"name":"tos","type":"address[]","internalType":"address[]"},{"name":"amounts","type":"uint256[]","internalType":"uint256[]"}],"outputs":[],"stateMutability":"nonpayable"},{"type":"function","name":"batchNative","inputs":[{"name":"tos","type":"address[]","internalType":"address[]"},{"name":"amounts","type":"uint256[]","internalType":"uint256[]"}],"outputs":[],"stateMutability":"payable"},{"type":"error","name":"ReentrancyGuardReentrantCall","inputs":[]}],"bytecode":{"object":"0x608060405234801561000f575f80fd5b5060017f9b779b17422d0df92223018b32b4d1fa46e071723d6817e2486d003becc55f00556108d4806100415f395ff3fe608060405260043610610033575f3560e01c80634da4a2d2146100375780639156eea514610058578063bb5f24b61461006b575b5f80fd5b348015610042575f80fd5b506100566100513660046106bc565b61008a565b005b610056610066366004610737565b610257565b348015610076575f80fd5b5061005661008536600461079e565b610463565b61009261060d565b8281146100d85760405162461bcd60e51b815260206004820152600f60248201526e098cadccee8d040dad2e6dac2e8c6d608b1b60448201526064015b60405180910390fd5b82158015906100e8575060648311155b6101215760405162461bcd60e51b815260206004820152600a60248201526942617463682073697a6560b01b60448201526064016100cf565b845f5b8481101561023857816001600160a01b03166323b872dd3388888581811061014e5761014e6107ef565b90506020020160208101906101639190610803565b878786818110610175576101756107ef565b6040516001600160e01b031960e088901b1681526001600160a01b039586166004820152949093166024850152506020909102013560448201526064016020604051808303815f875af11580156101ce573d5f803e3d5ffd5b505050506040513d601f19601f820116820180604052508101906101f29190610823565b6102305760405162461bcd60e51b815260206004820152600f60248201526e151c985b9cd9995c8819985a5b1959608a1b60448201526064016100cf565b600101610124565b505061025060015f8051602061087f83398151915255565b5050505050565b61025f61060d565b8281146102a05760405162461bcd60e51b815260206004820152600f60248201526e098cadccee8d040dad2e6dac2e8c6d608b1b60448201526064016100cf565b82158015906102b0575060648311155b6102e95760405162461bcd60e51b815260206004820152600a60248201526942617463682073697a6560b01b60448201526064016100cf565b5f805b8481101561032257838382818110610306576103066107ef565b90506020020135826103189190610842565b91506001016102ec565b508034146103635760405162461bcd60e51b815260206004820152600e60248201526d0acc2d8eaca40dad2e6dac2e8c6d60931b60448201526064016100cf565b5f5b84811015610445575f868683818110610380576103806107ef565b90506020020160208101906103959190610803565b6001600160a01b03168585848181106103b0576103b06107ef565b905060200201356040515f6040518083038185875af1925050503d805f81146103f4576040519150601f19603f3d011682016040523d82523d5f602084013e6103f9565b606091505b505090508061043c5760405162461bcd60e51b815260206004820152600f60248201526e151c985b9cd9995c8819985a5b1959608a1b60448201526064016100cf565b50600101610365565b505061045d60015f8051602061087f83398151915255565b50505050565b61046b61060d565b835f5b82811015610445575f826001600160a01b03166370a08231868685818110610498576104986107ef565b90506020020160208101906104ad9190610803565b6040516001600160e01b031960e084901b1681526001600160a01b039091166004820152602401602060405180830381865afa1580156104ef573d5f803e3d5ffd5b505050506040513d601f19601f820116820180604052508101906105139190610867565b9050801561060457826001600160a01b03166323b872dd86868581811061053c5761053c6107ef565b90506020020160208101906105519190610803565b6040516001600160e01b031960e084901b1681526001600160a01b0391821660048201529089166024820152604481018490526064016020604051808303815f875af11580156105a3573d5f803e3d5ffd5b505050506040513d601f19601f820116820180604052508101906105c79190610823565b6106045760405162461bcd60e51b815260206004820152600e60248201526d10dbdb1b1958dd0819985a5b195960921b60448201526064016100cf565b5060010161046e565b610615610628565b60025f8051602061087f83398151915255565b5f8051602061087f8339815191525460020361065757604051633ee5aeb560e01b815260040160405180910390fd5b565b80356001600160a01b038116811461066f575f80fd5b919050565b5f8083601f840112610684575f80fd5b50813567ffffffffffffffff81111561069b575f80fd5b6020830191508360208260051b85010111156106b5575f80fd5b9250929050565b5f805f805f606086880312156106d0575f80fd5b6106d986610659565b9450602086013567ffffffffffffffff808211156106f5575f80fd5b61070189838a01610674565b90965094506040880135915080821115610719575f80fd5b5061072688828901610674565b969995985093965092949392505050565b5f805f806040858703121561074a575f80fd5b843567ffffffffffffffff80821115610761575f80fd5b61076d88838901610674565b90965094506020870135915080821115610785575f80fd5b5061079287828801610674565b95989497509550505050565b5f805f80606085870312156107b1575f80fd5b6107ba85610659565b93506107c860208601610659565b9250604085013567ffffffffffffffff8111156107e3575f80fd5b61079287828801610674565b634e487b7160e01b5f52603260045260245ffd5b5f60208284031215610813575f80fd5b61081c82610659565b9392505050565b5f60208284031215610833575f80fd5b8151801515811461081c575f80fd5b8082018082111561086157634e487b7160e01b5f52601160045260245ffd5b92915050565b5f60208284031215610877575f80fd5b505191905056fe9b779b17422d0df92223018b32b4d1fa46e071723d6817e2486d003becc55f00a264697066735822122063313882ea7bd8c340d05800d67613b9c151c5ccfd928836c8142b0a5772203a64736f6c63430008180033","linkReferences":{}},"methodIdentifiers":{"batchCollect(address,address,address[])":"bb5f24b6","batchErc20(address,address[],uint256[])":"4da4a2d2","batchNative(address[],uint256[])":"9156eea5"},"id":2}