{"abi":[{"type":"constructor","inputs":[{"name":"owner_","type":"address","internalType":"address"}],"stateMutability":"nonpayable"},{"type":"function","name":"feeReceiver","inputs":[],"outputs":[{"name":"","type":"address","internalType":"address"}],"stateMutability":"view"},{"type":"function","name":"owner","inputs":[],"outputs":[{"name":"","type":"address","internalType":"address"}],"stateMutability":"view"},{"type":"function","name":"setFeeReceiver","inputs":[{"name":"feeReceiver_","type":"address","internalType":"address"}],"outputs":[],"stateMutability":"nonpayable"},{"type":"function","name":"swapExactIn","inputs":[{"name":"pool","type":"address","internalType":"contract ISwapPool"},{"name":"amountIn","type":"uint256","internalType":"uint256"},{"name":"amountOutMinimum","type":"uint256","internalType":"uint256"},{"name":"recipient","type":"address","internalType":"address"},{"name":"ionProtocolFee","type":"uint256","internalType":"uint256"}],"outputs":[{"name":"amountOut","type":"uint256","internalType":"uint256"}],"stateMutability":"nonpayable"},{"type":"event","name":"SwapExactIn","inputs":[{"name":"caller","type":"address","indexed":true,"internalType":"address"},{"name":"pool","type":"address","indexed":true,"internalType":"address"},{"name":"amountIn","type":"uint256","indexed":false,"internalType":"uint256"},{"name":"amountOut","type":"uint256","indexed":false,"internalType":"uint256"},{"name":"amountOutMinimum","type":"uint256","indexed":false,"internalType":"uint256"}],"anonymous":false},{"type":"error","name":"IonDexFeeReceiverNotSet","inputs":[]},{"type":"error","name":"IonDexIonFeeTransferFailed","inputs":[]},{"type":"error","name":"IonDexMinOutput","inputs":[{"name":"amountOut","type":"uint256","internalType":"uint256"},{"name":"amountOutMinimum","type":"uint256","internalType":"uint256"}]},{"type":"error","name":"IonDexZeroAddress","inputs":[]},{"type":"error","name":"IonDexZeroAmount","inputs":[]}],"bytecode":{"object":"0x608060405234801561000f575f80fd5b5060405161065f38038061065f83398101604081905261002e91610079565b6001600160a01b038116610055576040516394844c1960e01b815260040160405180910390fd5b5f80546001600160a01b0319166001600160a01b03929092169190911790556100a6565b5f60208284031215610089575f80fd5b81516001600160a01b038116811461009f575f80fd5b9392505050565b6105ac806100b35f395ff3fe608060405234801561000f575f80fd5b506004361061004a575f3560e01c80638da5cb5b1461004e578063b26aefb91461007d578063b3f006741461009e578063efdcd974146100b1575b5f80fd5b5f54610060906001600160a01b031681565b6040516001600160a01b0390911681526020015b60405180910390f35b61009061008b3660046104b5565b6100c6565b604051908152602001610074565b600154610060906001600160a01b031681565b6100c46100bf366004610503565b610239565b005b5f6001600160a01b03861615806100e457506001600160a01b038316155b15610102576040516394844c1960e01b815260040160405180910390fd5b845f03610122576040516377b0874f60e11b815260040160405180910390fd5b60015461013a906001600160a01b0316303385610285565b604051635376019b60e01b815260048101869052602481018590526001600160a01b038481166044830152871690635376019b906064016020604051808303815f875af115801561018d573d5f803e3d5ffd5b505050506040513d601f19601f820116820180604052508101906101b19190610525565b9050838110156101e2576040516316d1708b60e11b8152600481018290526024810185905260440160405180910390fd5b60408051868152602081018390529081018590526001600160a01b0387169033907f1b77440dc830de814de9d67389bb306d37e7620c2bd2c6b3298ed2695df7cb509060600160405180910390a395945050505050565b5f546001600160a01b03163314610263576040516394844c1960e01b815260040160405180910390fd5b600180546001600160a01b0319166001600160a01b0392909216919091179055565b8015610498576001600160a01b0384166102b257604051631d5dec5760e21b815260040160405180910390fd5b5f846001600160a01b031663b0b5df6c6040518163ffffffff1660e01b8152600401602060405180830381865afa1580156102ef573d5f803e3d5ffd5b505050506040513d601f19601f82011682018060405250810190610313919061053c565b6040516323b872dd60e01b81526001600160a01b038581166004830152868116602483015260448201859052919250908216906323b872dd906064016020604051808303815f875af115801561036b573d5f803e3d5ffd5b505050506040513d601f19601f8201168201806040525081019061038f9190610557565b6103ac5760405163b180eb2560e01b815260040160405180910390fd5b60405163095ea7b360e01b81526001600160a01b0386811660048301526024820184905282169063095ea7b3906044016020604051808303815f875af11580156103f8573d5f803e3d5ffd5b505050506040513d601f19601f8201168201806040525081019061041c9190610557565b6104395760405163b180eb2560e01b815260040160405180910390fd5b6040516348fef59560e01b81526001600160a01b038281166004830152602482018490528616906348fef595906044015f604051808303815f87803b158015610480575f80fd5b505af1158015610492573d5f803e3d5ffd5b50505050505b50505050565b6001600160a01b03811681146104b2575f80fd5b50565b5f805f805f60a086880312156104c9575f80fd5b85356104d48161049e565b9450602086013593506040860135925060608601356104f28161049e565b949793965091946080013592915050565b5f60208284031215610513575f80fd5b813561051e8161049e565b9392505050565b5f60208284031215610535575f80fd5b5051919050565b5f6020828403121561054c575f80fd5b815161051e8161049e565b5f60208284031215610567575f80fd5b8151801515811461051e575f80fdfea26469706673582212204266c3a277e8ed203aeeb17238d36a6c39398f4ac51e867234102742d2cf76f964736f6c63430008180033","linkReferences":{}},"methodIdentifiers":{"feeReceiver()":"b3f00674","owner()":"8da5cb5b","setFeeReceiver(address)":"efdcd974","swapExactIn(address,uint256,uint256,address,uint256)":"b26aefb9"},"id":12}