{"abi":[{"type":"constructor","inputs":[{"name":"owner_","type":"address","internalType":"address"}],"stateMutability":"nonpayable"},{"type":"function","name":"feeReceiver","inputs":[],"outputs":[{"name":"","type":"address","internalType":"address"}],"stateMutability":"view"},{"type":"function","name":"owner","inputs":[],"outputs":[{"name":"","type":"address","internalType":"address"}],"stateMutability":"view"},{"type":"function","name":"setFeeReceiver","inputs":[{"name":"feeReceiver_","type":"address","internalType":"address"}],"outputs":[],"stateMutability":"nonpayable"},{"type":"function","name":"swapExactIn","inputs":[{"name":"pool","type":"address","internalType":"contract ISwapPool"},{"name":"amountIn","type":"uint256","internalType":"uint256"},{"name":"amountOutMinimum","type":"uint256","internalType":"uint256"},{"name":"recipient","type":"address","internalType":"address"},{"name":"ionProtocolFee","type":"uint256","internalType":"uint256"}],"outputs":[{"name":"amountOut","type":"uint256","internalType":"uint256"}],"stateMutability":"nonpayable"},{"type":"event","name":"SwapExactIn","inputs":[{"name":"caller","type":"address","indexed":true,"internalType":"address"},{"name":"pool","type":"address","indexed":true,"internalType":"address"},{"name":"amountIn","type":"uint256","indexed":false,"internalType":"uint256"},{"name":"amountOut","type":"uint256","indexed":false,"internalType":"uint256"},{"name":"amountOutMinimum","type":"uint256","indexed":false,"internalType":"uint256"}],"anonymous":false},{"type":"error","name":"IonDexFeeReceiverNotSet","inputs":[]},{"type":"error","name":"IonDexIonFeeTransferFailed","inputs":[]},{"type":"error","name":"IonDexMinOutput","inputs":[{"name":"amountOut","type":"uint256","internalType":"uint256"},{"name":"amountOutMinimum","type":"uint256","internalType":"uint256"}]},{"type":"error","name":"IonDexZeroAddress","inputs":[]},{"type":"error","name":"IonDexZeroAmount","inputs":[]}],"bytecode":{"object":"0x608060405234801561000f575f80fd5b5060405161065738038061065783398101604081905261002e91610079565b6001600160a01b038116610055576040516394844c1960e01b815260040160405180910390fd5b5f80546001600160a01b0319166001600160a01b03929092169190911790556100a6565b5f60208284031215610089575f80fd5b81516001600160a01b038116811461009f575f80fd5b9392505050565b6105a4806100b35f395ff3fe608060405234801561000f575f80fd5b506004361061004a575f3560e01c80638da5cb5b1461004e578063b26aefb91461007d578063b3f006741461009e578063efdcd974146100b1575b5f80fd5b5f54610060906001600160a01b031681565b6040516001600160a01b0390911681526020015b60405180910390f35b61009061008b3660046104ad565b6100c6565b604051908152602001610074565b600154610060906001600160a01b031681565b6100c46100bf3660046104fb565b610231565b005b5f6001600160a01b03861615806100e457506001600160a01b038316155b15610102576040516394844c1960e01b815260040160405180910390fd5b845f03610122576040516377b0874f60e11b815260040160405180910390fd5b60015461013a906001600160a01b031630338561027d565b6040516330f9a2b960e11b815260048101869052602481018590526001600160a01b038716906361f34572906044016020604051808303815f875af1158015610185573d5f803e3d5ffd5b505050506040513d601f19601f820116820180604052508101906101a9919061051d565b9050838110156101da576040516316d1708b60e11b8152600481018290526024810185905260440160405180910390fd5b60408051868152602081018390529081018590526001600160a01b0387169033907f1b77440dc830de814de9d67389bb306d37e7620c2bd2c6b3298ed2695df7cb509060600160405180910390a395945050505050565b5f546001600160a01b0316331461025b576040516394844c1960e01b815260040160405180910390fd5b600180546001600160a01b0319166001600160a01b0392909216919091179055565b8015610490576001600160a01b0384166102aa57604051631d5dec5760e21b815260040160405180910390fd5b5f846001600160a01b031663b0b5df6c6040518163ffffffff1660e01b8152600401602060405180830381865afa1580156102e7573d5f803e3d5ffd5b505050506040513d601f19601f8201168201806040525081019061030b9190610534565b6040516323b872dd60e01b81526001600160a01b038581166004830152868116602483015260448201859052919250908216906323b872dd906064016020604051808303815f875af1158015610363573d5f803e3d5ffd5b505050506040513d601f19601f82011682018060405250810190610387919061054f565b6103a45760405163b180eb2560e01b815260040160405180910390fd5b60405163095ea7b360e01b81526001600160a01b0386811660048301526024820184905282169063095ea7b3906044016020604051808303815f875af11580156103f0573d5f803e3d5ffd5b505050506040513d601f19601f82011682018060405250810190610414919061054f565b6104315760405163b180eb2560e01b815260040160405180910390fd5b6040516348fef59560e01b81526001600160a01b038281166004830152602482018490528616906348fef595906044015f604051808303815f87803b158015610478575f80fd5b505af115801561048a573d5f803e3d5ffd5b50505050505b50505050565b6001600160a01b03811681146104aa575f80fd5b50565b5f805f805f60a086880312156104c1575f80fd5b85356104cc81610496565b9450602086013593506040860135925060608601356104ea81610496565b949793965091946080013592915050565b5f6020828403121561050b575f80fd5b813561051681610496565b9392505050565b5f6020828403121561052d575f80fd5b5051919050565b5f60208284031215610544575f80fd5b815161051681610496565b5f6020828403121561055f575f80fd5b81518015158114610516575f80fdfea26469706673582212206b3adf429f3cd48ad390ffff83c1114a34c6a4e75f53e5876b550ccdcd1a13c164736f6c63430008180033","linkReferences":{}},"methodIdentifiers":{"feeReceiver()":"b3f00674","owner()":"8da5cb5b","setFeeReceiver(address)":"efdcd974","swapExactIn(address,uint256,uint256,address,uint256)":"b26aefb9"},"id":9}