{"abi":[{"type":"function","name":"swapExactIn","inputs":[{"name":"pool","type":"address","internalType":"contract ISwapPool"},{"name":"amountIn","type":"uint256","internalType":"uint256"},{"name":"amountOutMinimum","type":"uint256","internalType":"uint256"},{"name":"recipient","type":"address","internalType":"address"}],"outputs":[{"name":"amountOut","type":"uint256","internalType":"uint256"}],"stateMutability":"nonpayable"},{"type":"event","name":"SwapExactIn","inputs":[{"name":"caller","type":"address","indexed":true,"internalType":"address"},{"name":"pool","type":"address","indexed":true,"internalType":"address"},{"name":"amountIn","type":"uint256","indexed":false,"internalType":"uint256"},{"name":"amountOut","type":"uint256","indexed":false,"internalType":"uint256"},{"name":"amountOutMinimum","type":"uint256","indexed":false,"internalType":"uint256"}],"anonymous":false},{"type":"error","name":"IonDexMinOutput","inputs":[{"name":"amountOut","type":"uint256","internalType":"uint256"},{"name":"amountOutMinimum","type":"uint256","internalType":"uint256"}]},{"type":"error","name":"IonDexZeroAddress","inputs":[]},{"type":"error","name":"IonDexZeroAmount","inputs":[]}],"bytecode":{"object":"0x608060405234801561000f575f80fd5b5061024f8061001d5f395ff3fe608060405234801561000f575f80fd5b5060043610610029575f3560e01c8063a6220b661461002d575b5f80fd5b61004061003b3660046101bb565b610052565b60405190815260200160405180910390f35b5f6001600160a01b038516158061007057506001600160a01b038216155b1561008e576040516394844c1960e01b815260040160405180910390fd5b835f036100ae576040516377b0874f60e11b815260040160405180910390fd5b6040516330f9a2b960e11b815260048101859052602481018490526001600160a01b038616906361f34572906044016020604051808303815f875af11580156100f9573d5f803e3d5ffd5b505050506040513d601f19601f8201168201806040525081019061011d9190610202565b90508281101561014e576040516316d1708b60e11b8152600481018290526024810184905260440160405180910390fd5b60408051858152602081018390529081018490526001600160a01b0386169033907f1b77440dc830de814de9d67389bb306d37e7620c2bd2c6b3298ed2695df7cb509060600160405180910390a3949350505050565b6001600160a01b03811681146101b8575f80fd5b50565b5f805f80608085870312156101ce575f80fd5b84356101d9816101a4565b9350602085013592506040850135915060608501356101f7816101a4565b939692955090935050565b5f60208284031215610212575f80fd5b505191905056fea26469706673582212203f31d4abfec47a580546c8b2eae34023751312c494c27807243da2182fd3fb0164736f6c63430008180033","linkReferences":{}},"methodIdentifiers":{"swapExactIn(address,uint256,uint256,address)":"a6220b66"},"id":0}