{"abi":[{"type":"constructor","inputs":[{"name":"output_","type":"uint256","internalType":"uint256"}],"stateMutability":"nonpayable"},{"type":"function","name":"fixedOutput","inputs":[],"outputs":[{"name":"","type":"uint256","internalType":"uint256"}],"stateMutability":"view"},{"type":"function","name":"setFixedOutput","inputs":[{"name":"output_","type":"uint256","internalType":"uint256"}],"outputs":[],"stateMutability":"nonpayable"},{"type":"function","name":"swapExactIn","inputs":[{"name":"","type":"uint256","internalType":"uint256"},{"name":"","type":"uint256","internalType":"uint256"}],"outputs":[{"name":"amountOut","type":"uint256","internalType":"uint256"}],"stateMutability":"view"}],"bytecode":{"object":"0x608060405234801561000f575f80fd5b5060405161013d38038061013d83398101604081905261002e91610035565b5f5561004c565b5f60208284031215610045575f80fd5b5051919050565b60e5806100585f395ff3fe6080604052348015600e575f80fd5b5060043610603a575f3560e01c80633302ccb914603e57806361f345721460575780639c84cf8c146069575b5f80fd5b60455f5481565b60405190815260200160405180910390f35b60456062366004607a565b50505f5490565b607860743660046099565b5f55565b005b5f8060408385031215608a575f80fd5b50508035926020909101359150565b5f6020828403121560a8575f80fd5b503591905056fea26469706673582212201cff25b3ebcbdf8ab5e8fd68393c4a667912e56386777df5522ec70e04fc308d64736f6c63430008180033","linkReferences":{}},"methodIdentifiers":{"fixedOutput()":"3302ccb9","setFixedOutput(uint256)":"9c84cf8c","swapExactIn(uint256,uint256)":"61f34572"},"id":8}