{"abi":[{"type":"constructor","inputs":[{"name":"output_","type":"uint256","internalType":"uint256"}],"stateMutability":"nonpayable"},{"type":"function","name":"fixedOutput","inputs":[],"outputs":[{"name":"","type":"uint256","internalType":"uint256"}],"stateMutability":"view"},{"type":"function","name":"setFixedOutput","inputs":[{"name":"output_","type":"uint256","internalType":"uint256"}],"outputs":[],"stateMutability":"nonpayable"},{"type":"function","name":"swapExactIn","inputs":[{"name":"","type":"uint256","internalType":"uint256"},{"name":"","type":"uint256","internalType":"uint256"},{"name":"","type":"address","internalType":"address"}],"outputs":[{"name":"amountOut","type":"uint256","internalType":"uint256"}],"stateMutability":"view"}],"bytecode":{"object":"0x608060405234801561000f575f80fd5b5060405161016038038061016083398101604081905261002e91610035565b5f5561004c565b5f60208284031215610045575f80fd5b5051919050565b610107806100595f395ff3fe6080604052348015600e575f80fd5b5060043610603a575f3560e01c80633302ccb914603e5780635376019b1460575780639c84cf8c14606b575b5f80fd5b60455f5481565b60405190815260200160405180910390f35b60456062366004607c565b5f549392505050565b607a607636600460bb565b5f55565b005b5f805f60608486031215608d575f80fd5b833592506020840135915060408401356001600160a01b038116811460b0575f80fd5b809150509250925092565b5f6020828403121560ca575f80fd5b503591905056fea2646970667358221220c05471d3c63abb1054388767e5c214a2ae9c67b50a9df1703764905df74cbd2464736f6c63430008180033","linkReferences":{}},"methodIdentifiers":{"fixedOutput()":"3302ccb9","setFixedOutput(uint256)":"9c84cf8c","swapExactIn(uint256,uint256,address)":"5376019b"},"id":12}