{"abi":[{"type":"constructor","inputs":[{"name":"_rewardToken","type":"address","internalType":"address"}],"stateMutability":"nonpayable"},{"type":"function","name":"accRewardPerShare","inputs":[],"outputs":[{"name":"","type":"uint256","internalType":"uint256"}],"stateMutability":"view"},{"type":"function","name":"depositReward","inputs":[{"name":"amount","type":"uint256","internalType":"uint256"}],"outputs":[],"stateMutability":"nonpayable"},{"type":"function","name":"harvest","inputs":[],"outputs":[],"stateMutability":"nonpayable"},{"type":"function","name":"owner","inputs":[],"outputs":[{"name":"","type":"address","internalType":"address"}],"stateMutability":"view"},{"type":"function","name":"pendingReward","inputs":[{"name":"user","type":"address","internalType":"address"}],"outputs":[{"name":"","type":"uint256","internalType":"uint256"}],"stateMutability":"view"},{"type":"function","name":"pendingRewards","inputs":[{"name":"","type":"address","internalType":"address"}],"outputs":[{"name":"","type":"uint256","internalType":"uint256"}],"stateMutability":"view"},{"type":"function","name":"renounceOwnership","inputs":[],"outputs":[],"stateMutability":"nonpayable"},{"type":"function","name":"rewardDebt","inputs":[{"name":"","type":"address","internalType":"address"}],"outputs":[{"name":"","type":"uint256","internalType":"uint256"}],"stateMutability":"view"},{"type":"function","name":"rewardToken","inputs":[],"outputs":[{"name":"","type":"address","internalType":"contract IERC20"}],"stateMutability":"view"},{"type":"function","name":"shares","inputs":[{"name":"","type":"address","internalType":"address"}],"outputs":[{"name":"","type":"uint256","internalType":"uint256"}],"stateMutability":"view"},{"type":"function","name":"stake","inputs":[{"name":"shareAmount","type":"uint256","internalType":"uint256"}],"outputs":[],"stateMutability":"nonpayable"},{"type":"function","name":"totalShares","inputs":[],"outputs":[{"name":"","type":"uint256","internalType":"uint256"}],"stateMutability":"view"},{"type":"function","name":"transferOwnership","inputs":[{"name":"newOwner","type":"address","internalType":"address"}],"outputs":[],"stateMutability":"nonpayable"},{"type":"function","name":"unstake","inputs":[{"name":"shareAmount","type":"uint256","internalType":"uint256"}],"outputs":[],"stateMutability":"nonpayable"},{"type":"event","name":"Deposit","inputs":[{"name":"user","type":"address","indexed":true,"internalType":"address"},{"name":"amount","type":"uint256","indexed":false,"internalType":"uint256"}],"anonymous":false},{"type":"event","name":"Harvest","inputs":[{"name":"user","type":"address","indexed":true,"internalType":"address"},{"name":"reward","type":"uint256","indexed":false,"internalType":"uint256"}],"anonymous":false},{"type":"event","name":"OwnershipTransferred","inputs":[{"name":"previousOwner","type":"address","indexed":true,"internalType":"address"},{"name":"newOwner","type":"address","indexed":true,"internalType":"address"}],"anonymous":false},{"type":"event","name":"Withdraw","inputs":[{"name":"user","type":"address","indexed":true,"internalType":"address"},{"name":"amount","type":"uint256","indexed":false,"internalType":"uint256"}],"anonymous":false},{"type":"error","name":"OwnableInvalidOwner","inputs":[{"name":"owner","type":"address","internalType":"address"}]},{"type":"error","name":"OwnableUnauthorizedAccount","inputs":[{"name":"account","type":"address","internalType":"address"}]},{"type":"error","name":"ReentrancyGuardReentrantCall","inputs":[]}],"bytecode":{"object":"0x6080346100f257601f6109de38819003918201601f19168301916001600160401b038311848410176100f6578084926020946040528339810103126100f257516001600160a01b038116908190036100f25733156100df575f8054336001600160a01b0319821681178355604051939290916001600160a01b0316907f8be0079c531659141344cd1fd0a4f28419497f9722a3daafe3b4186f6b6457e09080a360017f9b779b17422d0df92223018b32b4d1fa46e071723d6817e2486d003becc55f005560018060a01b031960015416176001556108d3908161010b8239f35b631e4fbdf760e01b5f525f60045260245ffd5b5f80fd5b634e487b7160e01b5f52604160045260245ffdfe60806040526004361015610011575f80fd5b5f3560e01c80631e2720ff146105eb5780632e17de781461050c57806331d7a262146104d05780633a98ef39146104b35780634641257d1461038e5780635873eb9b14610352578063715018a6146102fb5780638da5cb5b146102d4578063939d6237146102b7578063a694fc3a14610220578063ce7c2ac2146101e4578063f2fde38b1461015b578063f40f0f52146100df5763f7c618c1146100b3575f80fd5b346100db575f3660031901126100db576001546040516001600160a01b039091168152602090f35b5f80fd5b346100db5760203660031901126100db576004356001600160a01b038116908190036100db57610153816020925f5260048352610142670de0b6b3a764000061012f60405f205460035490610762565b04825f526005855260405f205490610782565b905f526006835260405f2054610775565b604051908152f35b346100db5760203660031901126100db576004356001600160a01b038116908190036100db57610189610857565b80156101d1575f80546001600160a01b03198116831782556001600160a01b0316907f8be0079c531659141344cd1fd0a4f28419497f9722a3daafe3b4186f6b6457e09080a3005b631e4fbdf760e01b5f525f60045260245ffd5b346100db5760203660031901126100db576004356001600160a01b038116908190036100db575f526004602052602060405f2054604051908152f35b346100db5760203660031901126100db5760043561023c61078f565b6102478115156106da565b610250336107c7565b335f52600460205260405f20610267828254610775565b905561027581600254610775565b6002556040519081527fe1fffcc4923d04b559f4d29a8bfc6cda04eb5b0d3c460751c2402c5c5cc9109c60203392a260015f51602061087e5f395f51905f5255005b346100db575f3660031901126100db576020600354604051908152f35b346100db575f3660031901126100db575f546040516001600160a01b039091168152602090f35b346100db575f3660031901126100db57610313610857565b5f80546001600160a01b0319811682556001600160a01b03167f8be0079c531659141344cd1fd0a4f28419497f9722a3daafe3b4186f6b6457e08280a3005b346100db5760203660031901126100db576004356001600160a01b038116908190036100db575f526005602052602060405f2054604051908152f35b346100db575f3660031901126100db576103a661078f565b6103af336107c7565b335f52600660205260405f2054801561048257335f5260066020525f60408120555f602060018060a01b036001541660446040518094819363a9059cbb60e01b83523360048401528760248401525af180156104775761044a575b506040519081527fc9695243a805adb74c91f28311176c65b417e842d5699893cef56d18bfa48cba60203392a260015f51602061087e5f395f51905f5255005b61046b9060203d602011610470575b6104638183610714565b81019061074a565b61040a565b503d610459565b6040513d5f823e3d90fd5b60405162461bcd60e51b8152602060048201526009602482015268139bc81c995dd85c9960ba1b6044820152606490fd5b346100db575f3660031901126100db576020600254604051908152f35b346100db5760203660031901126100db576004356001600160a01b038116908190036100db575f526006602052602060405f2054604051908152f35b346100db5760203660031901126100db5760043561052861078f565b801515806105d5575b156105a65761053f336107c7565b335f52600460205260405f20610556828254610782565b905561056481600254610782565b6002556040519081527f884edad9ce6fa2440d8a54cc123490eb96d2768479d49ff9c7366125a942436460203392a260015f51602061087e5f395f51905f5255005b60405162461bcd60e51b8152602060048201526007602482015266125b9d985b1a5960ca1b6044820152606490fd5b50335f5260046020528060405f20541015610531565b346100db5760203660031901126100db57600435801561060b81156106da565b6001546040516323b872dd60e01b81523360048201523060248201526044810184905290602090829060649082905f906001600160a01b03165af18015610477576106bd575b5060025490811590811561066157005b670de0b6b3a76400008402938404670de0b6b3a76400001417156106a957610695576106909104600354610775565b600355005b634e487b7160e01b5f52601260045260245ffd5b634e487b7160e01b5f52601160045260245ffd5b6106d59060203d602011610470576104638183610714565b610651565b156106e157565b60405162461bcd60e51b815260206004820152600b60248201526a416d6f756e74207a65726f60a81b6044820152606490fd5b90601f8019910116810190811067ffffffffffffffff82111761073657604052565b634e487b7160e01b5f52604160045260245ffd5b908160209103126100db575180151581036100db5790565b818102929181159184041417156106a957565b919082018092116106a957565b919082039182116106a957565b60025f51602061087e5f395f51905f5254146107b85760025f51602061087e5f395f51905f5255565b633ee5aeb560e01b5f5260045ffd5b6001600160a01b03165f8181526004602052604090205460035461080c91670de0b6b3a7640000916107f891610762565b04825f52600560205260405f205490610782565b815f52600660205261082360405f20918254610775565b9055805f526004602052670de0b6b3a764000061084760405f205460035490610762565b04905f52600560205260405f2055565b5f546001600160a01b0316330361086a57565b63118cdaa760e01b5f523360045260245ffdfe9b779b17422d0df92223018b32b4d1fa46e071723d6817e2486d003becc55f00a264697066735822122031829da12bb32fa752b54e853fa6a14a66093224f0d6bf4714dc09d7a55a99cb64736f6c63430008230033","linkReferences":{}},"methodIdentifiers":{"accRewardPerShare()":"939d6237","depositReward(uint256)":"1e2720ff","harvest()":"4641257d","owner()":"8da5cb5b","pendingReward(address)":"f40f0f52","pendingRewards(address)":"31d7a262","renounceOwnership()":"715018a6","rewardDebt(address)":"5873eb9b","rewardToken()":"f7c618c1","shares(address)":"ce7c2ac2","stake(uint256)":"a694fc3a","totalShares()":"3a98ef39","transferOwnership(address)":"f2fde38b","unstake(uint256)":"2e17de78"},"id":6}