{"abi":[{"type":"constructor","inputs":[{"name":"_admin","type":"address","internalType":"address"},{"name":"_lpPool","type":"address","internalType":"address"}],"stateMutability":"nonpayable"},{"type":"function","name":"admin","inputs":[],"outputs":[{"name":"","type":"address","internalType":"contract AdminManager"}],"stateMutability":"view"},{"type":"function","name":"feeReceiver","inputs":[],"outputs":[{"name":"","type":"address","internalType":"address"}],"stateMutability":"view"},{"type":"function","name":"lpPool","inputs":[],"outputs":[{"name":"","type":"address","internalType":"address"}],"stateMutability":"view"},{"type":"function","name":"setFee","inputs":[{"name":"newFee","type":"uint256","internalType":"uint256"}],"outputs":[],"stateMutability":"nonpayable"},{"type":"function","name":"setFeeReceiver","inputs":[{"name":"_feeReceiver","type":"address","internalType":"address"}],"outputs":[],"stateMutability":"nonpayable"},{"type":"function","name":"setLpPool","inputs":[{"name":"_lpPool","type":"address","internalType":"address"}],"outputs":[],"stateMutability":"nonpayable"},{"type":"function","name":"swap","inputs":[{"name":"tokenIn","type":"address","internalType":"address"},{"name":"tokenOut","type":"address","internalType":"address"},{"name":"amountIn","type":"uint256","internalType":"uint256"},{"name":"ionProtocolFee","type":"uint256","internalType":"uint256"}],"outputs":[{"name":"amountOut","type":"uint256","internalType":"uint256"}],"stateMutability":"nonpayable"},{"type":"function","name":"swapFee","inputs":[],"outputs":[{"name":"","type":"uint256","internalType":"uint256"}],"stateMutability":"view"},{"type":"event","name":"Swap","inputs":[{"name":"user","type":"address","indexed":true,"internalType":"address"},{"name":"tokenIn","type":"address","indexed":false,"internalType":"address"},{"name":"tokenOut","type":"address","indexed":false,"internalType":"address"},{"name":"amountIn","type":"uint256","indexed":false,"internalType":"uint256"},{"name":"amountOut","type":"uint256","indexed":false,"internalType":"uint256"}],"anonymous":false},{"type":"error","name":"IonDexFeeReceiverNotSet","inputs":[]},{"type":"error","name":"IonDexIonFeeTransferFailed","inputs":[]},{"type":"error","name":"ReentrancyGuardReentrantCall","inputs":[]}],"bytecode":{"object":"0x6080604052601e600355348015610014575f80fd5b50604051610e26380380610e26833981016040819052610033916100a2565b60017f9b779b17422d0df92223018b32b4d1fa46e071723d6817e2486d003becc55f00555f80546001600160a01b039384166001600160a01b031991821617909155600180549290931691161790556100d3565b80516001600160a01b038116811461009d575f80fd5b919050565b5f80604083850312156100b3575f80fd5b6100bc83610087565b91506100ca60208401610087565b90509250929050565b610d46806100e05f395ff3fe608060405234801561000f575f80fd5b5060043610610085575f3560e01c8063b3f0067411610058578063b3f00674146100f8578063efdcd9741461010b578063f851a4401461011e578063fe02915614610130575f80fd5b80633737bcb41461008957806354cf2aeb146100b957806369fe0e2d146100d057806371d69683146100e5575b5f80fd5b60015461009c906001600160a01b031681565b6040516001600160a01b0390911681526020015b60405180910390f35b6100c260035481565b6040519081526020016100b0565b6100e36100de366004610b93565b610143565b005b6100e36100f3366004610bc1565b610233565b60025461009c906001600160a01b031681565b6100e3610119366004610bc1565b6102f7565b5f5461009c906001600160a01b031681565b6100c261013e366004610be3565b6103bb565b5f8054906101000a90046001600160a01b03166001600160a01b0316638da5cb5b6040518163ffffffff1660e01b8152600401602060405180830381865afa158015610191573d5f803e3d5ffd5b505050506040513d601f19601f820116820180604052508101906101b59190610c26565b6001600160a01b0316336001600160a01b0316146101ee5760405162461bcd60e51b81526004016101e590610c41565b60405180910390fd5b606481111561022e5760405162461bcd60e51b815260206004820152600c60248201526b08ccaca40e8dede40d0d2ced60a31b60448201526064016101e5565b600355565b5f8054906101000a90046001600160a01b03166001600160a01b0316638da5cb5b6040518163ffffffff1660e01b8152600401602060405180830381865afa158015610281573d5f803e3d5ffd5b505050506040513d601f19601f820116820180604052508101906102a59190610c26565b6001600160a01b0316336001600160a01b0316146102d55760405162461bcd60e51b81526004016101e590610c41565b600180546001600160a01b0319166001600160a01b0392909216919091179055565b5f8054906101000a90046001600160a01b03166001600160a01b0316638da5cb5b6040518163ffffffff1660e01b8152600401602060405180830381865afa158015610345573d5f803e3d5ffd5b505050506040513d601f19601f820116820180604052508101906103699190610c26565b6001600160a01b0316336001600160a01b0316146103995760405162461bcd60e51b81526004016101e590610c41565b600280546001600160a01b0319166001600160a01b0392909216919091179055565b5f6103c4610908565b5f8054906101000a90046001600160a01b03166001600160a01b0316635c975abb6040518163ffffffff1660e01b8152600401602060405180830381865afa158015610412573d5f803e3d5ffd5b505050506040513d601f19601f820116820180604052508101906104369190610c64565b1561046c5760405162461bcd60e51b815260206004820152600660248201526514185d5cd95960d21b60448201526064016101e5565b5f83116104a95760405162461bcd60e51b815260206004820152600b60248201526a416d6f756e74207a65726f60a81b60448201526064016101e5565b836001600160a01b0316856001600160a01b0316036104f75760405162461bcd60e51b815260206004820152600a60248201526929b0b6b2903a37b5b2b760b11b60448201526064016101e5565b6001600160a01b0385161580159061051757506001600160a01b03841615155b6105525760405162461bcd60e51b815260206004820152600c60248201526b5a65726f206164647265737360a01b60448201526064016101e5565b60025461056a906001600160a01b0316303385610936565b6001546040516323b872dd60e01b81523360048201526001600160a01b03918216602482015260448101859052908616906323b872dd906064016020604051808303815f875af11580156105c0573d5f803e3d5ffd5b505050506040513d601f19601f820116820180604052508101906105e49190610c64565b61061a5760405162461bcd60e51b815260206004820152600760248201526615118819985a5b60ca1b60448201526064016101e5565b6001546040516370a0823160e01b81526001600160a01b0391821660048201525f918716906370a0823190602401602060405180830381865afa158015610663573d5f803e3d5ffd5b505050506040513d601f19601f820116820180604052508101906106879190610c83565b6001546040516370a0823160e01b81526001600160a01b0391821660048201529192505f91908716906370a0823190602401602060405180830381865afa1580156106d4573d5f803e3d5ffd5b505050506040513d601f19601f820116820180604052508101906106f89190610c83565b90505f8211801561070857505f81115b61074d5760405162461bcd60e51b8152602060048201526016602482015275496e73756666696369656e74206c697175696469747960501b60448201526064016101e5565b5f6127106003546127106107619190610cae565b61076b9088610cc7565b6107759190610cde565b90506107818184610cfd565b61078b8383610cc7565b6107959190610cde565b93505f84116107dc5760405162461bcd60e51b8152602060048201526013602482015272125b9cdd59999a58da595b9d081bdd5d1c1d5d606a1b60448201526064016101e5565b60405163a9059cbb60e01b8152336004820152602481018590526001600160a01b0388169063a9059cbb906044016020604051808303815f875af1158015610826573d5f803e3d5ffd5b505050506040513d601f19601f8201168201806040525081019061084a9190610c64565b6108805760405162461bcd60e51b815260206004820152600760248201526615118819985a5b60ca1b60448201526064016101e5565b604080516001600160a01b038a81168252891660208201529081018790526060810185905233907fcd3829a3813dc3cdd188fd3d01dcf3268c16be2fdd2dd21d0665418816e460629060800160405180910390a250505061090060017f9b779b17422d0df92223018b32b4d1fa46e071723d6817e2486d003becc55f0055565b949350505050565b610910610b4f565b60027f9b779b17422d0df92223018b32b4d1fa46e071723d6817e2486d003becc55f0055565b8015610b49576001600160a01b03841661096357604051631d5dec5760e21b815260040160405180910390fd5b5f846001600160a01b031663b0b5df6c6040518163ffffffff1660e01b8152600401602060405180830381865afa1580156109a0573d5f803e3d5ffd5b505050506040513d601f19601f820116820180604052508101906109c49190610c26565b6040516323b872dd60e01b81526001600160a01b038581166004830152868116602483015260448201859052919250908216906323b872dd906064016020604051808303815f875af1158015610a1c573d5f803e3d5ffd5b505050506040513d601f19601f82011682018060405250810190610a409190610c64565b610a5d5760405163b180eb2560e01b815260040160405180910390fd5b60405163095ea7b360e01b81526001600160a01b0386811660048301526024820184905282169063095ea7b3906044016020604051808303815f875af1158015610aa9573d5f803e3d5ffd5b505050506040513d601f19601f82011682018060405250810190610acd9190610c64565b610aea5760405163b180eb2560e01b815260040160405180910390fd5b6040516348fef59560e01b81526001600160a01b038281166004830152602482018490528616906348fef595906044015f604051808303815f87803b158015610b31575f80fd5b505af1158015610b43573d5f803e3d5ffd5b50505050505b50505050565b7f9b779b17422d0df92223018b32b4d1fa46e071723d6817e2486d003becc55f0054600203610b9157604051633ee5aeb560e01b815260040160405180910390fd5b565b5f60208284031215610ba3575f80fd5b5035919050565b6001600160a01b0381168114610bbe575f80fd5b50565b5f60208284031215610bd1575f80fd5b8135610bdc81610baa565b9392505050565b5f805f8060808587031215610bf6575f80fd5b8435610c0181610baa565b93506020850135610c1181610baa565b93969395505050506040820135916060013590565b5f60208284031215610c36575f80fd5b8151610bdc81610baa565b6020808252600990820152682737ba1037bbb732b960b91b604082015260600190565b5f60208284031215610c74575f80fd5b81518015158114610bdc575f80fd5b5f60208284031215610c93575f80fd5b5051919050565b634e487b7160e01b5f52601160045260245ffd5b81810381811115610cc157610cc1610c9a565b92915050565b8082028115828204841417610cc157610cc1610c9a565b5f82610cf857634e487b7160e01b5f52601260045260245ffd5b500490565b80820180821115610cc157610cc1610c9a56fea2646970667358221220e895c47c850d181b10c620c804c0ec36c480bf22fcc141c74a9848c035d95ac364736f6c63430008180033","linkReferences":{}},"methodIdentifiers":{"admin()":"f851a440","feeReceiver()":"b3f00674","lpPool()":"3737bcb4","setFee(uint256)":"69fe0e2d","setFeeReceiver(address)":"efdcd974","setLpPool(address)":"71d69683","swap(address,address,uint256,uint256)":"fe029156","swapFee()":"54cf2aeb"},"id":5}