{"abi":[{"type":"constructor","inputs":[{"name":"admin_","type":"address","internalType":"address"},{"name":"lpPool_","type":"address","internalType":"address"}],"stateMutability":"nonpayable"},{"type":"function","name":"admin","inputs":[],"outputs":[{"name":"","type":"address","internalType":"contract AdminManager"}],"stateMutability":"view"},{"type":"function","name":"feeReceiver","inputs":[],"outputs":[{"name":"","type":"address","internalType":"address"}],"stateMutability":"view"},{"type":"function","name":"lpPool","inputs":[],"outputs":[{"name":"","type":"address","internalType":"address"}],"stateMutability":"view"},{"type":"function","name":"poolWhitelist","inputs":[{"name":"","type":"address","internalType":"address"}],"outputs":[{"name":"","type":"bool","internalType":"bool"}],"stateMutability":"view"},{"type":"function","name":"setFee","inputs":[{"name":"newFee","type":"uint256","internalType":"uint256"}],"outputs":[],"stateMutability":"nonpayable"},{"type":"function","name":"setFeeReceiver","inputs":[{"name":"feeReceiver_","type":"address","internalType":"address"}],"outputs":[],"stateMutability":"nonpayable"},{"type":"function","name":"setLpPool","inputs":[{"name":"lpPool_","type":"address","internalType":"address"}],"outputs":[],"stateMutability":"nonpayable"},{"type":"function","name":"setPoolWhitelist","inputs":[{"name":"token","type":"address","internalType":"address"},{"name":"allowed","type":"bool","internalType":"bool"}],"outputs":[],"stateMutability":"nonpayable"},{"type":"function","name":"swap","inputs":[{"name":"tokenIn","type":"address","internalType":"address"},{"name":"tokenOut","type":"address","internalType":"address"},{"name":"amountIn","type":"uint256","internalType":"uint256"},{"name":"amountOutMinimum","type":"uint256","internalType":"uint256"},{"name":"deadline","type":"uint256","internalType":"uint256"},{"name":"ionProtocolFee","type":"uint256","internalType":"uint256"}],"outputs":[{"name":"amountOut","type":"uint256","internalType":"uint256"}],"stateMutability":"nonpayable"},{"type":"function","name":"swapFee","inputs":[],"outputs":[{"name":"","type":"uint256","internalType":"uint256"}],"stateMutability":"view"},{"type":"event","name":"PoolWhitelisted","inputs":[{"name":"pool","type":"address","indexed":true,"internalType":"address"},{"name":"allowed","type":"bool","indexed":false,"internalType":"bool"}],"anonymous":false},{"type":"event","name":"Swap","inputs":[{"name":"user","type":"address","indexed":true,"internalType":"address"},{"name":"tokenIn","type":"address","indexed":false,"internalType":"address"},{"name":"tokenOut","type":"address","indexed":false,"internalType":"address"},{"name":"amountIn","type":"uint256","indexed":false,"internalType":"uint256"},{"name":"amountOut","type":"uint256","indexed":false,"internalType":"uint256"}],"anonymous":false},{"type":"error","name":"IonDexExpired","inputs":[]},{"type":"error","name":"IonDexFeeReceiverNotSet","inputs":[]},{"type":"error","name":"IonDexIonFeeTransferFailed","inputs":[]},{"type":"error","name":"IonDexMinOutput","inputs":[{"name":"amountOut","type":"uint256","internalType":"uint256"},{"name":"amountOutMinimum","type":"uint256","internalType":"uint256"}]},{"type":"error","name":"IonDexPoolNotWhitelisted","inputs":[]},{"type":"error","name":"IonDexSameToken","inputs":[]},{"type":"error","name":"IonDexUnauthorized","inputs":[]},{"type":"error","name":"IonDexZeroAddress","inputs":[]},{"type":"error","name":"IonDexZeroAmount","inputs":[]},{"type":"error","name":"ReentrancyGuardReentrantCall","inputs":[]}],"bytecode":{"object":"0x6080604052601e600355348015610014575f80fd5b50604051611078380380611078833981016040819052610033916100e2565b818160017f9b779b17422d0df92223018b32b4d1fa46e071723d6817e2486d003becc55f00556001600160a01b038216158061007657506001600160a01b038116155b15610094576040516394844c1960e01b815260040160405180910390fd5b5f80546001600160a01b039384166001600160a01b03199182161790915560018054929093169116179055506101139050565b80516001600160a01b03811681146100dd575f80fd5b919050565b5f80604083850312156100f3575f80fd5b6100fc836100c7565b915061010a602084016100c7565b90509250929050565b610f58806101205f395ff3fe608060405234801561000f575f80fd5b506004361061009b575f3560e01c806371d696831161006357806371d6968314610140578063b3f0067414610153578063d2832de714610166578063efdcd97414610179578063f851a4401461018c575f80fd5b80632dab1f361461009f5780633737bcb4146100b45780634c70179d146100e457806354cf2aeb1461011657806369fe0e2d1461012d575b5f80fd5b6100b26100ad366004610d9a565b61019e565b005b6001546100c7906001600160a01b031681565b6040516001600160a01b0390911681526020015b60405180910390f35b6101066100f2366004610dd1565b60046020525f908152604090205460ff1681565b60405190151581526020016100db565b61011f60035481565b6040519081526020016100db565b6100b261013b366004610df3565b6102c6565b6100b261014e366004610dd1565b6103b3565b6002546100c7906001600160a01b031681565b61011f610174366004610e0a565b61049f565b6100b2610187366004610dd1565b6109ff565b5f546100c7906001600160a01b031681565b5f8054906101000a90046001600160a01b03166001600160a01b0316638da5cb5b6040518163ffffffff1660e01b8152600401602060405180830381865afa1580156101ec573d5f803e3d5ffd5b505050506040513d601f19601f820116820180604052508101906102109190610e5f565b6001600160a01b0316336001600160a01b031614610241576040516326392e5760e11b815260040160405180910390fd5b6001600160a01b038216610268576040516394844c1960e01b815260040160405180910390fd5b6001600160a01b0382165f81815260046020908152604091829020805460ff191685151590811790915591519182527f47255cb0ab49a2daf91eb3fe3ade1473186e08dd6ab1e595340b58bd2e5408eb910160405180910390a25050565b5f8054906101000a90046001600160a01b03166001600160a01b0316638da5cb5b6040518163ffffffff1660e01b8152600401602060405180830381865afa158015610314573d5f803e3d5ffd5b505050506040513d601f19601f820116820180604052508101906103389190610e5f565b6001600160a01b0316336001600160a01b031614610369576040516326392e5760e11b815260040160405180910390fd5b60648111156103ae5760405162461bcd60e51b815260206004820152600c60248201526b08ccaca40e8dede40d0d2ced60a31b60448201526064015b60405180910390fd5b600355565b5f8054906101000a90046001600160a01b03166001600160a01b0316638da5cb5b6040518163ffffffff1660e01b8152600401602060405180830381865afa158015610401573d5f803e3d5ffd5b505050506040513d601f19601f820116820180604052508101906104259190610e5f565b6001600160a01b0316336001600160a01b031614610456576040516326392e5760e11b815260040160405180910390fd5b6001600160a01b03811661047d576040516394844c1960e01b815260040160405180910390fd5b600180546001600160a01b0319166001600160a01b0392909216919091179055565b5f6104a8610aeb565b5f8054906101000a90046001600160a01b03166001600160a01b0316635c975abb6040518163ffffffff1660e01b8152600401602060405180830381865afa1580156104f6573d5f803e3d5ffd5b505050506040513d601f19601f8201168201806040525081019061051a9190610e7a565b156105505760405162461bcd60e51b815260206004820152600660248201526514185d5cd95960d21b60448201526064016103a5565b82421115610571576040516317373c0160e21b815260040160405180910390fd5b845f03610591576040516377b0874f60e11b815260040160405180910390fd5b856001600160a01b0316876001600160a01b0316036105c35760405163ae5d3d5f60e01b815260040160405180910390fd5b6001600160a01b03871615806105e057506001600160a01b038616155b156105fe576040516394844c1960e01b815260040160405180910390fd5b6001600160a01b0387165f9081526004602052604090205460ff16158061063d57506001600160a01b0386165f9081526004602052604090205460ff16155b1561065b576040516334eb674960e21b815260040160405180910390fd5b600254610673906001600160a01b0316303385610b19565b6001546040516370a0823160e01b81526001600160a01b0391821660048201525f918916906370a0823190602401602060405180830381865afa1580156106bc573d5f803e3d5ffd5b505050506040513d601f19601f820116820180604052508101906106e09190610e95565b6001546040516370a0823160e01b81526001600160a01b0391821660048201529192505f91908916906370a0823190602401602060405180830381865afa15801561072d573d5f803e3d5ffd5b505050506040513d601f19601f820116820180604052508101906107519190610e95565b905081158061075e575080155b156107a45760405162461bcd60e51b8152602060048201526016602482015275496e73756666696369656e74206c697175696469747960501b60448201526064016103a5565b6001546040516323b872dd60e01b81523360048201526001600160a01b03918216602482015260448101899052908a16906323b872dd906064016020604051808303815f875af11580156107fa573d5f803e3d5ffd5b505050506040513d601f19601f8201168201806040525081019061081e9190610e7a565b6108545760405162461bcd60e51b815260206004820152600760248201526615118819985a5b60ca1b60448201526064016103a5565b5f6127106003546127106108689190610ec0565b610872908a610ed9565b61087c9190610ef0565b90506108888184610f0f565b6108928383610ed9565b61089c9190610ef0565b9350835f036108e35760405162461bcd60e51b8152602060048201526013602482015272125b9cdd59999a58da595b9d081bdd5d1c1d5d606a1b60448201526064016103a5565b8684101561090e576040516316d1708b60e11b815260048101859052602481018890526044016103a5565b60015460405163083e007560e21b81526001600160a01b038b8116600483015233602483015260448201879052909116906320f801d4906064015f604051808303815f87803b15801561095f575f80fd5b505af1158015610971573d5f803e3d5ffd5b5050604080516001600160a01b038e811682528d1660208201529081018b9052606081018790523392507fcd3829a3813dc3cdd188fd3d01dcf3268c16be2fdd2dd21d0665418816e46062915060800160405180910390a25050506109f560017f9b779b17422d0df92223018b32b4d1fa46e071723d6817e2486d003becc55f0055565b9695505050505050565b5f8054906101000a90046001600160a01b03166001600160a01b0316638da5cb5b6040518163ffffffff1660e01b8152600401602060405180830381865afa158015610a4d573d5f803e3d5ffd5b505050506040513d601f19601f82011682018060405250810190610a719190610e5f565b6001600160a01b0316336001600160a01b031614610aa2576040516326392e5760e11b815260040160405180910390fd5b6001600160a01b038116610ac9576040516394844c1960e01b815260040160405180910390fd5b600280546001600160a01b0319166001600160a01b0392909216919091179055565b610af3610d32565b60027f9b779b17422d0df92223018b32b4d1fa46e071723d6817e2486d003becc55f0055565b8015610d2c576001600160a01b038416610b4657604051631d5dec5760e21b815260040160405180910390fd5b5f846001600160a01b031663b0b5df6c6040518163ffffffff1660e01b8152600401602060405180830381865afa158015610b83573d5f803e3d5ffd5b505050506040513d601f19601f82011682018060405250810190610ba79190610e5f565b6040516323b872dd60e01b81526001600160a01b038581166004830152868116602483015260448201859052919250908216906323b872dd906064016020604051808303815f875af1158015610bff573d5f803e3d5ffd5b505050506040513d601f19601f82011682018060405250810190610c239190610e7a565b610c405760405163b180eb2560e01b815260040160405180910390fd5b60405163095ea7b360e01b81526001600160a01b0386811660048301526024820184905282169063095ea7b3906044016020604051808303815f875af1158015610c8c573d5f803e3d5ffd5b505050506040513d601f19601f82011682018060405250810190610cb09190610e7a565b610ccd5760405163b180eb2560e01b815260040160405180910390fd5b6040516348fef59560e01b81526001600160a01b038281166004830152602482018490528616906348fef595906044015f604051808303815f87803b158015610d14575f80fd5b505af1158015610d26573d5f803e3d5ffd5b50505050505b50505050565b7f9b779b17422d0df92223018b32b4d1fa46e071723d6817e2486d003becc55f0054600203610d7457604051633ee5aeb560e01b815260040160405180910390fd5b565b6001600160a01b0381168114610d8a575f80fd5b50565b8015158114610d8a575f80fd5b5f8060408385031215610dab575f80fd5b8235610db681610d76565b91506020830135610dc681610d8d565b809150509250929050565b5f60208284031215610de1575f80fd5b8135610dec81610d76565b9392505050565b5f60208284031215610e03575f80fd5b5035919050565b5f805f805f8060c08789031215610e1f575f80fd5b8635610e2a81610d76565b95506020870135610e3a81610d76565b95989597505050506040840135936060810135936080820135935060a0909101359150565b5f60208284031215610e6f575f80fd5b8151610dec81610d76565b5f60208284031215610e8a575f80fd5b8151610dec81610d8d565b5f60208284031215610ea5575f80fd5b5051919050565b634e487b7160e01b5f52601160045260245ffd5b81810381811115610ed357610ed3610eac565b92915050565b8082028115828204841417610ed357610ed3610eac565b5f82610f0a57634e487b7160e01b5f52601260045260245ffd5b500490565b80820180821115610ed357610ed3610eac56fea264697066735822122013152df4aff31a685e993e55dce77a104d1579dd8976e667af1bebb85c3d98e264736f6c63430008180033","linkReferences":{}},"methodIdentifiers":{"admin()":"f851a440","feeReceiver()":"b3f00674","lpPool()":"3737bcb4","poolWhitelist(address)":"4c70179d","setFee(uint256)":"69fe0e2d","setFeeReceiver(address)":"efdcd974","setLpPool(address)":"71d69683","setPoolWhitelist(address,bool)":"2dab1f36","swap(address,address,uint256,uint256,uint256,uint256)":"d2832de7","swapFee()":"54cf2aeb"},"id":7}