{"abi":[{"type":"constructor","inputs":[{"name":"_admin","type":"address","internalType":"address"},{"name":"_lpPool","type":"address","internalType":"address"}],"stateMutability":"nonpayable"},{"type":"function","name":"admin","inputs":[],"outputs":[{"name":"","type":"address","internalType":"contract AdminManager"}],"stateMutability":"view"},{"type":"function","name":"lpPool","inputs":[],"outputs":[{"name":"","type":"address","internalType":"address"}],"stateMutability":"view"},{"type":"function","name":"setFee","inputs":[{"name":"newFee","type":"uint256","internalType":"uint256"}],"outputs":[],"stateMutability":"nonpayable"},{"type":"function","name":"setLpPool","inputs":[{"name":"_lpPool","type":"address","internalType":"address"}],"outputs":[],"stateMutability":"nonpayable"},{"type":"function","name":"swap","inputs":[{"name":"tokenIn","type":"address","internalType":"address"},{"name":"tokenOut","type":"address","internalType":"address"},{"name":"amountIn","type":"uint256","internalType":"uint256"}],"outputs":[{"name":"amountOut","type":"uint256","internalType":"uint256"}],"stateMutability":"nonpayable"},{"type":"function","name":"swapFee","inputs":[],"outputs":[{"name":"","type":"uint256","internalType":"uint256"}],"stateMutability":"view"},{"type":"event","name":"Swap","inputs":[{"name":"user","type":"address","indexed":true,"internalType":"address"},{"name":"tokenIn","type":"address","indexed":false,"internalType":"address"},{"name":"tokenOut","type":"address","indexed":false,"internalType":"address"},{"name":"amountIn","type":"uint256","indexed":false,"internalType":"uint256"},{"name":"amountOut","type":"uint256","indexed":false,"internalType":"uint256"}],"anonymous":false},{"type":"error","name":"ReentrancyGuardReentrantCall","inputs":[]}],"bytecode":{"object":"0x6080604052601e600255348015610014575f80fd5b50604051610aea380380610aea833981016040819052610033916100a2565b60017f9b779b17422d0df92223018b32b4d1fa46e071723d6817e2486d003becc55f00555f80546001600160a01b039384166001600160a01b031991821617909155600180549290931691161790556100d3565b80516001600160a01b038116811461009d575f80fd5b919050565b5f80604083850312156100b3575f80fd5b6100bc83610087565b91506100ca60208401610087565b90509250929050565b610a0a806100e05f395ff3fe608060405234801561000f575f80fd5b5060043610610060575f3560e01c80633737bcb41461006457806354cf2aeb1461009457806369fe0e2d146100ab57806371d69683146100c0578063df791e50146100d3578063f851a440146100e6575b5f80fd5b600154610077906001600160a01b031681565b6040516001600160a01b0390911681526020015b60405180910390f35b61009d60025481565b60405190815260200161008b565b6100be6100b9366004610886565b6100f8565b005b6100be6100ce3660046108b4565b610200565b61009d6100e13660046108cf565b6102e0565b5f54610077906001600160a01b031681565b5f8054906101000a90046001600160a01b03166001600160a01b0316638da5cb5b6040518163ffffffff1660e01b8152600401602060405180830381865afa158015610146573d5f803e3d5ffd5b505050506040513d601f19601f8201168201806040525081019061016a919061090d565b6001600160a01b0316336001600160a01b0316146101bb5760405162461bcd60e51b81526020600482015260096024820152682737ba1037bbb732b960b91b60448201526064015b60405180910390fd5b60648111156101fb5760405162461bcd60e51b815260206004820152600c60248201526b08ccaca40e8dede40d0d2ced60a31b60448201526064016101b2565b600255565b5f8054906101000a90046001600160a01b03166001600160a01b0316638da5cb5b6040518163ffffffff1660e01b8152600401602060405180830381865afa15801561024e573d5f803e3d5ffd5b505050506040513d601f19601f82011682018060405250810190610272919061090d565b6001600160a01b0316336001600160a01b0316146102be5760405162461bcd60e51b81526020600482015260096024820152682737ba1037bbb732b960b91b60448201526064016101b2565b600180546001600160a01b0319166001600160a01b0392909216919091179055565b5f6102e9610814565b5f8054906101000a90046001600160a01b03166001600160a01b0316635c975abb6040518163ffffffff1660e01b8152600401602060405180830381865afa158015610337573d5f803e3d5ffd5b505050506040513d601f19601f8201168201806040525081019061035b9190610928565b156103915760405162461bcd60e51b815260206004820152600660248201526514185d5cd95960d21b60448201526064016101b2565b5f82116103ce5760405162461bcd60e51b815260206004820152600b60248201526a416d6f756e74207a65726f60a81b60448201526064016101b2565b826001600160a01b0316846001600160a01b03160361041c5760405162461bcd60e51b815260206004820152600a60248201526929b0b6b2903a37b5b2b760b11b60448201526064016101b2565b6001600160a01b0384161580159061043c57506001600160a01b03831615155b6104775760405162461bcd60e51b815260206004820152600c60248201526b5a65726f206164647265737360a01b60448201526064016101b2565b6001546040516323b872dd60e01b81523360048201526001600160a01b03918216602482015260448101849052908516906323b872dd906064016020604051808303815f875af11580156104cd573d5f803e3d5ffd5b505050506040513d601f19601f820116820180604052508101906104f19190610928565b6105275760405162461bcd60e51b815260206004820152600760248201526615118819985a5b60ca1b60448201526064016101b2565b6001546040516370a0823160e01b81526001600160a01b0391821660048201525f918616906370a0823190602401602060405180830381865afa158015610570573d5f803e3d5ffd5b505050506040513d601f19601f820116820180604052508101906105949190610947565b6001546040516370a0823160e01b81526001600160a01b0391821660048201529192505f91908616906370a0823190602401602060405180830381865afa1580156105e1573d5f803e3d5ffd5b505050506040513d601f19601f820116820180604052508101906106059190610947565b90505f8211801561061557505f81115b61065a5760405162461bcd60e51b8152602060048201526016602482015275496e73756666696369656e74206c697175696469747960501b60448201526064016101b2565b5f61271060025461271061066e9190610972565b610678908761098b565b61068291906109a2565b905061068e81846109c1565b610698838361098b565b6106a291906109a2565b93505f84116106e95760405162461bcd60e51b8152602060048201526013602482015272125b9cdd59999a58da595b9d081bdd5d1c1d5d606a1b60448201526064016101b2565b60405163a9059cbb60e01b8152336004820152602481018590526001600160a01b0387169063a9059cbb906044016020604051808303815f875af1158015610733573d5f803e3d5ffd5b505050506040513d601f19601f820116820180604052508101906107579190610928565b61078d5760405162461bcd60e51b815260206004820152600760248201526615118819985a5b60ca1b60448201526064016101b2565b604080516001600160a01b038981168252881660208201529081018690526060810185905233907fcd3829a3813dc3cdd188fd3d01dcf3268c16be2fdd2dd21d0665418816e460629060800160405180910390a250505061080d60017f9b779b17422d0df92223018b32b4d1fa46e071723d6817e2486d003becc55f0055565b9392505050565b61081c610842565b60027f9b779b17422d0df92223018b32b4d1fa46e071723d6817e2486d003becc55f0055565b7f9b779b17422d0df92223018b32b4d1fa46e071723d6817e2486d003becc55f005460020361088457604051633ee5aeb560e01b815260040160405180910390fd5b565b5f60208284031215610896575f80fd5b5035919050565b6001600160a01b03811681146108b1575f80fd5b50565b5f602082840312156108c4575f80fd5b813561080d8161089d565b5f805f606084860312156108e1575f80fd5b83356108ec8161089d565b925060208401356108fc8161089d565b929592945050506040919091013590565b5f6020828403121561091d575f80fd5b815161080d8161089d565b5f60208284031215610938575f80fd5b8151801515811461080d575f80fd5b5f60208284031215610957575f80fd5b5051919050565b634e487b7160e01b5f52601160045260245ffd5b818103818111156109855761098561095e565b92915050565b80820281158282048414176109855761098561095e565b5f826109bc57634e487b7160e01b5f52601260045260245ffd5b500490565b808201808211156109855761098561095e56fea264697066735822122055b4f5e25c9a7a6003065345313dac89411b8365a4bd9628d1c2539cbea1f27264736f6c63430008180033","linkReferences":{}},"methodIdentifiers":{"admin()":"f851a440","lpPool()":"3737bcb4","setFee(uint256)":"69fe0e2d","setLpPool(address)":"71d69683","swap(address,address,uint256)":"df791e50","swapFee()":"54cf2aeb"},"id":5}