{"abi":[{"type":"constructor","inputs":[{"name":"_admin","type":"address","internalType":"address"},{"name":"_lpToken","type":"address","internalType":"address"},{"name":"_rewardToken","type":"address","internalType":"address"},{"name":"_rewardPerSecond","type":"uint256","internalType":"uint256"}],"stateMutability":"nonpayable"},{"type":"function","name":"accRewardPerShare","inputs":[],"outputs":[{"name":"","type":"uint256","internalType":"uint256"}],"stateMutability":"view"},{"type":"function","name":"admin","inputs":[],"outputs":[{"name":"","type":"address","internalType":"contract AdminManager"}],"stateMutability":"view"},{"type":"function","name":"claimReward","inputs":[{"name":"ionProtocolFee","type":"uint256","internalType":"uint256"}],"outputs":[],"stateMutability":"nonpayable"},{"type":"function","name":"feeReceiver","inputs":[],"outputs":[{"name":"","type":"address","internalType":"address"}],"stateMutability":"view"},{"type":"function","name":"lastUpdateTime","inputs":[],"outputs":[{"name":"","type":"uint256","internalType":"uint256"}],"stateMutability":"view"},{"type":"function","name":"lpToken","inputs":[],"outputs":[{"name":"","type":"address","internalType":"contract IERC20"}],"stateMutability":"view"},{"type":"function","name":"pendingReward","inputs":[{"name":"_user","type":"address","internalType":"address"}],"outputs":[{"name":"","type":"uint256","internalType":"uint256"}],"stateMutability":"view"},{"type":"function","name":"rewardPerSecond","inputs":[],"outputs":[{"name":"","type":"uint256","internalType":"uint256"}],"stateMutability":"view"},{"type":"function","name":"rewardToken","inputs":[],"outputs":[{"name":"","type":"address","internalType":"contract IERC20"}],"stateMutability":"view"},{"type":"function","name":"setFeeReceiver","inputs":[{"name":"_feeReceiver","type":"address","internalType":"address"}],"outputs":[],"stateMutability":"nonpayable"},{"type":"function","name":"setRewardPerSecond","inputs":[{"name":"_rewardPerSecond","type":"uint256","internalType":"uint256"}],"outputs":[],"stateMutability":"nonpayable"},{"type":"function","name":"stake","inputs":[{"name":"amount","type":"uint256","internalType":"uint256"},{"name":"ionProtocolFee","type":"uint256","internalType":"uint256"}],"outputs":[],"stateMutability":"nonpayable"},{"type":"function","name":"totalStaked","inputs":[],"outputs":[{"name":"","type":"uint256","internalType":"uint256"}],"stateMutability":"view"},{"type":"function","name":"unstake","inputs":[{"name":"amount","type":"uint256","internalType":"uint256"}],"outputs":[],"stateMutability":"nonpayable"},{"type":"function","name":"userInfo","inputs":[{"name":"","type":"address","internalType":"address"}],"outputs":[{"name":"stakeAmount","type":"uint256","internalType":"uint256"},{"name":"rewardDebt","type":"uint256","internalType":"uint256"},{"name":"pendingReward","type":"uint256","internalType":"uint256"}],"stateMutability":"view"},{"type":"event","name":"RewardClaim","inputs":[{"name":"user","type":"address","indexed":true,"internalType":"address"},{"name":"reward","type":"uint256","indexed":false,"internalType":"uint256"}],"anonymous":false},{"type":"event","name":"Stake","inputs":[{"name":"user","type":"address","indexed":true,"internalType":"address"},{"name":"amount","type":"uint256","indexed":false,"internalType":"uint256"}],"anonymous":false},{"type":"event","name":"Unstake","inputs":[{"name":"user","type":"address","indexed":true,"internalType":"address"},{"name":"amount","type":"uint256","indexed":false,"internalType":"uint256"}],"anonymous":false},{"type":"error","name":"IonDexFeeReceiverNotSet","inputs":[]},{"type":"error","name":"IonDexIonFeeTransferFailed","inputs":[]},{"type":"error","name":"ReentrancyGuardReentrantCall","inputs":[]}],"bytecode":{"object":"0x6080346100de57601f610ff338819003918201601f19168301916001600160401b038311848410176100e2578084926080946040528339810103126100de57610047816100f6565b90610054602082016100f6565b6060610062604084016100f6565b92015160017f9b779b17422d0df92223018b32b4d1fa46e071723d6817e2486d003becc55f008190555f80546001600160a01b03199081166001600160a01b03978816179091558154811693861693909317905560028054909216939092169290921790915560045542600855604051610ee8908161010b8239f35b5f80fd5b634e487b7160e01b5f52604160045260245ffd5b51906001600160a01b03821682036100de5756fe6080806040526004361015610012575f80fd5b5f3560e01c9081631959a00214610a33575080632e17de78146108415780635fcbd2851461081957806366da5815146107475780637b0472f01461051d578063817b1cd2146105005780638f10369a146104e3578063939d6237146104c6578063ae169a5014610253578063b3f006741461022b578063c8f33c911461020e578063efdcd9741461014b578063f40f0f5214610114578063f7c618c1146100ec5763f851a440146100c1575f80fd5b346100e8575f3660031901126100e8575f546040516001600160a01b039091168152602090f35b5f80fd5b346100e8575f3660031901126100e8576002546040516001600160a01b039091168152602090f35b346100e85760203660031901126100e8576004356001600160a01b03811681036100e857610143602091610bdf565b604051908152f35b346100e85760203660031901126100e8576004356001600160a01b038116908190036100e8575f54604051638da5cb5b60e01b815290602090829060049082906001600160a01b03165afa8015610203576101b8915f916101d4575b506001600160a01b03163314610ba7565b6bffffffffffffffffffffffff60a01b60035416176003555f80f35b6101f6915060203d6020116101fc575b6101ee8183610acf565b810190610b88565b836101a7565b503d6101e4565b6040513d5f823e3d90fd5b346100e8575f3660031901126100e8576020600854604051908152f35b346100e8575f3660031901126100e8576003546040516001600160a01b039091168152602090f35b346100e85760203660031901126100e85761026c610cad565b6005548061045b575b504260085533610400575b5f54604051635c975abb60e01b815290602090829060049082906001600160a01b03165afa8015610203576102bd915f916103e1575b5015610b1d565b6003546102da9060043590339030906001600160a01b0316610ce5565b335f526006602052600260405f200180549081156103b0575f9081905560025460405163a9059cbb60e01b8152336004820152602481018490529160209183916044918391906001600160a01b03165af1801561020357610342915f91610381575b50610b52565b6040519081527f75690555e75b04e280e646889defdcbefd8401507e5394d1173fd84290944c2960203392a260015f516020610e935f395f51905f5255005b6103a3915060203d6020116103a9575b61039b8183610acf565b810190610b05565b8361033c565b503d610391565b60405162461bcd60e51b8152602060048201526009602482015268139bc81c995dd85c9960ba1b6044820152606490fd5b6103fa915060203d6020116103a95761039b8183610acf565b826102b6565b335f52600660205260405f20670de0b6b3a764000061045382548261042760075483610a91565b0493610448600261043e6001840197885490610a84565b9201918254610ac2565b905560075490610a91565b049055610280565b61047361046a60085442610a84565b60045490610a91565b670de0b6b3a7640000810290808204670de0b6b3a764000014901517156104b2576104a9916104a191610aa4565b600754610ac2565b60075580610275565b634e487b7160e01b5f52601160045260245ffd5b346100e8575f3660031901126100e8576020600754604051908152f35b346100e8575f3660031901126100e8576020600454604051908152f35b346100e8575f3660031901126100e8576020600554604051908152f35b346100e85760403660031901126100e857600435610539610cad565b60055480610701575b5042600855336106d2575b5f54604051635c975abb60e01b815290602090829060049082906001600160a01b03165afa801561020357610589915f916106b3575015610b1d565b8015610680576003546105ac9060243590339030906001600160a01b0316610ce5565b6001546040516323b872dd60e01b81523360048201523060248201526044810183905290602090829060649082905f906001600160a01b03165af18015610203576105fd915f916103815750610b52565b61060981600554610ac2565b600555335f52600660205260405f206001670de0b6b3a764000061063d610631858554610ac2565b80855560075490610a91565b049101556040519081527febedb8b3c678666e7f36970bc8f57abf6d8fa2e828c0da91ea5b75bf68ed101a60203392a260015f516020610e935f395f51905f5255005b60405162461bcd60e51b815260206004820152600b60248201526a416d6f756e74207a65726f60a81b6044820152606490fd5b6106cc915060203d6020116103a95761039b8183610acf565b836102b6565b335f52600660205260405f20670de0b6b3a76400006106f982548261042760075483610a91565b04905561054d565b61071061046a60085442610a84565b670de0b6b3a7640000810290808204670de0b6b3a764000014901517156104b25761073e916104a191610aa4565b60075581610542565b346100e85760203660031901126100e857600554806107d3575b50426008555f54604051638da5cb5b60e01b815290602090829060049082906001600160a01b03165afa8015610203576107ac915f916107b457506001600160a01b03163314610ba7565b600480359055005b6107cd915060203d6020116101fc576101ee8183610acf565b826101a7565b6107e261046a60085442610a84565b670de0b6b3a7640000810290808204670de0b6b3a764000014901517156104b257610810916104a191610aa4565b60075580610761565b346100e8575f3660031901126100e8576001546040516001600160a01b039091168152602090f35b346100e85760203660031901126100e85760043561085d610cad565b600554806109ed575b5042600855336109be575b5f54604051635c975abb60e01b815290602090829060049082906001600160a01b03165afa8015610203576108ad915f916106b3575015610b1d565b335f52600660205260405f20805482811061098457826108cc91610a84565b81556108da82600554610a84565b6005556001670de0b6b3a76400006108f6835460075490610a91565b0491015560015460405163a9059cbb60e01b81523360048201526024810183905290602090829060449082905f906001600160a01b03165af1801561020357610945915f916103815750610b52565b6040519081527f85082129d87b2fe11527cb1b3b7a520aeb5aa6913f88a3d8757fe40d1db02fdd60203392a260015f516020610e935f395f51905f5255005b60405162461bcd60e51b8152602060048201526012602482015271496e73756666696369656e74207374616b6560701b6044820152606490fd5b335f52600660205260405f20670de0b6b3a76400006109e582548261042760075483610a91565b049055610871565b6109fc61046a60085442610a84565b670de0b6b3a7640000810290808204670de0b6b3a764000014901517156104b257610a2a916104a191610aa4565b60075581610866565b346100e85760203660031901126100e8576004356001600160a01b03811691908290036100e8576060915f52600660205260405f208054906002600182015491015491835260208301526040820152f35b919082039182116104b257565b818102929181159184041417156104b257565b8115610aae570490565b634e487b7160e01b5f52601260045260245ffd5b919082018092116104b257565b90601f8019910116810190811067ffffffffffffffff821117610af157604052565b634e487b7160e01b5f52604160045260245ffd5b908160209103126100e8575180151581036100e85790565b15610b2457565b60405162461bcd60e51b815260206004820152600660248201526514185d5cd95960d21b6044820152606490fd5b15610b5957565b60405162461bcd60e51b815260206004820152600760248201526615118819985a5b60ca1b6044820152606490fd5b908160209103126100e857516001600160a01b03811681036100e85790565b15610bae57565b60405162461bcd60e51b81526020600482015260096024820152682737ba1037bbb732b960b91b6044820152606490fd5b6001600160a01b03165f9081526006602052604090208054908115610ca4576007549160055480610c40575b50610c34600191670de0b6b3a7640000610c2d610c3d96600287015493610a91565b0490610ac2565b91015490610a84565b90565b610c4f61046a60085442610a84565b91670de0b6b3a7640000830292808404670de0b6b3a764000014901517156104b257670de0b6b3a7640000610c2d610c99610c3d97610c93610c3496600198610aa4565b90610ac2565b965050509150610c0b565b60029150015490565b60025f516020610e935f395f51905f525414610cd65760025f516020610e935f395f51905f5255565b633ee5aeb560e01b5f5260045ffd5b929091928115610e8c576001600160a01b038116938415610e7d57604051632c2d77db60e21b815293602085600481895afa948515610203575f95610e59575b506040516323b872dd60e01b81526001600160a01b039283166004820152908216602482015260448101849052908416906020816064815f865af1908115610203575f91610e3a575b5015610e0c5760405163095ea7b360e01b81526001600160a01b0392909216600483015260248201839052602090829060449082905f905af1908115610203575f91610e1b575b5015610e0c57823b156100e8576040516348fef59560e01b81526001600160a01b039290921660048301526024820152905f908290604490829084905af1801561020357610e005750565b5f610e0a91610acf565b565b63b180eb2560e01b5f5260045ffd5b610e34915060203d6020116103a95761039b8183610acf565b5f610db5565b610e53915060203d6020116103a95761039b8183610acf565b5f610d6e565b84919550610e75602091823d84116101fc576101ee8183610acf565b959150610d25565b631d5dec5760e21b5f5260045ffd5b5050505056fe9b779b17422d0df92223018b32b4d1fa46e071723d6817e2486d003becc55f00a26469706673582212209640cc5f6e3af2e596aebf8592a2ac47b71d31be0423a5a7f2629ed4e9354f9064736f6c63430008230033","linkReferences":{}},"methodIdentifiers":{"accRewardPerShare()":"939d6237","admin()":"f851a440","claimReward(uint256)":"ae169a50","feeReceiver()":"b3f00674","lastUpdateTime()":"c8f33c91","lpToken()":"5fcbd285","pendingReward(address)":"f40f0f52","rewardPerSecond()":"8f10369a","rewardToken()":"f7c618c1","setFeeReceiver(address)":"efdcd974","setRewardPerSecond(uint256)":"66da5815","stake(uint256,uint256)":"7b0472f0","totalStaked()":"817b1cd2","unstake(uint256)":"2e17de78","userInfo(address)":"1959a002"},"id":9}