{"abi":[{"type":"constructor","inputs":[{"name":"_admin","type":"address","internalType":"address"},{"name":"_lpToken","type":"address","internalType":"address"},{"name":"_rewardToken","type":"address","internalType":"address"},{"name":"_rewardPerSecond","type":"uint256","internalType":"uint256"}],"stateMutability":"nonpayable"},{"type":"function","name":"accRewardPerShare","inputs":[],"outputs":[{"name":"","type":"uint256","internalType":"uint256"}],"stateMutability":"view"},{"type":"function","name":"admin","inputs":[],"outputs":[{"name":"","type":"address","internalType":"contract AdminManager"}],"stateMutability":"view"},{"type":"function","name":"claimReward","inputs":[],"outputs":[],"stateMutability":"nonpayable"},{"type":"function","name":"lastUpdateTime","inputs":[],"outputs":[{"name":"","type":"uint256","internalType":"uint256"}],"stateMutability":"view"},{"type":"function","name":"lpToken","inputs":[],"outputs":[{"name":"","type":"address","internalType":"contract IERC20"}],"stateMutability":"view"},{"type":"function","name":"pendingReward","inputs":[{"name":"_user","type":"address","internalType":"address"}],"outputs":[{"name":"","type":"uint256","internalType":"uint256"}],"stateMutability":"view"},{"type":"function","name":"rewardPerSecond","inputs":[],"outputs":[{"name":"","type":"uint256","internalType":"uint256"}],"stateMutability":"view"},{"type":"function","name":"rewardToken","inputs":[],"outputs":[{"name":"","type":"address","internalType":"contract IERC20"}],"stateMutability":"view"},{"type":"function","name":"setRewardPerSecond","inputs":[{"name":"_rewardPerSecond","type":"uint256","internalType":"uint256"}],"outputs":[],"stateMutability":"nonpayable"},{"type":"function","name":"stake","inputs":[{"name":"amount","type":"uint256","internalType":"uint256"}],"outputs":[],"stateMutability":"nonpayable"},{"type":"function","name":"totalStaked","inputs":[],"outputs":[{"name":"","type":"uint256","internalType":"uint256"}],"stateMutability":"view"},{"type":"function","name":"unstake","inputs":[{"name":"amount","type":"uint256","internalType":"uint256"}],"outputs":[],"stateMutability":"nonpayable"},{"type":"function","name":"userInfo","inputs":[{"name":"","type":"address","internalType":"address"}],"outputs":[{"name":"stakeAmount","type":"uint256","internalType":"uint256"},{"name":"rewardDebt","type":"uint256","internalType":"uint256"},{"name":"pendingReward","type":"uint256","internalType":"uint256"}],"stateMutability":"view"},{"type":"event","name":"RewardClaim","inputs":[{"name":"user","type":"address","indexed":true,"internalType":"address"},{"name":"reward","type":"uint256","indexed":false,"internalType":"uint256"}],"anonymous":false},{"type":"event","name":"Stake","inputs":[{"name":"user","type":"address","indexed":true,"internalType":"address"},{"name":"amount","type":"uint256","indexed":false,"internalType":"uint256"}],"anonymous":false},{"type":"event","name":"Unstake","inputs":[{"name":"user","type":"address","indexed":true,"internalType":"address"},{"name":"amount","type":"uint256","indexed":false,"internalType":"uint256"}],"anonymous":false},{"type":"error","name":"ReentrancyGuardReentrantCall","inputs":[]}],"bytecode":{"object":"0x6080346100de57601f610d0f38819003918201601f19168301916001600160401b038311848410176100e2578084926080946040528339810103126100de57610047816100f6565b90610054602082016100f6565b6060610062604084016100f6565b92015160017f9b779b17422d0df92223018b32b4d1fa46e071723d6817e2486d003becc55f008190555f80546001600160a01b03199081166001600160a01b03978816179091558154811693861693909317905560028054909216939092169290921790915560035542600755604051610c04908161010b8239f35b5f80fd5b634e487b7160e01b5f52604160045260245ffd5b51906001600160a01b03821682036100de5756fe6080806040526004361015610012575f80fd5b5f3560e01c9081631959a00214610953575080632e17de78146107615780635fcbd2851461073957806366da581514610616578063817b1cd2146105f95780638f10369a146105dc578063939d6237146105bf578063a694fc3a146103b2578063b88a802f14610152578063c8f33c9114610135578063f40f0f52146100fe578063f7c618c1146100d65763f851a440146100ab575f80fd5b346100d2575f3660031901126100d2575f546040516001600160a01b039091168152602090f35b5f80fd5b346100d2575f3660031901126100d2576002546040516001600160a01b039091168152602090f35b346100d25760203660031901126100d2576004356001600160a01b03811681036100d25761012d602091610aa8565b604051908152f35b346100d2575f3660031901126100d2576020600754604051908152f35b346100d2575f3660031901126100d25761016a610b76565b60045480610347575b5042600755336102ec575b5f54604051635c975abb60e01b815290602090829060049082906001600160a01b03165afa8015610291576101bb915f916102cd575b5015610a3d565b335f526005602052600260405f2001805490811561029c575f9081905560025460405163a9059cbb60e01b8152336004820152602481018490529160209183916044918391906001600160a01b03165af1801561029157610223915f91610262575b50610a72565b6040519081527f75690555e75b04e280e646889defdcbefd8401507e5394d1173fd84290944c2960203392a260015f516020610baf5f395f51905f5255005b610284915060203d60201161028a575b61027c81836109ef565b810190610a25565b8361021d565b503d610272565b6040513d5f823e3d90fd5b60405162461bcd60e51b8152602060048201526009602482015268139bc81c995dd85c9960ba1b6044820152606490fd5b6102e6915060203d60201161028a5761027c81836109ef565b826101b4565b335f52600560205260405f20670de0b6b3a764000061033f825482610313600654836109b1565b0493610334600261032a60018401978854906109a4565b92019182546109e2565b9055600654906109b1565b04905561017e565b61035f610356600754426109a4565b600354906109b1565b670de0b6b3a7640000810290808204670de0b6b3a7640000149015171561039e576103959161038d916109c4565b6006546109e2565b60065580610173565b634e487b7160e01b5f52601160045260245ffd5b346100d25760203660031901126100d2576004356103ce610b76565b60045480610579575b50426007553361054a575b5f54604051635c975abb60e01b815290602090829060049082906001600160a01b03165afa80156102915761041e915f9161052b575015610a3d565b80156104f8576001546040516323b872dd60e01b81523360048201523060248201526044810183905290602090829060649082905f906001600160a01b03165af1801561029157610475915f916102625750610a72565b610481816004546109e2565b600455335f52600560205260405f206001670de0b6b3a76400006104b56104a98585546109e2565b808555600654906109b1565b049101556040519081527febedb8b3c678666e7f36970bc8f57abf6d8fa2e828c0da91ea5b75bf68ed101a60203392a260015f516020610baf5f395f51905f5255005b60405162461bcd60e51b815260206004820152600b60248201526a416d6f756e74207a65726f60a81b6044820152606490fd5b610544915060203d60201161028a5761027c81836109ef565b836101b4565b335f52600560205260405f20670de0b6b3a7640000610571825482610313600654836109b1565b0490556103e2565b610588610356600754426109a4565b670de0b6b3a7640000810290808204670de0b6b3a7640000149015171561039e576105b69161038d916109c4565b600655816103d7565b346100d2575f3660031901126100d2576020600654604051908152f35b346100d2575f3660031901126100d2576020600354604051908152f35b346100d2575f3660031901126100d2576020600454604051908152f35b346100d25760203660031901126100d257600454806106f3575b50426007555f54604051638da5cb5b60e01b815290602090829060049082906001600160a01b03165afa908115610291575f916106b1575b506001600160a01b0316330361068057600435600355005b60405162461bcd60e51b81526020600482015260096024820152682737ba1037bbb732b960b91b6044820152606490fd5b90506020813d6020116106eb575b816106cc602093836109ef565b810103126100d257516001600160a01b03811681036100d25781610668565b3d91506106bf565b610702610356600754426109a4565b670de0b6b3a7640000810290808204670de0b6b3a7640000149015171561039e576107309161038d916109c4565b60065580610630565b346100d2575f3660031901126100d2576001546040516001600160a01b039091168152602090f35b346100d25760203660031901126100d25760043561077d610b76565b6004548061090d575b5042600755336108de575b5f54604051635c975abb60e01b815290602090829060049082906001600160a01b03165afa8015610291576107cd915f9161052b575015610a3d565b335f52600560205260405f2080548281106108a457826107ec916109a4565b81556107fa826004546109a4565b6004556001670de0b6b3a76400006108168354600654906109b1565b0491015560015460405163a9059cbb60e01b81523360048201526024810183905290602090829060449082905f906001600160a01b03165af1801561029157610865915f916102625750610a72565b6040519081527f85082129d87b2fe11527cb1b3b7a520aeb5aa6913f88a3d8757fe40d1db02fdd60203392a260015f516020610baf5f395f51905f5255005b60405162461bcd60e51b8152602060048201526012602482015271496e73756666696369656e74207374616b6560701b6044820152606490fd5b335f52600560205260405f20670de0b6b3a7640000610905825482610313600654836109b1565b049055610791565b61091c610356600754426109a4565b670de0b6b3a7640000810290808204670de0b6b3a7640000149015171561039e5761094a9161038d916109c4565b60065581610786565b346100d25760203660031901126100d2576004356001600160a01b03811691908290036100d2576060915f52600560205260405f208054906002600182015491015491835260208301526040820152f35b9190820391821161039e57565b8181029291811591840414171561039e57565b81156109ce570490565b634e487b7160e01b5f52601260045260245ffd5b9190820180921161039e57565b90601f8019910116810190811067ffffffffffffffff821117610a1157604052565b634e487b7160e01b5f52604160045260245ffd5b908160209103126100d2575180151581036100d25790565b15610a4457565b60405162461bcd60e51b815260206004820152600660248201526514185d5cd95960d21b6044820152606490fd5b15610a7957565b60405162461bcd60e51b815260206004820152600760248201526615118819985a5b60ca1b6044820152606490fd5b6001600160a01b03165f9081526005602052604090208054908115610b6d576006549160045480610b09575b50610afd600191670de0b6b3a7640000610af6610b06966002870154936109b1565b04906109e2565b910154906109a4565b90565b610b18610356600754426109a4565b91670de0b6b3a7640000830292808404670de0b6b3a7640000149015171561039e57670de0b6b3a7640000610af6610b62610b0697610b5c610afd966001986109c4565b906109e2565b965050509150610ad4565b60029150015490565b60025f516020610baf5f395f51905f525414610b9f5760025f516020610baf5f395f51905f5255565b633ee5aeb560e01b5f5260045ffdfe9b779b17422d0df92223018b32b4d1fa46e071723d6817e2486d003becc55f00a264697066735822122030732970cfdb829edf0515616dc9dc6501c4ba96adbb04147035e16f3145fbbc64736f6c63430008230033","linkReferences":{}},"methodIdentifiers":{"accRewardPerShare()":"939d6237","admin()":"f851a440","claimReward()":"b88a802f","lastUpdateTime()":"c8f33c91","lpToken()":"5fcbd285","pendingReward(address)":"f40f0f52","rewardPerSecond()":"8f10369a","rewardToken()":"f7c618c1","setRewardPerSecond(uint256)":"66da5815","stake(uint256)":"a694fc3a","totalStaked()":"817b1cd2","unstake(uint256)":"2e17de78","userInfo(address)":"1959a002"},"id":14}