{"abi":[{"type":"constructor","inputs":[{"name":"owner_","type":"address","internalType":"address"}],"stateMutability":"nonpayable"},{"type":"function","name":"adjustLpShares","inputs":[{"name":"user","type":"address","internalType":"address"},{"name":"deltaShares","type":"int256","internalType":"int256"}],"outputs":[],"stateMutability":"nonpayable"},{"type":"function","name":"bridgeRelay","inputs":[],"outputs":[{"name":"","type":"address","internalType":"address"}],"stateMutability":"view"},{"type":"function","name":"feeReceiver","inputs":[],"outputs":[{"name":"","type":"address","internalType":"address"}],"stateMutability":"view"},{"type":"function","name":"lock","inputs":[{"name":"token","type":"address","internalType":"address"},{"name":"amount","type":"uint256","internalType":"uint256"},{"name":"ionRecipient","type":"bytes32","internalType":"bytes32"},{"name":"ionProtocolFee","type":"uint256","internalType":"uint256"}],"outputs":[],"stateMutability":"nonpayable"},{"type":"function","name":"lockedBalance","inputs":[{"name":"","type":"address","internalType":"address"},{"name":"","type":"address","internalType":"address"}],"outputs":[{"name":"","type":"uint256","internalType":"uint256"}],"stateMutability":"view"},{"type":"function","name":"lpShares","inputs":[{"name":"","type":"address","internalType":"address"}],"outputs":[{"name":"","type":"uint256","internalType":"uint256"}],"stateMutability":"view"},{"type":"function","name":"owner","inputs":[],"outputs":[{"name":"","type":"address","internalType":"address"}],"stateMutability":"view"},{"type":"function","name":"relayers","inputs":[{"name":"","type":"address","internalType":"address"}],"outputs":[{"name":"","type":"bool","internalType":"bool"}],"stateMutability":"view"},{"type":"function","name":"release","inputs":[{"name":"token","type":"address","internalType":"address"},{"name":"user","type":"address","internalType":"address"},{"name":"amount","type":"uint256","internalType":"uint256"},{"name":"releaseId","type":"bytes32","internalType":"bytes32"}],"outputs":[],"stateMutability":"nonpayable"},{"type":"function","name":"releaseConsumed","inputs":[{"name":"","type":"bytes32","internalType":"bytes32"}],"outputs":[{"name":"","type":"bool","internalType":"bool"}],"stateMutability":"view"},{"type":"function","name":"setBridgeRelay","inputs":[{"name":"relay","type":"address","internalType":"address"}],"outputs":[],"stateMutability":"nonpayable"},{"type":"function","name":"setFeeReceiver","inputs":[{"name":"feeReceiver_","type":"address","internalType":"address"}],"outputs":[],"stateMutability":"nonpayable"},{"type":"function","name":"setRelayer","inputs":[{"name":"relayer","type":"address","internalType":"address"},{"name":"allowed","type":"bool","internalType":"bool"}],"outputs":[],"stateMutability":"nonpayable"},{"type":"function","name":"tokenBalance","inputs":[{"name":"token","type":"address","internalType":"address"}],"outputs":[{"name":"","type":"uint256","internalType":"uint256"}],"stateMutability":"view"},{"type":"function","name":"transferOwnership","inputs":[{"name":"newOwner","type":"address","internalType":"address"}],"outputs":[],"stateMutability":"nonpayable"},{"type":"event","name":"Locked","inputs":[{"name":"user","type":"address","indexed":true,"internalType":"address"},{"name":"token","type":"address","indexed":true,"internalType":"address"},{"name":"amount","type":"uint256","indexed":false,"internalType":"uint256"},{"name":"ionRecipient","type":"bytes32","indexed":false,"internalType":"bytes32"}],"anonymous":false},{"type":"event","name":"LpSharesUpdated","inputs":[{"name":"user","type":"address","indexed":true,"internalType":"address"},{"name":"deltaShares","type":"int256","indexed":false,"internalType":"int256"}],"anonymous":false},{"type":"event","name":"RelayerSet","inputs":[{"name":"relayer","type":"address","indexed":true,"internalType":"address"},{"name":"allowed","type":"bool","indexed":false,"internalType":"bool"}],"anonymous":false},{"type":"event","name":"Released","inputs":[{"name":"user","type":"address","indexed":true,"internalType":"address"},{"name":"token","type":"address","indexed":true,"internalType":"address"},{"name":"amount","type":"uint256","indexed":false,"internalType":"uint256"},{"name":"releaseId","type":"bytes32","indexed":false,"internalType":"bytes32"}],"anonymous":false},{"type":"error","name":"IonDexFeeReceiverNotSet","inputs":[]},{"type":"error","name":"IonDexInsufficientLocked","inputs":[]},{"type":"error","name":"IonDexIonFeeTransferFailed","inputs":[]},{"type":"error","name":"IonDexTokenTransferFailed","inputs":[]},{"type":"error","name":"IonDexUnauthorized","inputs":[]},{"type":"error","name":"IonDexZeroAddress","inputs":[]},{"type":"error","name":"IonDexZeroAmount","inputs":[]}],"bytecode":{"object":"0x608034608357601f610bda38819003918201601f19168301916001600160401b03831184841017608757808492602094604052833981010312608357516001600160a01b0381169081900360835780156074575f80546001600160a01b031916919091179055604051610b3e908161009c8239f35b6394844c1960e01b5f5260045ffd5b5f80fd5b634e487b7160e01b5f52604160045260245ffdfe60806040526004361015610011575f80fd5b5f3560e01c80633419d6ef146108565780633edb24a514610827578063460fa484146106865780635300f841146106495780635cf3426b1461050957806360023452146103a65780636636e5b61461037e5780638da5cb5b14610357578063b3f006741461032f578063c109a6dc146102f7578063d4a334b9146102a2578063ecd8dc3a14610215578063eedc966a14610180578063efdcd9741461012b5763f2fde38b146100be575f80fd5b34610127576020366003190112610127576100d76108a6565b5f54906001600160a01b0382163303610118576001600160a01b0316908115610109576001600160a01b031916175f55005b6394844c1960e01b5f5260045ffd5b6326392e5760e11b5f5260045ffd5b5f80fd5b34610127576020366003190112610127576101446108a6565b5f546001600160a01b03163303610118576001600160a01b03168015610109576bffffffffffffffffffffffff60a01b60025416176002555f80f35b3461012757602036600319011261012757602460206001600160a01b036101a56108a6565b16604051928380926370a0823160e01b82523060048301525afa801561020a575f906101d7575b602090604051908152f35b506020813d602011610202575b816101f1602093836108ec565b8101031261012757602090516101cc565b3d91506101e4565b6040513d5f823e3d90fd5b346101275760403660031901126101275761022e6108a6565b60243590811515809203610127575f546001600160a01b03163303610118576001600160a01b03169081156101095760207fee42947bc760229eeff964017ac68eddb00ba98b0defcd90a1bc85a5afceb05791835f526003825260405f2060ff1981541660ff8316179055604051908152a2005b34610127576020366003190112610127576102bb6108a6565b5f546001600160a01b03163303610118576001600160a01b03168015610109576bffffffffffffffffffffffff60a01b60015416176001555f80f35b34610127576020366003190112610127576001600160a01b036103186108a6565b165f526005602052602060405f2054604051908152f35b34610127575f366003190112610127576002546040516001600160a01b039091168152602090f35b34610127575f366003190112610127575f546040516001600160a01b039091168152602090f35b34610127575f366003190112610127576001546040516001600160a01b039091168152602090f35b34610127576040366003190112610127576103bf6108a6565b6024359060018060a01b035f5416331415806104f2575b610118576001600160a01b0316908115610109575f8113156104385760207f1a0542e1f1886aeb4121216cd625f432f09ee2fe3775703775baefb7a782645b91835f526005825260405f2061042c8282546108df565b90555b604051908152a2005b5f8112610469575b60207f1a0542e1f1886aeb4121216cd625f432f09ee2fe3775703775baefb7a782645b9161042f565b600160ff1b81146104de57805f03825f5260056020528060405f2054106104cf577f1a0542e1f1886aeb4121216cd625f432f09ee2fe3775703775baefb7a782645b91602091845f52600583526104c560405f209182546108d2565b9055915050610440565b631827065d60e21b5f5260045ffd5b634e487b7160e01b5f52601160045260245ffd5b50335f52600360205260ff60405f205416156103d6565b34610127576080366003190112610127576105226108a6565b6001600160a01b0316602435604435821561010957811561063a578015610109576002546105609060643590339030906001600160a01b031661093a565b6040516323b872dd60e01b8152336004820152306024820152604481018390526020816064815f885af190811561020a575f9161060b575b50156105fc57825f52600460205260405f2060018060a01b0333165f5260205260405f206105c78382546108df565b905560405191825260208201527f02f55a15ef3feaca7f52632994447b0a215f8f3040c880a628915c61c985cb9560403392a3005b63363b9cef60e21b5f5260045ffd5b61062d915060203d602011610633575b61062581836108ec565b810190610922565b84610598565b503d61061b565b6377b0874f60e11b5f5260045ffd5b34610127576020366003190112610127576001600160a01b0361066a6108a6565b165f526003602052602060ff60405f2054166040519015158152f35b346101275760803660031901126101275761069f6108a6565b6106a76108bc565b604435906064359260018060a01b035f541633141580610810575b610118576001600160a01b031692831580156107ff575b61010957821561063a57801561010957805f52600660205260ff60405f20541661011857835f52600460205260405f2060018060a01b0383165f526020528260405f2054106104cf57805f52600660205260405f20600160ff19825416179055835f52600460205260405f2060018060a01b0383165f5260205260405f206107628482546108d2565b905560405163a9059cbb60e01b81526001600160a01b0383166004820152602481018490526020816044815f895af190811561020a575f916107e0575b50156105fc577fa665ffb445611e4a69ea6bd353374f390a656906ea2da3245a8aae47a360a6cc916040918251948552602085015260018060a01b031692a3005b6107f9915060203d6020116106335761062581836108ec565b8561079f565b506001600160a01b038216156106d9565b50335f52600360205260ff60405f205416156106c2565b34610127576020366003190112610127576004355f526006602052602060ff60405f2054166040519015158152f35b346101275760403660031901126101275761086f6108a6565b6108776108bc565b6001600160a01b039182165f908152600460209081526040808320949093168252928352819020549051908152f35b600435906001600160a01b038216820361012757565b602435906001600160a01b038216820361012757565b919082039182116104de57565b919082018092116104de57565b90601f8019910116810190811067ffffffffffffffff82111761090e57604052565b634e487b7160e01b5f52604160045260245ffd5b90816020910312610127575180151581036101275790565b929091928115610b02576001600160a01b038116938415610af357604051632c2d77db60e21b815293602085600481895afa94851561020a575f95610aae575b506040516323b872dd60e01b81526001600160a01b039283166004820152908216602482015260448101849052908416906020816064815f865af190811561020a575f91610a8f575b5015610a615760405163095ea7b360e01b81526001600160a01b0392909216600483015260248201839052602090829060449082905f905af190811561020a575f91610a70575b5015610a6157823b15610127576040516348fef59560e01b81526001600160a01b039290921660048301526024820152905f908290604490829084905af1801561020a57610a555750565b5f610a5f916108ec565b565b63b180eb2560e01b5f5260045ffd5b610a89915060203d6020116106335761062581836108ec565b5f610a0a565b610aa8915060203d6020116106335761062581836108ec565b5f6109c3565b9094506020813d602011610aeb575b81610aca602093836108ec565b8101031261012757516001600160a01b03811681036101275793602061097a565b3d9150610abd565b631d5dec5760e21b5f5260045ffd5b5050505056fea264697066735822122055f65e16395716de0ddf2e451322054da81b150a24efc68917242d99a539ba6a64736f6c63430008230033","linkReferences":{}},"methodIdentifiers":{"adjustLpShares(address,int256)":"60023452","bridgeRelay()":"6636e5b6","feeReceiver()":"b3f00674","lock(address,uint256,bytes32,uint256)":"5cf3426b","lockedBalance(address,address)":"3419d6ef","lpShares(address)":"c109a6dc","owner()":"8da5cb5b","relayers(address)":"5300f841","release(address,address,uint256,bytes32)":"460fa484","releaseConsumed(bytes32)":"3edb24a5","setBridgeRelay(address)":"d4a334b9","setFeeReceiver(address)":"efdcd974","setRelayer(address,bool)":"ecd8dc3a","tokenBalance(address)":"eedc966a","transferOwnership(address)":"f2fde38b"},"id":1}