{"abi":[{"type":"constructor","inputs":[{"name":"owner_","type":"address","internalType":"address"}],"stateMutability":"nonpayable"},{"type":"function","name":"adjustLpShares","inputs":[{"name":"user","type":"address","internalType":"address"},{"name":"deltaShares","type":"int256","internalType":"int256"}],"outputs":[],"stateMutability":"nonpayable"},{"type":"function","name":"bridgeRelay","inputs":[],"outputs":[{"name":"","type":"address","internalType":"address"}],"stateMutability":"view"},{"type":"function","name":"lock","inputs":[{"name":"token","type":"address","internalType":"address"},{"name":"amount","type":"uint256","internalType":"uint256"},{"name":"ionRecipient","type":"bytes32","internalType":"bytes32"}],"outputs":[],"stateMutability":"nonpayable"},{"type":"function","name":"lockedBalance","inputs":[{"name":"","type":"address","internalType":"address"},{"name":"","type":"address","internalType":"address"}],"outputs":[{"name":"","type":"uint256","internalType":"uint256"}],"stateMutability":"view"},{"type":"function","name":"lpShares","inputs":[{"name":"","type":"address","internalType":"address"}],"outputs":[{"name":"","type":"uint256","internalType":"uint256"}],"stateMutability":"view"},{"type":"function","name":"owner","inputs":[],"outputs":[{"name":"","type":"address","internalType":"address"}],"stateMutability":"view"},{"type":"function","name":"relayers","inputs":[{"name":"","type":"address","internalType":"address"}],"outputs":[{"name":"","type":"bool","internalType":"bool"}],"stateMutability":"view"},{"type":"function","name":"release","inputs":[{"name":"token","type":"address","internalType":"address"},{"name":"user","type":"address","internalType":"address"},{"name":"amount","type":"uint256","internalType":"uint256"},{"name":"releaseId","type":"bytes32","internalType":"bytes32"}],"outputs":[],"stateMutability":"nonpayable"},{"type":"function","name":"releaseConsumed","inputs":[{"name":"","type":"bytes32","internalType":"bytes32"}],"outputs":[{"name":"","type":"bool","internalType":"bool"}],"stateMutability":"view"},{"type":"function","name":"setBridgeRelay","inputs":[{"name":"relay","type":"address","internalType":"address"}],"outputs":[],"stateMutability":"nonpayable"},{"type":"function","name":"setRelayer","inputs":[{"name":"relayer","type":"address","internalType":"address"},{"name":"allowed","type":"bool","internalType":"bool"}],"outputs":[],"stateMutability":"nonpayable"},{"type":"function","name":"tokenBalance","inputs":[{"name":"token","type":"address","internalType":"address"}],"outputs":[{"name":"","type":"uint256","internalType":"uint256"}],"stateMutability":"view"},{"type":"function","name":"transferOwnership","inputs":[{"name":"newOwner","type":"address","internalType":"address"}],"outputs":[],"stateMutability":"nonpayable"},{"type":"event","name":"Locked","inputs":[{"name":"user","type":"address","indexed":true,"internalType":"address"},{"name":"token","type":"address","indexed":true,"internalType":"address"},{"name":"amount","type":"uint256","indexed":false,"internalType":"uint256"},{"name":"ionRecipient","type":"bytes32","indexed":false,"internalType":"bytes32"}],"anonymous":false},{"type":"event","name":"LpSharesUpdated","inputs":[{"name":"user","type":"address","indexed":true,"internalType":"address"},{"name":"deltaShares","type":"int256","indexed":false,"internalType":"int256"}],"anonymous":false},{"type":"event","name":"RelayerSet","inputs":[{"name":"relayer","type":"address","indexed":true,"internalType":"address"},{"name":"allowed","type":"bool","indexed":false,"internalType":"bool"}],"anonymous":false},{"type":"event","name":"Released","inputs":[{"name":"user","type":"address","indexed":true,"internalType":"address"},{"name":"token","type":"address","indexed":true,"internalType":"address"},{"name":"amount","type":"uint256","indexed":false,"internalType":"uint256"},{"name":"releaseId","type":"bytes32","indexed":false,"internalType":"bytes32"}],"anonymous":false},{"type":"error","name":"IonDexInsufficientLocked","inputs":[]},{"type":"error","name":"IonDexTokenTransferFailed","inputs":[]},{"type":"error","name":"IonDexUnauthorized","inputs":[]},{"type":"error","name":"IonDexZeroAddress","inputs":[]},{"type":"error","name":"IonDexZeroAmount","inputs":[]}],"bytecode":{"object":"0x608034608357601f61095638819003918201601f19168301916001600160401b03831184841017608757808492602094604052833981010312608357516001600160a01b0381169081900360835780156074575f80546001600160a01b0319169190911790556040516108ba908161009c8239f35b6394844c1960e01b5f5260045ffd5b5f80fd5b634e487b7160e01b5f52604160045260245ffdfe60806040526004361015610011575f80fd5b5f3560e01c80633419d6ef146107a05780633edb24a514610771578063460fa484146105d65780635300f8411461059957806360023452146104365780636636e5b61461040e5780638da5cb5b146103e7578063c109a6dc146103af578063ca3369c61461028c578063d4a334b914610237578063ecd8dc3a146101aa578063eedc966a146101155763f2fde38b146100a8575f80fd5b34610111576020366003190112610111576100c16107f0565b5f54906001600160a01b0382163303610102576001600160a01b03169081156100f3576001600160a01b031916175f55005b6394844c1960e01b5f5260045ffd5b6326392e5760e11b5f5260045ffd5b5f80fd5b3461011157602036600319011261011157602460206001600160a01b0361013a6107f0565b16604051928380926370a0823160e01b82523060048301525afa801561019f575f9061016c575b602090604051908152f35b506020813d602011610197575b8161018660209383610836565b810103126101115760209051610161565b3d9150610179565b6040513d5f823e3d90fd5b34610111576040366003190112610111576101c36107f0565b60243590811515809203610111575f546001600160a01b03163303610102576001600160a01b03169081156100f35760207fee42947bc760229eeff964017ac68eddb00ba98b0defcd90a1bc85a5afceb05791835f526002825260405f2060ff1981541660ff8316179055604051908152a2005b34610111576020366003190112610111576102506107f0565b5f546001600160a01b03163303610102576001600160a01b031680156100f3576bffffffffffffffffffffffff60a01b60015416176001555f80f35b34610111576060366003190112610111576102a56107f0565b6001600160a01b031660243560443582156100f35781156103a05780156100f3576040516323b872dd60e01b8152336004820152306024820152604481018390526020816064815f885af190811561019f575f91610371575b501561036257825f52600360205260405f2060018060a01b0333165f5260205260405f2061032d838254610829565b905560405191825260208201527f02f55a15ef3feaca7f52632994447b0a215f8f3040c880a628915c61c985cb9560403392a3005b63363b9cef60e21b5f5260045ffd5b610393915060203d602011610399575b61038b8183610836565b81019061086c565b846102fe565b503d610381565b6377b0874f60e11b5f5260045ffd5b34610111576020366003190112610111576001600160a01b036103d06107f0565b165f526004602052602060405f2054604051908152f35b34610111575f366003190112610111575f546040516001600160a01b039091168152602090f35b34610111575f366003190112610111576001546040516001600160a01b039091168152602090f35b346101115760403660031901126101115761044f6107f0565b6024359060018060a01b035f541633141580610582575b610102576001600160a01b03169081156100f3575f8113156104c85760207f1a0542e1f1886aeb4121216cd625f432f09ee2fe3775703775baefb7a782645b91835f526004825260405f206104bc828254610829565b90555b604051908152a2005b5f81126104f9575b60207f1a0542e1f1886aeb4121216cd625f432f09ee2fe3775703775baefb7a782645b916104bf565b600160ff1b811461056e57805f03825f5260046020528060405f20541061055f577f1a0542e1f1886aeb4121216cd625f432f09ee2fe3775703775baefb7a782645b91602091845f526004835261055560405f2091825461081c565b90559150506104d0565b631827065d60e21b5f5260045ffd5b634e487b7160e01b5f52601160045260245ffd5b50335f52600260205260ff60405f20541615610466565b34610111576020366003190112610111576001600160a01b036105ba6107f0565b165f526002602052602060ff60405f2054166040519015158152f35b34610111576080366003190112610111576105ef6107f0565b6105f7610806565b6044356064359260018060a01b035f54163314158061075a575b610102576001600160a01b03169283158015610749575b6100f35781156103a05780156100f357805f52600560205260ff60405f20541661010257835f52600360205260405f2060018060a01b0384165f526020528160405f20541061055f57805f52600560205260405f20600160ff19825416179055835f52600360205260405f2060018060a01b0384165f5260205260405f206106b183825461081c565b905560405163a9059cbb60e01b81526001600160a01b039093166004840181905260248401839052926020816044815f895af190811561019f575f9161072a575b5015610362577fa665ffb445611e4a69ea6bd353374f390a656906ea2da3245a8aae47a360a6cc9160409182519182526020820152a3005b610743915060203d6020116103995761038b8183610836565b856106f2565b506001600160a01b03831615610628565b50335f52600260205260ff60405f20541615610611565b34610111576020366003190112610111576004355f526005602052602060ff60405f2054166040519015158152f35b34610111576040366003190112610111576107b96107f0565b6107c1610806565b6001600160a01b039182165f908152600360209081526040808320949093168252928352819020549051908152f35b600435906001600160a01b038216820361011157565b602435906001600160a01b038216820361011157565b9190820391821161056e57565b9190820180921161056e57565b90601f8019910116810190811067ffffffffffffffff82111761085857604052565b634e487b7160e01b5f52604160045260245ffd5b9081602091031261011157518015158103610111579056fea26469706673582212208c85f2b9908b28d995ba3ec9da3249bfbddcb3ef860044701e82be6e992f337564736f6c63430008230033","linkReferences":{}},"methodIdentifiers":{"adjustLpShares(address,int256)":"60023452","bridgeRelay()":"6636e5b6","lock(address,uint256,bytes32)":"ca3369c6","lockedBalance(address,address)":"3419d6ef","lpShares(address)":"c109a6dc","owner()":"8da5cb5b","relayers(address)":"5300f841","release(address,address,uint256,bytes32)":"460fa484","releaseConsumed(bytes32)":"3edb24a5","setBridgeRelay(address)":"d4a334b9","setRelayer(address,bool)":"ecd8dc3a","tokenBalance(address)":"eedc966a","transferOwnership(address)":"f2fde38b"},"id":1}