{"abi":[{"type":"constructor","inputs":[{"name":"ionToken_","type":"address","internalType":"address"}],"stateMutability":"nonpayable"},{"type":"function","name":"BURN_SINK","inputs":[],"outputs":[{"name":"","type":"address","internalType":"address"}],"stateMutability":"view"},{"type":"function","name":"balanceOf","inputs":[{"name":"","type":"address","internalType":"address"}],"outputs":[{"name":"","type":"uint256","internalType":"uint256"}],"stateMutability":"view"},{"type":"function","name":"burn","inputs":[{"name":"amount","type":"uint256","internalType":"uint256"}],"outputs":[],"stateMutability":"nonpayable"},{"type":"function","name":"ionToken","inputs":[],"outputs":[{"name":"","type":"address","internalType":"contract IERC20Ion"}],"stateMutability":"view"},{"type":"function","name":"mint","inputs":[{"name":"amount","type":"uint256","internalType":"uint256"}],"outputs":[],"stateMutability":"nonpayable"},{"type":"function","name":"totalBurned","inputs":[],"outputs":[{"name":"","type":"uint256","internalType":"uint256"}],"stateMutability":"view"},{"type":"event","name":"Burned","inputs":[{"name":"user","type":"address","indexed":true,"internalType":"address"},{"name":"amount","type":"uint256","indexed":false,"internalType":"uint256"}],"anonymous":false},{"type":"event","name":"Minted","inputs":[{"name":"user","type":"address","indexed":true,"internalType":"address"},{"name":"amount","type":"uint256","indexed":false,"internalType":"uint256"}],"anonymous":false},{"type":"error","name":"IonDexInsufficientBalance","inputs":[]},{"type":"error","name":"IonDexTransferFailed","inputs":[]},{"type":"error","name":"IonDexZeroAddress","inputs":[]},{"type":"error","name":"IonDexZeroAmount","inputs":[]}],"bytecode":{"object":"0x60a03461008e57601f61049538819003918201601f19168301916001600160401b038311848410176100925780849260209460405283398101031261008e57516001600160a01b0381169081900361008e57801561007f576080526040516103ee90816100a7823960805181818160910152818161010301526102af0152f35b6394844c1960e01b5f5260045ffd5b5f80fd5b634e487b7160e01b5f52604160045260245ffdfe60806040526004361015610011575f80fd5b5f3560e01c806342966c68146102365780635e4807f21461021a57806370a08231146101df578063a0712d68146100c0578063b0b5df6c1461007c5763d89135cd1461005b575f80fd5b34610078575f366003190112610078576020600154604051908152f35b5f80fd5b34610078575f366003190112610078576040517f00000000000000000000000000000000000000000000000000000000000000006001600160a01b03168152602090f35b346100785760203660031901126100785760043580156101d0576040516323b872dd60e01b8152336004820152306024820152604481018290526020816064815f7f00000000000000000000000000000000000000000000000000000000000000006001600160a01b03165af19081156101c5575f91610196575b501561018757335f525f60205260405f2061015782825461035d565b90556040519081527f30385c845b448a36257a6a1716e6ad2e1bc2cbe333cde1e69fe849ad6511adfe60203392a2005b633c70fc3360e21b5f5260045ffd5b6101b8915060203d6020116101be575b6101b0818361036a565b8101906103a0565b8261013b565b503d6101a6565b6040513d5f823e3d90fd5b6377b0874f60e11b5f5260045ffd5b34610078576020366003190112610078576004356001600160a01b03811690819003610078575f525f602052602060405f2054604051908152f35b34610078575f36600319011261007857602060405161dead8152f35b346100785760203660031901126100785760043580156101d057335f525f6020528060405f20541061034e57335f525f60205260405f2080549082820391821161033a57556102878160015461035d565b60015560405163a9059cbb60e01b815261dead6004820152602481018290526020816044815f7f00000000000000000000000000000000000000000000000000000000000000006001600160a01b03165af19081156101c5575f9161031b575b5015610187576040519081527f696de425f79f4a40bc6d2122ca50507f0efbeabbff86a84871b7196ab8ea8df760203392a2005b610334915060203d6020116101be576101b0818361036a565b826102e7565b634e487b7160e01b5f52601160045260245ffd5b632f9e462f60e21b5f5260045ffd5b9190820180921161033a57565b90601f8019910116810190811067ffffffffffffffff82111761038c57604052565b634e487b7160e01b5f52604160045260245ffd5b9081602091031261007857518015158103610078579056fea26469706673582212203494f163df4ee9285e2e9b220939d0288572616ed913f02818071471671ba35c64736f6c63430008230033","linkReferences":{}},"methodIdentifiers":{"BURN_SINK()":"5e4807f2","balanceOf(address)":"70a08231","burn(uint256)":"42966c68","ionToken()":"b0b5df6c","mint(uint256)":"a0712d68","totalBurned()":"d89135cd"},"id":9}