{"abi":[{"type":"constructor","inputs":[{"name":"_bridge","type":"address","internalType":"address"},{"name":"_owner","type":"address","internalType":"address"},{"name":"_mintCap","type":"uint256","internalType":"uint256"}],"stateMutability":"nonpayable"},{"type":"function","name":"DOMAIN_SEPARATOR","inputs":[],"outputs":[{"name":"","type":"bytes32","internalType":"bytes32"}],"stateMutability":"view"},{"type":"function","name":"MAX_VALIDATORS","inputs":[],"outputs":[{"name":"","type":"uint256","internalType":"uint256"}],"stateMutability":"view"},{"type":"function","name":"REQUIRED_SIGNATURES","inputs":[],"outputs":[{"name":"","type":"uint256","internalType":"uint256"}],"stateMutability":"view"},{"type":"function","name":"addValidator","inputs":[{"name":"validator","type":"address","internalType":"address"}],"outputs":[],"stateMutability":"nonpayable"},{"type":"function","name":"allowance","inputs":[{"name":"owner","type":"address","internalType":"address"},{"name":"spender","type":"address","internalType":"address"}],"outputs":[{"name":"","type":"uint256","internalType":"uint256"}],"stateMutability":"view"},{"type":"function","name":"approve","inputs":[{"name":"spender","type":"address","internalType":"address"},{"name":"value","type":"uint256","internalType":"uint256"}],"outputs":[{"name":"","type":"bool","internalType":"bool"}],"stateMutability":"nonpayable"},{"type":"function","name":"balanceOf","inputs":[{"name":"account","type":"address","internalType":"address"}],"outputs":[{"name":"","type":"uint256","internalType":"uint256"}],"stateMutability":"view"},{"type":"function","name":"bridge","inputs":[],"outputs":[{"name":"","type":"address","internalType":"address"}],"stateMutability":"view"},{"type":"function","name":"burn","inputs":[{"name":"amount","type":"uint256","internalType":"uint256"},{"name":"bridgeTxHash","type":"bytes32","internalType":"bytes32"},{"name":"deadline","type":"uint256","internalType":"uint256"},{"name":"nonce","type":"uint256","internalType":"uint256"},{"name":"validatorSigs","type":"bytes[]","internalType":"bytes[]"}],"outputs":[],"stateMutability":"nonpayable"},{"type":"function","name":"decimals","inputs":[],"outputs":[{"name":"","type":"uint8","internalType":"uint8"}],"stateMutability":"view"},{"type":"function","name":"doubleSigThreshold","inputs":[],"outputs":[{"name":"","type":"uint256","internalType":"uint256"}],"stateMutability":"view"},{"type":"function","name":"eip712Domain","inputs":[],"outputs":[{"name":"fields","type":"bytes1","internalType":"bytes1"},{"name":"name","type":"string","internalType":"string"},{"name":"version","type":"string","internalType":"string"},{"name":"chainId","type":"uint256","internalType":"uint256"},{"name":"verifyingContract","type":"address","internalType":"address"},{"name":"salt","type":"bytes32","internalType":"bytes32"},{"name":"extensions","type":"uint256[]","internalType":"uint256[]"}],"stateMutability":"view"},{"type":"function","name":"isValidator","inputs":[{"name":"","type":"address","internalType":"address"}],"outputs":[{"name":"","type":"bool","internalType":"bool"}],"stateMutability":"view"},{"type":"function","name":"mint","inputs":[{"name":"to","type":"address","internalType":"address"},{"name":"amount","type":"uint256","internalType":"uint256"},{"name":"bridgeTxHash","type":"bytes32","internalType":"bytes32"}],"outputs":[],"stateMutability":"nonpayable"},{"type":"function","name":"mint","inputs":[{"name":"to","type":"address","internalType":"address"},{"name":"amount","type":"uint256","internalType":"uint256"},{"name":"bridgeTxHash","type":"bytes32","internalType":"bytes32"},{"name":"deadline","type":"uint256","internalType":"uint256"},{"name":"nonce","type":"uint256","internalType":"uint256"},{"name":"validatorSigs","type":"bytes[]","internalType":"bytes[]"}],"outputs":[],"stateMutability":"nonpayable"},{"type":"function","name":"mintCap","inputs":[],"outputs":[{"name":"","type":"uint256","internalType":"uint256"}],"stateMutability":"view"},{"type":"function","name":"name","inputs":[],"outputs":[{"name":"","type":"string","internalType":"string"}],"stateMutability":"view"},{"type":"function","name":"owner","inputs":[],"outputs":[{"name":"","type":"address","internalType":"address"}],"stateMutability":"view"},{"type":"function","name":"pause","inputs":[],"outputs":[],"stateMutability":"nonpayable"},{"type":"function","name":"paused","inputs":[],"outputs":[{"name":"","type":"bool","internalType":"bool"}],"stateMutability":"view"},{"type":"function","name":"processedTxs","inputs":[{"name":"","type":"bytes32","internalType":"bytes32"}],"outputs":[{"name":"","type":"bool","internalType":"bool"}],"stateMutability":"view"},{"type":"function","name":"removeValidator","inputs":[{"name":"validator","type":"address","internalType":"address"}],"outputs":[],"stateMutability":"nonpayable"},{"type":"function","name":"renounceOwnership","inputs":[],"outputs":[],"stateMutability":"nonpayable"},{"type":"function","name":"setBridge","inputs":[{"name":"_bridge","type":"address","internalType":"address"}],"outputs":[],"stateMutability":"nonpayable"},{"type":"function","name":"setDoubleSigThreshold","inputs":[{"name":"newThreshold","type":"uint256","internalType":"uint256"}],"outputs":[],"stateMutability":"nonpayable"},{"type":"function","name":"setMintCap","inputs":[{"name":"_mintCap","type":"uint256","internalType":"uint256"}],"outputs":[],"stateMutability":"nonpayable"},{"type":"function","name":"symbol","inputs":[],"outputs":[{"name":"","type":"string","internalType":"string"}],"stateMutability":"view"},{"type":"function","name":"totalBridged","inputs":[],"outputs":[{"name":"","type":"uint256","internalType":"uint256"}],"stateMutability":"view"},{"type":"function","name":"totalSupply","inputs":[],"outputs":[{"name":"","type":"uint256","internalType":"uint256"}],"stateMutability":"view"},{"type":"function","name":"transfer","inputs":[{"name":"to","type":"address","internalType":"address"},{"name":"value","type":"uint256","internalType":"uint256"}],"outputs":[{"name":"","type":"bool","internalType":"bool"}],"stateMutability":"nonpayable"},{"type":"function","name":"transferFrom","inputs":[{"name":"from","type":"address","internalType":"address"},{"name":"to","type":"address","internalType":"address"},{"name":"value","type":"uint256","internalType":"uint256"}],"outputs":[{"name":"","type":"bool","internalType":"bool"}],"stateMutability":"nonpayable"},{"type":"function","name":"transferOwnership","inputs":[{"name":"newOwner","type":"address","internalType":"address"}],"outputs":[],"stateMutability":"nonpayable"},{"type":"function","name":"unpause","inputs":[],"outputs":[],"stateMutability":"nonpayable"},{"type":"function","name":"validatorCount","inputs":[],"outputs":[{"name":"","type":"uint256","internalType":"uint256"}],"stateMutability":"view"},{"type":"function","name":"validators","inputs":[{"name":"","type":"uint256","internalType":"uint256"}],"outputs":[{"name":"","type":"address","internalType":"address"}],"stateMutability":"view"},{"type":"function","name":"verifySignatures","inputs":[{"name":"digest","type":"bytes32","internalType":"bytes32"},{"name":"signatures","type":"bytes[]","internalType":"bytes[]"}],"outputs":[{"name":"valid","type":"bool","internalType":"bool"}],"stateMutability":"view"},{"type":"event","name":"Approval","inputs":[{"name":"owner","type":"address","indexed":true,"internalType":"address"},{"name":"spender","type":"address","indexed":true,"internalType":"address"},{"name":"value","type":"uint256","indexed":false,"internalType":"uint256"}],"anonymous":false},{"type":"event","name":"Burn","inputs":[{"name":"from","type":"address","indexed":true,"internalType":"address"},{"name":"amount","type":"uint256","indexed":false,"internalType":"uint256"},{"name":"bridgeTxHash","type":"bytes32","indexed":true,"internalType":"bytes32"}],"anonymous":false},{"type":"event","name":"EIP712DomainChanged","inputs":[],"anonymous":false},{"type":"event","name":"Mint","inputs":[{"name":"to","type":"address","indexed":true,"internalType":"address"},{"name":"amount","type":"uint256","indexed":false,"internalType":"uint256"},{"name":"bridgeTxHash","type":"bytes32","indexed":true,"internalType":"bytes32"}],"anonymous":false},{"type":"event","name":"OwnershipTransferred","inputs":[{"name":"previousOwner","type":"address","indexed":true,"internalType":"address"},{"name":"newOwner","type":"address","indexed":true,"internalType":"address"}],"anonymous":false},{"type":"event","name":"Paused","inputs":[{"name":"account","type":"address","indexed":false,"internalType":"address"}],"anonymous":false},{"type":"event","name":"ThresholdUpdated","inputs":[{"name":"oldThreshold","type":"uint256","indexed":false,"internalType":"uint256"},{"name":"newThreshold","type":"uint256","indexed":false,"internalType":"uint256"}],"anonymous":false},{"type":"event","name":"Transfer","inputs":[{"name":"from","type":"address","indexed":true,"internalType":"address"},{"name":"to","type":"address","indexed":true,"internalType":"address"},{"name":"value","type":"uint256","indexed":false,"internalType":"uint256"}],"anonymous":false},{"type":"event","name":"Unpaused","inputs":[{"name":"account","type":"address","indexed":false,"internalType":"address"}],"anonymous":false},{"type":"event","name":"ValidatorAdded","inputs":[{"name":"validator","type":"address","indexed":true,"internalType":"address"}],"anonymous":false},{"type":"event","name":"ValidatorRemoved","inputs":[{"name":"validator","type":"address","indexed":true,"internalType":"address"}],"anonymous":false},{"type":"error","name":"AlreadyValidator","inputs":[]},{"type":"error","name":"ECDSAInvalidSignature","inputs":[]},{"type":"error","name":"ECDSAInvalidSignatureLength","inputs":[{"name":"length","type":"uint256","internalType":"uint256"}]},{"type":"error","name":"ECDSAInvalidSignatureS","inputs":[{"name":"s","type":"bytes32","internalType":"bytes32"}]},{"type":"error","name":"ERC20InsufficientAllowance","inputs":[{"name":"spender","type":"address","internalType":"address"},{"name":"allowance","type":"uint256","internalType":"uint256"},{"name":"needed","type":"uint256","internalType":"uint256"}]},{"type":"error","name":"ERC20InsufficientBalance","inputs":[{"name":"sender","type":"address","internalType":"address"},{"name":"balance","type":"uint256","internalType":"uint256"},{"name":"needed","type":"uint256","internalType":"uint256"}]},{"type":"error","name":"ERC20InvalidApprover","inputs":[{"name":"approver","type":"address","internalType":"address"}]},{"type":"error","name":"ERC20InvalidReceiver","inputs":[{"name":"receiver","type":"address","internalType":"address"}]},{"type":"error","name":"ERC20InvalidSender","inputs":[{"name":"sender","type":"address","internalType":"address"}]},{"type":"error","name":"ERC20InvalidSpender","inputs":[{"name":"spender","type":"address","internalType":"address"}]},{"type":"error","name":"EnforcedPause","inputs":[]},{"type":"error","name":"ExceedsMintCap","inputs":[{"name":"requested","type":"uint256","internalType":"uint256"},{"name":"cap","type":"uint256","internalType":"uint256"}]},{"type":"error","name":"ExpectedPause","inputs":[]},{"type":"error","name":"InsufficientValidatorSignatures","inputs":[{"name":"required","type":"uint256","internalType":"uint256"},{"name":"provided","type":"uint256","internalType":"uint256"}]},{"type":"error","name":"InvalidAmount","inputs":[]},{"type":"error","name":"InvalidDeadline","inputs":[{"name":"deadline","type":"uint256","internalType":"uint256"}]},{"type":"error","name":"InvalidShortString","inputs":[]},{"type":"error","name":"NotAValidator","inputs":[]},{"type":"error","name":"NotBridge","inputs":[]},{"type":"error","name":"OwnableInvalidOwner","inputs":[{"name":"owner","type":"address","internalType":"address"}]},{"type":"error","name":"OwnableUnauthorizedAccount","inputs":[{"name":"account","type":"address","internalType":"address"}]},{"type":"error","name":"StringTooLong","inputs":[{"name":"str","type":"string","internalType":"string"}]},{"type":"error","name":"TooManyValidators","inputs":[]},{"type":"error","name":"TxAlreadyProcessed","inputs":[{"name":"txHash","type":"bytes32","internalType":"bytes32"}]},{"type":"error","name":"ZeroAddress","inputs":[]}],"bytecode":{"object":"0x610160604052348015610010575f80fd5b506040516123ee3803806123ee83398101604081905261002f916102ce565b6040518060400160405280600a81526020016924b7b72bb930b83832b960b11b815250604051806040016040528060018152602001603160f81b815250836040518060400160405280600b81526020016a2bb930b83832b21024a7a760a91b815250604051806040016040528060048152602001633ba4a7a760e11b81525081600390816100bd919061039f565b5060046100ca828261039f565b5050506001600160a01b0381166100fb57604051631e4fbdf760e01b81525f60048201526024015b60405180910390fd5b610104816101f3565b50610110826006610244565b6101205261011f816007610244565b61014052815160208084019190912060e052815190820120610100524660a0526101ab60e05161010051604080517f8b73c3c69bb8fe3d512ecc4cf759cc79239f7b179b0ffacaa9a75d522b39400f60208201529081019290925260608201524660808201523060a08201525f9060c00160405160208183030381529060405280519060200120905090565b60805250503060c052600880546001600160a01b0319166001600160a01b038516179055600a81905569021e19e0c9bab2400000600e556101eb826101f3565b5050506104b1565b600580546001600160a01b038381166001600160a01b0319831681179093556040519116919082907f8be0079c531659141344cd1fd0a4f28419497f9722a3daafe3b4186f6b6457e0905f90a35050565b5f60208351101561025f5761025883610276565b9050610270565b8161026a848261039f565b5060ff90505b92915050565b5f80829050601f815111156102a0578260405163305a27a960e01b81526004016100f29190610459565b80516102ab8261048e565b179392505050565b80516001600160a01b03811681146102c9575f80fd5b919050565b5f805f606084860312156102e0575f80fd5b6102e9846102b3565b92506102f7602085016102b3565b9150604084015190509250925092565b634e487b7160e01b5f52604160045260245ffd5b600181811c9082168061032f57607f821691505b60208210810361034d57634e487b7160e01b5f52602260045260245ffd5b50919050565b601f82111561039a57805f5260205f20601f840160051c810160208510156103785750805b601f840160051c820191505b81811015610397575f8155600101610384565b50505b505050565b81516001600160401b038111156103b8576103b8610307565b6103cc816103c6845461031b565b84610353565b6020601f8211600181146103fe575f83156103e75750848201515b5f19600385901b1c1916600184901b178455610397565b5f84815260208120601f198516915b8281101561042d578785015182556020948501946001909201910161040d565b508482101561044a57868401515f19600387901b60f8161c191681555b50505050600190811b01905550565b602081525f82518060208401528060208501604085015e5f604082850101526040601f19601f83011684010191505092915050565b8051602080830151919081101561034d575f1960209190910360031b1b16919050565b60805160a05160c05160e051610100516101205161014051611eec6105025f395f61142601525f6113f901525f6110ce01525f6110a601525f61100101525f61102b01525f6110550152611eec5ff3fe608060405234801561000f575f80fd5b5060043610610213575f3560e01c8063715018a61161011f5780639ac18b19116100a9578063dd62ed3e11610079578063dd62ed3e14610447578063e78cea921461047f578063f07a1f9714610492578063f2fde38b146104a5578063facd743b146104b8575f80fd5b80639ac18b19146104015780639e16f21714610409578063a9059cbb1461042b578063d0280b951461043e575f80fd5b80638456cb59116100ef5780638456cb59146103b257806384b0196e146103ba5780638da5cb5b146103d55780638dd14802146103e657806395d89b41146103f9575f80fd5b8063715018a61461037b5780637351ae851461038357806376c71ca1146103965780637f09399b1461039f575f80fd5b80633644e515116101a05780634d238c8e116101705780634d238c8e1461031d5780635c975abb1461033057806367a1791a1461034257806370a082311461034b578063714897df14610373575f80fd5b80633644e515146102e75780633f4ba83a146102ef5780634070a0c9146102f757806340a141ff1461030a575f80fd5b806318160ddd116101e657806318160ddd1461027d5780631e458bee1461028557806323b872dd1461029a578063313ce567146102ad57806335aa2e44146102bc575f80fd5b806306fdde0314610217578063095ea7b3146102355780630a5c54b3146102585780630f43a6771461026b575b5f80fd5b61021f6104da565b60405161022c9190611a72565b60405180910390f35b610248610243366004611aa6565b61056a565b604051901515815260200161022c565b610248610266366004611b16565b610583565b600c545b60405190815260200161022c565b60025461026f565b610298610293366004611b5e565b61059b565b005b6102486102a8366004611b8e565b61071e565b6040516012815260200161022c565b6102cf6102ca366004611bc8565b610741565b6040516001600160a01b03909116815260200161022c565b61026f610769565b610298610777565b610298610305366004611bc8565b610789565b610298610318366004611bdf565b610796565b61029861032b366004611bdf565b610915565b600554600160a01b900460ff16610248565b61026f600b5481565b61026f610359366004611bdf565b6001600160a01b03165f9081526020819052604090205490565b61026f600a81565b610298610a2e565b610298610391366004611bc8565b610a3f565b61026f600a5481565b6102986103ad366004611bf8565b610a88565b610298610ad3565b6103c2610ae3565b60405161022c9796959493929190611c6d565b6005546001600160a01b03166102cf565b6102986103f4366004611bdf565b610b25565b61021f610b4f565b61026f600281565b610248610417366004611bc8565b60096020525f908152604090205460ff1681565b610248610439366004611aa6565b610b5e565b61026f600e5481565b61026f610455366004611d03565b6001600160a01b039182165f90815260016020908152604080832093909416825291909152205490565b6008546102cf906001600160a01b031681565b6102986104a0366004611d34565b610b6b565b6102986104b3366004611bdf565b610cd8565b6102486104c6366004611bdf565b600d6020525f908152604090205460ff1681565b6060600380546104e990611d99565b80601f016020809104026020016040519081016040528092919081815260200182805461051590611d99565b80156105605780601f1061053757610100808354040283529160200191610560565b820191905f5260205f20905b81548152906001019060200180831161054357829003601f168201915b5050505050905090565b5f33610577818585610d15565b60019150505b92915050565b5f6002610591858585610d27565b1015949350505050565b6008546001600160a01b031633146105c657604051637fea9dc560e01b815260040160405180910390fd5b6105ce610eb9565b815f036105ee5760405163162908e360e11b815260040160405180910390fd5b5f8181526009602052604090205460ff16156106255760405163060b240160e51b8152600481018290526024015b60405180910390fd5b5f600a541180156106445750600a5482600b546106429190611de5565b115b1561067057600a546040516317b07de960e01b815261061c918491600401918252602082015260400190565b600e54821061069b57604051632cc3009160e21b8152600260048201525f602482015260440161061c565b5f818152600960205260408120805460ff19166001179055600b80548492906106c5908490611de5565b909155506106d590508383610ee4565b80836001600160a01b03167f3dec94b8abc8f801eaade1616d3aadd3114b556a284267905e0a053b2df398928460405161071191815260200190565b60405180910390a3505050565b5f3361072b858285610f1c565b610736858585610f98565b506001949350505050565b600c8181548110610750575f80fd5b5f918252602090912001546001600160a01b0316905081565b5f610772610ff5565b905090565b61077f61111e565b61078761114b565b565b61079161111e565b600a55565b61079e61111e565b6001600160a01b0381165f908152600d602052604090205460ff166107d657604051632b61b79760e01b815260040160405180910390fd5b5f5b600c548110156108cc57816001600160a01b0316600c82815481106107ff576107ff611df8565b5f918252602090912001546001600160a01b0316036108c457600c805461082890600190611e0c565b8154811061083857610838611df8565b5f91825260209091200154600c80546001600160a01b03909216918390811061086357610863611df8565b905f5260205f20015f6101000a8154816001600160a01b0302191690836001600160a01b03160217905550600c80548061089f5761089f611e1f565b5f8281526020902081015f1990810180546001600160a01b03191690550190556108cc565b6001016107d8565b506001600160a01b0381165f818152600d6020526040808220805460ff19169055517fe1434e25d6611e0db941968fdc97811c982ac1602e951637d206f5fdda9dd8f19190a250565b61091d61111e565b6001600160a01b0381166109445760405163d92e233d60e01b815260040160405180910390fd5b6001600160a01b0381165f908152600d602052604090205460ff161561097d576040516320e8cb6760e21b815260040160405180910390fd5b600c54600a116109a057604051630aee15d760e21b815260040160405180910390fd5b600c805460018082019092557fdf6966c971051c3d54ec59162606531493a51404a002842f56009d7e5cf4a8c70180546001600160a01b0319166001600160a01b0384169081179091555f818152600d6020526040808220805460ff1916909417909355915190917fe366c1c0452ed8eec96861e9e54141ebff23c9ec89fe27b996b45f5ec388498791a250565b610a3661111e565b6107875f6111a0565b610a4761111e565b600e5460408051918252602082018390527fb06a54caabe58475c86c2bf9df3f2f06dd1213e9e10659c293117fe4893b274b910160405180910390a1600e55565b6008546001600160a01b03163314610ab357604051637fea9dc560e01b815260040160405180910390fd5b610abb610eb9565b610aca878787878787876111f1565b50505050505050565b610adb61111e565b6107876113af565b5f6060805f805f6060610af46113f2565b610afc61141f565b604080515f80825260208201909252600f60f81b9b939a50919850469750309650945092509050565b610b2d61111e565b600880546001600160a01b0319166001600160a01b0392909216919091179055565b6060600480546104e990611d99565b5f33610577818585610f98565b610b73610eb9565b855f03610b935760405163162908e360e11b815260040160405180910390fd5b5f8581526009602052604090205460ff1615610bc55760405163060b240160e51b81526004810186905260240161061c565b600e548610610c5f5783421115610bf2576040516309decb5d60e21b81526004810185905260240161061c565b5f610c20338887877fdeb3c81f77bb20e4cffe26cbecf890ea1318bcece22b2ebb1bb93af130c3638061144c565b90505f610c2e828585610d27565b90506002811015610c5c57604051632cc3009160e21b8152600260048201526024810182905260440161061c565b50505b5f858152600960205260408120805460ff19166001179055600b8054889290610c89908490611e0c565b90915550610c99905033876114d1565b604051868152859033907fc6c4132f6250531f66c30d176444d900432e0ff7bb9e3e4ef8c8b336702184199060200160405180910390a3505050505050565b610ce061111e565b6001600160a01b038116610d0957604051631e4fbdf760e01b81525f600482015260240161061c565b610d12816111a0565b50565b610d228383836001611505565b505050565b5f808267ffffffffffffffff811115610d4257610d42611e33565b604051908082528060200260200182016040528015610d6b578160200160208202803683370190505b5090505f805b84811015610eaf575f610ddd878784818110610d8f57610d8f611df8565b9050602002810190610da19190611e47565b8080601f0160208091040260200160405190810160405280939291908181526020018383808284375f920191909152508c939250506115d79050565b6001600160a01b0381165f908152600d602052604090205490915060ff16610e055750610ea7565b5f805b84811015610e5357826001600160a01b0316868281518110610e2c57610e2c611df8565b60200260200101516001600160a01b031603610e4b5760019150610e53565b600101610e08565b508015610e61575050610ea7565b818585610e6d81611e8a565b965081518110610e7f57610e7f611df8565b6001600160a01b039092166020928302919091019091015285610ea181611e8a565b96505050505b600101610d71565b5050509392505050565b600554600160a01b900460ff16156107875760405163d93c066560e01b815260040160405180910390fd5b6001600160a01b038216610f0d5760405163ec442f0560e01b81525f600482015260240161061c565b610f185f83836115ff565b5050565b6001600160a01b038381165f908152600160209081526040808320938616835292905220545f19811015610f925781811015610f8457604051637dc7a0d960e11b81526001600160a01b0384166004820152602481018290526044810183905260640161061c565b610f9284848484035f611505565b50505050565b6001600160a01b038316610fc157604051634b637e8f60e11b81525f600482015260240161061c565b6001600160a01b038216610fea5760405163ec442f0560e01b81525f600482015260240161061c565b610d228383836115ff565b5f306001600160a01b037f00000000000000000000000000000000000000000000000000000000000000001614801561104d57507f000000000000000000000000000000000000000000000000000000000000000046145b1561107757507f000000000000000000000000000000000000000000000000000000000000000090565b610772604080517f8b73c3c69bb8fe3d512ecc4cf759cc79239f7b179b0ffacaa9a75d522b39400f60208201527f0000000000000000000000000000000000000000000000000000000000000000918101919091527f000000000000000000000000000000000000000000000000000000000000000060608201524660808201523060a08201525f9060c00160405160208183030381529060405280519060200120905090565b6005546001600160a01b031633146107875760405163118cdaa760e01b815233600482015260240161061c565b611153611718565b6005805460ff60a01b191690557f5db9ee0a495bf2e6ff9c91a7834c1ba4fdd244a5e8aa4e537bd38aeae4b073aa335b6040516001600160a01b03909116815260200160405180910390a1565b600580546001600160a01b038381166001600160a01b0319831681179093556040519116919082907f8be0079c531659141344cd1fd0a4f28419497f9722a3daafe3b4186f6b6457e0905f90a35050565b855f036112115760405163162908e360e11b815260040160405180910390fd5b5f8581526009602052604090205460ff16156112435760405163060b240160e51b81526004810186905260240161061c565b5f600a541180156112625750600a5486600b546112609190611de5565b115b1561128e57600a546040516317b07de960e01b815261061c918891600401918252602082015260400190565b600e54861061132857834211156112bb576040516309decb5d60e21b81526004810185905260240161061c565b5f6112e9888887877fe206477e510f588a59edd9e741f27e025275cb4524e1c1e239ef0909549f6dfc61144c565b90505f6112f7828585610d27565b9050600281101561132557604051632cc3009160e21b8152600260048201526024810182905260440161061c565b50505b5f858152600960205260408120805460ff19166001179055600b8054889290611352908490611de5565b9091555061136290508787610ee4565b84876001600160a01b03167f3dec94b8abc8f801eaade1616d3aadd3114b556a284267905e0a053b2df398928860405161139e91815260200190565b60405180910390a350505050505050565b6113b7610eb9565b6005805460ff60a01b1916600160a01b1790557f62e78cea01bee320cd4e420270b5ea74000d11b0c9f74754ebdbfc544b05a2586111833390565b60606107727f00000000000000000000000000000000000000000000000000000000000000006006611742565b60606107727f00000000000000000000000000000000000000000000000000000000000000006007611742565b604080517f7cee1b41cb3a5b22b8b88518f2feda332a8473d00ae67808e37bd85317fb044560208201526001600160a01b03871691810191909152606081018590526080810184905260a0810183905260c081018290525f906114c79060e001604051602081830303815290604052805190602001206117eb565b9695505050505050565b6001600160a01b0382166114fa57604051634b637e8f60e11b81525f600482015260240161061c565b610f18825f836115ff565b6001600160a01b03841661152e5760405163e602df0560e01b81525f600482015260240161061c565b6001600160a01b03831661155757604051634a1406b160e11b81525f600482015260240161061c565b6001600160a01b038085165f9081526001602090815260408083209387168352929052208290558015610f9257826001600160a01b0316846001600160a01b03167f8c5be1e5ebec7d5bd14f71427d1e84f3dd0314c0f7b2291e5b200ac8c7c3b925846040516115c991815260200190565b60405180910390a350505050565b5f805f806115e58686611817565b9250925092506115f58282611860565b5090949350505050565b6001600160a01b038316611629578060025f82825461161e9190611de5565b909155506116999050565b6001600160a01b0383165f908152602081905260409020548181101561167b5760405163391434e360e21b81526001600160a01b0385166004820152602481018290526044810183905260640161061c565b6001600160a01b0384165f9081526020819052604090209082900390555b6001600160a01b0382166116b5576002805482900390556116d3565b6001600160a01b0382165f9081526020819052604090208054820190555b816001600160a01b0316836001600160a01b03167fddf252ad1be2c89b69c2b068fc378daa952ba7f163c4a11628f55a4df523b3ef8360405161071191815260200190565b600554600160a01b900460ff1661078757604051638dfc202b60e01b815260040160405180910390fd5b606060ff831461175c5761175583611918565b905061057d565b81805461176890611d99565b80601f016020809104026020016040519081016040528092919081815260200182805461179490611d99565b80156117df5780601f106117b6576101008083540402835291602001916117df565b820191905f5260205f20905b8154815290600101906020018083116117c257829003601f168201915b5050505050905061057d565b5f61057d6117f7610ff5565b8360405161190160f01b8152600281019290925260228201526042902090565b5f805f835160410361184e576020840151604085015160608601515f1a61184088828585611955565b955095509550505050611859565b505081515f91506002905b9250925092565b5f82600381111561187357611873611ea2565b0361187c575050565b600182600381111561189057611890611ea2565b036118ae5760405163f645eedf60e01b815260040160405180910390fd5b60028260038111156118c2576118c2611ea2565b036118e35760405163fce698f760e01b81526004810182905260240161061c565b60038260038111156118f7576118f7611ea2565b03610f18576040516335e2f38360e21b81526004810182905260240161061c565b60605f61192483611a1d565b6040805160208082528183019092529192505f91906020820181803683375050509182525060208101929092525090565b5f80807f7fffffffffffffffffffffffffffffff5d576e7357a4501ddfe92f46681b20a084111561198e57505f91506003905082611a13565b604080515f808252602082018084528a905260ff891692820192909252606081018790526080810186905260019060a0016020604051602081039080840390855afa1580156119df573d5f803e3d5ffd5b5050604051601f1901519150506001600160a01b038116611a0a57505f925060019150829050611a13565b92505f91508190505b9450945094915050565b5f60ff8216601f81111561057d57604051632cd44ac360e21b815260040160405180910390fd5b5f81518084528060208401602086015e5f602082860101526020601f19601f83011685010191505092915050565b602081525f611a846020830184611a44565b9392505050565b80356001600160a01b0381168114611aa1575f80fd5b919050565b5f8060408385031215611ab7575f80fd5b611ac083611a8b565b946020939093013593505050565b5f8083601f840112611ade575f80fd5b50813567ffffffffffffffff811115611af5575f80fd5b6020830191508360208260051b8501011115611b0f575f80fd5b9250929050565b5f805f60408486031215611b28575f80fd5b83359250602084013567ffffffffffffffff811115611b45575f80fd5b611b5186828701611ace565b9497909650939450505050565b5f805f60608486031215611b70575f80fd5b611b7984611a8b565b95602085013595506040909401359392505050565b5f805f60608486031215611ba0575f80fd5b611ba984611a8b565b9250611bb760208501611a8b565b929592945050506040919091013590565b5f60208284031215611bd8575f80fd5b5035919050565b5f60208284031215611bef575f80fd5b611a8482611a8b565b5f805f805f805f60c0888a031215611c0e575f80fd5b611c1788611a8b565b96506020880135955060408801359450606088013593506080880135925060a088013567ffffffffffffffff811115611c4e575f80fd5b611c5a8a828b01611ace565b989b979a50959850939692959293505050565b60ff60f81b8816815260e060208201525f611c8b60e0830189611a44565b8281036040840152611c9d8189611a44565b606084018890526001600160a01b038716608085015260a0840186905283810360c0850152845180825260208087019350909101905f5b81811015611cf2578351835260209384019390920191600101611cd4565b50909b9a5050505050505050505050565b5f8060408385031215611d14575f80fd5b611d1d83611a8b565b9150611d2b60208401611a8b565b90509250929050565b5f805f805f8060a08789031215611d49575f80fd5b86359550602087013594506040870135935060608701359250608087013567ffffffffffffffff811115611d7b575f80fd5b611d8789828a01611ace565b979a9699509497509295939492505050565b600181811c90821680611dad57607f821691505b602082108103611dcb57634e487b7160e01b5f52602260045260245ffd5b50919050565b634e487b7160e01b5f52601160045260245ffd5b8082018082111561057d5761057d611dd1565b634e487b7160e01b5f52603260045260245ffd5b8181038181111561057d5761057d611dd1565b634e487b7160e01b5f52603160045260245ffd5b634e487b7160e01b5f52604160045260245ffd5b5f808335601e19843603018112611e5c575f80fd5b83018035915067ffffffffffffffff821115611e76575f80fd5b602001915036819003821315611b0f575f80fd5b5f60018201611e9b57611e9b611dd1565b5060010190565b634e487b7160e01b5f52602160045260245ffdfea2646970667358221220c52a94401fdb0c6046a809525a70e58b475278e49fd63e19d08c4abd7e04299f64736f6c634300081a0033","linkReferences":{}},"methodIdentifiers":{"DOMAIN_SEPARATOR()":"3644e515","MAX_VALIDATORS()":"714897df","REQUIRED_SIGNATURES()":"9ac18b19","addValidator(address)":"4d238c8e","allowance(address,address)":"dd62ed3e","approve(address,uint256)":"095ea7b3","balanceOf(address)":"70a08231","bridge()":"e78cea92","burn(uint256,bytes32,uint256,uint256,bytes[])":"f07a1f97","decimals()":"313ce567","doubleSigThreshold()":"d0280b95","eip712Domain()":"84b0196e","isValidator(address)":"facd743b","mint(address,uint256,bytes32)":"1e458bee","mint(address,uint256,bytes32,uint256,uint256,bytes[])":"7f09399b","mintCap()":"76c71ca1","name()":"06fdde03","owner()":"8da5cb5b","pause()":"8456cb59","paused()":"5c975abb","processedTxs(bytes32)":"9e16f217","removeValidator(address)":"40a141ff","renounceOwnership()":"715018a6","setBridge(address)":"8dd14802","setDoubleSigThreshold(uint256)":"7351ae85","setMintCap(uint256)":"4070a0c9","symbol()":"95d89b41","totalBridged()":"67a1791a","totalSupply()":"18160ddd","transfer(address,uint256)":"a9059cbb","transferFrom(address,address,uint256)":"23b872dd","transferOwnership(address)":"f2fde38b","unpause()":"3f4ba83a","validatorCount()":"0f43a677","validators(uint256)":"35aa2e44","verifySignatures(bytes32,bytes[])":"0a5c54b3"},"id":57}