{"abi":[{"type":"constructor","inputs":[{"name":"owner_","type":"address","internalType":"address"},{"name":"ionToken_","type":"address","internalType":"address"},{"name":"treasury_","type":"address","internalType":"address"},{"name":"team_","type":"address","internalType":"address"},{"name":"stakingRewards_","type":"address","internalType":"address"},{"name":"keeper_","type":"address","internalType":"address"}],"stateMutability":"nonpayable"},{"type":"function","name":"BPS_BURN","inputs":[],"outputs":[{"name":"","type":"uint256","internalType":"uint256"}],"stateMutability":"view"},{"type":"function","name":"BPS_KEEPER","inputs":[],"outputs":[{"name":"","type":"uint256","internalType":"uint256"}],"stateMutability":"view"},{"type":"function","name":"BPS_STAKING","inputs":[],"outputs":[{"name":"","type":"uint256","internalType":"uint256"}],"stateMutability":"view"},{"type":"function","name":"BPS_TEAM","inputs":[],"outputs":[{"name":"","type":"uint256","internalType":"uint256"}],"stateMutability":"view"},{"type":"function","name":"BPS_TREASURY","inputs":[],"outputs":[{"name":"","type":"uint256","internalType":"uint256"}],"stateMutability":"view"},{"type":"function","name":"BSC_BURN_ADDRESS","inputs":[],"outputs":[{"name":"","type":"address","internalType":"address"}],"stateMutability":"view"},{"type":"function","name":"FEE_DENOMINATOR","inputs":[],"outputs":[{"name":"","type":"uint256","internalType":"uint256"}],"stateMutability":"view"},{"type":"function","name":"distributeFees","inputs":[{"name":"token","type":"address","internalType":"address"},{"name":"amount","type":"uint256","internalType":"uint256"}],"outputs":[],"stateMutability":"nonpayable"},{"type":"function","name":"ionToken","inputs":[],"outputs":[{"name":"","type":"address","internalType":"address"}],"stateMutability":"view"},{"type":"function","name":"keeper","inputs":[],"outputs":[{"name":"","type":"address","internalType":"address"}],"stateMutability":"view"},{"type":"function","name":"owner","inputs":[],"outputs":[{"name":"","type":"address","internalType":"address"}],"stateMutability":"view"},{"type":"function","name":"setDestinations","inputs":[{"name":"treasury_","type":"address","internalType":"address"},{"name":"team_","type":"address","internalType":"address"},{"name":"stakingRewards_","type":"address","internalType":"address"},{"name":"keeper_","type":"address","internalType":"address"}],"outputs":[],"stateMutability":"nonpayable"},{"type":"function","name":"stakingRewards","inputs":[],"outputs":[{"name":"","type":"address","internalType":"address"}],"stateMutability":"view"},{"type":"function","name":"team","inputs":[],"outputs":[{"name":"","type":"address","internalType":"address"}],"stateMutability":"view"},{"type":"function","name":"treasury","inputs":[],"outputs":[{"name":"","type":"address","internalType":"address"}],"stateMutability":"view"},{"type":"event","name":"DestinationsUpdated","inputs":[{"name":"treasury","type":"address","indexed":false,"internalType":"address"},{"name":"team","type":"address","indexed":false,"internalType":"address"},{"name":"stakingRewards","type":"address","indexed":false,"internalType":"address"},{"name":"keeper","type":"address","indexed":false,"internalType":"address"}],"anonymous":false},{"type":"event","name":"FeeDistributed","inputs":[{"name":"token","type":"address","indexed":true,"internalType":"address"},{"name":"amount","type":"uint256","indexed":false,"internalType":"uint256"},{"name":"toBurn","type":"uint256","indexed":false,"internalType":"uint256"},{"name":"toTeam","type":"uint256","indexed":false,"internalType":"uint256"},{"name":"toStaking","type":"uint256","indexed":false,"internalType":"uint256"},{"name":"toTreasury","type":"uint256","indexed":false,"internalType":"uint256"},{"name":"toKeeper","type":"uint256","indexed":false,"internalType":"uint256"}],"anonymous":false},{"type":"error","name":"IonDexBpsInvalid","inputs":[]},{"type":"error","name":"IonDexOnlyIon","inputs":[]},{"type":"error","name":"IonDexTokenTransferFailed","inputs":[]},{"type":"error","name":"IonDexUnauthorized","inputs":[]},{"type":"error","name":"IonDexZeroAddress","inputs":[]},{"type":"error","name":"IonDexZeroAmount","inputs":[]}],"bytecode":{"object":"0x60a060405234801562000010575f80fd5b5060405162000b0338038062000b038339810160408190526200003391620001b6565b6001600160a01b03861615806200005157506001600160a01b038516155b1562000070576040516394844c1960e01b815260040160405180910390fd5b6001600160a01b03841615806200008e57506001600160a01b038316155b80620000a157506001600160a01b038216155b80620000b457506001600160a01b038116155b15620000d3576040516394844c1960e01b815260040160405180910390fd5b6127106101f46105dc6107d0620000ef6109c4610dac62000233565b620000fb919062000233565b62000107919062000233565b62000113919062000233565b146200013257604051635885036f60e01b815260040160405180910390fd5b5f80546001600160a01b03199081166001600160a01b0398891617909155948616608052600180548616948716949094179093556002805485169286169290921790915560038054841691851691909117905560048054909216921691909117905562000259565b80516001600160a01b0381168114620001b1575f80fd5b919050565b5f805f805f8060c08789031215620001cc575f80fd5b620001d7876200019a565b9550620001e7602088016200019a565b9450620001f7604088016200019a565b935062000207606088016200019a565b925062000217608088016200019a565b91506200022760a088016200019a565b90509295509295509295565b808201808211156200025357634e487b7160e01b5f52601160045260245ffd5b92915050565b60805161088a620002795f395f81816101c40152610234015261088a5ff3fe608060405234801561000f575f80fd5b50600436106100f0575f3560e01c806385f2aef211610093578063b0b5df6c11610063578063b0b5df6c146101bf578063d73792a9146101e6578063d87b976b146101ef578063ededa9c714610202575f80fd5b806385f2aef21461017e5780638da5cb5b146101915780639aa8c617146101a3578063aced1661146101ac575f80fd5b806348fef595116100ce57806348fef5951461013a57806361d027b31461014f57806364b87a70146101625780637013626b14610175575f80fd5b806308e4298c146100f45780632288391a14610110578063403fc6db14610119575b5f80fd5b6100fd610dac81565b6040519081526020015b60405180910390f35b6100fd6105dc81565b61012261dead81565b6040516001600160a01b039091168152602001610107565b61014d610148366004610752565b61020b565b005b600154610122906001600160a01b031681565b600354610122906001600160a01b031681565b6100fd6101f481565b600254610122906001600160a01b031681565b5f54610122906001600160a01b031681565b6100fd6107d081565b600454610122906001600160a01b031681565b6101227f000000000000000000000000000000000000000000000000000000000000000081565b6100fd61271081565b61014d6101fd36600461077a565b610514565b6100fd6109c481565b6001600160a01b038216610232576040516394844c1960e01b815260040160405180910390fd5b7f00000000000000000000000000000000000000000000000000000000000000006001600160a01b0316826001600160a01b03161461028457604051630f859a9160e21b815260040160405180910390fd5b805f036102a4576040516377b0874f60e11b815260040160405180910390fd5b6102b082333084610638565b6102cd5760405163363b9cef60e21b815260040160405180910390fd5b5f6127106102dd610dac846107df565b6102e791906107fc565b90505f6127106102f96109c4856107df565b61030391906107fc565b90505f6127106103156107d0866107df565b61031f91906107fc565b90505f6127106103316105dc876107df565b61033b91906107fc565b90505f81838561034b888a61081b565b610355919061081b565b61035f919061081b565b610369919061081b565b90505f8511801561038457506103828761dead876106bc565b155b156103a25760405163363b9cef60e21b815260040160405180910390fd5b5f841180156103c657506002546103c49088906001600160a01b0316866106bc565b155b156103e45760405163363b9cef60e21b815260040160405180910390fd5b5f8311801561040857506003546104069088906001600160a01b0316856106bc565b155b156104265760405163363b9cef60e21b815260040160405180910390fd5b5f8211801561044a57506001546104489088906001600160a01b0316846106bc565b155b156104685760405163363b9cef60e21b815260040160405180910390fd5b5f8111801561048c575060045461048a9088906001600160a01b0316836106bc565b155b156104aa5760405163363b9cef60e21b815260040160405180910390fd5b6040805187815260208101879052908101859052606081018490526080810183905260a081018290526001600160a01b038816907fe205594824e0b766055113357eb9ca852cce628f1cd9cd5672527343a4e469079060c00160405180910390a250505050505050565b5f546001600160a01b0316331461053e576040516326392e5760e11b815260040160405180910390fd5b6001600160a01b038416158061055b57506001600160a01b038316155b8061056d57506001600160a01b038216155b8061057f57506001600160a01b038116155b1561059d576040516394844c1960e01b815260040160405180910390fd5b600180546001600160a01b038681166001600160a01b031992831681179093556002805487831690841681179091556003805487841690851681179091556004805493871693909416831790935560408051948552602085019190915283019190915260608201527ffa32c6e769be143dc4bdf7264b797abecb035bceb2daad462e0b198057f44b3d9060800160405180910390a150505050565b6040516323b872dd60e01b81526001600160a01b0384811660048301528381166024830152604482018390525f91908616906323b872dd906064016020604051808303815f875af115801561068f573d5f803e3d5ffd5b505050506040513d601f19601f820116820180604052508101906106b3919061082e565b95945050505050565b60405163a9059cbb60e01b81526001600160a01b038381166004830152602482018390525f919085169063a9059cbb906044016020604051808303815f875af115801561070b573d5f803e3d5ffd5b505050506040513d601f19601f8201168201806040525081019061072f919061082e565b949350505050565b80356001600160a01b038116811461074d575f80fd5b919050565b5f8060408385031215610763575f80fd5b61076c83610737565b946020939093013593505050565b5f805f806080858703121561078d575f80fd5b61079685610737565b93506107a460208601610737565b92506107b260408601610737565b91506107c060608601610737565b905092959194509250565b634e487b7160e01b5f52601160045260245ffd5b80820281158282048414176107f6576107f66107cb565b92915050565b5f8261081657634e487b7160e01b5f52601260045260245ffd5b500490565b818103818111156107f6576107f66107cb565b5f6020828403121561083e575f80fd5b8151801515811461084d575f80fd5b939250505056fea2646970667358221220be98d76a790a62a4cd554fe5f4cd3f8c32ebf6131940aa6ff9d2b1a1d153aa2264736f6c63430008180033","linkReferences":{}},"methodIdentifiers":{"BPS_BURN()":"08e4298c","BPS_KEEPER()":"7013626b","BPS_STAKING()":"9aa8c617","BPS_TEAM()":"ededa9c7","BPS_TREASURY()":"2288391a","BSC_BURN_ADDRESS()":"403fc6db","FEE_DENOMINATOR()":"d73792a9","distributeFees(address,uint256)":"48fef595","ionToken()":"b0b5df6c","keeper()":"aced1661","owner()":"8da5cb5b","setDestinations(address,address,address,address)":"d87b976b","stakingRewards()":"64b87a70","team()":"85f2aef2","treasury()":"61d027b3"},"id":7}