{"abi":[{"type":"constructor","inputs":[{"name":"owner_","type":"address","internalType":"address"},{"name":"ionToken_","type":"address","internalType":"address"},{"name":"treasury_","type":"address","internalType":"address"},{"name":"team_","type":"address","internalType":"address"},{"name":"stakingRewards_","type":"address","internalType":"address"},{"name":"keeper_","type":"address","internalType":"address"},{"name":"oracle_","type":"address","internalType":"address"},{"name":"bearThreshold_","type":"uint256","internalType":"uint256"},{"name":"bullThreshold_","type":"uint256","internalType":"uint256"}],"stateMutability":"nonpayable"},{"type":"function","name":"BPS_TEAM_IMMUTABLE","inputs":[],"outputs":[{"name":"","type":"uint256","internalType":"uint256"}],"stateMutability":"view"},{"type":"function","name":"BSC_BURN_ADDRESS","inputs":[],"outputs":[{"name":"","type":"address","internalType":"address"}],"stateMutability":"view"},{"type":"function","name":"FEE_DENOMINATOR","inputs":[],"outputs":[{"name":"","type":"uint256","internalType":"uint256"}],"stateMutability":"view"},{"type":"function","name":"bearThreshold","inputs":[],"outputs":[{"name":"","type":"uint256","internalType":"uint256"}],"stateMutability":"view"},{"type":"function","name":"bullThreshold","inputs":[],"outputs":[{"name":"","type":"uint256","internalType":"uint256"}],"stateMutability":"view"},{"type":"function","name":"currentMode","inputs":[],"outputs":[{"name":"","type":"uint8","internalType":"enum MarketMode"}],"stateMutability":"view"},{"type":"function","name":"distributeFees","inputs":[{"name":"token","type":"address","internalType":"address"},{"name":"amount","type":"uint256","internalType":"uint256"}],"outputs":[],"stateMutability":"nonpayable"},{"type":"function","name":"ionToken","inputs":[],"outputs":[{"name":"","type":"address","internalType":"address"}],"stateMutability":"view"},{"type":"function","name":"keeper","inputs":[],"outputs":[{"name":"","type":"address","internalType":"address"}],"stateMutability":"view"},{"type":"function","name":"oracle","inputs":[],"outputs":[{"name":"","type":"address","internalType":"contract IonOracle"}],"stateMutability":"view"},{"type":"function","name":"owner","inputs":[],"outputs":[{"name":"","type":"address","internalType":"address"}],"stateMutability":"view"},{"type":"function","name":"stakingRewards","inputs":[],"outputs":[{"name":"","type":"address","internalType":"address"}],"stateMutability":"view"},{"type":"function","name":"team","inputs":[],"outputs":[{"name":"","type":"address","internalType":"address"}],"stateMutability":"view"},{"type":"function","name":"treasury","inputs":[],"outputs":[{"name":"","type":"address","internalType":"address"}],"stateMutability":"view"},{"type":"event","name":"FeeDistributionDetail","inputs":[{"name":"token","type":"address","indexed":true,"internalType":"address"},{"name":"amount","type":"uint256","indexed":false,"internalType":"uint256"},{"name":"toBurn","type":"uint256","indexed":false,"internalType":"uint256"},{"name":"toTeam","type":"uint256","indexed":false,"internalType":"uint256"},{"name":"toStaking","type":"uint256","indexed":false,"internalType":"uint256"},{"name":"toTreasury","type":"uint256","indexed":false,"internalType":"uint256"},{"name":"toKeeper","type":"uint256","indexed":false,"internalType":"uint256"},{"name":"mode","type":"uint8","indexed":false,"internalType":"enum MarketMode"}],"anonymous":false},{"type":"event","name":"MarketModeChanged","inputs":[{"name":"oldMode","type":"uint8","indexed":false,"internalType":"enum MarketMode"},{"name":"newMode","type":"uint8","indexed":false,"internalType":"enum MarketMode"},{"name":"price","type":"uint256","indexed":false,"internalType":"uint256"},{"name":"oracleStale","type":"bool","indexed":false,"internalType":"bool"}],"anonymous":false},{"type":"event","name":"OracleStaleWarning","inputs":[{"name":"lastValidPrice","type":"uint256","indexed":false,"internalType":"uint256"},{"name":"currentTime","type":"uint256","indexed":false,"internalType":"uint256"}],"anonymous":false},{"type":"error","name":"IonDexOnlyIon","inputs":[]},{"type":"error","name":"IonDexTokenTransferFailed","inputs":[]},{"type":"error","name":"IonDexUnauthorized","inputs":[]},{"type":"error","name":"IonDexZeroAddress","inputs":[]},{"type":"error","name":"IonDexZeroAmount","inputs":[]}],"bytecode":{"object":"0x60a0604052600160095534801562000015575f80fd5b5060405162000f9738038062000f978339810160408190526200003891620003a4565b6001600160a01b03891615806200005657506001600160a01b038816155b806200006957506001600160a01b038316155b1562000088576040516394844c1960e01b815260040160405180910390fd5b6001600160a01b0387161580620000a657506001600160a01b038616155b80620000b957506001600160a01b038516155b80620000cc57506001600160a01b038416155b15620000eb576040516394844c1960e01b815260040160405180910390fd5b8082106200010c576040516326392e5760e11b815260040160405180910390fd5b5f80546001600160a01b03199081166001600160a01b038c8116919091179092558982166080526001805482168a84161781556002805483168a851617905560038054831689851617905560048054831688851617905560058054909216928616929092179055600683905560078290556008805460ff191682800217905550620001a06200019a620001f8565b6200025b565b620001af57620001af62000447565b620001bd6200019a620002c0565b620001cc57620001cc62000447565b620001da6200019a62000324565b620001e957620001e962000447565b5050505050505050506200047b565b620002266040518060a001604052805f81526020015f81526020015f81526020015f81526020015f81525090565b6040518060a00160405280610fa081526020016109c48152602001610320815260200160c881526020016109c4815250905090565b5f6109c48260800151148015620002ba57506127108260800151836060015184604001518560200151865f01516200029491906200045b565b620002a091906200045b565b620002ac91906200045b565b620002b891906200045b565b145b92915050565b620002ee6040518060a001604052805f81526020015f81526020015f81526020015f81526020015f81525090565b6040518060a00160405280610bb881526020016109c481526020016105dc81526020016101f481526020016109c4815250905090565b620003526040518060a001604052805f81526020015f81526020015f81526020015f81526020015f81525090565b6040518060a001604052806105dc8152602001610dac81526020016107d081526020016101f481526020016109c4815250905090565b80516001600160a01b03811681146200039f575f80fd5b919050565b5f805f805f805f805f6101208a8c031215620003be575f80fd5b620003c98a62000388565b9850620003d960208b0162000388565b9750620003e960408b0162000388565b9650620003f960608b0162000388565b95506200040960808b0162000388565b94506200041960a08b0162000388565b93506200042960c08b0162000388565b925060e08a015191506101008a015190509295985092959850929598565b634e487b7160e01b5f52600160045260245ffd5b80820180821115620002ba57634e487b7160e01b5f52601160045260245ffd5b608051610afc6200049b5f395f81816101cb01526102590152610afc5ff3fe608060405234801561000f575f80fd5b50600436106100e5575f3560e01c80638da5cb5b11610088578063b0b5df6c11610063578063b0b5df6c146101c6578063c1034068146101ed578063d73792a9146101f6578063fb5687d3146101ff575f80fd5b80638da5cb5b1461018a578063a7a0ba3a1461019c578063aced1661146101b3575f80fd5b806364b87a70116100c357806364b87a70146101375780637dc0d1d01461014a5780638125092f1461015d57806385f2aef214610177575f80fd5b8063403fc6db146100e957806348fef5951461010f57806361d027b314610124575b5f80fd5b6100f261dead81565b6040516001600160a01b0390911681526020015b60405180910390f35b61012261011d366004610921565b610208565b005b6001546100f2906001600160a01b031681565b6003546100f2906001600160a01b031681565b6005546100f2906001600160a01b031681565b60085461016a9060ff1681565b604051610106919061098a565b6002546100f2906001600160a01b031681565b5f546100f2906001600160a01b031681565b6101a56109c481565b604051908152602001610106565b6004546100f2906001600160a01b031681565b6100f27f000000000000000000000000000000000000000000000000000000000000000081565b6101a560075481565b6101a561271081565b6101a560065481565b60095460011461022b576040516326392e5760e11b815260040160405180910390fd5b60026009556001600160a01b038216610257576040516394844c1960e01b815260040160405180910390fd5b7f00000000000000000000000000000000000000000000000000000000000000006001600160a01b0316826001600160a01b0316146102a957604051630f859a9160e21b815260040160405180910390fd5b805f036102c9576040516377b0874f60e11b815260040160405180910390fd5b6102d582333084610554565b6102f25760405163363b9cef60e21b815260040160405180910390fd5b6102fa6105d8565b5f610303610750565b90505f612710825f01518461031891906109ac565b61032291906109c3565b90505f61271083608001518561033891906109ac565b61034291906109c3565b90505f61271084602001518661035891906109ac565b61036291906109c3565b90505f61271085604001518761037891906109ac565b61038291906109c3565b90505f818385610392888b6109e2565b61039c91906109e2565b6103a691906109e2565b6103b091906109e2565b90505f841180156103d657506002546103d49089906001600160a01b03168661076c565b155b156103f45760405163363b9cef60e21b815260040160405180910390fd5b5f8511801561040d575061040b8861dead8761076c565b155b1561042b5760405163363b9cef60e21b815260040160405180910390fd5b5f8311801561044f575060035461044d9089906001600160a01b03168561076c565b155b1561046d5760405163363b9cef60e21b815260040160405180910390fd5b5f82118015610491575060015461048f9089906001600160a01b03168461076c565b155b156104af5760405163363b9cef60e21b815260040160405180910390fd5b5f811180156104d357506004546104d19089906001600160a01b03168361076c565b155b156104f15760405163363b9cef60e21b815260040160405180910390fd5b6008546040516001600160a01b038a16917f64a62f0355383a9bda29021dccaf86ed1089f1302eed4e8ebe618d6447c042a89161053d918b918a918a918a918a918a9160ff16906109f5565b60405180910390a250506001600955505050505050565b6040516323b872dd60e01b81526001600160a01b0384811660048301528381166024830152604482018390525f91908616906323b872dd906064016020604051808303815f875af11580156105ab573d5f803e3d5ffd5b505050506040513d601f19601f820116820180604052508101906105cf9190610a4a565b95945050505050565b60055460408051634c6afee560e11b815281515f9384936001600160a01b03909116926398d5fdca9260048083019392829003018187875af1158015610620573d5f803e3d5ffd5b505050506040513d601f19601f820116820180604052508101906106449190610a6a565b915091505f81156106905750604080518381524260208201526001917f278e2cc756fcc536e3c76be5fed5407c24936fcdc0b0302f08cad33587b2899b910160405180910390a16106b6565b6006548310156106a157505f6106b6565b60075483106106b2575060026106b6565b5060015b60085460ff1660028111156106cd576106cd610956565b8160028111156106df576106df610956565b1461074b576008805460ff811691839160ff1916600183600281111561070757610707610956565b02179055507ff6634fce04ecde4e3230a33b0b5fa9873bfef53d0358aff6a48a9d479bd557f5818386866040516107419493929190610a94565b60405180910390a1505b505050565b6107586108f7565b6008546107679060ff166107e7565b905090565b60405163a9059cbb60e01b81526001600160a01b038381166004830152602482018390525f919085169063a9059cbb906044016020604051808303815f875af11580156107bb573d5f803e3d5ffd5b505050506040513d601f19601f820116820180604052508101906107df9190610a4a565b949350505050565b6107ef6108f7565b5f82600281111561080257610802610956565b036108155761080f61083e565b92915050565b600182600281111561082957610829610956565b036108365761080f61087b565b61080f6108b9565b6108466108f7565b6040518060a00160405280610fa081526020016109c48152602001610320815260200160c881526020016109c4815250905090565b6108836108f7565b6040518060a00160405280610bb881526020016109c481526020016105dc81526020016101f481526020016109c4815250905090565b6108c16108f7565b6040518060a001604052806105dc8152602001610dac81526020016107d081526020016101f481526020016109c4815250905090565b6040518060a001604052805f81526020015f81526020015f81526020015f81526020015f81525090565b5f8060408385031215610932575f80fd5b82356001600160a01b0381168114610948575f80fd5b946020939093013593505050565b634e487b7160e01b5f52602160045260245ffd5b6003811061098657634e487b7160e01b5f52602160045260245ffd5b9052565b6020810161080f828461096a565b634e487b7160e01b5f52601160045260245ffd5b808202811582820484141761080f5761080f610998565b5f826109dd57634e487b7160e01b5f52601260045260245ffd5b500490565b8181038181111561080f5761080f610998565b5f60e0820190508882528760208301528660408301528560608301528460808301528360a0830152610a2a60c083018461096a565b98975050505050505050565b80518015158114610a45575f80fd5b919050565b5f60208284031215610a5a575f80fd5b610a6382610a36565b9392505050565b5f8060408385031215610a7b575f80fd5b82519150610a8b60208401610a36565b90509250929050565b60808101610aa2828761096a565b610aaf602083018661096a565b83604083015282151560608301529594505050505056fea2646970667358221220c2ddb8c7954ec0e03b78553e1699ee75377ad4895cec10d4fb04f410e68b8e6864736f6c63430008180033","linkReferences":{}},"methodIdentifiers":{"BPS_TEAM_IMMUTABLE()":"a7a0ba3a","BSC_BURN_ADDRESS()":"403fc6db","FEE_DENOMINATOR()":"d73792a9","bearThreshold()":"fb5687d3","bullThreshold()":"c1034068","currentMode()":"8125092f","distributeFees(address,uint256)":"48fef595","ionToken()":"b0b5df6c","keeper()":"aced1661","oracle()":"7dc0d1d0","owner()":"8da5cb5b","stakingRewards()":"64b87a70","team()":"85f2aef2","treasury()":"61d027b3"},"id":11}