{"abi":[{"type":"constructor","inputs":[{"name":"owner_","type":"address","internalType":"address"},{"name":"ionToken_","type":"address","internalType":"address"},{"name":"treasury_","type":"address","internalType":"address"},{"name":"team_","type":"address","internalType":"address"},{"name":"stakingRewards_","type":"address","internalType":"address"},{"name":"keeper_","type":"address","internalType":"address"},{"name":"oracle_","type":"address","internalType":"address"},{"name":"bearThreshold_","type":"uint256","internalType":"uint256"},{"name":"bullThreshold_","type":"uint256","internalType":"uint256"}],"stateMutability":"nonpayable"},{"type":"function","name":"BPS_TEAM_IMMUTABLE","inputs":[],"outputs":[{"name":"","type":"uint256","internalType":"uint256"}],"stateMutability":"view"},{"type":"function","name":"BSC_BURN_ADDRESS","inputs":[],"outputs":[{"name":"","type":"address","internalType":"address"}],"stateMutability":"view"},{"type":"function","name":"FEE_DENOMINATOR","inputs":[],"outputs":[{"name":"","type":"uint256","internalType":"uint256"}],"stateMutability":"view"},{"type":"function","name":"TIMELOCK_DURATION","inputs":[],"outputs":[{"name":"","type":"uint256","internalType":"uint256"}],"stateMutability":"view"},{"type":"function","name":"assertInvariants","inputs":[],"outputs":[],"stateMutability":"pure"},{"type":"function","name":"bearThreshold","inputs":[],"outputs":[{"name":"","type":"uint256","internalType":"uint256"}],"stateMutability":"view"},{"type":"function","name":"bullThreshold","inputs":[],"outputs":[{"name":"","type":"uint256","internalType":"uint256"}],"stateMutability":"view"},{"type":"function","name":"cancelTimelock","inputs":[],"outputs":[],"stateMutability":"nonpayable"},{"type":"function","name":"currentMode","inputs":[],"outputs":[{"name":"","type":"uint8","internalType":"enum MarketMode"}],"stateMutability":"view"},{"type":"function","name":"distributeFees","inputs":[{"name":"token","type":"address","internalType":"address"},{"name":"amount","type":"uint256","internalType":"uint256"}],"outputs":[],"stateMutability":"nonpayable"},{"type":"function","name":"executeTimelock","inputs":[],"outputs":[],"stateMutability":"nonpayable"},{"type":"function","name":"getEffectiveBps","inputs":[],"outputs":[{"name":"bpsBurn","type":"uint256","internalType":"uint256"},{"name":"bpsStaking","type":"uint256","internalType":"uint256"},{"name":"bpsTreasury","type":"uint256","internalType":"uint256"},{"name":"bpsKeeper","type":"uint256","internalType":"uint256"},{"name":"bpsTeam","type":"uint256","internalType":"uint256"}],"stateMutability":"view"},{"type":"function","name":"getMarketMode","inputs":[],"outputs":[{"name":"","type":"uint8","internalType":"enum MarketMode"}],"stateMutability":"view"},{"type":"function","name":"ionToken","inputs":[],"outputs":[{"name":"","type":"address","internalType":"address"}],"stateMutability":"view"},{"type":"function","name":"keeper","inputs":[],"outputs":[{"name":"","type":"address","internalType":"address"}],"stateMutability":"view"},{"type":"function","name":"oracle","inputs":[],"outputs":[{"name":"","type":"address","internalType":"contract IonOracle"}],"stateMutability":"view"},{"type":"function","name":"owner","inputs":[],"outputs":[{"name":"","type":"address","internalType":"address"}],"stateMutability":"view"},{"type":"function","name":"pendingProposal","inputs":[],"outputs":[{"name":"executeAfter","type":"uint256","internalType":"uint256"},{"name":"mode","type":"uint8","internalType":"enum MarketMode"},{"name":"newConfig","type":"tuple","internalType":"struct BpsConfig","components":[{"name":"bpsBurn","type":"uint256","internalType":"uint256"},{"name":"bpsStaking","type":"uint256","internalType":"uint256"},{"name":"bpsTreasury","type":"uint256","internalType":"uint256"},{"name":"bpsKeeper","type":"uint256","internalType":"uint256"},{"name":"bpsTeam","type":"uint256","internalType":"uint256"}]},{"name":"executed","type":"bool","internalType":"bool"}],"stateMutability":"view"},{"type":"function","name":"previewMode","inputs":[{"name":"price","type":"uint256","internalType":"uint256"}],"outputs":[{"name":"","type":"uint8","internalType":"enum MarketMode"}],"stateMutability":"view"},{"type":"function","name":"proposeThresholds","inputs":[{"name":"bearThreshold_","type":"uint256","internalType":"uint256"},{"name":"bullThreshold_","type":"uint256","internalType":"uint256"}],"outputs":[],"stateMutability":"nonpayable"},{"type":"function","name":"setDestinations","inputs":[{"name":"treasury_","type":"address","internalType":"address"},{"name":"team_","type":"address","internalType":"address"},{"name":"stakingRewards_","type":"address","internalType":"address"},{"name":"keeper_","type":"address","internalType":"address"}],"outputs":[],"stateMutability":"nonpayable"},{"type":"function","name":"setOracle","inputs":[{"name":"oracle_","type":"address","internalType":"address"}],"outputs":[],"stateMutability":"nonpayable"},{"type":"function","name":"stakingRewards","inputs":[],"outputs":[{"name":"","type":"address","internalType":"address"}],"stateMutability":"view"},{"type":"function","name":"team","inputs":[],"outputs":[{"name":"","type":"address","internalType":"address"}],"stateMutability":"view"},{"type":"function","name":"thresholdBreached","inputs":[],"outputs":[{"name":"nearBear","type":"bool","internalType":"bool"},{"name":"nearBull","type":"bool","internalType":"bool"}],"stateMutability":"view"},{"type":"function","name":"transferOwnership","inputs":[{"name":"newOwner","type":"address","internalType":"address"}],"outputs":[],"stateMutability":"nonpayable"},{"type":"function","name":"treasury","inputs":[],"outputs":[{"name":"","type":"address","internalType":"address"}],"stateMutability":"view"},{"type":"event","name":"DestinationsUpdated","inputs":[{"name":"treasury","type":"address","indexed":false,"internalType":"address"},{"name":"team","type":"address","indexed":false,"internalType":"address"},{"name":"stakingRewards","type":"address","indexed":false,"internalType":"address"},{"name":"keeper","type":"address","indexed":false,"internalType":"address"}],"anonymous":false},{"type":"event","name":"FeeDistributionDetail","inputs":[{"name":"token","type":"address","indexed":true,"internalType":"address"},{"name":"amount","type":"uint256","indexed":false,"internalType":"uint256"},{"name":"toBurn","type":"uint256","indexed":false,"internalType":"uint256"},{"name":"toTeam","type":"uint256","indexed":false,"internalType":"uint256"},{"name":"toStaking","type":"uint256","indexed":false,"internalType":"uint256"},{"name":"toTreasury","type":"uint256","indexed":false,"internalType":"uint256"},{"name":"toKeeper","type":"uint256","indexed":false,"internalType":"uint256"},{"name":"mode","type":"uint8","indexed":false,"internalType":"enum MarketMode"}],"anonymous":false},{"type":"event","name":"MarketModeChanged","inputs":[{"name":"oldMode","type":"uint8","indexed":false,"internalType":"enum MarketMode"},{"name":"newMode","type":"uint8","indexed":false,"internalType":"enum MarketMode"},{"name":"price","type":"uint256","indexed":false,"internalType":"uint256"},{"name":"oracleStale","type":"bool","indexed":false,"internalType":"bool"}],"anonymous":false},{"type":"event","name":"OracleStaleWarning","inputs":[{"name":"lastValidPrice","type":"uint256","indexed":false,"internalType":"uint256"},{"name":"currentTime","type":"uint256","indexed":false,"internalType":"uint256"}],"anonymous":false},{"type":"event","name":"ThresholdsUpdated","inputs":[{"name":"bearThreshold","type":"uint256","indexed":false,"internalType":"uint256"},{"name":"bullThreshold","type":"uint256","indexed":false,"internalType":"uint256"}],"anonymous":false},{"type":"event","name":"TimelockCancelled","inputs":[],"anonymous":false},{"type":"event","name":"TimelockExecuted","inputs":[{"name":"mode","type":"uint8","indexed":false,"internalType":"enum MarketMode"},{"name":"config","type":"tuple","indexed":false,"internalType":"struct BpsConfig","components":[{"name":"bpsBurn","type":"uint256","internalType":"uint256"},{"name":"bpsStaking","type":"uint256","internalType":"uint256"},{"name":"bpsTreasury","type":"uint256","internalType":"uint256"},{"name":"bpsKeeper","type":"uint256","internalType":"uint256"},{"name":"bpsTeam","type":"uint256","internalType":"uint256"}]}],"anonymous":false},{"type":"event","name":"TimelockProposed","inputs":[{"name":"mode","type":"uint8","indexed":false,"internalType":"enum MarketMode"},{"name":"config","type":"tuple","indexed":false,"internalType":"struct BpsConfig","components":[{"name":"bpsBurn","type":"uint256","internalType":"uint256"},{"name":"bpsStaking","type":"uint256","internalType":"uint256"},{"name":"bpsTreasury","type":"uint256","internalType":"uint256"},{"name":"bpsKeeper","type":"uint256","internalType":"uint256"},{"name":"bpsTeam","type":"uint256","internalType":"uint256"}]},{"name":"executeAfter","type":"uint256","indexed":false,"internalType":"uint256"}],"anonymous":false},{"type":"error","name":"IonDexBpsInvalid","inputs":[]},{"type":"error","name":"IonDexInvalidThreshold","inputs":[]},{"type":"error","name":"IonDexNoPendingProposal","inputs":[]},{"type":"error","name":"IonDexOnlyIon","inputs":[]},{"type":"error","name":"IonDexTeamBpsImmutable","inputs":[]},{"type":"error","name":"IonDexTimelockNotReady","inputs":[]},{"type":"error","name":"IonDexTokenTransferFailed","inputs":[]},{"type":"error","name":"IonDexUnauthorized","inputs":[]},{"type":"error","name":"IonDexZeroAddress","inputs":[]},{"type":"error","name":"IonDexZeroAmount","inputs":[]}],"bytecode":{"object":"0x60a0604052600160115534801562000015575f80fd5b5060405162001ba238038062001ba28339810160408190526200003891620003a4565b6001600160a01b03891615806200005657506001600160a01b038816155b806200006957506001600160a01b038316155b1562000088576040516394844c1960e01b815260040160405180910390fd5b6001600160a01b0387161580620000a657506001600160a01b038616155b80620000b957506001600160a01b038516155b80620000cc57506001600160a01b038416155b15620000eb576040516394844c1960e01b815260040160405180910390fd5b8082106200010c5760405163e82ea84d60e01b815260040160405180910390fd5b5f80546001600160a01b03199081166001600160a01b038c8116919091179092558982166080526001805482168a84161781556002805483168a851617905560038054831689851617905560048054831688851617905560058054909216928616929092179055600683905560078290556008805460ff191682800217905550620001a06200019a620001f8565b6200025b565b620001af57620001af62000447565b620001bd6200019a620002c0565b620001cc57620001cc62000447565b620001da6200019a62000324565b620001e957620001e962000447565b5050505050505050506200047b565b620002266040518060a001604052805f81526020015f81526020015f81526020015f81526020015f81525090565b6040518060a00160405280610fa081526020016109c48152602001610320815260200160c881526020016109c4815250905090565b5f6109c48260800151148015620002ba57506127108260800151836060015184604001518560200151865f01516200029491906200045b565b620002a091906200045b565b620002ac91906200045b565b620002b891906200045b565b145b92915050565b620002ee6040518060a001604052805f81526020015f81526020015f81526020015f81526020015f81525090565b6040518060a00160405280610bb881526020016109c481526020016105dc81526020016101f481526020016109c4815250905090565b620003526040518060a001604052805f81526020015f81526020015f81526020015f81526020015f81525090565b6040518060a001604052806105dc8152602001610dac81526020016107d081526020016101f481526020016109c4815250905090565b80516001600160a01b03811681146200039f575f80fd5b919050565b5f805f805f805f805f6101208a8c031215620003be575f80fd5b620003c98a62000388565b9850620003d960208b0162000388565b9750620003e960408b0162000388565b9650620003f960608b0162000388565b95506200040960808b0162000388565b94506200041960a08b0162000388565b93506200042960c08b0162000388565b925060e08a015191506101008a015190509295985092959850929598565b634e487b7160e01b5f52600160045260245ffd5b80820180821115620002ba57634e487b7160e01b5f52601160045260245ffd5b6080516117076200049b5f395f8181610392015261048b01526117075ff3fe608060405234801561000f575f80fd5b50600436106101a1575f3560e01c806385f2aef2116100f3578063aced166111610093578063d73792a91161006e578063d73792a9146103bd578063d87b976b146103c6578063f2fde38b146103d9578063fb5687d3146103ec575f80fd5b8063aced16611461037a578063b0b5df6c1461038d578063c1034068146103b4575f80fd5b8063a76e5f83116100ce578063a76e5f83146102fc578063a7a0ba3a14610356578063a924c42b1461035f578063aa5134ba14610372575f80fd5b806385f2aef2146102c457806388fd205d146102d75780638da5cb5b146102ea575f80fd5b806364b87a701161015e5780637dc0d1d0116101395780637dc0d1d0146102945780637e26503a146102a75780637f93690a146102af5780638125092f146102b7575f80fd5b806364b87a701461025a5780637adbf9731461026d5780637ca73feb14610280575f80fd5b8063403fc6db146101a5578063417af580146101cb5780634623c81e146101fb57806348fef595146102135780635bf20d721461022857806361d027b314610247575b5f80fd5b6101ae61dead81565b6040516001600160a01b0390911681526020015b60405180910390f35b6101d36103f5565b604080519586526020860194909452928401919091526060830152608082015260a0016101c2565b6102056202a30081565b6040519081526020016101c2565b610226610221366004611392565b61043a565b005b610230610786565b6040805192151583529015156020830152016101c2565b6001546101ae906001600160a01b031681565b6003546101ae906001600160a01b031681565b61022661027b3660046113ba565b61082b565b60085460ff165b6040516101c29190611407565b6005546101ae906001600160a01b031681565b61022661089e565b61022661093e565b6008546102879060ff1681565b6002546101ae906001600160a01b031681565b6102266102e5366004611415565b6109e8565b5f546101ae906001600160a01b031681565b600954600a546040805160a081018252600b548152600c546020820152600d5491810191909152600e546060820152600f546080820152601054610346939260ff90811692911684565b6040516101c29493929190611435565b6102056109c481565b61028761036d366004611493565b610b52565b610226610b7d565b6004546101ae906001600160a01b031681565b6101ae7f000000000000000000000000000000000000000000000000000000000000000081565b61020560075481565b61020561271081565b6102266103d43660046114aa565b610d64565b6102266103e73660046113ba565b610e89565b61020560065481565b5f805f805f8061041260085f9054906101000a900460ff16610efb565b8051602082015160408301516060840151608090940151929a91995097509195509350915050565b60115460011461045d576040516326392e5760e11b815260040160405180910390fd5b60026011556001600160a01b038216610489576040516394844c1960e01b815260040160405180910390fd5b7f00000000000000000000000000000000000000000000000000000000000000006001600160a01b0316826001600160a01b0316146104db57604051630f859a9160e21b815260040160405180910390fd5b805f036104fb576040516377b0874f60e11b815260040160405180910390fd5b61050782333084610f52565b6105245760405163363b9cef60e21b815260040160405180910390fd5b61052c610fd6565b5f610535611144565b90505f612710825f01518461054a919061150f565b6105549190611526565b90505f61271083608001518561056a919061150f565b6105749190611526565b90505f61271084602001518661058a919061150f565b6105949190611526565b90505f6127108560400151876105aa919061150f565b6105b49190611526565b90505f8183856105c4888b611545565b6105ce9190611545565b6105d89190611545565b6105e29190611545565b90505f8411801561060857506002546106069089906001600160a01b031686611160565b155b156106265760405163363b9cef60e21b815260040160405180910390fd5b5f8511801561063f575061063d8861dead87611160565b155b1561065d5760405163363b9cef60e21b815260040160405180910390fd5b5f83118015610681575060035461067f9089906001600160a01b031685611160565b155b1561069f5760405163363b9cef60e21b815260040160405180910390fd5b5f821180156106c357506001546106c19089906001600160a01b031684611160565b155b156106e15760405163363b9cef60e21b815260040160405180910390fd5b5f8111801561070557506004546107039089906001600160a01b031683611160565b155b156107235760405163363b9cef60e21b815260040160405180910390fd5b6008546040516001600160a01b038a16917f64a62f0355383a9bda29021dccaf86ed1089f1302eed4e8ebe618d6447c042a89161076f918b918a918a918a918a918a9160ff1690611558565b60405180910390a250506001601155505050505050565b5f805f8060055f9054906101000a90046001600160a01b03166001600160a01b0316637df2e9046040518163ffffffff1660e01b81526004016040805180830381865afa1580156107d9573d5f803e3d5ffd5b505050506040513d601f19601f820116820180604052508101906107fd91906115a8565b91509150801561081257505f93849350915050565b610821826006546007546111dd565b9350935050509091565b5f546001600160a01b03163314610855576040516326392e5760e11b815260040160405180910390fd5b6001600160a01b03811661087c576040516394844c1960e01b815260040160405180910390fd5b600580546001600160a01b0319166001600160a01b0392909216919091179055565b6108ae6108a9611239565b611276565b6108ba576108ba6115d2565b6108c56108a96112d1565b6108d1576108d16115d2565b6108dc6108a961130f565b6108e8576108e86115d2565b6109c46108f3611239565b6080015114610904576109046115d2565b6109c461090f6112d1565b6080015114610920576109206115d2565b6109c461092b61130f565b608001511461093c5761093c6115d2565b565b5f546001600160a01b03163314610968576040516326392e5760e11b815260040160405180910390fd5b6009545f0361098a5760405163e269bd8360e01b815260040160405180910390fd5b5f6009819055600a805460ff19908116909155600b829055600c829055600d829055600e829055600f8290556010805490911690556040517fe073c8e5806556af67673b3277147b43987972ef766373a993bbe6f325aac9969190a1565b5f546001600160a01b03163314610a12576040516326392e5760e11b815260040160405180910390fd5b808210610a325760405163e82ea84d60e01b815260040160405180910390fd5b60405180608001604052806202a30042610a4c91906115e6565b8152602001600181526040805160a0810182525f8082526020828101829052828401829052606083018290526109c460808401528085019290925291909201528151600990815590820151600a805460ff19166001836002811115610ab357610ab36113d3565b0217905550604082810151805160028401556020810151600384015580820151600484015560608082015160058501556080909101516006840155909201516007909101805460ff1916911515919091179055600b838155600c83905560095491517f77dafc65dcc5b0b89fcdf8f501ef5bf28cf09771134b9294c7127556b15dec1492610b46926001929091906115f9565b60405180910390a15050565b5f600654821015610b6457505f919050565b6007548210610b7557506002919050565b506001919050565b5f546001600160a01b03163314610ba7576040516326392e5760e11b815260040160405180910390fd5b6040805160808101909152600980548252600a545f929190602083019060ff166002811115610bd857610bd86113d3565b6002811115610be957610be96113d3565b81526040805160a081018252600284015481526003840154602082810191909152600485015482840152600585015460608301526006850154608083015283015260079092015460ff16151591015280519091505f03610c5c5760405163e269bd8360e01b815260040160405180910390fd5b806060015115610c7f5760405163e269bd8360e01b815260040160405180910390fd5b8051421015610ca15760405163747cce0d60e01b815260040160405180910390fd5b60408101518051602090910151808210610cce5760405163e82ea84d60e01b815260040160405180910390fd5b600682905560078190556010805460ff1916600117905560408051838152602081018390527fd081f5afbf5e2859f2be3d6c573e1cdd6c8fb93b18ec6145427882fe51507b6a910160405180910390a17f24c83f0854da4bfdf7a6b38e841e66a3833de6d338995afd3024701767fdde8783602001518460400151604051610d57929190611640565b60405180910390a1505050565b5f546001600160a01b03163314610d8e576040516326392e5760e11b815260040160405180910390fd5b6001600160a01b0384161580610dab57506001600160a01b038316155b80610dbd57506001600160a01b038216155b80610dcf57506001600160a01b038116155b15610ded576040516394844c1960e01b815260040160405180910390fd5b600180546001600160a01b038681166001600160a01b031992831681179093556002805487831690841681179091556003805487841690851681179091556004805493871693909416831790935560408051948552602085019190915283019190915260608201527ffa32c6e769be143dc4bdf7264b797abecb035bceb2daad462e0b198057f44b3d906080015b60405180910390a150505050565b5f546001600160a01b03163314610eb3576040516326392e5760e11b815260040160405180910390fd5b6001600160a01b038116610eda576040516394844c1960e01b815260040160405180910390fd5b5f80546001600160a01b0319166001600160a01b0392909216919091179055565b610f0361134d565b5f826002811115610f1657610f166113d3565b03610f2957610f23611239565b92915050565b6001826002811115610f3d57610f3d6113d3565b03610f4a57610f236112d1565b610f2361130f565b6040516323b872dd60e01b81526001600160a01b0384811660048301528381166024830152604482018390525f91908616906323b872dd906064016020604051808303815f875af1158015610fa9573d5f803e3d5ffd5b505050506040513d601f19601f82011682018060405250810190610fcd9190611686565b95945050505050565b60055460408051634c6afee560e11b815281515f9384936001600160a01b03909116926398d5fdca9260048083019392829003018187875af115801561101e573d5f803e3d5ffd5b505050506040513d601f19601f8201168201806040525081019061104291906115a8565b915091505f811561108e5750604080518381524260208201526001917f278e2cc756fcc536e3c76be5fed5407c24936fcdc0b0302f08cad33587b2899b910160405180910390a16110b4565b60065483101561109f57505f6110b4565b60075483106110b0575060026110b4565b5060015b60085460ff1660028111156110cb576110cb6113d3565b8160028111156110dd576110dd6113d3565b1461113f576008805460ff811691839160ff19166001836002811115611105576111056113d3565b02179055507ff6634fce04ecde4e3230a33b0b5fa9873bfef53d0358aff6a48a9d479bd557f581838686604051610e7b949392919061169f565b505050565b61114c61134d565b60085461115b9060ff16610efb565b905090565b60405163a9059cbb60e01b81526001600160a01b038381166004830152602482018390525f919085169063a9059cbb906044016020604051808303815f875af11580156111af573d5f803e3d5ffd5b505050506040513d601f19601f820116820180604052508101906111d39190611686565b90505b9392505050565b5f80806111eb600a86611526565b90505f6111f9600a86611526565b9050858710158015611213575061121082876115e6565b87105b935084871015801561122d575061122a81866115e6565b87105b92505050935093915050565b61124161134d565b6040518060a00160405280610fa081526020016109c48152602001610320815260200160c881526020016109c4815250905090565b5f6109c48260800151148015610f2357506127108260800151836060015184604001518560200151865f01516112ac91906115e6565b6112b691906115e6565b6112c091906115e6565b6112ca91906115e6565b1492915050565b6112d961134d565b6040518060a00160405280610bb881526020016109c481526020016105dc81526020016101f481526020016109c4815250905090565b61131761134d565b6040518060a001604052806105dc8152602001610dac81526020016107d081526020016101f481526020016109c4815250905090565b6040518060a001604052805f81526020015f81526020015f81526020015f81526020015f81525090565b80356001600160a01b038116811461138d575f80fd5b919050565b5f80604083850312156113a3575f80fd5b6113ac83611377565b946020939093013593505050565b5f602082840312156113ca575f80fd5b6111d682611377565b634e487b7160e01b5f52602160045260245ffd5b6003811061140357634e487b7160e01b5f52602160045260245ffd5b9052565b60208101610f2382846113e7565b5f8060408385031215611426575f80fd5b50508035926020909101359150565b848152610100810161144a60208301866113e7565b611482604083018580518252602081015160208301526040810151604083015260608101516060830152608081015160808301525050565b82151560e083015295945050505050565b5f602082840312156114a3575f80fd5b5035919050565b5f805f80608085870312156114bd575f80fd5b6114c685611377565b93506114d460208601611377565b92506114e260408601611377565b91506114f060608601611377565b905092959194509250565b634e487b7160e01b5f52601160045260245ffd5b8082028115828204841417610f2357610f236114fb565b5f8261154057634e487b7160e01b5f52601260045260245ffd5b500490565b81810381811115610f2357610f236114fb565b5f60e0820190508882528760208301528660408301528560608301528460808301528360a083015261158d60c08301846113e7565b98975050505050505050565b8051801515811461138d575f80fd5b5f80604083850312156115b9575f80fd5b825191506115c960208401611599565b90509250929050565b634e487b7160e01b5f52600160045260245ffd5b80820180821115610f2357610f236114fb565b60e0810161160782866113e7565b8354602083015260018401546040830152600284015460608301526003840154608083015260049093015460a082015260c00152919050565b60c0810161164e82856113e7565b6111d6602083018480518252602081015160208301526040810151604083015260608101516060830152608081015160808301525050565b5f60208284031215611696575f80fd5b6111d682611599565b608081016116ad82876113e7565b6116ba60208301866113e7565b83604083015282151560608301529594505050505056fea2646970667358221220f97375e0013bb8a9c3f2a558b0992bef6f43fad7c15b9967358baa564167330b64736f6c63430008180033","linkReferences":{}},"methodIdentifiers":{"BPS_TEAM_IMMUTABLE()":"a7a0ba3a","BSC_BURN_ADDRESS()":"403fc6db","FEE_DENOMINATOR()":"d73792a9","TIMELOCK_DURATION()":"4623c81e","assertInvariants()":"7e26503a","bearThreshold()":"fb5687d3","bullThreshold()":"c1034068","cancelTimelock()":"7f93690a","currentMode()":"8125092f","distributeFees(address,uint256)":"48fef595","executeTimelock()":"aa5134ba","getEffectiveBps()":"417af580","getMarketMode()":"7ca73feb","ionToken()":"b0b5df6c","keeper()":"aced1661","oracle()":"7dc0d1d0","owner()":"8da5cb5b","pendingProposal()":"a76e5f83","previewMode(uint256)":"a924c42b","proposeThresholds(uint256,uint256)":"88fd205d","setDestinations(address,address,address,address)":"d87b976b","setOracle(address)":"7adbf973","stakingRewards()":"64b87a70","team()":"85f2aef2","thresholdBreached()":"5bf20d72","transferOwnership(address)":"f2fde38b","treasury()":"61d027b3"},"id":8}