{"abi":[{"type":"constructor","inputs":[{"name":"owner_","type":"address","internalType":"address"},{"name":"treasury_","type":"address","internalType":"address"},{"name":"team_","type":"address","internalType":"address"},{"name":"stakingRewards_","type":"address","internalType":"address"},{"name":"keeper_","type":"address","internalType":"address"}],"stateMutability":"nonpayable"},{"type":"function","name":"BPS_BURN","inputs":[],"outputs":[{"name":"","type":"uint256","internalType":"uint256"}],"stateMutability":"view"},{"type":"function","name":"BPS_KEEPER","inputs":[],"outputs":[{"name":"","type":"uint256","internalType":"uint256"}],"stateMutability":"view"},{"type":"function","name":"BPS_STAKING","inputs":[],"outputs":[{"name":"","type":"uint256","internalType":"uint256"}],"stateMutability":"view"},{"type":"function","name":"BPS_TEAM","inputs":[],"outputs":[{"name":"","type":"uint256","internalType":"uint256"}],"stateMutability":"view"},{"type":"function","name":"BPS_TREASURY","inputs":[],"outputs":[{"name":"","type":"uint256","internalType":"uint256"}],"stateMutability":"view"},{"type":"function","name":"BSC_BURN_ADDRESS","inputs":[],"outputs":[{"name":"","type":"address","internalType":"address"}],"stateMutability":"view"},{"type":"function","name":"FEE_DENOMINATOR","inputs":[],"outputs":[{"name":"","type":"uint256","internalType":"uint256"}],"stateMutability":"view"},{"type":"function","name":"distributeFees","inputs":[{"name":"token","type":"address","internalType":"address"},{"name":"amount","type":"uint256","internalType":"uint256"}],"outputs":[],"stateMutability":"nonpayable"},{"type":"function","name":"keeper","inputs":[],"outputs":[{"name":"","type":"address","internalType":"address"}],"stateMutability":"view"},{"type":"function","name":"owner","inputs":[],"outputs":[{"name":"","type":"address","internalType":"address"}],"stateMutability":"view"},{"type":"function","name":"setDestinations","inputs":[{"name":"treasury_","type":"address","internalType":"address"},{"name":"team_","type":"address","internalType":"address"},{"name":"stakingRewards_","type":"address","internalType":"address"},{"name":"keeper_","type":"address","internalType":"address"}],"outputs":[],"stateMutability":"nonpayable"},{"type":"function","name":"stakingRewards","inputs":[],"outputs":[{"name":"","type":"address","internalType":"address"}],"stateMutability":"view"},{"type":"function","name":"team","inputs":[],"outputs":[{"name":"","type":"address","internalType":"address"}],"stateMutability":"view"},{"type":"function","name":"treasury","inputs":[],"outputs":[{"name":"","type":"address","internalType":"address"}],"stateMutability":"view"},{"type":"event","name":"DestinationsUpdated","inputs":[{"name":"treasury","type":"address","indexed":false,"internalType":"address"},{"name":"team","type":"address","indexed":false,"internalType":"address"},{"name":"stakingRewards","type":"address","indexed":false,"internalType":"address"},{"name":"keeper","type":"address","indexed":false,"internalType":"address"}],"anonymous":false},{"type":"event","name":"FeeDistributed","inputs":[{"name":"token","type":"address","indexed":true,"internalType":"address"},{"name":"amount","type":"uint256","indexed":false,"internalType":"uint256"},{"name":"toBurn","type":"uint256","indexed":false,"internalType":"uint256"},{"name":"toTeam","type":"uint256","indexed":false,"internalType":"uint256"},{"name":"toStaking","type":"uint256","indexed":false,"internalType":"uint256"},{"name":"toTreasury","type":"uint256","indexed":false,"internalType":"uint256"},{"name":"toKeeper","type":"uint256","indexed":false,"internalType":"uint256"}],"anonymous":false},{"type":"error","name":"IonDexBpsInvalid","inputs":[]},{"type":"error","name":"IonDexTokenTransferFailed","inputs":[]},{"type":"error","name":"IonDexUnauthorized","inputs":[]},{"type":"error","name":"IonDexZeroAddress","inputs":[]},{"type":"error","name":"IonDexZeroAmount","inputs":[]}],"bytecode":{"object":"0x608060405234801561000f575f80fd5b5060405162000a2238038062000a2283398101604081905261003091610188565b6001600160a01b038516610057576040516394844c1960e01b815260040160405180910390fd5b6001600160a01b038416158061007457506001600160a01b038316155b8061008657506001600160a01b038216155b8061009857506001600160a01b038116155b156100b6576040516394844c1960e01b815260040160405180910390fd5b6127106101f46105dc6107d06100d06109c4610dac6101e9565b6100da91906101e9565b6100e491906101e9565b6100ee91906101e9565b1461010c57604051635885036f60e01b815260040160405180910390fd5b5f80546001600160a01b03199081166001600160a01b0397881617909155600180548216958716959095179094556002805485169386169390931790925560038054841691851691909117905560048054909216921691909117905561020e565b80516001600160a01b0381168114610183575f80fd5b919050565b5f805f805f60a0868803121561019c575f80fd5b6101a58661016d565b94506101b36020870161016d565b93506101c16040870161016d565b92506101cf6060870161016d565b91506101dd6080870161016d565b90509295509295909350565b8082018082111561020857634e487b7160e01b5f52601160045260245ffd5b92915050565b610806806200021c5f395ff3fe608060405234801561000f575f80fd5b50600436106100e5575f3560e01c806385f2aef211610088578063aced166111610063578063aced1661146101a1578063d73792a9146101b4578063d87b976b146101bd578063ededa9c7146101d0575f80fd5b806385f2aef2146101735780638da5cb5b146101865780639aa8c61714610198575f80fd5b806348fef595116100c357806348fef5951461012f57806361d027b31461014457806364b87a70146101575780637013626b1461016a575f80fd5b806308e4298c146100e95780632288391a14610105578063403fc6db1461010e575b5f80fd5b6100f2610dac81565b6040519081526020015b60405180910390f35b6100f26105dc81565b61011761dead81565b6040516001600160a01b0390911681526020016100fc565b61014261013d3660046106ce565b6101d9565b005b600154610117906001600160a01b031681565b600354610117906001600160a01b031681565b6100f26101f481565b600254610117906001600160a01b031681565b5f54610117906001600160a01b031681565b6100f26107d081565b600454610117906001600160a01b031681565b6100f261271081565b6101426101cb3660046106f6565b610490565b6100f26109c481565b6001600160a01b038216610200576040516394844c1960e01b815260040160405180910390fd5b805f03610220576040516377b0874f60e11b815260040160405180910390fd5b61022c823330846105b4565b6102495760405163363b9cef60e21b815260040160405180910390fd5b5f612710610259610dac8461075b565b6102639190610778565b90505f6127106102756109c48561075b565b61027f9190610778565b90505f6127106102916107d08661075b565b61029b9190610778565b90505f6127106102ad6105dc8761075b565b6102b79190610778565b90505f8183856102c7888a610797565b6102d19190610797565b6102db9190610797565b6102e59190610797565b90505f8511801561030057506102fe8761dead87610638565b155b1561031e5760405163363b9cef60e21b815260040160405180910390fd5b5f8411801561034257506002546103409088906001600160a01b031686610638565b155b156103605760405163363b9cef60e21b815260040160405180910390fd5b5f8311801561038457506003546103829088906001600160a01b031685610638565b155b156103a25760405163363b9cef60e21b815260040160405180910390fd5b5f821180156103c657506001546103c49088906001600160a01b031684610638565b155b156103e45760405163363b9cef60e21b815260040160405180910390fd5b5f8111801561040857506004546104069088906001600160a01b031683610638565b155b156104265760405163363b9cef60e21b815260040160405180910390fd5b6040805187815260208101879052908101859052606081018490526080810183905260a081018290526001600160a01b038816907fe205594824e0b766055113357eb9ca852cce628f1cd9cd5672527343a4e469079060c00160405180910390a250505050505050565b5f546001600160a01b031633146104ba576040516326392e5760e11b815260040160405180910390fd5b6001600160a01b03841615806104d757506001600160a01b038316155b806104e957506001600160a01b038216155b806104fb57506001600160a01b038116155b15610519576040516394844c1960e01b815260040160405180910390fd5b600180546001600160a01b038681166001600160a01b031992831681179093556002805487831690841681179091556003805487841690851681179091556004805493871693909416831790935560408051948552602085019190915283019190915260608201527ffa32c6e769be143dc4bdf7264b797abecb035bceb2daad462e0b198057f44b3d9060800160405180910390a150505050565b6040516323b872dd60e01b81526001600160a01b0384811660048301528381166024830152604482018390525f91908616906323b872dd906064016020604051808303815f875af115801561060b573d5f803e3d5ffd5b505050506040513d601f19601f8201168201806040525081019061062f91906107aa565b95945050505050565b60405163a9059cbb60e01b81526001600160a01b038381166004830152602482018390525f919085169063a9059cbb906044016020604051808303815f875af1158015610687573d5f803e3d5ffd5b505050506040513d601f19601f820116820180604052508101906106ab91906107aa565b949350505050565b80356001600160a01b03811681146106c9575f80fd5b919050565b5f80604083850312156106df575f80fd5b6106e8836106b3565b946020939093013593505050565b5f805f8060808587031215610709575f80fd5b610712856106b3565b9350610720602086016106b3565b925061072e604086016106b3565b915061073c606086016106b3565b905092959194509250565b634e487b7160e01b5f52601160045260245ffd5b808202811582820484141761077257610772610747565b92915050565b5f8261079257634e487b7160e01b5f52601260045260245ffd5b500490565b8181038181111561077257610772610747565b5f602082840312156107ba575f80fd5b815180151581146107c9575f80fd5b939250505056fea2646970667358221220722befca1c88a09ca2cf9adfd1d7aa148d7f44c312beb08f116c5c7f6ef35aa964736f6c63430008180033","linkReferences":{}},"methodIdentifiers":{"BPS_BURN()":"08e4298c","BPS_KEEPER()":"7013626b","BPS_STAKING()":"9aa8c617","BPS_TEAM()":"ededa9c7","BPS_TREASURY()":"2288391a","BSC_BURN_ADDRESS()":"403fc6db","FEE_DENOMINATOR()":"d73792a9","distributeFees(address,uint256)":"48fef595","keeper()":"aced1661","owner()":"8da5cb5b","setDestinations(address,address,address,address)":"d87b976b","stakingRewards()":"64b87a70","team()":"85f2aef2","treasury()":"61d027b3"},"id":6}