{"abi":[{"type":"function","name":"batchCollect","inputs":[{"name":"token","type":"address","internalType":"address"},{"name":"mainAddr","type":"address","internalType":"address"},{"name":"fromAddrs","type":"address[]","internalType":"address[]"}],"outputs":[],"stateMutability":"nonpayable"},{"type":"function","name":"batchErc20","inputs":[{"name":"token","type":"address","internalType":"address"},{"name":"tos","type":"address[]","internalType":"address[]"},{"name":"amounts","type":"uint256[]","internalType":"uint256[]"}],"outputs":[],"stateMutability":"nonpayable"},{"type":"function","name":"batchNative","inputs":[{"name":"tos","type":"address[]","internalType":"address[]"},{"name":"amounts","type":"uint256[]","internalType":"uint256[]"}],"outputs":[],"stateMutability":"payable"},{"type":"error","name":"ReentrancyGuardReentrantCall","inputs":[]}],"bytecode":{"object":"0x6080806040523460395760017f9b779b17422d0df92223018b32b4d1fa46e071723d6817e2486d003becc55f0055610685908161003e8239f35b5f80fdfe60806040526004361015610011575f80fd5b5f3560e01c80634da4a2d2146103405780639156eea5146102125763bb5f24b61461003a575f80fd5b3461020657606036600319011261020657610053610489565b602435906001600160a01b03821682036102065760443567ffffffffffffffff81116102065761008790369060040161049f565b9290916100926105f7565b6001600160a01b0316905f5b8481106100b85760015f5160206106305f395f51905f5255005b6100cb6100c6828787610547565b61056b565b6040516370a0823160e01b81526001600160a01b039091166004820152602081602481875afa9081156101d2575f916101dd575b508061010f575b5060010161009e565b6020836101206100c6858a8a610547565b6040516323b872dd60e01b81526001600160a01b039182166004820152911660248201526044810192909252816064815f885af19081156101d2575f916101a4575b501561016e575f610106565b60405162461bcd60e51b815260206004820152600e60248201526d10dbdb1b1958dd0819985a5b195960921b6044820152606490fd5b6101c5915060203d81116101cb575b6101bd818361057f565b8101906105a1565b5f610162565b503d6101b3565b6040513d5f823e3d90fd5b90506020813d821161020a575b816101f76020938361057f565b8101031261020657515f6100ff565b5f80fd5b3d91506101ea565b60403660031901126102065760043567ffffffffffffffff81116102065761023e90369060040161049f565b60243567ffffffffffffffff81116102065761025e90369060040161049f565b9290916102696105f7565b6102748482146104d0565b80151580610335575b6102869061050e565b5f5b8181106102a25760015f5160206106305f395f51905f5255005b5f8080806001600160a01b036102bc6100c687898b610547565b166102c8868b8b610547565b35905af1903d1561032a573d67ffffffffffffffff81116103165760019261031091604051906103026020601f19601f840116018361057f565b81525f60203d92013e6105b9565b01610288565b634e487b7160e01b5f52604160045260245ffd5b6103106001926105b9565b50606481111561027d565b3461020657606036600319011261020657610359610489565b60243567ffffffffffffffff81116102065761037990369060040161049f565b9160443567ffffffffffffffff81116102065761039a90369060040161049f565b916103a36105f7565b6103ae8386146104d0565b8415158061047e575b6103c09061050e565b6001600160a01b03165f5b8581106103e55760015f5160206106305f395f51905f5255005b8060206103f96100c6610439948a8a610547565b610404838888610547565b6040516323b872dd60e01b81523360048201526001600160a01b03909216602483015235604482015292839081906064820190565b03815f875af19182156101d25760019261045a915f91610460575b506105b9565b016103cb565b610478915060203d81116101cb576101bd818361057f565b89610454565b5060648511156103b7565b600435906001600160a01b038216820361020657565b9181601f840112156102065782359167ffffffffffffffff8311610206576020808501948460051b01011161020657565b156104d757565b60405162461bcd60e51b815260206004820152600f60248201526e098cadccee8d040dad2e6dac2e8c6d608b1b6044820152606490fd5b1561051557565b60405162461bcd60e51b815260206004820152600a60248201526942617463682073697a6560b01b6044820152606490fd5b91908110156105575760051b0190565b634e487b7160e01b5f52603260045260245ffd5b356001600160a01b03811681036102065790565b90601f8019910116810190811067ffffffffffffffff82111761031657604052565b90816020910312610206575180151581036102065790565b156105c057565b60405162461bcd60e51b815260206004820152600f60248201526e151c985b9cd9995c8819985a5b1959608a1b6044820152606490fd5b60025f5160206106305f395f51905f5254146106205760025f5160206106305f395f51905f5255565b633ee5aeb560e01b5f5260045ffdfe9b779b17422d0df92223018b32b4d1fa46e071723d6817e2486d003becc55f00a2646970667358221220813dc311e788ecf3f957d18174dc5f592db29def64293c015ccec8f5f9d5f93f64736f6c63430008230033","linkReferences":{}},"methodIdentifiers":{"batchCollect(address,address,address[])":"bb5f24b6","batchErc20(address,address[],uint256[])":"4da4a2d2","batchNative(address[],uint256[])":"9156eea5"},"id":2}