{"abi":[{"type":"constructor","inputs":[{"name":"name","type":"string","internalType":"string"},{"name":"symbol","type":"string","internalType":"string"},{"name":"tokenA_","type":"address","internalType":"address"},{"name":"tokenB_","type":"address","internalType":"address"},{"name":"admin_","type":"address","internalType":"address"},{"name":"dex_","type":"address","internalType":"address"}],"stateMutability":"nonpayable"},{"type":"function","name":"DEAD_ADDRESS","inputs":[],"outputs":[{"name":"","type":"address","internalType":"address"}],"stateMutability":"view"},{"type":"function","name":"MINIMUM_LIQUIDITY","inputs":[],"outputs":[{"name":"","type":"uint256","internalType":"uint256"}],"stateMutability":"view"},{"type":"function","name":"addLiquidity","inputs":[{"name":"amountA","type":"uint256","internalType":"uint256"},{"name":"amountB","type":"uint256","internalType":"uint256"}],"outputs":[{"name":"lpAmount","type":"uint256","internalType":"uint256"}],"stateMutability":"nonpayable"},{"type":"function","name":"admin","inputs":[],"outputs":[{"name":"","type":"address","internalType":"contract AdminManager"}],"stateMutability":"view"},{"type":"function","name":"allowance","inputs":[{"name":"owner","type":"address","internalType":"address"},{"name":"spender","type":"address","internalType":"address"}],"outputs":[{"name":"","type":"uint256","internalType":"uint256"}],"stateMutability":"view"},{"type":"function","name":"approve","inputs":[{"name":"spender","type":"address","internalType":"address"},{"name":"value","type":"uint256","internalType":"uint256"}],"outputs":[{"name":"","type":"bool","internalType":"bool"}],"stateMutability":"nonpayable"},{"type":"function","name":"balanceOf","inputs":[{"name":"account","type":"address","internalType":"address"}],"outputs":[{"name":"","type":"uint256","internalType":"uint256"}],"stateMutability":"view"},{"type":"function","name":"decimals","inputs":[],"outputs":[{"name":"","type":"uint8","internalType":"uint8"}],"stateMutability":"view"},{"type":"function","name":"dexContract","inputs":[],"outputs":[{"name":"","type":"address","internalType":"address"}],"stateMutability":"view"},{"type":"function","name":"name","inputs":[],"outputs":[{"name":"","type":"string","internalType":"string"}],"stateMutability":"view"},{"type":"function","name":"owner","inputs":[],"outputs":[{"name":"","type":"address","internalType":"address"}],"stateMutability":"view"},{"type":"function","name":"payout","inputs":[{"name":"token","type":"address","internalType":"address"},{"name":"to","type":"address","internalType":"address"},{"name":"amount","type":"uint256","internalType":"uint256"}],"outputs":[],"stateMutability":"nonpayable"},{"type":"function","name":"removeLiquidity","inputs":[{"name":"lpAmount","type":"uint256","internalType":"uint256"}],"outputs":[],"stateMutability":"nonpayable"},{"type":"function","name":"setDexContract","inputs":[{"name":"dex_","type":"address","internalType":"address"}],"outputs":[],"stateMutability":"nonpayable"},{"type":"function","name":"symbol","inputs":[],"outputs":[{"name":"","type":"string","internalType":"string"}],"stateMutability":"view"},{"type":"function","name":"tokenA","inputs":[],"outputs":[{"name":"","type":"address","internalType":"address"}],"stateMutability":"view"},{"type":"function","name":"tokenB","inputs":[],"outputs":[{"name":"","type":"address","internalType":"address"}],"stateMutability":"view"},{"type":"function","name":"totalSupply","inputs":[],"outputs":[{"name":"","type":"uint256","internalType":"uint256"}],"stateMutability":"view"},{"type":"function","name":"transfer","inputs":[{"name":"to","type":"address","internalType":"address"},{"name":"value","type":"uint256","internalType":"uint256"}],"outputs":[{"name":"","type":"bool","internalType":"bool"}],"stateMutability":"nonpayable"},{"type":"function","name":"transferFrom","inputs":[{"name":"from","type":"address","internalType":"address"},{"name":"to","type":"address","internalType":"address"},{"name":"value","type":"uint256","internalType":"uint256"}],"outputs":[{"name":"","type":"bool","internalType":"bool"}],"stateMutability":"nonpayable"},{"type":"event","name":"AddLiquidity","inputs":[{"name":"user","type":"address","indexed":true,"internalType":"address"},{"name":"amountA","type":"uint256","indexed":false,"internalType":"uint256"},{"name":"amountB","type":"uint256","indexed":false,"internalType":"uint256"},{"name":"lpMinted","type":"uint256","indexed":false,"internalType":"uint256"}],"anonymous":false},{"type":"event","name":"Approval","inputs":[{"name":"owner","type":"address","indexed":true,"internalType":"address"},{"name":"spender","type":"address","indexed":true,"internalType":"address"},{"name":"value","type":"uint256","indexed":false,"internalType":"uint256"}],"anonymous":false},{"type":"event","name":"RemoveLiquidity","inputs":[{"name":"user","type":"address","indexed":true,"internalType":"address"},{"name":"lpBurned","type":"uint256","indexed":false,"internalType":"uint256"},{"name":"amountA","type":"uint256","indexed":false,"internalType":"uint256"},{"name":"amountB","type":"uint256","indexed":false,"internalType":"uint256"}],"anonymous":false},{"type":"event","name":"Transfer","inputs":[{"name":"from","type":"address","indexed":true,"internalType":"address"},{"name":"to","type":"address","indexed":true,"internalType":"address"},{"name":"value","type":"uint256","indexed":false,"internalType":"uint256"}],"anonymous":false},{"type":"error","name":"ERC20InsufficientAllowance","inputs":[{"name":"spender","type":"address","internalType":"address"},{"name":"allowance","type":"uint256","internalType":"uint256"},{"name":"needed","type":"uint256","internalType":"uint256"}]},{"type":"error","name":"ERC20InsufficientBalance","inputs":[{"name":"sender","type":"address","internalType":"address"},{"name":"balance","type":"uint256","internalType":"uint256"},{"name":"needed","type":"uint256","internalType":"uint256"}]},{"type":"error","name":"ERC20InvalidApprover","inputs":[{"name":"approver","type":"address","internalType":"address"}]},{"type":"error","name":"ERC20InvalidReceiver","inputs":[{"name":"receiver","type":"address","internalType":"address"}]},{"type":"error","name":"ERC20InvalidSender","inputs":[{"name":"sender","type":"address","internalType":"address"}]},{"type":"error","name":"ERC20InvalidSpender","inputs":[{"name":"spender","type":"address","internalType":"address"}]},{"type":"error","name":"ReentrancyGuardReentrantCall","inputs":[]}],"bytecode":{"object":"0x60c060405234801562000010575f80fd5b5060405162001cb638038062001cb68339810160408190526200003391620002bd565b85856003620000438382620003f4565b506004620000528282620003f4565b50505060016200006e6200006b620001bc60201b60201c565b90565b556001600160a01b038416158015906200009057506001600160a01b03831615155b620000cf5760405162461bcd60e51b815260206004820152600a602482015269546f6b656e207a65726f60b01b60448201526064015b60405180910390fd5b6001600160a01b03821615801590620000f057506001600160a01b03811615155b6200012c5760405162461bcd60e51b815260206004820152600b60248201526a436f6e666967207a65726f60a81b6044820152606401620000c6565b826001600160a01b0316846001600160a01b0316036200017c5760405162461bcd60e51b815260206004820152600a60248201526929b0b6b2903a37b5b2b760b11b6044820152606401620000c6565b6001600160a01b0393841660805291831660a052600680549184166001600160a01b03199283161790556005805492909316911617905550620004c09050565b7f9b779b17422d0df92223018b32b4d1fa46e071723d6817e2486d003becc55f0090565b634e487b7160e01b5f52604160045260245ffd5b5f82601f83011262000204575f80fd5b81516001600160401b0380821115620002215762000221620001e0565b604051601f8301601f19908116603f011681019082821181831017156200024c576200024c620001e0565b816040528381526020925086602085880101111562000269575f80fd5b5f91505b838210156200028c57858201830151818301840152908201906200026d565b5f602085830101528094505050505092915050565b80516001600160a01b0381168114620002b8575f80fd5b919050565b5f805f805f8060c08789031215620002d3575f80fd5b86516001600160401b0380821115620002ea575f80fd5b620002f88a838b01620001f4565b975060208901519150808211156200030e575f80fd5b506200031d89828a01620001f4565b9550506200032e60408801620002a1565b93506200033e60608801620002a1565b92506200034e60808801620002a1565b91506200035e60a08801620002a1565b90509295509295509295565b600181811c908216806200037f57607f821691505b6020821081036200039e57634e487b7160e01b5f52602260045260245ffd5b50919050565b601f821115620003ef57805f5260205f20601f840160051c81016020851015620003cb5750805b601f840160051c820191505b81811015620003ec575f8155600101620003d7565b50505b505050565b81516001600160401b03811115620004105762000410620001e0565b62000428816200042184546200036a565b84620003a4565b602080601f8311600181146200045e575f8415620004465750858301515b5f19600386901b1c1916600185901b178555620004b8565b5f85815260208120601f198616915b828110156200048e578886015182559484019460019091019084016200046d565b5085821015620004ac57878501515f19600388901b60f8161c191681555b505060018460011b0185555b505050505050565b60805160a05161178e620005285f395f8181610215015281816104460152818161091d01528181610a9401528181610d280152610e6601525f81816101710152818161040b0152818161088a015281816109ea01528181610c950152610db6015261178e5ff3fe608060405234801561000f575f80fd5b5060043610610127575f3560e01c806370a08231116100a9578063a9059cbb1161006e578063a9059cbb14610295578063ba9a7a56146102a8578063c9b9f435146102b1578063dd62ed3e146102c4578063f851a440146102fc575f80fd5b806370a08231146102375780638da5cb5b1461025f57806395d89b41146102675780639c8f9f231461026f5780639cd441da14610282575f80fd5b806323b872dd116100ef57806323b872dd146101d2578063313ce567146101e557806347d5f668146101f45780634e6fd6c4146102075780635f64b55b14610210575f80fd5b806306fdde031461012b578063095ea7b3146101495780630fc63d101461016c57806318160ddd146101ab57806320f801d4146101bd575b5f80fd5b61013361030f565b60405161014091906114cc565b60405180910390f35b61015c61015736600461152c565b61039f565b6040519015158152602001610140565b6101937f000000000000000000000000000000000000000000000000000000000000000081565b6040516001600160a01b039091168152602001610140565b6002545b604051908152602001610140565b6101d06101cb366004611556565b6103b8565b005b61015c6101e0366004611556565b6105da565b60405160128152602001610140565b6101d0610202366004611594565b6105fd565b61019361dead81565b6101937f000000000000000000000000000000000000000000000000000000000000000081565b6101af610245366004611594565b6001600160a01b03165f9081526020819052604090205490565b6101936106b9565b610133610729565b6101d061027d3660046115b6565b610738565b6101af6102903660046115cd565b610b83565b61015c6102a336600461152c565b6110bb565b6101af6103e881565b600554610193906001600160a01b031681565b6101af6102d23660046115ed565b6001600160a01b039182165f90815260016020908152604080832093909416825291909152205490565b600654610193906001600160a01b031681565b60606003805461031e90611624565b80601f016020809104026020016040519081016040528092919081815260200182805461034a90611624565b80156103955780601f1061036c57610100808354040283529160200191610395565b820191905f5260205f20905b81548152906001019060200180831161037857829003601f168201915b5050505050905090565b5f336103ac8185856110c8565b60019150505b92915050565b6103c06110d5565b6005546001600160a01b031633146104095760405162461bcd60e51b815260206004820152600760248201526609cdee840c8caf60cb1b60448201526064015b60405180910390fd5b7f00000000000000000000000000000000000000000000000000000000000000006001600160a01b0316836001600160a01b0316148061047a57507f00000000000000000000000000000000000000000000000000000000000000006001600160a01b0316836001600160a01b0316145b6104b65760405162461bcd60e51b815260206004820152600d60248201526c24b73b30b634b2103a37b5b2b760991b6044820152606401610400565b6001600160a01b0382166104f65760405162461bcd60e51b8152602060048201526007602482015266546f207a65726f60c81b6044820152606401610400565b5f81116105335760405162461bcd60e51b815260206004820152600b60248201526a416d6f756e74207a65726f60a81b6044820152606401610400565b60405163a9059cbb60e01b81526001600160a01b0383811660048301526024820183905284169063a9059cbb906044016020604051808303815f875af115801561057f573d5f803e3d5ffd5b505050506040513d601f19601f820116820180604052508101906105a39190611656565b6105bf5760405162461bcd60e51b815260040161040090611675565b6105d560015f8051602061173983398151915255565b505050565b5f336105e78582856110f0565b6105f285858561116c565b506001949350505050565b6106056106b9565b6001600160a01b0316336001600160a01b0316146106565760405162461bcd60e51b815260206004820152600e60248201526d139bdd08185d5d1a1bdc9a5e995960921b6044820152606401610400565b6001600160a01b0381166106975760405162461bcd60e51b8152602060048201526008602482015267446578207a65726f60c01b6044820152606401610400565b600580546001600160a01b0319166001600160a01b0392909216919091179055565b60065460408051638da5cb5b60e01b815290515f926001600160a01b031691638da5cb5b9160048083019260209291908290030181865afa158015610700573d5f803e3d5ffd5b505050506040513d601f19601f820116820180604052508101906107249190611696565b905090565b60606004805461031e90611624565b6107406110d5565b60065f9054906101000a90046001600160a01b03166001600160a01b0316635c975abb6040518163ffffffff1660e01b8152600401602060405180830381865afa158015610790573d5f803e3d5ffd5b505050506040513d601f19601f820116820180604052508101906107b49190611656565b156107ea5760405162461bcd60e51b815260206004820152600660248201526514185d5cd95960d21b6044820152606401610400565b5f81116108235760405162461bcd60e51b81526020600482015260076024820152664c50207a65726f60c81b6044820152606401610400565b335f908152602081905260409020548111156108735760405162461bcd60e51b815260206004820152600f60248201526e0496e73756666696369656e74204c5608c1b6044820152606401610400565b6040516370a0823160e01b81523060048201525f907f00000000000000000000000000000000000000000000000000000000000000006001600160a01b0316906370a0823190602401602060405180830381865afa1580156108d7573d5f803e3d5ffd5b505050506040513d601f19601f820116820180604052508101906108fb91906116b1565b6040516370a0823160e01b81523060048201529091505f906001600160a01b037f000000000000000000000000000000000000000000000000000000000000000016906370a0823190602401602060405180830381865afa158015610962573d5f803e3d5ffd5b505050506040513d601f19601f8201168201806040525081019061098691906116b1565b90505f61099260025490565b90505f816109a085876116dc565b6109aa91906116f3565b90505f826109b885886116dc565b6109c291906116f3565b90506109ce33876111c9565b60405163a9059cbb60e01b8152336004820152602481018390527f00000000000000000000000000000000000000000000000000000000000000006001600160a01b03169063a9059cbb906044016020604051808303815f875af1158015610a38573d5f803e3d5ffd5b505050506040513d601f19601f82011682018060405250810190610a5c9190611656565b610a785760405162461bcd60e51b815260040161040090611675565b60405163a9059cbb60e01b8152336004820152602481018290527f00000000000000000000000000000000000000000000000000000000000000006001600160a01b03169063a9059cbb906044016020604051808303815f875af1158015610ae2573d5f803e3d5ffd5b505050506040513d601f19601f82011682018060405250810190610b069190611656565b610b225760405162461bcd60e51b815260040161040090611675565b604080518781526020810184905290810182905233907f59c3a0b60c6ab7deb62e1440c9e72441db6db7dfe514dba8cb18e60c0d896efa9060600160405180910390a25050505050610b8060015f8051602061173983398151915255565b50565b5f610b8c6110d5565b60065f9054906101000a90046001600160a01b03166001600160a01b0316635c975abb6040518163ffffffff1660e01b8152600401602060405180830381865afa158015610bdc573d5f803e3d5ffd5b505050506040513d601f19601f82011682018060405250810190610c009190611656565b15610c365760405162461bcd60e51b815260206004820152600660248201526514185d5cd95960d21b6044820152606401610400565b5f83118015610c4457505f82115b610c7e5760405162461bcd60e51b815260206004820152600b60248201526a416d6f756e74207a65726f60a81b6044820152606401610400565b6040516370a0823160e01b81523060048201525f907f00000000000000000000000000000000000000000000000000000000000000006001600160a01b0316906370a0823190602401602060405180830381865afa158015610ce2573d5f803e3d5ffd5b505050506040513d601f19601f82011682018060405250810190610d0691906116b1565b6040516370a0823160e01b81523060048201529091505f906001600160a01b037f000000000000000000000000000000000000000000000000000000000000000016906370a0823190602401602060405180830381865afa158015610d6d573d5f803e3d5ffd5b505050506040513d601f19601f82011682018060405250810190610d9191906116b1565b6040516323b872dd60e01b8152336004820152306024820152604481018790529091507f00000000000000000000000000000000000000000000000000000000000000006001600160a01b0316906323b872dd906064016020604051808303815f875af1158015610e04573d5f803e3d5ffd5b505050506040513d601f19601f82011682018060405250810190610e289190611656565b610e445760405162461bcd60e51b815260040161040090611675565b6040516323b872dd60e01b8152336004820152306024820152604481018590527f00000000000000000000000000000000000000000000000000000000000000006001600160a01b0316906323b872dd906064016020604051808303815f875af1158015610eb4573d5f803e3d5ffd5b505050506040513d601f19601f82011682018060405250810190610ed89190611656565b610ef45760405162461bcd60e51b815260040161040090611675565b6002545f03610f76575f610f10610f0b86886116dc565b611201565b90506103e88111610f545760405162461bcd60e51b815260206004820152600e60248201526d135a5b881314081b9bdd081b595d60921b6044820152606401610400565b610f6261dead6103e861126f565b610f6e6103e882611712565b93505061101d565b610f8082856116dc565b610f8a82876116dc565b14610fc75760405162461bcd60e51b815260206004820152600d60248201526c496e76616c696420726174696f60981b6044820152606401610400565b5f82610fd260025490565b610fdc90886116dc565b610fe691906116f3565b90505f82610ff360025490565b610ffd90886116dc565b61100791906116f3565b90508082106110165780611018565b815b945050505b5f83116110565760405162461bcd60e51b81526020600482015260076024820152664c50207a65726f60c81b6044820152606401610400565b611060338461126f565b604080518681526020810186905290810184905233907fbeb3885786d637a474cbc287c0a44587231633a077f0bd30354d5a4b18996fce9060600160405180910390a250506103b260015f8051602061173983398151915255565b5f336103ac81858561116c565b6105d583838360016112a3565b6110dd611375565b60025f8051602061173983398151915255565b6001600160a01b038381165f908152600160209081526040808320938616835292905220545f19811015611166578181101561115857604051637dc7a0d960e11b81526001600160a01b03841660048201526024810182905260448101839052606401610400565b61116684848484035f6112a3565b50505050565b6001600160a01b03831661119557604051634b637e8f60e11b81525f6004820152602401610400565b6001600160a01b0382166111be5760405163ec442f0560e01b81525f6004820152602401610400565b6105d58383836113a6565b6001600160a01b0382166111f257604051634b637e8f60e11b81525f6004820152602401610400565b6111fd825f836113a6565b5050565b5f60038211156112605750805f6112196002836116f3565b611224906001611725565b90505b8181101561125a5790508060028161123f81866116f3565b6112499190611725565b61125391906116f3565b9050611227565b50919050565b811561126a575060015b919050565b6001600160a01b0382166112985760405163ec442f0560e01b81525f6004820152602401610400565b6111fd5f83836113a6565b6001600160a01b0384166112cc5760405163e602df0560e01b81525f6004820152602401610400565b6001600160a01b0383166112f557604051634a1406b160e11b81525f6004820152602401610400565b6001600160a01b038085165f908152600160209081526040808320938716835292905220829055801561116657826001600160a01b0316846001600160a01b03167f8c5be1e5ebec7d5bd14f71427d1e84f3dd0314c0f7b2291e5b200ac8c7c3b9258460405161136791815260200190565b60405180910390a350505050565b5f80516020611739833981519152546002036113a457604051633ee5aeb560e01b815260040160405180910390fd5b565b6001600160a01b0383166113d0578060025f8282546113c59190611725565b909155506114409050565b6001600160a01b0383165f90815260208190526040902054818110156114225760405163391434e360e21b81526001600160a01b03851660048201526024810182905260448101839052606401610400565b6001600160a01b0384165f9081526020819052604090209082900390555b6001600160a01b03821661145c5760028054829003905561147a565b6001600160a01b0382165f9081526020819052604090208054820190555b816001600160a01b0316836001600160a01b03167fddf252ad1be2c89b69c2b068fc378daa952ba7f163c4a11628f55a4df523b3ef836040516114bf91815260200190565b60405180910390a3505050565b5f602080835283518060208501525f5b818110156114f8578581018301518582016040015282016114dc565b505f604082860101526040601f19601f8301168501019250505092915050565b6001600160a01b0381168114610b80575f80fd5b5f806040838503121561153d575f80fd5b823561154881611518565b946020939093013593505050565b5f805f60608486031215611568575f80fd5b833561157381611518565b9250602084013561158381611518565b929592945050506040919091013590565b5f602082840312156115a4575f80fd5b81356115af81611518565b9392505050565b5f602082840312156115c6575f80fd5b5035919050565b5f80604083850312156115de575f80fd5b50508035926020909101359150565b5f80604083850312156115fe575f80fd5b823561160981611518565b9150602083013561161981611518565b809150509250929050565b600181811c9082168061163857607f821691505b60208210810361125a57634e487b7160e01b5f52602260045260245ffd5b5f60208284031215611666575f80fd5b815180151581146115af575f80fd5b60208082526007908201526615118819985a5b60ca1b604082015260600190565b5f602082840312156116a6575f80fd5b81516115af81611518565b5f602082840312156116c1575f80fd5b5051919050565b634e487b7160e01b5f52601160045260245ffd5b80820281158282048414176103b2576103b26116c8565b5f8261170d57634e487b7160e01b5f52601260045260245ffd5b500490565b818103818111156103b2576103b26116c8565b808201808211156103b2576103b26116c856fe9b779b17422d0df92223018b32b4d1fa46e071723d6817e2486d003becc55f00a26469706673582212204c24eedece454da37371327946a84c1269b3ac43cb21351cc1e93c206e01d33c64736f6c63430008180033","linkReferences":{}},"methodIdentifiers":{"DEAD_ADDRESS()":"4e6fd6c4","MINIMUM_LIQUIDITY()":"ba9a7a56","addLiquidity(uint256,uint256)":"9cd441da","admin()":"f851a440","allowance(address,address)":"dd62ed3e","approve(address,uint256)":"095ea7b3","balanceOf(address)":"70a08231","decimals()":"313ce567","dexContract()":"c9b9f435","name()":"06fdde03","owner()":"8da5cb5b","payout(address,address,uint256)":"20f801d4","removeLiquidity(uint256)":"9c8f9f23","setDexContract(address)":"47d5f668","symbol()":"95d89b41","tokenA()":"0fc63d10","tokenB()":"5f64b55b","totalSupply()":"18160ddd","transfer(address,uint256)":"a9059cbb","transferFrom(address,address,uint256)":"23b872dd"},"id":21}