{"abi":[{"type":"constructor","inputs":[{"name":"name","type":"string","internalType":"string"},{"name":"symbol","type":"string","internalType":"string"},{"name":"_tokenA","type":"address","internalType":"address"},{"name":"_tokenB","type":"address","internalType":"address"},{"name":"_admin","type":"address","internalType":"address"},{"name":"_dex","type":"address","internalType":"address"}],"stateMutability":"nonpayable"},{"type":"function","name":"addLiquidity","inputs":[{"name":"amountA","type":"uint256","internalType":"uint256"},{"name":"amountB","type":"uint256","internalType":"uint256"}],"outputs":[{"name":"lpAmount","type":"uint256","internalType":"uint256"}],"stateMutability":"nonpayable"},{"type":"function","name":"admin","inputs":[],"outputs":[{"name":"","type":"address","internalType":"contract AdminManager"}],"stateMutability":"view"},{"type":"function","name":"allowance","inputs":[{"name":"owner","type":"address","internalType":"address"},{"name":"spender","type":"address","internalType":"address"}],"outputs":[{"name":"","type":"uint256","internalType":"uint256"}],"stateMutability":"view"},{"type":"function","name":"approve","inputs":[{"name":"spender","type":"address","internalType":"address"},{"name":"value","type":"uint256","internalType":"uint256"}],"outputs":[{"name":"","type":"bool","internalType":"bool"}],"stateMutability":"nonpayable"},{"type":"function","name":"balanceOf","inputs":[{"name":"account","type":"address","internalType":"address"}],"outputs":[{"name":"","type":"uint256","internalType":"uint256"}],"stateMutability":"view"},{"type":"function","name":"decimals","inputs":[],"outputs":[{"name":"","type":"uint8","internalType":"uint8"}],"stateMutability":"view"},{"type":"function","name":"dexContract","inputs":[],"outputs":[{"name":"","type":"address","internalType":"address"}],"stateMutability":"view"},{"type":"function","name":"name","inputs":[],"outputs":[{"name":"","type":"string","internalType":"string"}],"stateMutability":"view"},{"type":"function","name":"owner","inputs":[],"outputs":[{"name":"","type":"address","internalType":"address"}],"stateMutability":"view"},{"type":"function","name":"removeLiquidity","inputs":[{"name":"lpAmount","type":"uint256","internalType":"uint256"}],"outputs":[],"stateMutability":"nonpayable"},{"type":"function","name":"setDexContract","inputs":[{"name":"_dex","type":"address","internalType":"address"}],"outputs":[],"stateMutability":"nonpayable"},{"type":"function","name":"symbol","inputs":[],"outputs":[{"name":"","type":"string","internalType":"string"}],"stateMutability":"view"},{"type":"function","name":"tokenA","inputs":[],"outputs":[{"name":"","type":"address","internalType":"address"}],"stateMutability":"view"},{"type":"function","name":"tokenB","inputs":[],"outputs":[{"name":"","type":"address","internalType":"address"}],"stateMutability":"view"},{"type":"function","name":"totalSupply","inputs":[],"outputs":[{"name":"","type":"uint256","internalType":"uint256"}],"stateMutability":"view"},{"type":"function","name":"transfer","inputs":[{"name":"to","type":"address","internalType":"address"},{"name":"value","type":"uint256","internalType":"uint256"}],"outputs":[{"name":"","type":"bool","internalType":"bool"}],"stateMutability":"nonpayable"},{"type":"function","name":"transferFrom","inputs":[{"name":"from","type":"address","internalType":"address"},{"name":"to","type":"address","internalType":"address"},{"name":"value","type":"uint256","internalType":"uint256"}],"outputs":[{"name":"","type":"bool","internalType":"bool"}],"stateMutability":"nonpayable"},{"type":"event","name":"AddLiquidity","inputs":[{"name":"user","type":"address","indexed":true,"internalType":"address"},{"name":"amountA","type":"uint256","indexed":false,"internalType":"uint256"},{"name":"amountB","type":"uint256","indexed":false,"internalType":"uint256"},{"name":"lpMinted","type":"uint256","indexed":false,"internalType":"uint256"}],"anonymous":false},{"type":"event","name":"Approval","inputs":[{"name":"owner","type":"address","indexed":true,"internalType":"address"},{"name":"spender","type":"address","indexed":true,"internalType":"address"},{"name":"value","type":"uint256","indexed":false,"internalType":"uint256"}],"anonymous":false},{"type":"event","name":"RemoveLiquidity","inputs":[{"name":"user","type":"address","indexed":true,"internalType":"address"},{"name":"lpBurned","type":"uint256","indexed":false,"internalType":"uint256"},{"name":"amountA","type":"uint256","indexed":false,"internalType":"uint256"},{"name":"amountB","type":"uint256","indexed":false,"internalType":"uint256"}],"anonymous":false},{"type":"event","name":"Transfer","inputs":[{"name":"from","type":"address","indexed":true,"internalType":"address"},{"name":"to","type":"address","indexed":true,"internalType":"address"},{"name":"value","type":"uint256","indexed":false,"internalType":"uint256"}],"anonymous":false},{"type":"error","name":"ERC20InsufficientAllowance","inputs":[{"name":"spender","type":"address","internalType":"address"},{"name":"allowance","type":"uint256","internalType":"uint256"},{"name":"needed","type":"uint256","internalType":"uint256"}]},{"type":"error","name":"ERC20InsufficientBalance","inputs":[{"name":"sender","type":"address","internalType":"address"},{"name":"balance","type":"uint256","internalType":"uint256"},{"name":"needed","type":"uint256","internalType":"uint256"}]},{"type":"error","name":"ERC20InvalidApprover","inputs":[{"name":"approver","type":"address","internalType":"address"}]},{"type":"error","name":"ERC20InvalidReceiver","inputs":[{"name":"receiver","type":"address","internalType":"address"}]},{"type":"error","name":"ERC20InvalidSender","inputs":[{"name":"sender","type":"address","internalType":"address"}]},{"type":"error","name":"ERC20InvalidSpender","inputs":[{"name":"spender","type":"address","internalType":"address"}]},{"type":"error","name":"ReentrancyGuardReentrantCall","inputs":[]}],"bytecode":{"object":"0x60c060405234801562000010575f80fd5b5060405162001840380380620018408339810160408190526200003391620001b0565b85856003620000438382620002e7565b506004620000528282620002e7565b50505060016200006e6200006b620000af60201b60201c565b90565b556001600160a01b0393841660805291831660a052600680549184166001600160a01b03199283161790556005805492909316911617905550620003b39050565b7f9b779b17422d0df92223018b32b4d1fa46e071723d6817e2486d003becc55f0090565b634e487b7160e01b5f52604160045260245ffd5b5f82601f830112620000f7575f80fd5b81516001600160401b0380821115620001145762000114620000d3565b604051601f8301601f19908116603f011681019082821181831017156200013f576200013f620000d3565b81604052838152602092508660208588010111156200015c575f80fd5b5f91505b838210156200017f578582018301518183018401529082019062000160565b5f602085830101528094505050505092915050565b80516001600160a01b0381168114620001ab575f80fd5b919050565b5f805f805f8060c08789031215620001c6575f80fd5b86516001600160401b0380821115620001dd575f80fd5b620001eb8a838b01620000e7565b9750602089015191508082111562000201575f80fd5b506200021089828a01620000e7565b955050620002216040880162000194565b9350620002316060880162000194565b9250620002416080880162000194565b91506200025160a0880162000194565b90509295509295509295565b600181811c908216806200027257607f821691505b6020821081036200029157634e487b7160e01b5f52602260045260245ffd5b50919050565b601f821115620002e257805f5260205f20601f840160051c81016020851015620002be5750805b601f840160051c820191505b81811015620002df575f8155600101620002ca565b50505b505050565b81516001600160401b03811115620003035762000303620000d3565b6200031b816200031484546200025d565b8462000297565b602080601f83116001811462000351575f8415620003395750858301515b5f19600386901b1c1916600185901b178555620003ab565b5f85815260208120601f198616915b82811015620003815788860151825594840194600190910190840162000360565b50858210156200039f57878501515f19600388901b60f8161c191681555b505060018460011b0185555b505050505050565b60805160a0516114336200040d5f395f81816101d80152818161068e0152818161080501528181610ac10152610c7501525f8181610150015281816105fb0152818161075b01528181610a110152610bcb01526114335ff3fe608060405234801561000f575f80fd5b5060043610610106575f3560e01c806370a082311161009e5780639cd441da1161006e5780639cd441da14610245578063a9059cbb14610258578063c9b9f4351461026b578063dd62ed3e1461027e578063f851a440146102b6575f80fd5b806370a08231146101fa5780638da5cb5b1461022257806395d89b411461022a5780639c8f9f2314610232575f80fd5b806323b872dd116100d957806323b872dd1461019c578063313ce567146101af57806347d5f668146101be5780635f64b55b146101d3575f80fd5b806306fdde031461010a578063095ea7b3146101285780630fc63d101461014b57806318160ddd1461018a575b5f80fd5b6101126102c9565b60405161011f9190611184565b60405180910390f35b61013b6101363660046111e4565b610359565b604051901515815260200161011f565b6101727f000000000000000000000000000000000000000000000000000000000000000081565b6040516001600160a01b03909116815260200161011f565b6002545b60405190815260200161011f565b61013b6101aa36600461120e565b610372565b6040516012815260200161011f565b6101d16101cc36600461124c565b610395565b005b6101727f000000000000000000000000000000000000000000000000000000000000000081565b61018e61020836600461124c565b6001600160a01b03165f9081526020819052604090205490565b61017261042a565b61011261049a565b6101d161024036600461126e565b6104a9565b61018e610253366004611285565b6108f4565b61013b6102663660046111e4565b610d6e565b600554610172906001600160a01b031681565b61018e61028c3660046112a5565b6001600160a01b039182165f90815260016020908152604080832093909416825291909152205490565b600654610172906001600160a01b031681565b6060600380546102d8906112dc565b80601f0160208091040260200160405190810160405280929190818152602001828054610304906112dc565b801561034f5780601f106103265761010080835404028352916020019161034f565b820191905f5260205f20905b81548152906001019060200180831161033257829003601f168201915b5050505050905090565b5f33610366818585610d7b565b60019150505b92915050565b5f3361037f858285610d8d565b61038a858585610e09565b506001949350505050565b6006546001600160a01b03163314806103c657506103b161042a565b6001600160a01b0316336001600160a01b0316145b6104085760405162461bcd60e51b815260206004820152600e60248201526d139bdd08185d5d1a1bdc9a5e995960921b60448201526064015b60405180910390fd5b600580546001600160a01b0319166001600160a01b0392909216919091179055565b60065460408051638da5cb5b60e01b815290515f926001600160a01b031691638da5cb5b9160048083019260209291908290030181865afa158015610471573d5f803e3d5ffd5b505050506040513d601f19601f82011682018060405250810190610495919061130e565b905090565b6060600480546102d8906112dc565b6104b1610e66565b60065f9054906101000a90046001600160a01b03166001600160a01b0316635c975abb6040518163ffffffff1660e01b8152600401602060405180830381865afa158015610501573d5f803e3d5ffd5b505050506040513d601f19601f820116820180604052508101906105259190611329565b1561055b5760405162461bcd60e51b815260206004820152600660248201526514185d5cd95960d21b60448201526064016103ff565b5f81116105945760405162461bcd60e51b81526020600482015260076024820152664c50207a65726f60c81b60448201526064016103ff565b335f908152602081905260409020548111156105e45760405162461bcd60e51b815260206004820152600f60248201526e0496e73756666696369656e74204c5608c1b60448201526064016103ff565b6040516370a0823160e01b81523060048201525f907f00000000000000000000000000000000000000000000000000000000000000006001600160a01b0316906370a0823190602401602060405180830381865afa158015610648573d5f803e3d5ffd5b505050506040513d601f19601f8201168201806040525081019061066c9190611348565b6040516370a0823160e01b81523060048201529091505f906001600160a01b037f000000000000000000000000000000000000000000000000000000000000000016906370a0823190602401602060405180830381865afa1580156106d3573d5f803e3d5ffd5b505050506040513d601f19601f820116820180604052508101906106f79190611348565b90505f61070360025490565b90505f816107118587611373565b61071b919061138a565b90505f826107298588611373565b610733919061138a565b905061073f3387610e81565b60405163a9059cbb60e01b8152336004820152602481018390527f00000000000000000000000000000000000000000000000000000000000000006001600160a01b03169063a9059cbb906044016020604051808303815f875af11580156107a9573d5f803e3d5ffd5b505050506040513d601f19601f820116820180604052508101906107cd9190611329565b6107e95760405162461bcd60e51b81526004016103ff906113a9565b60405163a9059cbb60e01b8152336004820152602481018290527f00000000000000000000000000000000000000000000000000000000000000006001600160a01b03169063a9059cbb906044016020604051808303815f875af1158015610853573d5f803e3d5ffd5b505050506040513d601f19601f820116820180604052508101906108779190611329565b6108935760405162461bcd60e51b81526004016103ff906113a9565b604080518781526020810184905290810182905233907f59c3a0b60c6ab7deb62e1440c9e72441db6db7dfe514dba8cb18e60c0d896efa9060600160405180910390a250505050506108f160015f805160206113de83398151915255565b50565b5f6108fd610e66565b60065f9054906101000a90046001600160a01b03166001600160a01b0316635c975abb6040518163ffffffff1660e01b8152600401602060405180830381865afa15801561094d573d5f803e3d5ffd5b505050506040513d601f19601f820116820180604052508101906109719190611329565b156109a75760405162461bcd60e51b815260206004820152600660248201526514185d5cd95960d21b60448201526064016103ff565b5f831180156109b557505f82115b6109ef5760405162461bcd60e51b815260206004820152600b60248201526a416d6f756e74207a65726f60a81b60448201526064016103ff565b6040516323b872dd60e01b8152336004820152306024820152604481018490527f00000000000000000000000000000000000000000000000000000000000000006001600160a01b0316906323b872dd906064016020604051808303815f875af1158015610a5f573d5f803e3d5ffd5b505050506040513d601f19601f82011682018060405250810190610a839190611329565b610a9f5760405162461bcd60e51b81526004016103ff906113a9565b6040516323b872dd60e01b8152336004820152306024820152604481018390527f00000000000000000000000000000000000000000000000000000000000000006001600160a01b0316906323b872dd906064016020604051808303815f875af1158015610b0f573d5f803e3d5ffd5b505050506040513d601f19601f82011682018060405250810190610b339190611329565b610b4f5760405162461bcd60e51b81526004016103ff906113a9565b6002545f03610bb457610b6a610b658385611373565b610eb9565b90506103e8811015610baf5760405162461bcd60e51b815260206004820152600e60248201526d135a5b881314081b9bdd081b595d60921b60448201526064016103ff565b610d0b565b6040516370a0823160e01b81523060048201525f907f00000000000000000000000000000000000000000000000000000000000000006001600160a01b0316906370a0823190602401602060405180830381865afa158015610c18573d5f803e3d5ffd5b505050506040513d601f19601f82011682018060405250810190610c3c9190611348565b600254610c499086611373565b610c53919061138a565b6040516370a0823160e01b81523060048201529091505f906001600160a01b037f000000000000000000000000000000000000000000000000000000000000000016906370a0823190602401602060405180830381865afa158015610cba573d5f803e3d5ffd5b505050506040513d601f19601f82011682018060405250810190610cde9190611348565b600254610ceb9086611373565b610cf5919061138a565b9050808210610d045780610d06565b815b925050505b610d153382610f27565b604080518481526020810184905290810182905233907fbeb3885786d637a474cbc287c0a44587231633a077f0bd30354d5a4b18996fce9060600160405180910390a261036c60015f805160206113de83398151915255565b5f33610366818585610e09565b610d888383836001610f5b565b505050565b6001600160a01b038381165f908152600160209081526040808320938616835292905220545f19811015610e035781811015610df557604051637dc7a0d960e11b81526001600160a01b038416600482015260248101829052604481018390526064016103ff565b610e0384848484035f610f5b565b50505050565b6001600160a01b038316610e3257604051634b637e8f60e11b81525f60048201526024016103ff565b6001600160a01b038216610e5b5760405163ec442f0560e01b81525f60048201526024016103ff565b610d8883838361102d565b610e6e611153565b60025f805160206113de83398151915255565b6001600160a01b038216610eaa57604051634b637e8f60e11b81525f60048201526024016103ff565b610eb5825f8361102d565b5050565b5f6003821115610f185750805f610ed160028361138a565b610edc9060016113ca565b90505b81811015610f1257905080600281610ef7818661138a565b610f0191906113ca565b610f0b919061138a565b9050610edf565b50919050565b8115610f22575060015b919050565b6001600160a01b038216610f505760405163ec442f0560e01b81525f60048201526024016103ff565b610eb55f838361102d565b6001600160a01b038416610f845760405163e602df0560e01b81525f60048201526024016103ff565b6001600160a01b038316610fad57604051634a1406b160e11b81525f60048201526024016103ff565b6001600160a01b038085165f9081526001602090815260408083209387168352929052208290558015610e0357826001600160a01b0316846001600160a01b03167f8c5be1e5ebec7d5bd14f71427d1e84f3dd0314c0f7b2291e5b200ac8c7c3b9258460405161101f91815260200190565b60405180910390a350505050565b6001600160a01b038316611057578060025f82825461104c91906113ca565b909155506110c79050565b6001600160a01b0383165f90815260208190526040902054818110156110a95760405163391434e360e21b81526001600160a01b038516600482015260248101829052604481018390526064016103ff565b6001600160a01b0384165f9081526020819052604090209082900390555b6001600160a01b0382166110e357600280548290039055611101565b6001600160a01b0382165f9081526020819052604090208054820190555b816001600160a01b0316836001600160a01b03167fddf252ad1be2c89b69c2b068fc378daa952ba7f163c4a11628f55a4df523b3ef8360405161114691815260200190565b60405180910390a3505050565b5f805160206113de8339815191525460020361118257604051633ee5aeb560e01b815260040160405180910390fd5b565b5f602080835283518060208501525f5b818110156111b057858101830151858201604001528201611194565b505f604082860101526040601f19601f8301168501019250505092915050565b6001600160a01b03811681146108f1575f80fd5b5f80604083850312156111f5575f80fd5b8235611200816111d0565b946020939093013593505050565b5f805f60608486031215611220575f80fd5b833561122b816111d0565b9250602084013561123b816111d0565b929592945050506040919091013590565b5f6020828403121561125c575f80fd5b8135611267816111d0565b9392505050565b5f6020828403121561127e575f80fd5b5035919050565b5f8060408385031215611296575f80fd5b50508035926020909101359150565b5f80604083850312156112b6575f80fd5b82356112c1816111d0565b915060208301356112d1816111d0565b809150509250929050565b600181811c908216806112f057607f821691505b602082108103610f1257634e487b7160e01b5f52602260045260245ffd5b5f6020828403121561131e575f80fd5b8151611267816111d0565b5f60208284031215611339575f80fd5b81518015158114611267575f80fd5b5f60208284031215611358575f80fd5b5051919050565b634e487b7160e01b5f52601160045260245ffd5b808202811582820484141761036c5761036c61135f565b5f826113a457634e487b7160e01b5f52601260045260245ffd5b500490565b60208082526007908201526615118819985a5b60ca1b604082015260600190565b8082018082111561036c5761036c61135f56fe9b779b17422d0df92223018b32b4d1fa46e071723d6817e2486d003becc55f00a26469706673582212207d2a3d09373f8ed1bfe958ecf3444f0ab1f0a467d57806aee55b71286d932a3164736f6c63430008180033","linkReferences":{}},"methodIdentifiers":{"addLiquidity(uint256,uint256)":"9cd441da","admin()":"f851a440","allowance(address,address)":"dd62ed3e","approve(address,uint256)":"095ea7b3","balanceOf(address)":"70a08231","decimals()":"313ce567","dexContract()":"c9b9f435","name()":"06fdde03","owner()":"8da5cb5b","removeLiquidity(uint256)":"9c8f9f23","setDexContract(address)":"47d5f668","symbol()":"95d89b41","tokenA()":"0fc63d10","tokenB()":"5f64b55b","totalSupply()":"18160ddd","transfer(address,uint256)":"a9059cbb","transferFrom(address,address,uint256)":"23b872dd"},"id":2}