{"abi":[{"type":"constructor","inputs":[{"name":"_signers","type":"address[]","internalType":"address[]"},{"name":"_threshold","type":"uint256","internalType":"uint256"},{"name":"_timelockDelay","type":"uint256","internalType":"uint256"},{"name":"_dailyLimit","type":"uint256","internalType":"uint256"}],"stateMutability":"nonpayable"},{"type":"function","name":"ADMIN_ROLE","inputs":[],"outputs":[{"name":"","type":"bytes32","internalType":"bytes32"}],"stateMutability":"view"},{"type":"function","name":"DEFAULT_ADMIN_ROLE","inputs":[],"outputs":[{"name":"","type":"bytes32","internalType":"bytes32"}],"stateMutability":"view"},{"type":"function","name":"OPERATOR_ROLE","inputs":[],"outputs":[{"name":"","type":"bytes32","internalType":"bytes32"}],"stateMutability":"view"},{"type":"function","name":"SIGNER_ROLE","inputs":[],"outputs":[{"name":"","type":"bytes32","internalType":"bytes32"}],"stateMutability":"view"},{"type":"function","name":"cancelWithdrawal","inputs":[{"name":"withdrawalId","type":"bytes32","internalType":"bytes32"}],"outputs":[],"stateMutability":"nonpayable"},{"type":"function","name":"dailyLimit","inputs":[],"outputs":[{"name":"","type":"uint256","internalType":"uint256"}],"stateMutability":"view"},{"type":"function","name":"dailyWithdrawn","inputs":[],"outputs":[{"name":"","type":"uint256","internalType":"uint256"}],"stateMutability":"view"},{"type":"function","name":"deposit","inputs":[{"name":"token","type":"address","internalType":"address"},{"name":"amount","type":"uint256","internalType":"uint256"}],"outputs":[],"stateMutability":"nonpayable"},{"type":"function","name":"eip712Domain","inputs":[],"outputs":[{"name":"fields","type":"bytes1","internalType":"bytes1"},{"name":"name","type":"string","internalType":"string"},{"name":"version","type":"string","internalType":"string"},{"name":"chainId","type":"uint256","internalType":"uint256"},{"name":"verifyingContract","type":"address","internalType":"address"},{"name":"salt","type":"bytes32","internalType":"bytes32"},{"name":"extensions","type":"uint256[]","internalType":"uint256[]"}],"stateMutability":"view"},{"type":"function","name":"executeWithdrawal","inputs":[{"name":"withdrawalId","type":"bytes32","internalType":"bytes32"}],"outputs":[],"stateMutability":"nonpayable"},{"type":"function","name":"executedWithdrawals","inputs":[{"name":"","type":"bytes32","internalType":"bytes32"}],"outputs":[{"name":"","type":"bool","internalType":"bool"}],"stateMutability":"view"},{"type":"function","name":"getRoleAdmin","inputs":[{"name":"role","type":"bytes32","internalType":"bytes32"}],"outputs":[{"name":"","type":"bytes32","internalType":"bytes32"}],"stateMutability":"view"},{"type":"function","name":"getRoleMember","inputs":[{"name":"role","type":"bytes32","internalType":"bytes32"},{"name":"index","type":"uint256","internalType":"uint256"}],"outputs":[{"name":"","type":"address","internalType":"address"}],"stateMutability":"view"},{"type":"function","name":"getRoleMemberCount","inputs":[{"name":"role","type":"bytes32","internalType":"bytes32"}],"outputs":[{"name":"","type":"uint256","internalType":"uint256"}],"stateMutability":"view"},{"type":"function","name":"getRoleMembers","inputs":[{"name":"role","type":"bytes32","internalType":"bytes32"}],"outputs":[{"name":"","type":"address[]","internalType":"address[]"}],"stateMutability":"view"},{"type":"function","name":"grantRole","inputs":[{"name":"role","type":"bytes32","internalType":"bytes32"},{"name":"account","type":"address","internalType":"address"}],"outputs":[],"stateMutability":"nonpayable"},{"type":"function","name":"hasRole","inputs":[{"name":"role","type":"bytes32","internalType":"bytes32"},{"name":"account","type":"address","internalType":"address"}],"outputs":[{"name":"","type":"bool","internalType":"bool"}],"stateMutability":"view"},{"type":"function","name":"lastWithdrawDay","inputs":[],"outputs":[{"name":"","type":"uint256","internalType":"uint256"}],"stateMutability":"view"},{"type":"function","name":"nonces","inputs":[{"name":"","type":"address","internalType":"address"}],"outputs":[{"name":"","type":"uint256","internalType":"uint256"}],"stateMutability":"view"},{"type":"function","name":"pause","inputs":[],"outputs":[],"stateMutability":"nonpayable"},{"type":"function","name":"paused","inputs":[],"outputs":[{"name":"","type":"bool","internalType":"bool"}],"stateMutability":"view"},{"type":"function","name":"pendingWithdrawals","inputs":[{"name":"","type":"bytes32","internalType":"bytes32"}],"outputs":[{"name":"token","type":"address","internalType":"address"},{"name":"to","type":"address","internalType":"address"},{"name":"amount","type":"uint256","internalType":"uint256"},{"name":"unlockTime","type":"uint256","internalType":"uint256"},{"name":"executed","type":"bool","internalType":"bool"}],"stateMutability":"view"},{"type":"function","name":"recoverETH","inputs":[{"name":"to","type":"address","internalType":"address"}],"outputs":[],"stateMutability":"nonpayable"},{"type":"function","name":"renounceRole","inputs":[{"name":"role","type":"bytes32","internalType":"bytes32"},{"name":"callerConfirmation","type":"address","internalType":"address"}],"outputs":[],"stateMutability":"nonpayable"},{"type":"function","name":"requestWithdrawal","inputs":[{"name":"token","type":"address","internalType":"address"},{"name":"to","type":"address","internalType":"address"},{"name":"amount","type":"uint256","internalType":"uint256"},{"name":"deadline","type":"uint256","internalType":"uint256"},{"name":"signatures","type":"bytes[]","internalType":"bytes[]"}],"outputs":[{"name":"","type":"bytes32","internalType":"bytes32"}],"stateMutability":"nonpayable"},{"type":"function","name":"revokeRole","inputs":[{"name":"role","type":"bytes32","internalType":"bytes32"},{"name":"account","type":"address","internalType":"address"}],"outputs":[],"stateMutability":"nonpayable"},{"type":"function","name":"setDailyLimit","inputs":[{"name":"_limit","type":"uint256","internalType":"uint256"}],"outputs":[],"stateMutability":"nonpayable"},{"type":"function","name":"setThreshold","inputs":[{"name":"_threshold","type":"uint256","internalType":"uint256"}],"outputs":[],"stateMutability":"nonpayable"},{"type":"function","name":"setTimelockDelay","inputs":[{"name":"_delay","type":"uint256","internalType":"uint256"}],"outputs":[],"stateMutability":"nonpayable"},{"type":"function","name":"supportsInterface","inputs":[{"name":"interfaceId","type":"bytes4","internalType":"bytes4"}],"outputs":[{"name":"","type":"bool","internalType":"bool"}],"stateMutability":"view"},{"type":"function","name":"threshold","inputs":[],"outputs":[{"name":"","type":"uint256","internalType":"uint256"}],"stateMutability":"view"},{"type":"function","name":"timelockDelay","inputs":[],"outputs":[{"name":"","type":"uint256","internalType":"uint256"}],"stateMutability":"view"},{"type":"function","name":"unpause","inputs":[],"outputs":[],"stateMutability":"nonpayable"},{"type":"function","name":"updateSigners","inputs":[{"name":"_signers","type":"address[]","internalType":"address[]"},{"name":"_threshold","type":"uint256","internalType":"uint256"}],"outputs":[],"stateMutability":"nonpayable"},{"type":"event","name":"DailyLimitUpdated","inputs":[{"name":"newLimit","type":"uint256","indexed":false,"internalType":"uint256"}],"anonymous":false},{"type":"event","name":"Deposit","inputs":[{"name":"token","type":"address","indexed":true,"internalType":"address"},{"name":"from","type":"address","indexed":true,"internalType":"address"},{"name":"amount","type":"uint256","indexed":false,"internalType":"uint256"}],"anonymous":false},{"type":"event","name":"EIP712DomainChanged","inputs":[],"anonymous":false},{"type":"event","name":"Paused","inputs":[{"name":"account","type":"address","indexed":false,"internalType":"address"}],"anonymous":false},{"type":"event","name":"RoleAdminChanged","inputs":[{"name":"role","type":"bytes32","indexed":true,"internalType":"bytes32"},{"name":"previousAdminRole","type":"bytes32","indexed":true,"internalType":"bytes32"},{"name":"newAdminRole","type":"bytes32","indexed":true,"internalType":"bytes32"}],"anonymous":false},{"type":"event","name":"RoleGranted","inputs":[{"name":"role","type":"bytes32","indexed":true,"internalType":"bytes32"},{"name":"account","type":"address","indexed":true,"internalType":"address"},{"name":"sender","type":"address","indexed":true,"internalType":"address"}],"anonymous":false},{"type":"event","name":"RoleRevoked","inputs":[{"name":"role","type":"bytes32","indexed":true,"internalType":"bytes32"},{"name":"account","type":"address","indexed":true,"internalType":"address"},{"name":"sender","type":"address","indexed":true,"internalType":"address"}],"anonymous":false},{"type":"event","name":"SignersUpdated","inputs":[{"name":"signers","type":"address[]","indexed":false,"internalType":"address[]"},{"name":"newThreshold","type":"uint256","indexed":false,"internalType":"uint256"}],"anonymous":false},{"type":"event","name":"TimelockUpdated","inputs":[{"name":"newDelay","type":"uint256","indexed":false,"internalType":"uint256"}],"anonymous":false},{"type":"event","name":"Unpaused","inputs":[{"name":"account","type":"address","indexed":false,"internalType":"address"}],"anonymous":false},{"type":"event","name":"WithdrawalCancelled","inputs":[{"name":"withdrawalId","type":"bytes32","indexed":true,"internalType":"bytes32"}],"anonymous":false},{"type":"event","name":"WithdrawalExecuted","inputs":[{"name":"withdrawalId","type":"bytes32","indexed":true,"internalType":"bytes32"},{"name":"token","type":"address","indexed":false,"internalType":"address"},{"name":"to","type":"address","indexed":false,"internalType":"address"},{"name":"amount","type":"uint256","indexed":false,"internalType":"uint256"}],"anonymous":false},{"type":"event","name":"WithdrawalRequested","inputs":[{"name":"withdrawalId","type":"bytes32","indexed":true,"internalType":"bytes32"},{"name":"token","type":"address","indexed":false,"internalType":"address"},{"name":"to","type":"address","indexed":false,"internalType":"address"},{"name":"amount","type":"uint256","indexed":false,"internalType":"uint256"},{"name":"unlockTime","type":"uint256","indexed":false,"internalType":"uint256"}],"anonymous":false},{"type":"error","name":"AccessControlBadConfirmation","inputs":[]},{"type":"error","name":"AccessControlUnauthorizedAccount","inputs":[{"name":"account","type":"address","internalType":"address"},{"name":"neededRole","type":"bytes32","internalType":"bytes32"}]},{"type":"error","name":"AlreadyExecuted","inputs":[{"name":"withdrawalId","type":"bytes32","internalType":"bytes32"}]},{"type":"error","name":"DailyLimitExceeded","inputs":[{"name":"requested","type":"uint256","internalType":"uint256"},{"name":"limit","type":"uint256","internalType":"uint256"}]},{"type":"error","name":"ECDSAInvalidSignature","inputs":[]},{"type":"error","name":"ECDSAInvalidSignatureLength","inputs":[{"name":"length","type":"uint256","internalType":"uint256"}]},{"type":"error","name":"ECDSAInvalidSignatureS","inputs":[{"name":"s","type":"bytes32","internalType":"bytes32"}]},{"type":"error","name":"EnforcedPause","inputs":[]},{"type":"error","name":"ExpectedPause","inputs":[]},{"type":"error","name":"InsufficientSignatures","inputs":[{"name":"required","type":"uint256","internalType":"uint256"},{"name":"provided","type":"uint256","internalType":"uint256"}]},{"type":"error","name":"InvalidNonce","inputs":[]},{"type":"error","name":"InvalidShortString","inputs":[]},{"type":"error","name":"InvalidSignature","inputs":[]},{"type":"error","name":"InvalidThreshold","inputs":[]},{"type":"error","name":"ReentrancyGuardReentrantCall","inputs":[]},{"type":"error","name":"SafeERC20FailedOperation","inputs":[{"name":"token","type":"address","internalType":"address"}]},{"type":"error","name":"StringTooLong","inputs":[{"name":"str","type":"string","internalType":"string"}]},{"type":"error","name":"Timelocked","inputs":[{"name":"unlockTime","type":"uint256","internalType":"uint256"}]},{"type":"error","name":"WithdrawalExpired","inputs":[{"name":"deadline","type":"uint256","internalType":"uint256"}]},{"type":"error","name":"ZeroAddress","inputs":[]}],"bytecode":{"object":"0x610160604052348015610010575f80fd5b506040516128c33803806128c383398101604081905261002f91610467565b604051806040016040528060088152602001671094d0d5985d5b1d60c21b815250604051806040016040528060018152602001603160f81b815250600161008061007d61026d60201b60201c565b90565b5561008c826003610291565b6101205261009b816004610291565b61014052815160208084019190912060e052815190820120610100524660a05261012760e05161010051604080517f8b73c3c69bb8fe3d512ecc4cf759cc79239f7b179b0ffacaa9a75d522b39400f60208201529081019290925260608201524660808201523060a08201525f9060c00160405160208183030381529060405280519060200120905090565b60805250503060c05283515f036101515760405163d92e233d60e01b815260040160405180910390fd5b82158061015e5750835183115b1561017c5760405163aabd5a0960e01b815260040160405180910390fd5b6101865f336102c3565b506101b17fa49807205ce4d355092ef5a8a18f56e8913cf4a201fbe287825b095693c21775336102c3565b505f5b845181101561025a575f6001600160a01b03168582815181106101d9576101d961054b565b60200260200101516001600160a01b0316036102085760405163d92e233d60e01b815260040160405180910390fd5b6102517fe2f4eaae4a9751e85a3e4a7b9587827a877f29914755229b07a7b2da98285f7086838151811061023e5761023e61054b565b60200260200101516102c360201b60201c565b506001016101b4565b50600592909255600655600755506106f5565b7f9b779b17422d0df92223018b32b4d1fa46e071723d6817e2486d003becc55f0090565b5f6020835110156102ac576102a5836102f7565b90506102bd565b816102b784826105e3565b5060ff90505b92915050565b5f806102cf848461033d565b905080156102f0575f8481526001602052604090206102ee90846103e4565b505b9392505050565b5f80829050601f8151111561032a578260405163305a27a960e01b8152600401610321919061069d565b60405180910390fd5b8051610335826106d2565b179392505050565b5f828152602081815260408083206001600160a01b038516845290915281205460ff166103dd575f838152602081815260408083206001600160a01b03861684529091529020805460ff191660011790556103953390565b6001600160a01b0316826001600160a01b0316847f2f8788117e7eff1d82e926ec794901d17c78024a50270940304540a733656f0d60405160405180910390a45060016102bd565b505f6102bd565b5f6102f0836001600160a01b0384165f8181526001830160205260408120546103dd57508154600181810184555f8481526020808220909301849055845484825282860190935260409020919091556102bd565b634e487b7160e01b5f52604160045260245ffd5b80516001600160a01b0381168114610462575f80fd5b919050565b5f805f806080858703121561047a575f80fd5b84516001600160401b0381111561048f575f80fd5b8501601f8101871361049f575f80fd5b80516001600160401b038111156104b8576104b8610438565b604051600582901b90603f8201601f191681016001600160401b03811182821017156104e6576104e6610438565b60405291825260208184018101929081018a841115610503575f80fd5b6020850194505b838510156105295761051b8561044c565b81526020948501940161050a565b50602089015160408a01516060909a0151919b909a5090975095505050505050565b634e487b7160e01b5f52603260045260245ffd5b600181811c9082168061057357607f821691505b60208210810361059157634e487b7160e01b5f52602260045260245ffd5b50919050565b601f8211156105de57805f5260205f20601f840160051c810160208510156105bc5750805b601f840160051c820191505b818110156105db575f81556001016105c8565b50505b505050565b81516001600160401b038111156105fc576105fc610438565b6106108161060a845461055f565b84610597565b6020601f821160018114610642575f831561062b5750848201515b5f19600385901b1c1916600184901b1784556105db565b5f84815260208120601f198516915b828110156106715787850151825560209485019460019092019101610651565b508482101561068e57868401515f19600387901b60f8161c191681555b50505050600190811b01905550565b602081525f82518060208401528060208501604085015e5f604082850101526040601f19601f83011684010191505092915050565b80516020808301519190811015610591575f1960209190910360031b1b16919050565b60805160a05160c05160e05161010051610120516101405161217d6107465f395f61113a01525f61110801525f611a2201525f6119fa01525f61195501525f61197f01525f6119a9015261217d5ff3fe608060405234801561000f575f80fd5b50600436106101fd575f3560e01c80638adbc98e11610114578063af267f8f116100a9578063ca15c87311610079578063ca15c873146104cb578063d547741f146104de578063d7c4cbb8146104f1578063eef09bad146104fa578063f5b541a614610503575f80fd5b8063af267f8f14610412578063b20d30a914610425578063b7f06ebe14610438578063b9c2aa43146104b8575f80fd5b8063a1ebf35d116100e4578063a1ebf35d146103c4578063a217fddf146103d8578063a3246ad3146103df578063a3cf37b2146103ff575f80fd5b80638adbc98e1461036a5780639010d07c1461037357806391d148541461039e578063960bfe04146103b1575f80fd5b806347e7ef241161019557806375b238fc1161016557806375b238fc146102f2578063799c1d4e146103065780637ecebe00146103285780638456cb591461034757806384b0196e1461034f575f80fd5b806347e7ef24146102b85780635c975abb146102cb57806367eeba0c146102d65780637213c5a0146102df575f80fd5b80632f2ff15d116101d05780632f2ff15d1461028157806336568abe146102945780633f4ba83a146102a757806342cde4e8146102af575f80fd5b806301ffc9a71461020157806311ff708d14610229578063134dfcd81461023e578063248a9ca314610251575b5f80fd5b61021461020f366004611c62565b61052a565b60405190151581526020015b60405180910390f35b61023c610237366004611cd1565b610554565b005b61023c61024c366004611d34565b6106d7565b61027361025f366004611d4d565b5f9081526020819052604090206001015490565b604051908152602001610220565b61023c61028f366004611d64565b610725565b61023c6102a2366004611d64565b61074f565b61023c610782565b61027360055481565b61023c6102c6366004611d8e565b6107a4565b60025460ff16610214565b61027360075481565b61023c6102ed366004611d4d565b610851565b6102735f8051602061212883398151915281565b610214610314366004611d4d565b600c6020525f908152604090205460ff1681565b610273610336366004611d34565b60086020525f908152604090205481565b61023c610942565b610357610961565b6040516102209796959493929190611de4565b61027360095481565b610386610381366004611e7a565b6109a3565b6040516001600160a01b039091168152602001610220565b6102146103ac366004611d64565b6109c1565b61023c6103bf366004611d4d565b6109e9565b6102735f805160206120e883398151915281565b6102735f81565b6103f26103ed366004611d4d565b610a26565b6040516102209190611e9a565b61027361040d366004611ee5565b610a3f565b61023c610420366004611d4d565b610d48565b61023c610433366004611d4d565b610d9c565b610483610446366004611d4d565b600b6020525f9081526040902080546001820154600283015460038401546004909401546001600160a01b03938416949390921692909160ff1685565b604080516001600160a01b0396871681529590941660208601529284019190915260608301521515608082015260a001610220565b61023c6104c6366004611d4d565b610de8565b6102736104d9366004611d4d565b610f25565b61023c6104ec366004611d64565b610f3b565b610273600a5481565b61027360065481565b6102737f97667070c54ef182b0f5858b034beac1b6f3089aa2d3188bb1e8929f4fa9b92981565b5f6001600160e01b03198216635a05180f60e01b148061054e575061054e82610f5f565b92915050565b5f8051602061212883398151915261056b81610f93565b81158061057757508282115b156105955760405163aabd5a0960e01b815260040160405180910390fd5b5f6105ac5f805160206120e8833981519152610f25565b90505f5b818110156105ee576105e55f805160206120e88339815191526105e05f805160206120e88339815191525f6109a3565b610f9d565b506001016105b0565b505f5b8481101561068e575f86868381811061060c5761060c611f58565b90506020020160208101906106219190611d34565b6001600160a01b0316036106485760405163d92e233d60e01b815260040160405180910390fd5b6106855f805160206120e883398151915287878481811061066b5761066b611f58565b90506020020160208101906106809190611d34565b610fd0565b506001016105f1565b5060058390556040517feb4dc7fab86d67670d7a4d7443a38860da1aa053f26529c8f41cc68e5d6a9336906106c890879087908790611f6c565b60405180910390a15050505050565b5f805160206121288339815191526106ee81610f93565b6040516001600160a01b038316904780156108fc02915f818181858888f19350505050158015610720573d5f803e3d5ffd5b505050565b5f8281526020819052604090206001015461073f81610f93565b6107498383610fd0565b50505050565b6001600160a01b03811633146107785760405163334bd91960e11b815260040160405180910390fd5b6107208282610f9d565b5f8051602061212883398151915261079981610f93565b6107a1610ffb565b50565b6107ac61104d565b6107b4611068565b6001600160a01b0382166107db5760405163d92e233d60e01b815260040160405180910390fd5b8015610837576107f66001600160a01b03831633308461108e565b60405181815233906001600160a01b038416907f5548c837ab068cf56a2c2479df0882a4922fd203edb7517321831d95078c5f629060200160405180910390a35b61084d60015f8051602061210883398151915255565b5050565b5f8051602061212883398151915261086881610f93565b5f828152600b60205260409020600481015460ff16156108a35760405163d1d36dcd60e01b8152600481018490526024015b60405180910390fd5b80600201545f036108b2575f80fd5b6002808201545f858152600b6020526040812080546001600160a01b031990811682556001820180549091169055928301819055600383018190556004909201805460ff19169055600980549192839261090d908490611fd3565b909155505060405184907f2c3f6464ee7dbe9f7d807f41160b09edb0dfc340865796a3b9d03c9fe1b1b028905f90a250505050565b5f8051602061212883398151915261095981610f93565b6107a16110c4565b5f6060805f805f6060610972611101565b61097a611133565b604080515f80825260208201909252600f60f81b9b939a50919850469750309650945092509050565b5f8281526001602052604081206109ba9083611160565b9392505050565b5f918252602082815260408084206001600160a01b0393909316845291905290205460ff1690565b5f80516020612128833981519152610a0081610f93565b815f03610a205760405163aabd5a0960e01b815260040160405180910390fd5b50600555565b5f81815260016020526040902060609061054e9061116b565b5f610a4861104d565b610a50611068565b6001600160a01b0387161580610a6d57506001600160a01b038616155b15610a8b5760405163d92e233d60e01b815260040160405180910390fd5b845f03610a9957505f610d28565b83421115610abd57604051638432fbfb60e01b81526004810185905260240161089a565b5f610acb6201518042611ffa565b9050600a548114610ae0575f600955600a8190555b5f600754118015610aff575060075486600954610afd9190612019565b115b15610b2b576007546040516377b326b560e11b815261089a918891600401918252602082015260400190565b5f610b3a898989898989611177565b9050600554811015610b6d576005546040516378f4355360e11b815260048101919091526024810182905260440161089a565b6040516bffffffffffffffffffffffff1960608b811b821660208401528a901b1660348201526048810188905260688101879052608881018290525f9060a80160408051601f1981840301815291815281516020928301205f818152600c90935291205490915060ff1615610bf85760405163d1d36dcd60e01b81526004810182905260240161089a565b5f6002600754610c089190611ffa565b8911610c145742610c21565b600654610c219042612019565b6040805160a0810182526001600160a01b03808f1682528d811660208084019182528385018f8152606085018781525f608087018181528b8252600b909452968720955186549086166001600160a01b031991821617875593516001870180549190961694169390931790935591516002840155516003830155516004909101805491151560ff19909216919091179055600980549293508b92909190610cc9908490612019565b9091555050604080516001600160a01b03808e1682528c1660208201529081018a90526060810182905282907fbbe20f08f339dc9559b37f552a777f308f76bdf20a5af0470f3650f5965b68a79060800160405180910390a250925050505b610d3e60015f8051602061210883398151915255565b9695505050505050565b5f80516020612128833981519152610d5f81610f93565b60068290556040518281527f23db4e72aa833f6e2e83af944353bc76dc2be79a8786e5e4a7592d313b769d4c906020015b60405180910390a15050565b5f80516020612128833981519152610db381610f93565b60078290556040518281527f6cd8635c4285386b9de2e59a4c1eaf32ad41f28ae64c308280217d7af51464e090602001610d90565b610df061104d565b610df8611068565b5f818152600b60205260409020600481015460ff1615610e2e5760405163d1d36dcd60e01b81526004810183905260240161089a565b80600201545f03610e3d575f80fd5b8060030154421015610e6a5780600301546040516397a6a34360e01b815260040161089a91815260200190565b600481018054600160ff1991821681179092555f848152600c6020526040902080549091168217905581015460028201548254610eb5926001600160a01b03918216929116906113b0565b805460018201546002830154604080516001600160a01b0394851681529390921660208401529082015282907fedbb1d2a668dc012e1f90419b492c1cdd90c45e48afaa766e9befc71e992d70c9060600160405180910390a2506107a160015f8051602061210883398151915255565b5f81815260016020526040812061054e906113e5565b5f82815260208190526040902060010154610f5581610f93565b6107498383610f9d565b5f6001600160e01b03198216637965db0b60e01b148061054e57506301ffc9a760e01b6001600160e01b031983161461054e565b6107a181336113ee565b5f80610fa98484611427565b905080156109ba575f848152600160205260409020610fc89084611497565b509392505050565b5f80610fdc84846114ab565b905080156109ba575f848152600160205260409020610fc89084611533565b611003611547565b6002805460ff191690557f5db9ee0a495bf2e6ff9c91a7834c1ba4fdd244a5e8aa4e537bd38aeae4b073aa335b6040516001600160a01b03909116815260200160405180910390a1565b61105561156a565b60025f8051602061210883398151915255565b60025460ff161561108c5760405163d93c066560e01b815260040160405180910390fd5b565b61109c848484846001611599565b61074957604051635274afe760e01b81526001600160a01b038516600482015260240161089a565b6110cc611068565b6002805460ff191660011790557f62e78cea01bee320cd4e420270b5ea74000d11b0c9f74754ebdbfc544b05a2586110303390565b606061112e7f00000000000000000000000000000000000000000000000000000000000000006003611606565b905090565b606061112e7f00000000000000000000000000000000000000000000000000000000000000006004611606565b5f6109ba83836116af565b60605f6109ba836116d5565b335f908152600860205260408120805482917f1ad2d867df35cbedfaffd3993388cb7a489c57327ee8800f4b6c2c899ccf4661918a918a918a91866111bb8361202c565b909155506040805160208101969096526001600160a01b0394851690860152929091166060840152608083015260a082015260c0810186905260e0016040516020818303038152906040528051906020012090505f6112198261172e565b90505f808567ffffffffffffffff81111561123657611236611fe6565b60405190808252806020026020018201604052801561125f578160200160208202803683370190505b5090505f5b868110156113a0575f6112ce858a8a8581811061128357611283611f58565b90506020028101906112959190612044565b8080601f0160208091040260200160405190810160405280939291908181526020018383808284375f9201919091525061175a92505050565b90506112e75f805160206120e8833981519152826109c1565b6112f15750611398565b5f805b8581101561133f57826001600160a01b031685828151811061131857611318611f58565b60200260200101516001600160a01b031603611337576001915061133f565b6001016112f4565b50801561134d575050611398565b8184868151811061136057611360611f58565b6001600160a01b0390921660209283029190910190910152846113828161202c565b95505060055485106113955750506113a0565b50505b600101611264565b50909a9950505050505050505050565b6113bd8383836001611782565b61072057604051635274afe760e01b81526001600160a01b038416600482015260240161089a565b5f61054e825490565b6113f882826109c1565b61084d5760405163e2517d3f60e01b81526001600160a01b03821660048201526024810183905260440161089a565b5f61143283836109c1565b15611490575f838152602081815260408083206001600160a01b0386168085529252808320805460ff1916905551339286917ff6391f5c32d9c69d2a47ea670b442974b53935d1edc7fd64eb21e047a839171b9190a450600161054e565b505f61054e565b5f6109ba836001600160a01b0384166117e4565b5f6114b683836109c1565b611490575f838152602081815260408083206001600160a01b03861684529091529020805460ff191660011790556114eb3390565b6001600160a01b0316826001600160a01b0316847f2f8788117e7eff1d82e926ec794901d17c78024a50270940304540a733656f0d60405160405180910390a450600161054e565b5f6109ba836001600160a01b0384166118c7565b60025460ff1661108c57604051638dfc202b60e01b815260040160405180910390fd5b5f805160206121088339815191525460020361108c57604051633ee5aeb560e01b815260040160405180910390fd5b6040516323b872dd60e01b5f8181526001600160a01b038781166004528616602452604485905291602083606481808c5af1925060015f511483166115f55783831516156115e9573d5f823e3d81fd5b5f883b113d1516831692505b604052505f60605295945050505050565b606060ff8314611620576116198361190c565b905061054e565b81805461162c90612087565b80601f016020809104026020016040519081016040528092919081815260200182805461165890612087565b80156116a35780601f1061167a576101008083540402835291602001916116a3565b820191905f5260205f20905b81548152906001019060200180831161168657829003601f168201915b5050505050905061054e565b5f825f0182815481106116c4576116c4611f58565b905f5260205f200154905092915050565b6060815f0180548060200260200160405190810160405280929190818152602001828054801561172257602002820191905f5260205f20905b81548152602001906001019080831161170e575b50505050509050919050565b5f61054e61173a611949565b8360405161190160f01b8152600281019290925260228201526042902090565b5f805f806117688686611a72565b9250925092506117788282611abb565b5090949350505050565b60405163a9059cbb60e01b5f8181526001600160a01b038616600452602485905291602083604481808b5af1925060015f511483166117d85783831516156117cc573d5f823e3d81fd5b5f873b113d1516831692505b60405250949350505050565b5f81815260018301602052604081205480156118be575f611806600183611fd3565b85549091505f9061181990600190611fd3565b9050808214611878575f865f01828154811061183757611837611f58565b905f5260205f200154905080875f01848154811061185757611857611f58565b5f918252602080832090910192909255918252600188019052604090208390555b8554869080611889576118896120bf565b600190038181905f5260205f20015f90559055856001015f8681526020019081526020015f205f90556001935050505061054e565b5f91505061054e565b5f81815260018301602052604081205461149057508154600181810184555f84815260208082209093018490558454848252828601909352604090209190915561054e565b60605f61191883611b73565b6040805160208082528183019092529192505f91906020820181803683375050509182525060208101929092525090565b5f306001600160a01b037f0000000000000000000000000000000000000000000000000000000000000000161480156119a157507f000000000000000000000000000000000000000000000000000000000000000046145b156119cb57507f000000000000000000000000000000000000000000000000000000000000000090565b61112e604080517f8b73c3c69bb8fe3d512ecc4cf759cc79239f7b179b0ffacaa9a75d522b39400f60208201527f0000000000000000000000000000000000000000000000000000000000000000918101919091527f000000000000000000000000000000000000000000000000000000000000000060608201524660808201523060a08201525f9060c00160405160208183030381529060405280519060200120905090565b5f805f8351604103611aa9576020840151604085015160608601515f1a611a9b88828585611b9a565b955095509550505050611ab4565b505081515f91506002905b9250925092565b5f826003811115611ace57611ace6120d3565b03611ad7575050565b6001826003811115611aeb57611aeb6120d3565b03611b095760405163f645eedf60e01b815260040160405180910390fd5b6002826003811115611b1d57611b1d6120d3565b03611b3e5760405163fce698f760e01b81526004810182905260240161089a565b6003826003811115611b5257611b526120d3565b0361084d576040516335e2f38360e21b81526004810182905260240161089a565b5f60ff8216601f81111561054e57604051632cd44ac360e21b815260040160405180910390fd5b5f80807f7fffffffffffffffffffffffffffffff5d576e7357a4501ddfe92f46681b20a0841115611bd357505f91506003905082611c58565b604080515f808252602082018084528a905260ff891692820192909252606081018790526080810186905260019060a0016020604051602081039080840390855afa158015611c24573d5f803e3d5ffd5b5050604051601f1901519150506001600160a01b038116611c4f57505f925060019150829050611c58565b92505f91508190505b9450945094915050565b5f60208284031215611c72575f80fd5b81356001600160e01b0319811681146109ba575f80fd5b5f8083601f840112611c99575f80fd5b50813567ffffffffffffffff811115611cb0575f80fd5b6020830191508360208260051b8501011115611cca575f80fd5b9250929050565b5f805f60408486031215611ce3575f80fd5b833567ffffffffffffffff811115611cf9575f80fd5b611d0586828701611c89565b909790965060209590950135949350505050565b80356001600160a01b0381168114611d2f575f80fd5b919050565b5f60208284031215611d44575f80fd5b6109ba82611d19565b5f60208284031215611d5d575f80fd5b5035919050565b5f8060408385031215611d75575f80fd5b82359150611d8560208401611d19565b90509250929050565b5f8060408385031215611d9f575f80fd5b611da883611d19565b946020939093013593505050565b5f81518084528060208401602086015e5f602082860101526020601f19601f83011685010191505092915050565b60ff60f81b8816815260e060208201525f611e0260e0830189611db6565b8281036040840152611e148189611db6565b606084018890526001600160a01b038716608085015260a0840186905283810360c0850152845180825260208087019350909101905f5b81811015611e69578351835260209384019390920191600101611e4b565b50909b9a5050505050505050505050565b5f8060408385031215611e8b575f80fd5b50508035926020909101359150565b602080825282518282018190525f918401906040840190835b81811015611eda5783516001600160a01b0316835260209384019390920191600101611eb3565b509095945050505050565b5f805f805f8060a08789031215611efa575f80fd5b611f0387611d19565b9550611f1160208801611d19565b94506040870135935060608701359250608087013567ffffffffffffffff811115611f3a575f80fd5b611f4689828a01611c89565b979a9699509497509295939492505050565b634e487b7160e01b5f52603260045260245ffd5b604080825281018390525f8460608301825b86811015611fac576001600160a01b03611f9784611d19565b16825260209283019290910190600101611f7e565b5060209390930193909352509392505050565b634e487b7160e01b5f52601160045260245ffd5b8181038181111561054e5761054e611fbf565b634e487b7160e01b5f52604160045260245ffd5b5f8261201457634e487b7160e01b5f52601260045260245ffd5b500490565b8082018082111561054e5761054e611fbf565b5f6001820161203d5761203d611fbf565b5060010190565b5f808335601e19843603018112612059575f80fd5b83018035915067ffffffffffffffff821115612073575f80fd5b602001915036819003821315611cca575f80fd5b600181811c9082168061209b57607f821691505b6020821081036120b957634e487b7160e01b5f52602260045260245ffd5b50919050565b634e487b7160e01b5f52603160045260245ffd5b634e487b7160e01b5f52602160045260245ffdfee2f4eaae4a9751e85a3e4a7b9587827a877f29914755229b07a7b2da98285f709b779b17422d0df92223018b32b4d1fa46e071723d6817e2486d003becc55f00a49807205ce4d355092ef5a8a18f56e8913cf4a201fbe287825b095693c21775a26469706673582212205398ac52a05f1fd6e0bec4f00994beaa29c5ec6787832217c39606feee8952e164736f6c634300081a0033","linkReferences":{}},"methodIdentifiers":{"ADMIN_ROLE()":"75b238fc","DEFAULT_ADMIN_ROLE()":"a217fddf","OPERATOR_ROLE()":"f5b541a6","SIGNER_ROLE()":"a1ebf35d","cancelWithdrawal(bytes32)":"7213c5a0","dailyLimit()":"67eeba0c","dailyWithdrawn()":"8adbc98e","deposit(address,uint256)":"47e7ef24","eip712Domain()":"84b0196e","executeWithdrawal(bytes32)":"b9c2aa43","executedWithdrawals(bytes32)":"799c1d4e","getRoleAdmin(bytes32)":"248a9ca3","getRoleMember(bytes32,uint256)":"9010d07c","getRoleMemberCount(bytes32)":"ca15c873","getRoleMembers(bytes32)":"a3246ad3","grantRole(bytes32,address)":"2f2ff15d","hasRole(bytes32,address)":"91d14854","lastWithdrawDay()":"d7c4cbb8","nonces(address)":"7ecebe00","pause()":"8456cb59","paused()":"5c975abb","pendingWithdrawals(bytes32)":"b7f06ebe","recoverETH(address)":"134dfcd8","renounceRole(bytes32,address)":"36568abe","requestWithdrawal(address,address,uint256,uint256,bytes[])":"a3cf37b2","revokeRole(bytes32,address)":"d547741f","setDailyLimit(uint256)":"b20d30a9","setThreshold(uint256)":"960bfe04","setTimelockDelay(uint256)":"af267f8f","supportsInterface(bytes4)":"01ffc9a7","threshold()":"42cde4e8","timelockDelay()":"eef09bad","unpause()":"3f4ba83a","updateSigners(address[],uint256)":"11ff708d"},"id":35}