{"abi":[{"type":"constructor","inputs":[{"name":"_signers","type":"address[]","internalType":"address[]"},{"name":"_threshold","type":"uint256","internalType":"uint256"},{"name":"_timelockDelay","type":"uint256","internalType":"uint256"},{"name":"_dailyLimit","type":"uint256","internalType":"uint256"}],"stateMutability":"nonpayable"},{"type":"function","name":"ADMIN_ROLE","inputs":[],"outputs":[{"name":"","type":"bytes32","internalType":"bytes32"}],"stateMutability":"view"},{"type":"function","name":"DEFAULT_ADMIN_ROLE","inputs":[],"outputs":[{"name":"","type":"bytes32","internalType":"bytes32"}],"stateMutability":"view"},{"type":"function","name":"OPERATOR_ROLE","inputs":[],"outputs":[{"name":"","type":"bytes32","internalType":"bytes32"}],"stateMutability":"view"},{"type":"function","name":"SIGNER_ROLE","inputs":[],"outputs":[{"name":"","type":"bytes32","internalType":"bytes32"}],"stateMutability":"view"},{"type":"function","name":"cancelWithdrawal","inputs":[{"name":"withdrawalId","type":"bytes32","internalType":"bytes32"}],"outputs":[],"stateMutability":"nonpayable"},{"type":"function","name":"dailyLimit","inputs":[],"outputs":[{"name":"","type":"uint256","internalType":"uint256"}],"stateMutability":"view"},{"type":"function","name":"dailyWithdrawn","inputs":[],"outputs":[{"name":"","type":"uint256","internalType":"uint256"}],"stateMutability":"view"},{"type":"function","name":"deposit","inputs":[{"name":"token","type":"address","internalType":"address"},{"name":"amount","type":"uint256","internalType":"uint256"}],"outputs":[],"stateMutability":"nonpayable"},{"type":"function","name":"eip712Domain","inputs":[],"outputs":[{"name":"fields","type":"bytes1","internalType":"bytes1"},{"name":"name","type":"string","internalType":"string"},{"name":"version","type":"string","internalType":"string"},{"name":"chainId","type":"uint256","internalType":"uint256"},{"name":"verifyingContract","type":"address","internalType":"address"},{"name":"salt","type":"bytes32","internalType":"bytes32"},{"name":"extensions","type":"uint256[]","internalType":"uint256[]"}],"stateMutability":"view"},{"type":"function","name":"executeWithdrawal","inputs":[{"name":"withdrawalId","type":"bytes32","internalType":"bytes32"}],"outputs":[],"stateMutability":"nonpayable"},{"type":"function","name":"executedWithdrawals","inputs":[{"name":"","type":"bytes32","internalType":"bytes32"}],"outputs":[{"name":"","type":"bool","internalType":"bool"}],"stateMutability":"view"},{"type":"function","name":"getRoleAdmin","inputs":[{"name":"role","type":"bytes32","internalType":"bytes32"}],"outputs":[{"name":"","type":"bytes32","internalType":"bytes32"}],"stateMutability":"view"},{"type":"function","name":"getRoleMember","inputs":[{"name":"role","type":"bytes32","internalType":"bytes32"},{"name":"index","type":"uint256","internalType":"uint256"}],"outputs":[{"name":"","type":"address","internalType":"address"}],"stateMutability":"view"},{"type":"function","name":"getRoleMemberCount","inputs":[{"name":"role","type":"bytes32","internalType":"bytes32"}],"outputs":[{"name":"","type":"uint256","internalType":"uint256"}],"stateMutability":"view"},{"type":"function","name":"getRoleMembers","inputs":[{"name":"role","type":"bytes32","internalType":"bytes32"}],"outputs":[{"name":"","type":"address[]","internalType":"address[]"}],"stateMutability":"view"},{"type":"function","name":"grantRole","inputs":[{"name":"role","type":"bytes32","internalType":"bytes32"},{"name":"account","type":"address","internalType":"address"}],"outputs":[],"stateMutability":"nonpayable"},{"type":"function","name":"hasRole","inputs":[{"name":"role","type":"bytes32","internalType":"bytes32"},{"name":"account","type":"address","internalType":"address"}],"outputs":[{"name":"","type":"bool","internalType":"bool"}],"stateMutability":"view"},{"type":"function","name":"lastWithdrawDay","inputs":[],"outputs":[{"name":"","type":"uint256","internalType":"uint256"}],"stateMutability":"view"},{"type":"function","name":"nonces","inputs":[{"name":"","type":"address","internalType":"address"}],"outputs":[{"name":"","type":"uint256","internalType":"uint256"}],"stateMutability":"view"},{"type":"function","name":"pause","inputs":[],"outputs":[],"stateMutability":"nonpayable"},{"type":"function","name":"paused","inputs":[],"outputs":[{"name":"","type":"bool","internalType":"bool"}],"stateMutability":"view"},{"type":"function","name":"pendingWithdrawals","inputs":[{"name":"","type":"bytes32","internalType":"bytes32"}],"outputs":[{"name":"token","type":"address","internalType":"address"},{"name":"to","type":"address","internalType":"address"},{"name":"amount","type":"uint256","internalType":"uint256"},{"name":"unlockTime","type":"uint256","internalType":"uint256"},{"name":"executed","type":"bool","internalType":"bool"}],"stateMutability":"view"},{"type":"function","name":"recoverETH","inputs":[{"name":"to","type":"address","internalType":"address"}],"outputs":[],"stateMutability":"nonpayable"},{"type":"function","name":"renounceRole","inputs":[{"name":"role","type":"bytes32","internalType":"bytes32"},{"name":"callerConfirmation","type":"address","internalType":"address"}],"outputs":[],"stateMutability":"nonpayable"},{"type":"function","name":"requestWithdrawal","inputs":[{"name":"token","type":"address","internalType":"address"},{"name":"to","type":"address","internalType":"address"},{"name":"amount","type":"uint256","internalType":"uint256"},{"name":"deadline","type":"uint256","internalType":"uint256"},{"name":"signatures","type":"bytes[]","internalType":"bytes[]"}],"outputs":[{"name":"","type":"bytes32","internalType":"bytes32"}],"stateMutability":"nonpayable"},{"type":"function","name":"revokeRole","inputs":[{"name":"role","type":"bytes32","internalType":"bytes32"},{"name":"account","type":"address","internalType":"address"}],"outputs":[],"stateMutability":"nonpayable"},{"type":"function","name":"setDailyLimit","inputs":[{"name":"_limit","type":"uint256","internalType":"uint256"}],"outputs":[],"stateMutability":"nonpayable"},{"type":"function","name":"setThreshold","inputs":[{"name":"_threshold","type":"uint256","internalType":"uint256"}],"outputs":[],"stateMutability":"nonpayable"},{"type":"function","name":"setTimelockDelay","inputs":[{"name":"_delay","type":"uint256","internalType":"uint256"}],"outputs":[],"stateMutability":"nonpayable"},{"type":"function","name":"supportsInterface","inputs":[{"name":"interfaceId","type":"bytes4","internalType":"bytes4"}],"outputs":[{"name":"","type":"bool","internalType":"bool"}],"stateMutability":"view"},{"type":"function","name":"threshold","inputs":[],"outputs":[{"name":"","type":"uint256","internalType":"uint256"}],"stateMutability":"view"},{"type":"function","name":"timelockDelay","inputs":[],"outputs":[{"name":"","type":"uint256","internalType":"uint256"}],"stateMutability":"view"},{"type":"function","name":"unpause","inputs":[],"outputs":[],"stateMutability":"nonpayable"},{"type":"function","name":"updateSigners","inputs":[{"name":"_signers","type":"address[]","internalType":"address[]"},{"name":"_threshold","type":"uint256","internalType":"uint256"}],"outputs":[],"stateMutability":"nonpayable"},{"type":"function","name":"withdrawalNonce","inputs":[],"outputs":[{"name":"","type":"uint256","internalType":"uint256"}],"stateMutability":"view"},{"type":"event","name":"DailyLimitUpdated","inputs":[{"name":"newLimit","type":"uint256","indexed":false,"internalType":"uint256"}],"anonymous":false},{"type":"event","name":"Deposit","inputs":[{"name":"token","type":"address","indexed":true,"internalType":"address"},{"name":"from","type":"address","indexed":true,"internalType":"address"},{"name":"amount","type":"uint256","indexed":false,"internalType":"uint256"}],"anonymous":false},{"type":"event","name":"EIP712DomainChanged","inputs":[],"anonymous":false},{"type":"event","name":"Paused","inputs":[{"name":"account","type":"address","indexed":false,"internalType":"address"}],"anonymous":false},{"type":"event","name":"RoleAdminChanged","inputs":[{"name":"role","type":"bytes32","indexed":true,"internalType":"bytes32"},{"name":"previousAdminRole","type":"bytes32","indexed":true,"internalType":"bytes32"},{"name":"newAdminRole","type":"bytes32","indexed":true,"internalType":"bytes32"}],"anonymous":false},{"type":"event","name":"RoleGranted","inputs":[{"name":"role","type":"bytes32","indexed":true,"internalType":"bytes32"},{"name":"account","type":"address","indexed":true,"internalType":"address"},{"name":"sender","type":"address","indexed":true,"internalType":"address"}],"anonymous":false},{"type":"event","name":"RoleRevoked","inputs":[{"name":"role","type":"bytes32","indexed":true,"internalType":"bytes32"},{"name":"account","type":"address","indexed":true,"internalType":"address"},{"name":"sender","type":"address","indexed":true,"internalType":"address"}],"anonymous":false},{"type":"event","name":"SignersUpdated","inputs":[{"name":"signers","type":"address[]","indexed":false,"internalType":"address[]"},{"name":"newThreshold","type":"uint256","indexed":false,"internalType":"uint256"}],"anonymous":false},{"type":"event","name":"TimelockUpdated","inputs":[{"name":"newDelay","type":"uint256","indexed":false,"internalType":"uint256"}],"anonymous":false},{"type":"event","name":"Unpaused","inputs":[{"name":"account","type":"address","indexed":false,"internalType":"address"}],"anonymous":false},{"type":"event","name":"WithdrawalCancelled","inputs":[{"name":"withdrawalId","type":"bytes32","indexed":true,"internalType":"bytes32"}],"anonymous":false},{"type":"event","name":"WithdrawalExecuted","inputs":[{"name":"withdrawalId","type":"bytes32","indexed":true,"internalType":"bytes32"},{"name":"token","type":"address","indexed":false,"internalType":"address"},{"name":"to","type":"address","indexed":false,"internalType":"address"},{"name":"amount","type":"uint256","indexed":false,"internalType":"uint256"}],"anonymous":false},{"type":"event","name":"WithdrawalRequested","inputs":[{"name":"withdrawalId","type":"bytes32","indexed":true,"internalType":"bytes32"},{"name":"token","type":"address","indexed":false,"internalType":"address"},{"name":"to","type":"address","indexed":false,"internalType":"address"},{"name":"amount","type":"uint256","indexed":false,"internalType":"uint256"},{"name":"unlockTime","type":"uint256","indexed":false,"internalType":"uint256"}],"anonymous":false},{"type":"error","name":"AccessControlBadConfirmation","inputs":[]},{"type":"error","name":"AccessControlUnauthorizedAccount","inputs":[{"name":"account","type":"address","internalType":"address"},{"name":"neededRole","type":"bytes32","internalType":"bytes32"}]},{"type":"error","name":"AlreadyExecuted","inputs":[{"name":"withdrawalId","type":"bytes32","internalType":"bytes32"}]},{"type":"error","name":"DailyLimitExceeded","inputs":[{"name":"requested","type":"uint256","internalType":"uint256"},{"name":"limit","type":"uint256","internalType":"uint256"}]},{"type":"error","name":"ECDSAInvalidSignature","inputs":[]},{"type":"error","name":"ECDSAInvalidSignatureLength","inputs":[{"name":"length","type":"uint256","internalType":"uint256"}]},{"type":"error","name":"ECDSAInvalidSignatureS","inputs":[{"name":"s","type":"bytes32","internalType":"bytes32"}]},{"type":"error","name":"EnforcedPause","inputs":[]},{"type":"error","name":"ExpectedPause","inputs":[]},{"type":"error","name":"InsufficientSignatures","inputs":[{"name":"required","type":"uint256","internalType":"uint256"},{"name":"provided","type":"uint256","internalType":"uint256"}]},{"type":"error","name":"InvalidAmount","inputs":[]},{"type":"error","name":"InvalidNonce","inputs":[]},{"type":"error","name":"InvalidShortString","inputs":[]},{"type":"error","name":"InvalidSignature","inputs":[]},{"type":"error","name":"InvalidThreshold","inputs":[]},{"type":"error","name":"ReentrancyGuardReentrantCall","inputs":[]},{"type":"error","name":"SafeERC20FailedOperation","inputs":[{"name":"token","type":"address","internalType":"address"}]},{"type":"error","name":"StringTooLong","inputs":[{"name":"str","type":"string","internalType":"string"}]},{"type":"error","name":"Timelocked","inputs":[{"name":"unlockTime","type":"uint256","internalType":"uint256"}]},{"type":"error","name":"WithdrawalExpired","inputs":[{"name":"deadline","type":"uint256","internalType":"uint256"}]},{"type":"error","name":"ZeroAddress","inputs":[]}],"bytecode":{"object":"0x610160604052348015610010575f80fd5b50604051612a1a380380612a1a83398101604081905261002f91610467565b604051806040016040528060088152602001671094d0d5985d5b1d60c21b815250604051806040016040528060018152602001603160f81b815250600161008061007d61026d60201b60201c565b90565b5561008c826003610291565b6101205261009b816004610291565b61014052815160208084019190912060e052815190820120610100524660a05261012760e05161010051604080517f8b73c3c69bb8fe3d512ecc4cf759cc79239f7b179b0ffacaa9a75d522b39400f60208201529081019290925260608201524660808201523060a08201525f9060c00160405160208183030381529060405280519060200120905090565b60805250503060c05283515f036101515760405163d92e233d60e01b815260040160405180910390fd5b82158061015e5750835183115b1561017c5760405163aabd5a0960e01b815260040160405180910390fd5b6101865f336102c3565b506101b17fa49807205ce4d355092ef5a8a18f56e8913cf4a201fbe287825b095693c21775336102c3565b505f5b845181101561025a575f6001600160a01b03168582815181106101d9576101d961054b565b60200260200101516001600160a01b0316036102085760405163d92e233d60e01b815260040160405180910390fd5b6102517fe2f4eaae4a9751e85a3e4a7b9587827a877f29914755229b07a7b2da98285f7086838151811061023e5761023e61054b565b60200260200101516102c360201b60201c565b506001016101b4565b50600592909255600655600755506106f5565b7f9b779b17422d0df92223018b32b4d1fa46e071723d6817e2486d003becc55f0090565b5f6020835110156102ac576102a5836102f7565b90506102bd565b816102b784826105e3565b5060ff90505b92915050565b5f806102cf848461033d565b905080156102f0575f8481526001602052604090206102ee90846103e4565b505b9392505050565b5f80829050601f8151111561032a578260405163305a27a960e01b8152600401610321919061069d565b60405180910390fd5b8051610335826106d2565b179392505050565b5f828152602081815260408083206001600160a01b038516845290915281205460ff166103dd575f838152602081815260408083206001600160a01b03861684529091529020805460ff191660011790556103953390565b6001600160a01b0316826001600160a01b0316847f2f8788117e7eff1d82e926ec794901d17c78024a50270940304540a733656f0d60405160405180910390a45060016102bd565b505f6102bd565b5f6102f0836001600160a01b0384165f8181526001830160205260408120546103dd57508154600181810184555f8481526020808220909301849055845484825282860190935260409020919091556102bd565b634e487b7160e01b5f52604160045260245ffd5b80516001600160a01b0381168114610462575f80fd5b919050565b5f805f806080858703121561047a575f80fd5b84516001600160401b0381111561048f575f80fd5b8501601f8101871361049f575f80fd5b80516001600160401b038111156104b8576104b8610438565b604051600582901b90603f8201601f191681016001600160401b03811182821017156104e6576104e6610438565b60405291825260208184018101929081018a841115610503575f80fd5b6020850194505b838510156105295761051b8561044c565b81526020948501940161050a565b50602089015160408a01516060909a0151919b909a5090975095505050505050565b634e487b7160e01b5f52603260045260245ffd5b600181811c9082168061057357607f821691505b60208210810361059157634e487b7160e01b5f52602260045260245ffd5b50919050565b601f8211156105de57805f5260205f20601f840160051c810160208510156105bc5750805b601f840160051c820191505b818110156105db575f81556001016105c8565b50505b505050565b81516001600160401b038111156105fc576105fc610438565b6106108161060a845461055f565b84610597565b6020601f821160018114610642575f831561062b5750848201515b5f19600385901b1c1916600184901b1784556105db565b5f84815260208120601f198516915b828110156106715787850151825560209485019460019092019101610651565b508482101561068e57868401515f19600387901b60f8161c191681555b50505050600190811b01905550565b602081525f82518060208401528060208501604085015e5f604082850101526040601f19601f83011684010191505092915050565b80516020808301519190811015610591575f1960209190910360031b1b16919050565b60805160a05160c05160e0516101005161012051610140516122d46107465f395f61129101525f61125f01525f611b7901525f611b5101525f611aac01525f611ad601525f611b0001526122d45ff3fe608060405234801561000f575f80fd5b5060043610610208575f3560e01c806384b0196e1161011f578063af267f8f116100a9578063ca15c87311610079578063ca15c873146104df578063d547741f146104f2578063d7c4cbb814610505578063eef09bad1461050e578063f5b541a614610517575f80fd5b8063af267f8f14610426578063b20d30a914610439578063b7f06ebe1461044c578063b9c2aa43146104cc575f80fd5b8063960bfe04116100ef578063960bfe04146103c5578063a1ebf35d146103d8578063a217fddf146103ec578063a3246ad3146103f3578063a3cf37b214610413575f80fd5b806384b0196e146103635780638adbc98e1461037e5780639010d07c1461038757806391d14854146103b2575f80fd5b806347e7ef24116101a057806375b238fc1161017057806375b238fc146102fd578063799c1d4e146103115780637b259db4146103335780637ecebe001461033c5780638456cb591461035b575f80fd5b806347e7ef24146102c35780635c975abb146102d657806367eeba0c146102e15780637213c5a0146102ea575f80fd5b80632f2ff15d116101db5780632f2ff15d1461028c57806336568abe1461029f5780633f4ba83a146102b257806342cde4e8146102ba575f80fd5b806301ffc9a71461020c57806311ff708d14610234578063134dfcd814610249578063248a9ca31461025c575b5f80fd5b61021f61021a366004611db9565b61053e565b60405190151581526020015b60405180910390f35b610247610242366004611e28565b610568565b005b610247610257366004611e8b565b6106eb565b61027e61026a366004611ea4565b5f9081526020819052604090206001015490565b60405190815260200161022b565b61024761029a366004611ebb565b6107c8565b6102476102ad366004611ebb565b6107f2565b610247610825565b61027e60055481565b6102476102d1366004611ee5565b610847565b60025460ff1661021f565b61027e60075481565b6102476102f8366004611ea4565b6108f4565b61027e5f8051602061227f83398151915281565b61021f61031f366004611ea4565b600d6020525f908152604090205460ff1681565b61027e60095481565b61027e61034a366004611e8b565b60086020525f908152604090205481565b6102476109e0565b61036b6109ff565b60405161022b9796959493929190611f3b565b61027e600a5481565b61039a610395366004611fd1565b610a41565b6040516001600160a01b03909116815260200161022b565b61021f6103c0366004611ebb565b610a5f565b6102476103d3366004611ea4565b610a87565b61027e5f8051602061223f83398151915281565b61027e5f81565b610406610401366004611ea4565b610ae8565b60405161022b9190611ff1565b61027e61042136600461203c565b610b01565b610247610434366004611ea4565b610e9f565b610247610447366004611ea4565b610ef3565b61049761045a366004611ea4565b600c6020525f9081526040902080546001820154600283015460038401546004909401546001600160a01b03938416949390921692909160ff1685565b604080516001600160a01b0396871681529590941660208601529284019190915260608301521515608082015260a00161022b565b6102476104da366004611ea4565b610f3f565b61027e6104ed366004611ea4565b61107c565b610247610500366004611ebb565b611092565b61027e600b5481565b61027e60065481565b61027e7f97667070c54ef182b0f5858b034beac1b6f3089aa2d3188bb1e8929f4fa9b92981565b5f6001600160e01b03198216635a05180f60e01b14806105625750610562826110b6565b92915050565b5f8051602061227f83398151915261057f816110ea565b81158061058b57508282115b156105a95760405163aabd5a0960e01b815260040160405180910390fd5b5f6105c05f8051602061223f83398151915261107c565b90505f5b81811015610602576105f95f8051602061223f8339815191526105f45f8051602061223f8339815191525f610a41565b6110f4565b506001016105c4565b505f5b848110156106a2575f868683818110610620576106206120af565b90506020020160208101906106359190611e8b565b6001600160a01b03160361065c5760405163d92e233d60e01b815260040160405180910390fd5b6106995f8051602061223f83398151915287878481811061067f5761067f6120af565b90506020020160208101906106949190611e8b565b611127565b50600101610605565b5060058390556040517feb4dc7fab86d67670d7a4d7443a38860da1aa053f26529c8f41cc68e5d6a9336906106dc908790879087906120c3565b60405180910390a15050505050565b5f8051602061227f833981519152610702816110ea565b6001600160a01b0382166107295760405163d92e233d60e01b815260040160405180910390fd5b5f826001600160a01b0316476040515f6040518083038185875af1925050503d805f8114610772576040519150601f19603f3d011682016040523d82523d5f602084013e610777565b606091505b50509050806107c35760405162461bcd60e51b8152602060048201526013602482015272115512081d1c985b9cd9995c8819985a5b1959606a1b60448201526064015b60405180910390fd5b505050565b5f828152602081905260409020600101546107e2816110ea565b6107ec8383611127565b50505050565b6001600160a01b038116331461081b5760405163334bd91960e11b815260040160405180910390fd5b6107c382826110f4565b5f8051602061227f83398151915261083c816110ea565b610844611152565b50565b61084f6111a4565b6108576111bf565b6001600160a01b03821661087e5760405163d92e233d60e01b815260040160405180910390fd5b80156108da576108996001600160a01b0383163330846111e5565b60405181815233906001600160a01b038416907f5548c837ab068cf56a2c2479df0882a4922fd203edb7517321831d95078c5f629060200160405180910390a35b6108f060015f8051602061225f83398151915255565b5050565b5f8051602061227f83398151915261090b816110ea565b5f828152600c60205260409020600481015460ff16156109415760405163d1d36dcd60e01b8152600481018490526024016107ba565b80600201545f03610950575f80fd5b6002808201545f858152600c6020526040812080546001600160a01b031990811682556001820180549091169055928301819055600383018190556004909201805460ff19169055600a8054919283926109ab90849061212a565b909155505060405184907f2c3f6464ee7dbe9f7d807f41160b09edb0dfc340865796a3b9d03c9fe1b1b028905f90a250505050565b5f8051602061227f8339815191526109f7816110ea565b61084461121b565b5f6060805f805f6060610a10611258565b610a1861128a565b604080515f80825260208201909252600f60f81b9b939a50919850469750309650945092509050565b5f828152600160205260408120610a5890836112b7565b9392505050565b5f918252602082815260408084206001600160a01b0393909316845291905290205460ff1690565b5f8051602061227f833981519152610a9e816110ea565b5f610ab55f8051602061223f83398151915261107c565b9050821580610ac357508083115b15610ae15760405163aabd5a0960e01b815260040160405180910390fd5b5050600555565b5f818152600160205260409020606090610562906112c2565b5f610b0a6111a4565b610b126111bf565b6001600160a01b0387161580610b2f57506001600160a01b038616155b15610b4d5760405163d92e233d60e01b815260040160405180910390fd5b845f03610b6d5760405163162908e360e11b815260040160405180910390fd5b83421115610b9157604051638432fbfb60e01b8152600481018590526024016107ba565b5f610b9f6201518042612151565b9050600b548114610bb4575f600a55600b8190555b5f600754118015610bd3575060075486600a54610bd19190612170565b115b15610bff576007546040516377b326b560e11b81526107ba918891600401918252602082015260400190565b5f610c0e8989898989896112ce565b9050600554811015610c41576005546040516378f4355360e11b81526004810191909152602481018290526044016107ba565b600980545f9182610c5183612183565b90915550604080516001600160a01b03808e1660208301528c1691810191909152606081018a90526080810189905260a081018290529091505f9060c00160408051601f1981840301815291815281516020928301205f818152600d90935291205490915060ff1615610cda5760405163d1d36dcd60e01b8152600481018290526024016107ba565b5f818152600c602052604090206002015415610d0c5760405163d1d36dcd60e01b8152600481018290526024016107ba565b5f6002600754610d1c9190612151565b8a11610d285742610d35565b600654610d359042612170565b90506040518060a001604052808d6001600160a01b031681526020018c6001600160a01b031681526020018b81526020018281526020015f1515815250600c5f8481526020019081526020015f205f820151815f015f6101000a8154816001600160a01b0302191690836001600160a01b031602179055506020820151816001015f6101000a8154816001600160a01b0302191690836001600160a01b0316021790555060408201518160020155606082015181600301556080820151816004015f6101000a81548160ff02191690831515021790555090505089600a5f828254610e209190612170565b9091555050604080516001600160a01b03808f1682528d1660208201529081018b90526060810182905282907fbbe20f08f339dc9559b37f552a777f308f76bdf20a5af0470f3650f5965b68a79060800160405180910390a2509350505050610e9560015f8051602061225f83398151915255565b9695505050505050565b5f8051602061227f833981519152610eb6816110ea565b60068290556040518281527f23db4e72aa833f6e2e83af944353bc76dc2be79a8786e5e4a7592d313b769d4c906020015b60405180910390a15050565b5f8051602061227f833981519152610f0a816110ea565b60078290556040518281527f6cd8635c4285386b9de2e59a4c1eaf32ad41f28ae64c308280217d7af51464e090602001610ee7565b610f476111a4565b610f4f6111bf565b5f818152600c60205260409020600481015460ff1615610f855760405163d1d36dcd60e01b8152600481018390526024016107ba565b80600201545f03610f94575f80fd5b8060030154421015610fc15780600301546040516397a6a34360e01b81526004016107ba91815260200190565b600481018054600160ff1991821681179092555f848152600d602052604090208054909116821790558101546002820154825461100c926001600160a01b0391821692911690611507565b805460018201546002830154604080516001600160a01b0394851681529390921660208401529082015282907fedbb1d2a668dc012e1f90419b492c1cdd90c45e48afaa766e9befc71e992d70c9060600160405180910390a25061084460015f8051602061225f83398151915255565b5f8181526001602052604081206105629061153c565b5f828152602081905260409020600101546110ac816110ea565b6107ec83836110f4565b5f6001600160e01b03198216637965db0b60e01b148061056257506301ffc9a760e01b6001600160e01b0319831614610562565b6108448133611545565b5f80611100848461157e565b90508015610a58575f84815260016020526040902061111f90846115ee565b509392505050565b5f806111338484611602565b90508015610a58575f84815260016020526040902061111f908461168a565b61115a61169e565b6002805460ff191690557f5db9ee0a495bf2e6ff9c91a7834c1ba4fdd244a5e8aa4e537bd38aeae4b073aa335b6040516001600160a01b03909116815260200160405180910390a1565b6111ac6116c1565b60025f8051602061225f83398151915255565b60025460ff16156111e35760405163d93c066560e01b815260040160405180910390fd5b565b6111f38484848460016116f0565b6107ec57604051635274afe760e01b81526001600160a01b03851660048201526024016107ba565b6112236111bf565b6002805460ff191660011790557f62e78cea01bee320cd4e420270b5ea74000d11b0c9f74754ebdbfc544b05a2586111873390565b60606112857f0000000000000000000000000000000000000000000000000000000000000000600361175d565b905090565b60606112857f0000000000000000000000000000000000000000000000000000000000000000600461175d565b5f610a588383611806565b60605f610a588361182c565b335f908152600860205260408120805482917f1ad2d867df35cbedfaffd3993388cb7a489c57327ee8800f4b6c2c899ccf4661918a918a918a918661131283612183565b909155506040805160208101969096526001600160a01b0394851690860152929091166060840152608083015260a082015260c0810186905260e0016040516020818303038152906040528051906020012090505f61137082611885565b90505f808567ffffffffffffffff81111561138d5761138d61213d565b6040519080825280602002602001820160405280156113b6578160200160208202803683370190505b5090505f5b868110156114f7575f611425858a8a858181106113da576113da6120af565b90506020028101906113ec919061219b565b8080601f0160208091040260200160405190810160405280939291908181526020018383808284375f920191909152506118b192505050565b905061143e5f8051602061223f83398151915282610a5f565b61144857506114ef565b5f805b8581101561149657826001600160a01b031685828151811061146f5761146f6120af565b60200260200101516001600160a01b03160361148e5760019150611496565b60010161144b565b5080156114a45750506114ef565b818486815181106114b7576114b76120af565b6001600160a01b0390921660209283029190910190910152846114d981612183565b95505060055485106114ec5750506114f7565b50505b6001016113bb565b50909a9950505050505050505050565b61151483838360016118d9565b6107c357604051635274afe760e01b81526001600160a01b03841660048201526024016107ba565b5f610562825490565b61154f8282610a5f565b6108f05760405163e2517d3f60e01b81526001600160a01b0382166004820152602481018390526044016107ba565b5f6115898383610a5f565b156115e7575f838152602081815260408083206001600160a01b0386168085529252808320805460ff1916905551339286917ff6391f5c32d9c69d2a47ea670b442974b53935d1edc7fd64eb21e047a839171b9190a4506001610562565b505f610562565b5f610a58836001600160a01b03841661193b565b5f61160d8383610a5f565b6115e7575f838152602081815260408083206001600160a01b03861684529091529020805460ff191660011790556116423390565b6001600160a01b0316826001600160a01b0316847f2f8788117e7eff1d82e926ec794901d17c78024a50270940304540a733656f0d60405160405180910390a4506001610562565b5f610a58836001600160a01b038416611a1e565b60025460ff166111e357604051638dfc202b60e01b815260040160405180910390fd5b5f8051602061225f833981519152546002036111e357604051633ee5aeb560e01b815260040160405180910390fd5b6040516323b872dd60e01b5f8181526001600160a01b038781166004528616602452604485905291602083606481808c5af1925060015f5114831661174c578383151615611740573d5f823e3d81fd5b5f883b113d1516831692505b604052505f60605295945050505050565b606060ff83146117775761177083611a63565b9050610562565b818054611783906121de565b80601f01602080910402602001604051908101604052809291908181526020018280546117af906121de565b80156117fa5780601f106117d1576101008083540402835291602001916117fa565b820191905f5260205f20905b8154815290600101906020018083116117dd57829003601f168201915b50505050509050610562565b5f825f01828154811061181b5761181b6120af565b905f5260205f200154905092915050565b6060815f0180548060200260200160405190810160405280929190818152602001828054801561187957602002820191905f5260205f20905b815481526020019060010190808311611865575b50505050509050919050565b5f610562611891611aa0565b8360405161190160f01b8152600281019290925260228201526042902090565b5f805f806118bf8686611bc9565b9250925092506118cf8282611c12565b5090949350505050565b60405163a9059cbb60e01b5f8181526001600160a01b038616600452602485905291602083604481808b5af1925060015f5114831661192f578383151615611923573d5f823e3d81fd5b5f873b113d1516831692505b60405250949350505050565b5f8181526001830160205260408120548015611a15575f61195d60018361212a565b85549091505f906119709060019061212a565b90508082146119cf575f865f01828154811061198e5761198e6120af565b905f5260205f200154905080875f0184815481106119ae576119ae6120af565b5f918252602080832090910192909255918252600188019052604090208390555b85548690806119e0576119e0612216565b600190038181905f5260205f20015f90559055856001015f8681526020019081526020015f205f905560019350505050610562565b5f915050610562565b5f8181526001830160205260408120546115e757508154600181810184555f848152602080822090930184905584548482528286019093526040902091909155610562565b60605f611a6f83611cca565b6040805160208082528183019092529192505f91906020820181803683375050509182525060208101929092525090565b5f306001600160a01b037f000000000000000000000000000000000000000000000000000000000000000016148015611af857507f000000000000000000000000000000000000000000000000000000000000000046145b15611b2257507f000000000000000000000000000000000000000000000000000000000000000090565b611285604080517f8b73c3c69bb8fe3d512ecc4cf759cc79239f7b179b0ffacaa9a75d522b39400f60208201527f0000000000000000000000000000000000000000000000000000000000000000918101919091527f000000000000000000000000000000000000000000000000000000000000000060608201524660808201523060a08201525f9060c00160405160208183030381529060405280519060200120905090565b5f805f8351604103611c00576020840151604085015160608601515f1a611bf288828585611cf1565b955095509550505050611c0b565b505081515f91506002905b9250925092565b5f826003811115611c2557611c2561222a565b03611c2e575050565b6001826003811115611c4257611c4261222a565b03611c605760405163f645eedf60e01b815260040160405180910390fd5b6002826003811115611c7457611c7461222a565b03611c955760405163fce698f760e01b8152600481018290526024016107ba565b6003826003811115611ca957611ca961222a565b036108f0576040516335e2f38360e21b8152600481018290526024016107ba565b5f60ff8216601f81111561056257604051632cd44ac360e21b815260040160405180910390fd5b5f80807f7fffffffffffffffffffffffffffffff5d576e7357a4501ddfe92f46681b20a0841115611d2a57505f91506003905082611daf565b604080515f808252602082018084528a905260ff891692820192909252606081018790526080810186905260019060a0016020604051602081039080840390855afa158015611d7b573d5f803e3d5ffd5b5050604051601f1901519150506001600160a01b038116611da657505f925060019150829050611daf565b92505f91508190505b9450945094915050565b5f60208284031215611dc9575f80fd5b81356001600160e01b031981168114610a58575f80fd5b5f8083601f840112611df0575f80fd5b50813567ffffffffffffffff811115611e07575f80fd5b6020830191508360208260051b8501011115611e21575f80fd5b9250929050565b5f805f60408486031215611e3a575f80fd5b833567ffffffffffffffff811115611e50575f80fd5b611e5c86828701611de0565b909790965060209590950135949350505050565b80356001600160a01b0381168114611e86575f80fd5b919050565b5f60208284031215611e9b575f80fd5b610a5882611e70565b5f60208284031215611eb4575f80fd5b5035919050565b5f8060408385031215611ecc575f80fd5b82359150611edc60208401611e70565b90509250929050565b5f8060408385031215611ef6575f80fd5b611eff83611e70565b946020939093013593505050565b5f81518084528060208401602086015e5f602082860101526020601f19601f83011685010191505092915050565b60ff60f81b8816815260e060208201525f611f5960e0830189611f0d565b8281036040840152611f6b8189611f0d565b606084018890526001600160a01b038716608085015260a0840186905283810360c0850152845180825260208087019350909101905f5b81811015611fc0578351835260209384019390920191600101611fa2565b50909b9a5050505050505050505050565b5f8060408385031215611fe2575f80fd5b50508035926020909101359150565b602080825282518282018190525f918401906040840190835b818110156120315783516001600160a01b031683526020938401939092019160010161200a565b509095945050505050565b5f805f805f8060a08789031215612051575f80fd5b61205a87611e70565b955061206860208801611e70565b94506040870135935060608701359250608087013567ffffffffffffffff811115612091575f80fd5b61209d89828a01611de0565b979a9699509497509295939492505050565b634e487b7160e01b5f52603260045260245ffd5b604080825281018390525f8460608301825b86811015612103576001600160a01b036120ee84611e70565b168252602092830192909101906001016120d5565b5060209390930193909352509392505050565b634e487b7160e01b5f52601160045260245ffd5b8181038181111561056257610562612116565b634e487b7160e01b5f52604160045260245ffd5b5f8261216b57634e487b7160e01b5f52601260045260245ffd5b500490565b8082018082111561056257610562612116565b5f6001820161219457612194612116565b5060010190565b5f808335601e198436030181126121b0575f80fd5b83018035915067ffffffffffffffff8211156121ca575f80fd5b602001915036819003821315611e21575f80fd5b600181811c908216806121f257607f821691505b60208210810361221057634e487b7160e01b5f52602260045260245ffd5b50919050565b634e487b7160e01b5f52603160045260245ffd5b634e487b7160e01b5f52602160045260245ffdfee2f4eaae4a9751e85a3e4a7b9587827a877f29914755229b07a7b2da98285f709b779b17422d0df92223018b32b4d1fa46e071723d6817e2486d003becc55f00a49807205ce4d355092ef5a8a18f56e8913cf4a201fbe287825b095693c21775a2646970667358221220755e3bd0c68edc157d365521fc31c9188db3369db954004323d22f0259a3670a64736f6c634300081a0033","linkReferences":{}},"methodIdentifiers":{"ADMIN_ROLE()":"75b238fc","DEFAULT_ADMIN_ROLE()":"a217fddf","OPERATOR_ROLE()":"f5b541a6","SIGNER_ROLE()":"a1ebf35d","cancelWithdrawal(bytes32)":"7213c5a0","dailyLimit()":"67eeba0c","dailyWithdrawn()":"8adbc98e","deposit(address,uint256)":"47e7ef24","eip712Domain()":"84b0196e","executeWithdrawal(bytes32)":"b9c2aa43","executedWithdrawals(bytes32)":"799c1d4e","getRoleAdmin(bytes32)":"248a9ca3","getRoleMember(bytes32,uint256)":"9010d07c","getRoleMemberCount(bytes32)":"ca15c873","getRoleMembers(bytes32)":"a3246ad3","grantRole(bytes32,address)":"2f2ff15d","hasRole(bytes32,address)":"91d14854","lastWithdrawDay()":"d7c4cbb8","nonces(address)":"7ecebe00","pause()":"8456cb59","paused()":"5c975abb","pendingWithdrawals(bytes32)":"b7f06ebe","recoverETH(address)":"134dfcd8","renounceRole(bytes32,address)":"36568abe","requestWithdrawal(address,address,uint256,uint256,bytes[])":"a3cf37b2","revokeRole(bytes32,address)":"d547741f","setDailyLimit(uint256)":"b20d30a9","setThreshold(uint256)":"960bfe04","setTimelockDelay(uint256)":"af267f8f","supportsInterface(bytes4)":"01ffc9a7","threshold()":"42cde4e8","timelockDelay()":"eef09bad","unpause()":"3f4ba83a","updateSigners(address[],uint256)":"11ff708d","withdrawalNonce()":"7b259db4"},"id":56}