{"abi":[{"type":"function","name":"burnAdmin","inputs":[],"outputs":[{"name":"","type":"address","internalType":"address"}],"stateMutability":"view"},{"type":"function","name":"totalBurned","inputs":[],"outputs":[{"name":"","type":"uint256","internalType":"uint256"}],"stateMutability":"view"},{"type":"event","name":"Burned","inputs":[{"name":"from","type":"address","indexed":true,"internalType":"address"},{"name":"amount","type":"uint256","indexed":false,"internalType":"uint256"},{"name":"reason","type":"string","indexed":false,"internalType":"string"}],"anonymous":false}],"bytecode":{"object":"0x6080806040523460135760a4908160188239f35b5f80fdfe60808060405260043610156011575f80fd5b5f3560e01c90816381bdf98c14604e575063d89135cd14602f575f80fd5b34604a575f366003190112604a576020600154604051908152f35b5f80fd5b34604a575f366003190112604a575f546001600160a01b03168152602090f3fea2646970667358221220e2dbafb67ae8ea423e2e89c5411e1ba8835e02a9b7bd0f29ecc7c7d9f39c814064736f6c63430008230033","linkReferences":{}},"methodIdentifiers":{"burnAdmin()":"81bdf98c","totalBurned()":"d89135cd"},"id":4}