{"abi":[{"type":"function","name":"balanceOf","inputs":[{"name":"account","type":"address","internalType":"address"}],"outputs":[{"name":"","type":"uint256","internalType":"uint256"}],"stateMutability":"view"},{"type":"function","name":"balances","inputs":[{"name":"","type":"address","internalType":"address"}],"outputs":[{"name":"","type":"uint256","internalType":"uint256"}],"stateMutability":"view"},{"type":"function","name":"deposit","inputs":[{"name":"amount","type":"uint256","internalType":"uint256"}],"outputs":[],"stateMutability":"nonpayable"},{"type":"function","name":"vaultAdmin","inputs":[],"outputs":[{"name":"","type":"address","internalType":"address"}],"stateMutability":"view"},{"type":"function","name":"withdraw","inputs":[{"name":"amount","type":"uint256","internalType":"uint256"}],"outputs":[],"stateMutability":"nonpayable"},{"type":"event","name":"Deposited","inputs":[{"name":"account","type":"address","indexed":true,"internalType":"address"},{"name":"amount","type":"uint256","indexed":false,"internalType":"uint256"}],"anonymous":false},{"type":"event","name":"Withdrawn","inputs":[{"name":"account","type":"address","indexed":true,"internalType":"address"},{"name":"amount","type":"uint256","indexed":false,"internalType":"uint256"}],"anonymous":false}],"bytecode":{"object":"0x608080604052346015576101f5908161001a8239f35b5f80fdfe6080806040526004361015610012575f80fd5b5f3560e01c90816327e235e314610186575080632e1a7d4d1461012a57806370a08231146100ee578063b6b55f251461007e5763e7f6f22514610053575f80fd5b3461007a575f36600319011261007a575f546040516001600160a01b039091168152602090f35b5f80fd5b3461007a57602036600319011261007a57600435335f52600160205260405f208054908282018092116100da57556040519081527f2da466a7b24304f47e87fa2e1e5a81b9831ce54fec19055ce277ca2f39ba42c460203392a2005b634e487b7160e01b5f52601160045260245ffd5b3461007a57602036600319011261007a576004356001600160a01b0381169081900361007a575f526001602052602060405f2054604051908152f35b3461007a57602036600319011261007a57600435335f52600160205260405f208054908282039182116100da57556040519081527f7084f5476618d8e60b11ef0d7d3f06914655adb8793e28ff7f018d4c76d505d560203392a2005b3461007a57602036600319011261007a576004356001600160a01b038116919082900361007a576020915f526001825260405f20548152f3fea26469706673582212209255bf5c6a3e7371341487b5e845c569c3b50164179449fb859fc5a9427eb4fb64736f6c63430008230033","linkReferences":{}},"methodIdentifiers":{"balanceOf(address)":"70a08231","balances(address)":"27e235e3","deposit(uint256)":"b6b55f25","vaultAdmin()":"e7f6f225","withdraw(uint256)":"2e1a7d4d"},"id":16}