{"abi":[{"type":"constructor","inputs":[{"name":"_nft","type":"address","internalType":"address"},{"name":"_paymentToken","type":"address","internalType":"address"}],"stateMutability":"nonpayable"},{"type":"function","name":"ROYALTY_BPS","inputs":[],"outputs":[{"name":"","type":"uint256","internalType":"uint256"}],"stateMutability":"view"},{"type":"function","name":"auctions","inputs":[{"name":"","type":"uint256","internalType":"uint256"}],"outputs":[{"name":"tokenId","type":"uint256","internalType":"uint256"},{"name":"seller","type":"address","internalType":"address"},{"name":"startPrice","type":"uint256","internalType":"uint256"},{"name":"endPrice","type":"uint256","internalType":"uint256"},{"name":"duration","type":"uint256","internalType":"uint256"},{"name":"startTime","type":"uint256","internalType":"uint256"},{"name":"highestBidder","type":"address","internalType":"address"},{"name":"highestBid","type":"uint256","internalType":"uint256"},{"name":"ended","type":"bool","internalType":"bool"}],"stateMutability":"view"},{"type":"function","name":"bid","inputs":[{"name":"tokenId","type":"uint256","internalType":"uint256"},{"name":"amount","type":"uint256","internalType":"uint256"}],"outputs":[],"stateMutability":"nonpayable"},{"type":"function","name":"createAuction","inputs":[{"name":"tokenId","type":"uint256","internalType":"uint256"},{"name":"startPrice","type":"uint256","internalType":"uint256"},{"name":"duration","type":"uint256","internalType":"uint256"}],"outputs":[],"stateMutability":"nonpayable"},{"type":"function","name":"endAuction","inputs":[{"name":"tokenId","type":"uint256","internalType":"uint256"}],"outputs":[],"stateMutability":"nonpayable"},{"type":"function","name":"nft","inputs":[],"outputs":[{"name":"","type":"address","internalType":"contract IERC721"}],"stateMutability":"view"},{"type":"function","name":"paymentToken","inputs":[],"outputs":[{"name":"","type":"address","internalType":"contract IERC20"}],"stateMutability":"view"},{"type":"event","name":"AuctionCreated","inputs":[{"name":"tokenId","type":"uint256","indexed":true,"internalType":"uint256"},{"name":"seller","type":"address","indexed":false,"internalType":"address"},{"name":"startPrice","type":"uint256","indexed":false,"internalType":"uint256"},{"name":"duration","type":"uint256","indexed":false,"internalType":"uint256"}],"anonymous":false},{"type":"event","name":"AuctionEnded","inputs":[{"name":"tokenId","type":"uint256","indexed":true,"internalType":"uint256"},{"name":"winner","type":"address","indexed":false,"internalType":"address"},{"name":"price","type":"uint256","indexed":false,"internalType":"uint256"}],"anonymous":false},{"type":"event","name":"BidPlaced","inputs":[{"name":"tokenId","type":"uint256","indexed":true,"internalType":"uint256"},{"name":"bidder","type":"address","indexed":false,"internalType":"address"},{"name":"amount","type":"uint256","indexed":false,"internalType":"uint256"}],"anonymous":false},{"type":"error","name":"ReentrancyGuardReentrantCall","inputs":[]}],"bytecode":{"object":"0x608060405234801561000f575f80fd5b50604051610d75380380610d7583398101604081905261002e9161009d565b60017f9b779b17422d0df92223018b32b4d1fa46e071723d6817e2486d003becc55f00555f80546001600160a01b039384166001600160a01b031991821617909155600180549290931691161790556100ce565b80516001600160a01b0381168114610098575f80fd5b919050565b5f80604083850312156100ae575f80fd5b6100b783610082565b91506100c560208401610082565b90509250929050565b610c9a806100db5f395ff3fe608060405234801561000f575f80fd5b506004361061007a575f3560e01c8063571a26a011610058578063571a26a0146100d6578063598647f814610190578063b9a2de3a146101a5578063cda4beef146101b8575f80fd5b80633013ce291461007e57806347ccca02146100ae57806349c657db146100c0575b5f80fd5b600154610091906001600160a01b031681565b6040516001600160a01b0390911681526020015b60405180910390f35b5f54610091906001600160a01b031681565b6100c860fa81565b6040519081526020016100a5565b61013d6100e4366004610afe565b600260208190525f918252604090912080546001820154928201546003830154600484015460058501546006860154600787015460089097015495976001600160a01b0390811697959694959394929391169160ff1689565b60408051998a526001600160a01b0398891660208b01528901969096526060880194909452608087019290925260a086015290921660c084015260e08301919091521515610100820152610120016100a5565b6101a361019e366004610b15565b6101cb565b005b6101a36101b3366004610afe565b61046d565b6101a36101c6366004610b35565b61072c565b6101d3610ab2565b5f828152600260205260409020600881015460ff16156102225760405162461bcd60e51b8152602060048201526005602482015264115b99195960da1b60448201526064015b60405180910390fd5b806004015481600501546102369190610b72565b421061026e5760405162461bcd60e51b8152602060048201526007602482015266115e1c1a5c995960ca1b6044820152606401610219565b80600201548210156102b45760405162461bcd60e51b815260206004820152600f60248201526e42656c6f77206d696e20707269636560881b6044820152606401610219565b806007015482116102f15760405162461bcd60e51b8152602060048201526007602482015266131bddc8189a5960ca1b6044820152606401610219565b60068101546001600160a01b031615610384576001546006820154600783015460405163a9059cbb60e01b81526001600160a01b039283166004820152602481019190915291169063a9059cbb906044016020604051808303815f875af115801561035e573d5f803e3d5ffd5b505050506040513d601f19601f820116820180604052508101906103829190610b8b565b505b6001546040516323b872dd60e01b81526001600160a01b03909116906323b872dd906103b890339030908790600401610bb1565b6020604051808303815f875af11580156103d4573d5f803e3d5ffd5b505050506040513d601f19601f820116820180604052508101906103f89190610b8b565b506006810180546001600160a01b0319163390811790915560078201839055604080519182526020820184905284917f0e54eff26401bf69b81b26f60bd85ef47f5d85275c1d268d84f68d6897431c47910160405180910390a25061046960015f80516020610c4583398151915255565b5050565b610475610ab2565b5f818152600260205260409020600881015460ff16156104bf5760405162461bcd60e51b8152602060048201526005602482015264115b99195960da1b6044820152606401610219565b806004015481600501546104d39190610b72565b42101561050e5760405162461bcd60e51b8152602060048201526009602482015268139bdd08195b99195960ba1b6044820152606401610219565b60088101805460ff1916600117905560068101546001600160a01b03161561065a575f61271060fa83600701546105459190610bd5565b61054f9190610bec565b600180549084015460078501549293506001600160a01b039182169263a9059cbb9290911690610580908590610c0b565b6040516001600160e01b031960e085901b1681526001600160a01b03909216600483015260248201526044016020604051808303815f875af11580156105c8573d5f803e3d5ffd5b505050506040513d601f19601f820116820180604052508101906105ec9190610b8b565b505f5460068301546040516323b872dd60e01b81526001600160a01b03928316926323b872dd92610627923092909116908890600401610bb1565b5f604051808303815f87803b15801561063e575f80fd5b505af1158015610650573d5f803e3d5ffd5b50505050506106c2565b5f5460018201546040516323b872dd60e01b81526001600160a01b03928316926323b872dd92610694923092909116908790600401610bb1565b5f604051808303815f87803b1580156106ab575f80fd5b505af11580156106bd573d5f803e3d5ffd5b505050505b60068101546007820154604080516001600160a01b039093168352602083019190915283917fd2aa34a4fdbbc6dff6a3e56f46e0f3ae2a31d7785ff3487aa5c95c642acea501910160405180910390a25061072960015f80516020610c4583398151915255565b50565b5f546040516331a9108f60e11b81526004810185905233916001600160a01b031690636352211e90602401602060405180830381865afa158015610772573d5f803e3d5ffd5b505050506040513d601f19601f820116820180604052508101906107969190610c1e565b6001600160a01b0316146107d85760405162461bcd60e51b81526020600482015260096024820152682737ba1037bbb732b960b91b6044820152606401610219565b5f5460405163020604bf60e21b81526004810185905230916001600160a01b03169063081812fc90602401602060405180830381865afa15801561081e573d5f803e3d5ffd5b505050506040513d601f19601f820116820180604052508101906108429190610c1e565b6001600160a01b0316146108875760405162461bcd60e51b815260206004820152600c60248201526b139bdd08185c1c1c9bdd995960a21b6044820152606401610219565b610e10811015801561089c575062093a808111155b6108db5760405162461bcd60e51b815260206004820152601060248201526f24b73b30b634b210323ab930ba34b7b760811b6044820152606401610219565b5f546040516323b872dd60e01b81526001600160a01b03909116906323b872dd9061090e90339030908890600401610bb1565b5f604051808303815f87803b158015610925575f80fd5b505af1158015610937573d5f803e3d5ffd5b50505050604051806101200160405280848152602001336001600160a01b031681526020018381526020018381526020018281526020014281526020015f6001600160a01b031681526020018381526020015f151581525060025f8581526020019081526020015f205f820151815f01556020820151816001015f6101000a8154816001600160a01b0302191690836001600160a01b0316021790555060408201518160020155606082015181600301556080820151816004015560a0820151816005015560c0820151816006015f6101000a8154816001600160a01b0302191690836001600160a01b0316021790555060e08201518160070155610100820151816008015f6101000a81548160ff021916908315150217905550905050827fc9050d42180a61cb0d9ebb8ad118b62fe6eab12cf12ff752c4a0cc7da9ddf627338484604051610aa5939291906001600160a01b039390931683526020830191909152604082015260600190565b60405180910390a2505050565b610aba610acd565b60025f80516020610c4583398151915255565b5f80516020610c4583398151915254600203610afc57604051633ee5aeb560e01b815260040160405180910390fd5b565b5f60208284031215610b0e575f80fd5b5035919050565b5f8060408385031215610b26575f80fd5b50508035926020909101359150565b5f805f60608486031215610b47575f80fd5b505081359360208301359350604090920135919050565b634e487b7160e01b5f52601160045260245ffd5b80820180821115610b8557610b85610b5e565b92915050565b5f60208284031215610b9b575f80fd5b81518015158114610baa575f80fd5b9392505050565b6001600160a01b039384168152919092166020820152604081019190915260600190565b8082028115828204841417610b8557610b85610b5e565b5f82610c0657634e487b7160e01b5f52601260045260245ffd5b500490565b81810381811115610b8557610b85610b5e565b5f60208284031215610c2e575f80fd5b81516001600160a01b0381168114610baa575f80fdfe9b779b17422d0df92223018b32b4d1fa46e071723d6817e2486d003becc55f00a2646970667358221220fd58f5707950cb9e56340c592ce4ed7bb3c85a83064f40feb83805d2220b37b064736f6c63430008180033","linkReferences":{}},"methodIdentifiers":{"ROYALTY_BPS()":"49c657db","auctions(uint256)":"571a26a0","bid(uint256,uint256)":"598647f8","createAuction(uint256,uint256,uint256)":"cda4beef","endAuction(uint256)":"b9a2de3a","nft()":"47ccca02","paymentToken()":"3013ce29"},"id":5}