{"abi":[{"type":"constructor","inputs":[{"name":"_vault","type":"address","internalType":"address"},{"name":"_token","type":"address","internalType":"address"}],"stateMutability":"nonpayable"},{"type":"receive","stateMutability":"payable"},{"type":"function","name":"attack","inputs":[],"outputs":[],"stateMutability":"nonpayable"},{"type":"function","name":"attackCount","inputs":[],"outputs":[{"name":"","type":"uint256","internalType":"uint256"}],"stateMutability":"view"},{"type":"function","name":"token","inputs":[],"outputs":[{"name":"","type":"address","internalType":"address"}],"stateMutability":"view"},{"type":"function","name":"vault","inputs":[],"outputs":[{"name":"","type":"address","internalType":"contract IVault"}],"stateMutability":"view"}],"bytecode":{"object":"0x6080604052348015600e575f80fd5b506040516102c33803806102c3833981016040819052602b916074565b5f80546001600160a01b039384166001600160a01b0319918216179091556001805492909316911617905560a0565b80516001600160a01b0381168114606f575f80fd5b919050565b5f80604083850312156084575f80fd5b608b83605a565b9150609760208401605a565b90509250929050565b610216806100ad5f395ff3fe608060405260043610610041575f3560e01c8063407c2821146100c05780639e5faafc146100e8578063fbfa77cf146100fc578063fc0c546a14610132575f80fd5b366100bc57600560025410156100ba5760028054905f610060836101bc565b90915550505f805460405163b9c2aa4360e01b815260048101929092526001600160a01b03169063b9c2aa43906024015f604051808303815f87803b1580156100a7575f80fd5b505af19250505080156100b8575060015b505b005b5f80fd5b3480156100cb575f80fd5b506100d560025481565b6040519081526020015b60405180910390f35b3480156100f3575f80fd5b506100ba610151565b348015610107575f80fd5b505f5461011a906001600160a01b031681565b6040516001600160a01b0390911681526020016100df565b34801561013d575f80fd5b5060015461011a906001600160a01b031681565b5f546001546040516311f9fbc960e21b81526001600160a01b039182166004820152670de0b6b3a764000060248201529116906347e7ef24906044015f604051808303815f87803b1580156101a4575f80fd5b505af11580156101b6573d5f803e3d5ffd5b50505050565b5f600182016101d957634e487b7160e01b5f52601160045260245ffd5b506001019056fea26469706673582212209cac44d8b196dd399c703992e873a919701f14c146eab83528388131ff9fa75e64736f6c634300081a0033","linkReferences":{}},"methodIdentifiers":{"attack()":"9e5faafc","attackCount()":"407c2821","token()":"fc0c546a","vault()":"fbfa77cf"},"id":72}