{"abi":[{"type":"constructor","inputs":[{"name":"_owner","type":"address","internalType":"address"}],"stateMutability":"nonpayable"},{"type":"function","name":"isPaused","inputs":[],"outputs":[{"name":"","type":"bool","internalType":"bool"}],"stateMutability":"view"},{"type":"function","name":"owner","inputs":[],"outputs":[{"name":"","type":"address","internalType":"address"}],"stateMutability":"view"},{"type":"function","name":"pause","inputs":[],"outputs":[],"stateMutability":"nonpayable"},{"type":"function","name":"paused","inputs":[],"outputs":[{"name":"","type":"bool","internalType":"bool"}],"stateMutability":"view"},{"type":"function","name":"renounceOwnership","inputs":[],"outputs":[],"stateMutability":"nonpayable"},{"type":"function","name":"transferOwnership","inputs":[{"name":"newOwner","type":"address","internalType":"address"}],"outputs":[],"stateMutability":"nonpayable"},{"type":"function","name":"unpause","inputs":[],"outputs":[],"stateMutability":"nonpayable"},{"type":"event","name":"OwnershipTransferred","inputs":[{"name":"previousOwner","type":"address","indexed":true,"internalType":"address"},{"name":"newOwner","type":"address","indexed":true,"internalType":"address"}],"anonymous":false},{"type":"event","name":"Paused","inputs":[{"name":"account","type":"address","indexed":false,"internalType":"address"}],"anonymous":false},{"type":"event","name":"Unpaused","inputs":[{"name":"account","type":"address","indexed":false,"internalType":"address"}],"anonymous":false},{"type":"error","name":"EnforcedPause","inputs":[]},{"type":"error","name":"ExpectedPause","inputs":[]},{"type":"error","name":"OwnableInvalidOwner","inputs":[{"name":"owner","type":"address","internalType":"address"}]},{"type":"error","name":"OwnableUnauthorizedAccount","inputs":[{"name":"account","type":"address","internalType":"address"}]}],"bytecode":{"object":"0x608060405234801561000f575f80fd5b5060405161042938038061042983398101604081905261002e916100bb565b806001600160a01b03811661005c57604051631e4fbdf760e01b81525f600482015260240160405180910390fd5b6100658161006c565b50506100e8565b5f80546001600160a01b038381166001600160a01b0319831681178455604051919092169283917f8be0079c531659141344cd1fd0a4f28419497f9722a3daafe3b4186f6b6457e09190a35050565b5f602082840312156100cb575f80fd5b81516001600160a01b03811681146100e1575f80fd5b9392505050565b610334806100f55f395ff3fe608060405234801561000f575f80fd5b506004361061007a575f3560e01c80638456cb59116100585780638456cb59146100b25780638da5cb5b146100ba578063b187bd26146100d4578063f2fde38b146100e5575f80fd5b80633f4ba83a1461007e5780635c975abb14610088578063715018a6146100aa575b5f80fd5b6100866100f8565b005b5f54600160a01b900460ff165b60405190151581526020015b60405180910390f35b61008661010a565b61008661011b565b5f546040516001600160a01b0390911681526020016100a1565b5f54600160a01b900460ff16610095565b6100866100f33660046102d1565b61012b565b61010061016d565b610108610199565b565b61011261016d565b6101085f6101ed565b61012361016d565b61010861023c565b61013361016d565b6001600160a01b03811661016157604051631e4fbdf760e01b81525f60048201526024015b60405180910390fd5b61016a816101ed565b50565b5f546001600160a01b031633146101085760405163118cdaa760e01b8152336004820152602401610158565b6101a161027e565b5f805460ff60a01b191690557f5db9ee0a495bf2e6ff9c91a7834c1ba4fdd244a5e8aa4e537bd38aeae4b073aa335b6040516001600160a01b03909116815260200160405180910390a1565b5f80546001600160a01b038381166001600160a01b0319831681178455604051919092169283917f8be0079c531659141344cd1fd0a4f28419497f9722a3daafe3b4186f6b6457e09190a35050565b6102446102a7565b5f805460ff60a01b1916600160a01b1790557f62e78cea01bee320cd4e420270b5ea74000d11b0c9f74754ebdbfc544b05a2586101d03390565b5f54600160a01b900460ff1661010857604051638dfc202b60e01b815260040160405180910390fd5b5f54600160a01b900460ff16156101085760405163d93c066560e01b815260040160405180910390fd5b5f602082840312156102e1575f80fd5b81356001600160a01b03811681146102f7575f80fd5b939250505056fea2646970667358221220bf6242b5810cffc56e76d0626d96fba42f3c901a5d05b3505aea69ae9726657064736f6c63430008180033","linkReferences":{}},"methodIdentifiers":{"isPaused()":"b187bd26","owner()":"8da5cb5b","pause()":"8456cb59","paused()":"5c975abb","renounceOwnership()":"715018a6","transferOwnership(address)":"f2fde38b","unpause()":"3f4ba83a"},"id":0}