{"abi":[{"type":"function","name":"createToken","inputs":[{"name":"name","type":"string","internalType":"string"},{"name":"symbol","type":"string","internalType":"string"},{"name":"totalSupply","type":"uint256","internalType":"uint256"}],"outputs":[{"name":"","type":"address","internalType":"address"}],"stateMutability":"nonpayable"},{"type":"event","name":"TokenCreated","inputs":[{"name":"creator","type":"address","indexed":true,"internalType":"address"},{"name":"token","type":"address","indexed":false,"internalType":"address"},{"name":"name","type":"string","indexed":false,"internalType":"string"},{"name":"symbol","type":"string","indexed":false,"internalType":"string"},{"name":"totalSupply","type":"uint256","indexed":false,"internalType":"uint256"}],"anonymous":false}],"bytecode":{"object":"0x608060405234801561000f575f80fd5b50610e578061001d5f395ff3fe608060405234801561000f575f80fd5b5060043610610029575f3560e01c80635b0605301461002d575b5f80fd5b61004061003b366004610142565b61005c565b6040516001600160a01b03909116815260200160405180910390f35b5f80868686868633604051610070906100f0565b61007f969594939291906101d8565b604051809103905ff080158015610098573d5f803e3d5ffd5b509050336001600160a01b03167f6e6ae68e7d7d45fbd855c40d1eaafa8de46c5fbec3ee26f1af88730e400bc92c8289898989896040516100de96959493929190610222565b60405180910390a29695505050505050565b610bb48061026e83390190565b5f8083601f84011261010d575f80fd5b50813567ffffffffffffffff811115610124575f80fd5b60208301915083602082850101111561013b575f80fd5b9250929050565b5f805f805f60608688031215610156575f80fd5b853567ffffffffffffffff8082111561016d575f80fd5b61017989838a016100fd565b90975095506020880135915080821115610191575f80fd5b5061019e888289016100fd565b96999598509660400135949350505050565b81835281816020850137505f828201602090810191909152601f909101601f19169091010190565b608081525f6101eb60808301888a6101b0565b82810360208401526101fe8187896101b0565b604084019590955250506001600160a01b0391909116606090910152949350505050565b6001600160a01b03871681526080602082018190525f9061024690830187896101b0565b82810360408401526102598186886101b0565b91505082606083015297965050505050505056fe608060405234801562000010575f80fd5b5060405162000bb438038062000bb48339810160408190526200003391620002a1565b83836003620000438382620003ba565b506004620000528282620003ba565b5050506200006781836200007160201b60201c565b50505050620004ac565b6001600160a01b038216620000a05760405163ec442f0560e01b81525f60048201526024015b60405180910390fd5b620000ad5f8383620000b1565b5050565b6001600160a01b038316620000df578060025f828254620000d3919062000486565b90915550620001519050565b6001600160a01b0383165f9081526020819052604090205481811015620001335760405163391434e360e21b81526001600160a01b0385166004820152602481018290526044810183905260640162000097565b6001600160a01b0384165f9081526020819052604090209082900390555b6001600160a01b0382166200016f576002805482900390556200018d565b6001600160a01b0382165f9081526020819052604090208054820190555b816001600160a01b0316836001600160a01b03167fddf252ad1be2c89b69c2b068fc378daa952ba7f163c4a11628f55a4df523b3ef83604051620001d391815260200190565b60405180910390a3505050565b634e487b7160e01b5f52604160045260245ffd5b5f82601f83011262000204575f80fd5b81516001600160401b0380821115620002215762000221620001e0565b604051601f8301601f19908116603f011681019082821181831017156200024c576200024c620001e0565b816040528381526020925086602085880101111562000269575f80fd5b5f91505b838210156200028c57858201830151818301840152908201906200026d565b5f602085830101528094505050505092915050565b5f805f8060808587031215620002b5575f80fd5b84516001600160401b0380821115620002cc575f80fd5b620002da88838901620001f4565b95506020870151915080821115620002f0575f80fd5b50620002ff87828801620001f4565b60408701516060880151919550935090506001600160a01b038116811462000325575f80fd5b939692955090935050565b600181811c908216806200034557607f821691505b6020821081036200036457634e487b7160e01b5f52602260045260245ffd5b50919050565b601f821115620003b557805f5260205f20601f840160051c81016020851015620003915750805b601f840160051c820191505b81811015620003b2575f81556001016200039d565b50505b505050565b81516001600160401b03811115620003d657620003d6620001e0565b620003ee81620003e7845462000330565b846200036a565b602080601f83116001811462000424575f84156200040c5750858301515b5f19600386901b1c1916600185901b1785556200047e565b5f85815260208120601f198616915b82811015620004545788860151825594840194600190910190840162000433565b50858210156200047257878501515f19600388901b60f8161c191681555b505060018460011b0185555b505050505050565b80820180821115620004a657634e487b7160e01b5f52601160045260245ffd5b92915050565b6106fa80620004ba5f395ff3fe608060405234801561000f575f80fd5b5060043610610090575f3560e01c8063313ce56711610063578063313ce567146100fa57806370a082311461010957806395d89b4114610131578063a9059cbb14610139578063dd62ed3e1461014c575f80fd5b806306fdde0314610094578063095ea7b3146100b257806318160ddd146100d557806323b872dd146100e7575b5f80fd5b61009c610184565b6040516100a99190610554565b60405180910390f35b6100c56100c03660046105bb565b610214565b60405190151581526020016100a9565b6002545b6040519081526020016100a9565b6100c56100f53660046105e3565b61022d565b604051601281526020016100a9565b6100d961011736600461061c565b6001600160a01b03165f9081526020819052604090205490565b61009c610250565b6100c56101473660046105bb565b61025f565b6100d961015a36600461063c565b6001600160a01b039182165f90815260016020908152604080832093909416825291909152205490565b6060600380546101939061066d565b80601f01602080910402602001604051908101604052809291908181526020018280546101bf9061066d565b801561020a5780601f106101e15761010080835404028352916020019161020a565b820191905f5260205f20905b8154815290600101906020018083116101ed57829003601f168201915b5050505050905090565b5f3361022181858561026c565b60019150505b92915050565b5f3361023a85828561027e565b6102458585856102ff565b506001949350505050565b6060600480546101939061066d565b5f336102218185856102ff565b610279838383600161035c565b505050565b6001600160a01b038381165f908152600160209081526040808320938616835292905220545f198110156102f957818110156102eb57604051637dc7a0d960e11b81526001600160a01b038416600482015260248101829052604481018390526064015b60405180910390fd5b6102f984848484035f61035c565b50505050565b6001600160a01b03831661032857604051634b637e8f60e11b81525f60048201526024016102e2565b6001600160a01b0382166103515760405163ec442f0560e01b81525f60048201526024016102e2565b61027983838361042e565b6001600160a01b0384166103855760405163e602df0560e01b81525f60048201526024016102e2565b6001600160a01b0383166103ae57604051634a1406b160e11b81525f60048201526024016102e2565b6001600160a01b038085165f90815260016020908152604080832093871683529290522082905580156102f957826001600160a01b0316846001600160a01b03167f8c5be1e5ebec7d5bd14f71427d1e84f3dd0314c0f7b2291e5b200ac8c7c3b9258460405161042091815260200190565b60405180910390a350505050565b6001600160a01b038316610458578060025f82825461044d91906106a5565b909155506104c89050565b6001600160a01b0383165f90815260208190526040902054818110156104aa5760405163391434e360e21b81526001600160a01b038516600482015260248101829052604481018390526064016102e2565b6001600160a01b0384165f9081526020819052604090209082900390555b6001600160a01b0382166104e457600280548290039055610502565b6001600160a01b0382165f9081526020819052604090208054820190555b816001600160a01b0316836001600160a01b03167fddf252ad1be2c89b69c2b068fc378daa952ba7f163c4a11628f55a4df523b3ef8360405161054791815260200190565b60405180910390a3505050565b5f602080835283518060208501525f5b8181101561058057858101830151858201604001528201610564565b505f604082860101526040601f19601f8301168501019250505092915050565b80356001600160a01b03811681146105b6575f80fd5b919050565b5f80604083850312156105cc575f80fd5b6105d5836105a0565b946020939093013593505050565b5f805f606084860312156105f5575f80fd5b6105fe846105a0565b925061060c602085016105a0565b9150604084013590509250925092565b5f6020828403121561062c575f80fd5b610635826105a0565b9392505050565b5f806040838503121561064d575f80fd5b610656836105a0565b9150610664602084016105a0565b90509250929050565b600181811c9082168061068157607f821691505b60208210810361069f57634e487b7160e01b5f52602260045260245ffd5b50919050565b8082018082111561022757634e487b7160e01b5f52601160045260245ffdfea26469706673582212207d95335c635d3929bcecc27a1d8378c68699eaf22f7e0cd17ee3fde83ddc293064736f6c63430008180033a2646970667358221220a228f3513f8dc137913ee71d58c4795651e88bc969fde7281abdb02f1e22c34164736f6c63430008180033","linkReferences":{}},"methodIdentifiers":{"createToken(string,string,uint256)":"5b060530"},"id":27}