{"abi":[{"type":"function","name":"swapExactIn","inputs":[{"name":"pool","type":"address","internalType":"contract ISwapPool"},{"name":"amountIn","type":"uint256","internalType":"uint256"},{"name":"amountOutMinimum","type":"uint256","internalType":"uint256"},{"name":"recipient","type":"address","internalType":"address"}],"outputs":[{"name":"amountOut","type":"uint256","internalType":"uint256"}],"stateMutability":"nonpayable"},{"type":"event","name":"SwapExactIn","inputs":[{"name":"caller","type":"address","indexed":true,"internalType":"address"},{"name":"pool","type":"address","indexed":true,"internalType":"address"},{"name":"amountIn","type":"uint256","indexed":false,"internalType":"uint256"},{"name":"amountOut","type":"uint256","indexed":false,"internalType":"uint256"},{"name":"amountOutMinimum","type":"uint256","indexed":false,"internalType":"uint256"}],"anonymous":false},{"type":"error","name":"IonDexMinOutput","inputs":[{"name":"amountOut","type":"uint256","internalType":"uint256"},{"name":"amountOutMinimum","type":"uint256","internalType":"uint256"}]},{"type":"error","name":"IonDexZeroAddress","inputs":[]},{"type":"error","name":"IonDexZeroAmount","inputs":[]}],"bytecode":{"object":"0x608080604052346015576101d5908161001a8239f35b5f80fdfe6080806040526004361015610012575f80fd5b5f3560e01c63a6220b6614610025575f80fd5b3461014e57608036600319011261014e576004356001600160a01b038116919082900361014e57604435916024356064356001600160a01b0381169081900361014e578215908115610196575b50610187578015610178576330f9a2b960e11b83528060048401528360248401526020836044815f865af192831561016d575f9361010b575b508383106100f457602093604051918252838583015260408201527f1b77440dc830de814de9d67389bb306d37e7620c2bd2c6b3298ed2695df7cb5060603392a3604051908152f35b50506316d1708b60e11b5f5260045260245260445ffd5b90925060203d602011610166575b601f8101601f1916820167ffffffffffffffff8111838210176101525760209183916040528101031261014e5751915f6100ab565b5f80fd5b634e487b7160e01b5f52604160045260245ffd5b503d610119565b6040513d5f823e3d90fd5b6377b0874f60e11b5f5260045ffd5b6394844c1960e01b5f5260045ffd5b9050155f61007256fea2646970667358221220507ae002d3c4bc50d2743138351947f9d41c976248a728e7aad264165615de4564736f6c63430008230033","linkReferences":{}},"methodIdentifiers":{"swapExactIn(address,uint256,uint256,address)":"a6220b66"},"id":8}