{"abi":[{"type":"constructor","inputs":[{"name":"_rewardToken","type":"address","internalType":"address"}],"stateMutability":"nonpayable"},{"type":"function","name":"accRewardPerShare","inputs":[],"outputs":[{"name":"","type":"uint256","internalType":"uint256"}],"stateMutability":"view"},{"type":"function","name":"depositReward","inputs":[{"name":"amount","type":"uint256","internalType":"uint256"}],"outputs":[],"stateMutability":"nonpayable"},{"type":"function","name":"harvest","inputs":[],"outputs":[],"stateMutability":"nonpayable"},{"type":"function","name":"owner","inputs":[],"outputs":[{"name":"","type":"address","internalType":"address"}],"stateMutability":"view"},{"type":"function","name":"pendingReward","inputs":[{"name":"user","type":"address","internalType":"address"}],"outputs":[{"name":"","type":"uint256","internalType":"uint256"}],"stateMutability":"view"},{"type":"function","name":"pendingRewards","inputs":[{"name":"","type":"address","internalType":"address"}],"outputs":[{"name":"","type":"uint256","internalType":"uint256"}],"stateMutability":"view"},{"type":"function","name":"renounceOwnership","inputs":[],"outputs":[],"stateMutability":"nonpayable"},{"type":"function","name":"rewardDebt","inputs":[{"name":"","type":"address","internalType":"address"}],"outputs":[{"name":"","type":"uint256","internalType":"uint256"}],"stateMutability":"view"},{"type":"function","name":"rewardToken","inputs":[],"outputs":[{"name":"","type":"address","internalType":"contract IERC20"}],"stateMutability":"view"},{"type":"function","name":"shares","inputs":[{"name":"","type":"address","internalType":"address"}],"outputs":[{"name":"","type":"uint256","internalType":"uint256"}],"stateMutability":"view"},{"type":"function","name":"stake","inputs":[{"name":"shareAmount","type":"uint256","internalType":"uint256"}],"outputs":[],"stateMutability":"nonpayable"},{"type":"function","name":"totalShares","inputs":[],"outputs":[{"name":"","type":"uint256","internalType":"uint256"}],"stateMutability":"view"},{"type":"function","name":"transferOwnership","inputs":[{"name":"newOwner","type":"address","internalType":"address"}],"outputs":[],"stateMutability":"nonpayable"},{"type":"function","name":"unstake","inputs":[{"name":"shareAmount","type":"uint256","internalType":"uint256"}],"outputs":[],"stateMutability":"nonpayable"},{"type":"event","name":"Deposit","inputs":[{"name":"user","type":"address","indexed":true,"internalType":"address"},{"name":"amount","type":"uint256","indexed":false,"internalType":"uint256"}],"anonymous":false},{"type":"event","name":"Harvest","inputs":[{"name":"user","type":"address","indexed":true,"internalType":"address"},{"name":"reward","type":"uint256","indexed":false,"internalType":"uint256"}],"anonymous":false},{"type":"event","name":"OwnershipTransferred","inputs":[{"name":"previousOwner","type":"address","indexed":true,"internalType":"address"},{"name":"newOwner","type":"address","indexed":true,"internalType":"address"}],"anonymous":false},{"type":"event","name":"Withdraw","inputs":[{"name":"user","type":"address","indexed":true,"internalType":"address"},{"name":"amount","type":"uint256","indexed":false,"internalType":"uint256"}],"anonymous":false},{"type":"error","name":"OwnableInvalidOwner","inputs":[{"name":"owner","type":"address","internalType":"address"}]},{"type":"error","name":"OwnableUnauthorizedAccount","inputs":[{"name":"account","type":"address","internalType":"address"}]},{"type":"error","name":"ReentrancyGuardReentrantCall","inputs":[]}],"bytecode":{"object":"0x608060405234801561000f575f80fd5b50604051610a9e380380610a9e83398101604081905261002e916100f5565b338061005357604051631e4fbdf760e01b81525f600482015260240160405180910390fd5b61005c816100a6565b5060017f9b779b17422d0df92223018b32b4d1fa46e071723d6817e2486d003becc55f0055600180546001600160a01b0319166001600160a01b0392909216919091179055610122565b5f80546001600160a01b038381166001600160a01b0319831681178455604051919092169283917f8be0079c531659141344cd1fd0a4f28419497f9722a3daafe3b4186f6b6457e09190a35050565b5f60208284031215610105575f80fd5b81516001600160a01b038116811461011b575f80fd5b9392505050565b61096f8061012f5f395ff3fe608060405234801561000f575f80fd5b50600436106100e5575f3560e01c80638da5cb5b11610088578063ce7c2ac211610063578063ce7c2ac2146101bb578063f2fde38b146101da578063f40f0f52146101ed578063f7c618c114610200575f80fd5b80638da5cb5b1461017b578063939d62371461019f578063a694fc3a146101a8575f80fd5b80633a98ef39116100c35780633a98ef39146101435780634641257d1461014c5780635873eb9b14610154578063715018a614610173575f80fd5b80631e2720ff146100e95780632e17de78146100fe57806331d7a26214610111575b5f80fd5b6100fc6100f7366004610847565b610213565b005b6100fc61010c366004610847565b61030e565b61013061011f36600461085e565b60066020525f908152604090205481565b6040519081526020015b60405180910390f35b61013060025481565b6100fc6103f9565b61013061016236600461085e565b60056020525f908152604090205481565b6100fc610525565b5f546001600160a01b03165b6040516001600160a01b03909116815260200161013a565b61013060035481565b6100fc6101b6366004610847565b610536565b6101306101c936600461085e565b60046020525f908152604090205481565b6100fc6101e836600461085e565b6105f1565b6101306101fb36600461085e565b61062b565b600154610187906001600160a01b031681565b5f81116102555760405162461bcd60e51b815260206004820152600b60248201526a416d6f756e74207a65726f60a81b60448201526064015b60405180910390fd5b6001546040516323b872dd60e01b8152336004820152306024820152604481018390526001600160a01b03909116906323b872dd906064016020604051808303815f875af11580156102a9573d5f803e3d5ffd5b505050506040513d601f19601f820116820180604052508101906102cd9190610884565b506002541561030b576002546102eb82670de0b6b3a76400006108b7565b6102f591906108d4565b60035f82825461030591906108f3565b90915550505b50565b6103166106a9565b5f811180156103335750335f908152600460205260409020548111155b6103695760405162461bcd60e51b8152602060048201526007602482015266125b9d985b1a5960ca1b604482015260640161024c565b610372336106c4565b335f9081526004602052604081208054839290610390908490610906565b925050819055508060025f8282546103a89190610906565b909155505060405181815233907f884edad9ce6fa2440d8a54cc123490eb96d2768479d49ff9c7366125a9424364906020015b60405180910390a261030b60015f8051602061091a83398151915255565b6104016106a9565b61040a336106c4565b335f90815260066020526040902054806104525760405162461bcd60e51b8152602060048201526009602482015268139bc81c995dd85c9960ba1b604482015260640161024c565b335f8181526006602052604080822091909155600154905163a9059cbb60e01b81526004810192909252602482018390526001600160a01b03169063a9059cbb906044016020604051808303815f875af11580156104b2573d5f803e3d5ffd5b505050506040513d601f19601f820116820180604052508101906104d69190610884565b5060405181815233907fc9695243a805adb74c91f28311176c65b417e842d5699893cef56d18bfa48cba9060200160405180910390a25061052360015f8051602061091a83398151915255565b565b61052d61079d565b6105235f6107c9565b61053e6106a9565b5f811161057b5760405162461bcd60e51b815260206004820152600b60248201526a416d6f756e74207a65726f60a81b604482015260640161024c565b610584336106c4565b335f90815260046020526040812080548392906105a29084906108f3565b925050819055508060025f8282546105ba91906108f3565b909155505060405181815233907fe1fffcc4923d04b559f4d29a8bfc6cda04eb5b0d3c460751c2402c5c5cc9109c906020016103db565b6105f961079d565b6001600160a01b03811661062257604051631e4fbdf760e01b81525f600482015260240161024c565b61030b816107c9565b6001600160a01b0381165f908152600560209081526040808320546003546004909352908320548392670de0b6b3a76400009161066891906108b7565b61067291906108d4565b61067c9190610906565b6001600160a01b0384165f908152600660205260409020549091506106a29082906108f3565b9392505050565b6106b1610818565b60025f8051602061091a83398151915255565b6001600160a01b0381165f908152600560209081526040808320546003546004909352908320549091670de0b6b3a76400009161070191906108b7565b61070b91906108d4565b6107159190610906565b6001600160a01b0383165f908152600660205260408120805492935083929091906107419084906108f3565b90915550506003546001600160a01b0383165f90815260046020526040902054670de0b6b3a764000091610774916108b7565b61077e91906108d4565b6001600160a01b039092165f9081526005602052604090209190915550565b5f546001600160a01b031633146105235760405163118cdaa760e01b815233600482015260240161024c565b5f80546001600160a01b038381166001600160a01b0319831681178455604051919092169283917f8be0079c531659141344cd1fd0a4f28419497f9722a3daafe3b4186f6b6457e09190a35050565b5f8051602061091a8339815191525460020361052357604051633ee5aeb560e01b815260040160405180910390fd5b5f60208284031215610857575f80fd5b5035919050565b5f6020828403121561086e575f80fd5b81356001600160a01b03811681146106a2575f80fd5b5f60208284031215610894575f80fd5b815180151581146106a2575f80fd5b634e487b7160e01b5f52601160045260245ffd5b80820281158282048414176108ce576108ce6108a3565b92915050565b5f826108ee57634e487b7160e01b5f52601260045260245ffd5b500490565b808201808211156108ce576108ce6108a3565b818103818111156108ce576108ce6108a356fe9b779b17422d0df92223018b32b4d1fa46e071723d6817e2486d003becc55f00a2646970667358221220cf0e18c9bf6810b014ed387ee0aaf859efe0d13e0518922aea877a0416e0c5e064736f6c63430008180033","linkReferences":{}},"methodIdentifiers":{"accRewardPerShare()":"939d6237","depositReward(uint256)":"1e2720ff","harvest()":"4641257d","owner()":"8da5cb5b","pendingReward(address)":"f40f0f52","pendingRewards(address)":"31d7a262","renounceOwnership()":"715018a6","rewardDebt(address)":"5873eb9b","rewardToken()":"f7c618c1","shares(address)":"ce7c2ac2","stake(uint256)":"a694fc3a","totalShares()":"3a98ef39","transferOwnership(address)":"f2fde38b","unstake(uint256)":"2e17de78"},"id":6}