{"abi":[{"type":"constructor","inputs":[{"name":"_rewardToken","type":"address","internalType":"address"}],"stateMutability":"nonpayable"},{"type":"function","name":"accRewardPerShare","inputs":[],"outputs":[{"name":"","type":"uint256","internalType":"uint256"}],"stateMutability":"view"},{"type":"function","name":"depositReward","inputs":[{"name":"amount","type":"uint256","internalType":"uint256"}],"outputs":[],"stateMutability":"nonpayable"},{"type":"function","name":"harvest","inputs":[],"outputs":[],"stateMutability":"nonpayable"},{"type":"function","name":"owner","inputs":[],"outputs":[{"name":"","type":"address","internalType":"address"}],"stateMutability":"view"},{"type":"function","name":"pendingReward","inputs":[{"name":"user","type":"address","internalType":"address"}],"outputs":[{"name":"","type":"uint256","internalType":"uint256"}],"stateMutability":"view"},{"type":"function","name":"pendingRewards","inputs":[{"name":"","type":"address","internalType":"address"}],"outputs":[{"name":"","type":"uint256","internalType":"uint256"}],"stateMutability":"view"},{"type":"function","name":"renounceOwnership","inputs":[],"outputs":[],"stateMutability":"nonpayable"},{"type":"function","name":"rewardDebt","inputs":[{"name":"","type":"address","internalType":"address"}],"outputs":[{"name":"","type":"uint256","internalType":"uint256"}],"stateMutability":"view"},{"type":"function","name":"rewardToken","inputs":[],"outputs":[{"name":"","type":"address","internalType":"contract IERC20"}],"stateMutability":"view"},{"type":"function","name":"setShareManager","inputs":[{"name":"manager","type":"address","internalType":"address"}],"outputs":[],"stateMutability":"nonpayable"},{"type":"function","name":"shareManager","inputs":[],"outputs":[{"name":"","type":"address","internalType":"address"}],"stateMutability":"view"},{"type":"function","name":"shares","inputs":[{"name":"","type":"address","internalType":"address"}],"outputs":[{"name":"","type":"uint256","internalType":"uint256"}],"stateMutability":"view"},{"type":"function","name":"stake","inputs":[{"name":"","type":"uint256","internalType":"uint256"}],"outputs":[],"stateMutability":"pure"},{"type":"function","name":"stakeFor","inputs":[{"name":"user","type":"address","internalType":"address"},{"name":"shareAmount","type":"uint256","internalType":"uint256"}],"outputs":[],"stateMutability":"nonpayable"},{"type":"function","name":"totalShares","inputs":[],"outputs":[{"name":"","type":"uint256","internalType":"uint256"}],"stateMutability":"view"},{"type":"function","name":"transferOwnership","inputs":[{"name":"newOwner","type":"address","internalType":"address"}],"outputs":[],"stateMutability":"nonpayable"},{"type":"function","name":"unstake","inputs":[{"name":"","type":"uint256","internalType":"uint256"}],"outputs":[],"stateMutability":"pure"},{"type":"function","name":"unstakeFor","inputs":[{"name":"user","type":"address","internalType":"address"},{"name":"shareAmount","type":"uint256","internalType":"uint256"}],"outputs":[],"stateMutability":"nonpayable"},{"type":"event","name":"Deposit","inputs":[{"name":"user","type":"address","indexed":true,"internalType":"address"},{"name":"amount","type":"uint256","indexed":false,"internalType":"uint256"}],"anonymous":false},{"type":"event","name":"Harvest","inputs":[{"name":"user","type":"address","indexed":true,"internalType":"address"},{"name":"reward","type":"uint256","indexed":false,"internalType":"uint256"}],"anonymous":false},{"type":"event","name":"OwnershipTransferred","inputs":[{"name":"previousOwner","type":"address","indexed":true,"internalType":"address"},{"name":"newOwner","type":"address","indexed":true,"internalType":"address"}],"anonymous":false},{"type":"event","name":"ShareManagerUpdated","inputs":[{"name":"manager","type":"address","indexed":true,"internalType":"address"}],"anonymous":false},{"type":"event","name":"Withdraw","inputs":[{"name":"user","type":"address","indexed":true,"internalType":"address"},{"name":"amount","type":"uint256","indexed":false,"internalType":"uint256"}],"anonymous":false},{"type":"error","name":"IonDexUnauthorized","inputs":[]},{"type":"error","name":"OwnableInvalidOwner","inputs":[{"name":"owner","type":"address","internalType":"address"}]},{"type":"error","name":"OwnableUnauthorizedAccount","inputs":[{"name":"account","type":"address","internalType":"address"}]},{"type":"error","name":"ReentrancyGuardReentrantCall","inputs":[]}],"bytecode":{"object":"0x60a060405234801561000f575f80fd5b50604051610f3a380380610f3a83398101604081905261002e91610164565b338061005457604051631e4fbdf760e01b81525f60048201526024015b60405180910390fd5b61005d81610115565b5060017f9b779b17422d0df92223018b32b4d1fa46e071723d6817e2486d003becc55f00556001600160a01b0381166100c55760405162461bcd60e51b815260206004820152600a602482015269546f6b656e207a65726f60b01b604482015260640161004b565b6001600160a01b038116608052600180546001600160a01b031916339081179091556040517f53eceae06fcd9f3f527b4f0a6c6cc18864eeae7ef735d492001d451f17e71611905f90a250610191565b5f80546001600160a01b038381166001600160a01b0319831681178455604051919092169283917f8be0079c531659141344cd1fd0a4f28419497f9722a3daafe3b4186f6b6457e09190a35050565b5f60208284031215610174575f80fd5b81516001600160a01b038116811461018a575f80fd5b9392505050565b608051610d836101b75f395f818161026e015281816102f401526108a50152610d835ff3fe608060405234801561000f575f80fd5b5060043610610111575f3560e01c80635c60173d1161009e578063a694fc3a1161006e578063a694fc3a1461013d578063ce7c2ac214610224578063f2fde38b14610243578063f40f0f5214610256578063f7c618c114610269575f80fd5b80635c60173d146101d8578063715018a6146102035780638da5cb5b1461020b578063939d62371461021b575f80fd5b806331d7a262116100e457806331d7a2621461016357806336ef088c146101955780633a98ef39146101a85780634641257d146101b15780635873eb9b146101b9575f80fd5b80631e2720ff14610115578063241b464c1461012a5780632e17de781461013d5780632ee4090814610150575b5f80fd5b610128610123366004610c1e565b610290565b005b610128610138366004610c50565b6103dc565b61012861014b366004610c1e565b610472565b61012861015e366004610c70565b61048b565b610182610171366004610c50565b60066020525f908152604090205481565b6040519081526020015b60405180910390f35b6101286101a3366004610c70565b610632565b61018260025481565b6101286107d6565b6101826101c7366004610c50565b60056020525f908152604090205481565b6001546101eb906001600160a01b031681565b6040516001600160a01b03909116815260200161018c565b610128610993565b5f546001600160a01b03166101eb565b61018260035481565b610182610232366004610c50565b60046020525f908152604090205481565b610128610251366004610c50565b6109a4565b610182610264366004610c50565b6109de565b6101eb7f000000000000000000000000000000000000000000000000000000000000000081565b5f81116102d25760405162461bcd60e51b815260206004820152600b60248201526a416d6f756e74207a65726f60a81b60448201526064015b60405180910390fd5b6040516323b872dd60e01b8152336004820152306024820152604481018290527f00000000000000000000000000000000000000000000000000000000000000006001600160a01b0316906323b872dd906064016020604051808303815f875af1158015610342573d5f803e3d5ffd5b505050506040513d601f19601f820116820180604052508101906103669190610c98565b61039c5760405162461bcd60e51b815260206004820152600760248201526615118819985a5b60ca1b60448201526064016102c9565b600254156103d9576002546103b982670de0b6b3a7640000610ccb565b6103c39190610ce8565b60035f8282546103d39190610d07565b90915550505b50565b6103e4610a92565b6001600160a01b0381166104295760405162461bcd60e51b815260206004820152600c60248201526b4d616e61676572207a65726f60a01b60448201526064016102c9565b600180546001600160a01b0319166001600160a01b0383169081179091556040517f53eceae06fcd9f3f527b4f0a6c6cc18864eeae7ef735d492001d451f17e71611905f90a250565b6040516326392e5760e11b815260040160405180910390fd5b610493610abe565b6001546001600160a01b031633146104be576040516326392e5760e11b815260040160405180910390fd5b6001600160a01b0382166105005760405162461bcd60e51b815260206004820152600960248201526855736572207a65726f60b81b60448201526064016102c9565b5f811161053d5760405162461bcd60e51b815260206004820152600b60248201526a416d6f756e74207a65726f60a81b60448201526064016102c9565b61054682610ad9565b6001600160a01b0382165f908152600460205260408120805483929061056d908490610d07565b925050819055508060025f8282546105859190610d07565b90915550506003546001600160a01b0383165f90815260046020526040902054670de0b6b3a7640000916105b891610ccb565b6105c29190610ce8565b6001600160a01b0383165f81815260056020526040908190209290925590517fe1fffcc4923d04b559f4d29a8bfc6cda04eb5b0d3c460751c2402c5c5cc9109c906106109084815260200190565b60405180910390a261062e60015f80516020610d2e83398151915255565b5050565b61063a610abe565b6001546001600160a01b03163314610665576040516326392e5760e11b815260040160405180910390fd5b6001600160a01b0382166106a75760405162461bcd60e51b815260206004820152600960248201526855736572207a65726f60b81b60448201526064016102c9565b5f811180156106cd57506001600160a01b0382165f908152600460205260409020548111155b6107035760405162461bcd60e51b8152602060048201526007602482015266125b9d985b1a5960ca1b60448201526064016102c9565b61070c82610ad9565b6001600160a01b0382165f9081526004602052604081208054839290610733908490610d1a565b925050819055508060025f82825461074b9190610d1a565b90915550506003546001600160a01b0383165f90815260046020526040902054670de0b6b3a76400009161077e91610ccb565b6107889190610ce8565b6001600160a01b0383165f81815260056020526040908190209290925590517f884edad9ce6fa2440d8a54cc123490eb96d2768479d49ff9c7366125a9424364906106109084815260200190565b6107de610abe565b6107e733610ad9565b335f908152600660205260409020548061082f5760405162461bcd60e51b8152602060048201526009602482015268139bc81c995dd85c9960ba1b60448201526064016102c9565b335f908152600660209081526040808320839055600354600490925290912054670de0b6b3a76400009161086291610ccb565b61086c9190610ce8565b335f818152600560205260409081902092909255905163a9059cbb60e01b81526004810191909152602481018290526001600160a01b037f0000000000000000000000000000000000000000000000000000000000000000169063a9059cbb906044016020604051808303815f875af11580156108eb573d5f803e3d5ffd5b505050506040513d601f19601f8201168201806040525081019061090f9190610c98565b6109455760405162461bcd60e51b815260206004820152600760248201526615118819985a5b60ca1b60448201526064016102c9565b60405181815233907fc9695243a805adb74c91f28311176c65b417e842d5699893cef56d18bfa48cba9060200160405180910390a25061099160015f80516020610d2e83398151915255565b565b61099b610a92565b6109915f610ba0565b6109ac610a92565b6001600160a01b0381166109d557604051631e4fbdf760e01b81525f60048201526024016102c9565b6103d981610ba0565b6003546001600160a01b0382165f9081526004602052604081205490918291670de0b6b3a764000091610a1091610ccb565b610a1a9190610ce8565b6001600160a01b0384165f90815260056020526040812054919250908211610a42575f610a64565b6001600160a01b0384165f90815260056020526040902054610a649083610d1a565b6001600160a01b0385165f90815260066020526040902054909150610a8a908290610d07565b949350505050565b5f546001600160a01b031633146109915760405163118cdaa760e01b81523360048201526024016102c9565b610ac6610bef565b60025f80516020610d2e83398151915255565b6003546001600160a01b0382165f908152600460205260408120549091670de0b6b3a764000091610b0a9190610ccb565b610b149190610ce8565b6001600160a01b0383165f90815260056020526040902054909150811115610b85576001600160a01b0382165f90815260056020526040902054610b589082610d1a565b6001600160a01b0383165f9081526006602052604081208054909190610b7f908490610d07565b90915550505b6001600160a01b039091165f90815260056020526040902055565b5f80546001600160a01b038381166001600160a01b0319831681178455604051919092169283917f8be0079c531659141344cd1fd0a4f28419497f9722a3daafe3b4186f6b6457e09190a35050565b5f80516020610d2e8339815191525460020361099157604051633ee5aeb560e01b815260040160405180910390fd5b5f60208284031215610c2e575f80fd5b5035919050565b80356001600160a01b0381168114610c4b575f80fd5b919050565b5f60208284031215610c60575f80fd5b610c6982610c35565b9392505050565b5f8060408385031215610c81575f80fd5b610c8a83610c35565b946020939093013593505050565b5f60208284031215610ca8575f80fd5b81518015158114610c69575f80fd5b634e487b7160e01b5f52601160045260245ffd5b8082028115828204841417610ce257610ce2610cb7565b92915050565b5f82610d0257634e487b7160e01b5f52601260045260245ffd5b500490565b80820180821115610ce257610ce2610cb7565b81810381811115610ce257610ce2610cb756fe9b779b17422d0df92223018b32b4d1fa46e071723d6817e2486d003becc55f00a2646970667358221220ea36e5d22920accd759cd8e49dc99c5993625282a97fa17794d82aa9fdb66e9b64736f6c63430008180033","linkReferences":{}},"methodIdentifiers":{"accRewardPerShare()":"939d6237","depositReward(uint256)":"1e2720ff","harvest()":"4641257d","owner()":"8da5cb5b","pendingReward(address)":"f40f0f52","pendingRewards(address)":"31d7a262","renounceOwnership()":"715018a6","rewardDebt(address)":"5873eb9b","rewardToken()":"f7c618c1","setShareManager(address)":"241b464c","shareManager()":"5c60173d","shares(address)":"ce7c2ac2","stake(uint256)":"a694fc3a","stakeFor(address,uint256)":"2ee40908","totalShares()":"3a98ef39","transferOwnership(address)":"f2fde38b","unstake(uint256)":"2e17de78","unstakeFor(address,uint256)":"36ef088c"},"id":0}