{"abi":[{"type":"constructor","inputs":[{"name":"admin_","type":"address","internalType":"address"},{"name":"quoteToken_","type":"address","internalType":"address"}],"stateMutability":"nonpayable"},{"type":"function","name":"admin","inputs":[],"outputs":[{"name":"","type":"address","internalType":"contract AdminManager"}],"stateMutability":"view"},{"type":"function","name":"balances","inputs":[{"name":"","type":"address","internalType":"address"}],"outputs":[{"name":"","type":"uint256","internalType":"uint256"}],"stateMutability":"view"},{"type":"function","name":"cancelOrder","inputs":[{"name":"orderId","type":"uint256","internalType":"uint256"}],"outputs":[],"stateMutability":"nonpayable"},{"type":"function","name":"deposit","inputs":[{"name":"amount","type":"uint256","internalType":"uint256"}],"outputs":[],"stateMutability":"nonpayable"},{"type":"function","name":"getOrder","inputs":[{"name":"orderId","type":"uint256","internalType":"uint256"}],"outputs":[{"name":"","type":"tuple","internalType":"struct OrderBookV2.Order","components":[{"name":"user","type":"address","internalType":"address"},{"name":"isBuy","type":"bool","internalType":"bool"},{"name":"price","type":"uint256","internalType":"uint256"},{"name":"amount","type":"uint256","internalType":"uint256"},{"name":"filled","type":"uint256","internalType":"uint256"},{"name":"deadline","type":"uint256","internalType":"uint256"},{"name":"finished","type":"bool","internalType":"bool"}]}],"stateMutability":"view"},{"type":"function","name":"getUserOrders","inputs":[{"name":"user","type":"address","internalType":"address"}],"outputs":[{"name":"","type":"uint256[]","internalType":"uint256[]"}],"stateMutability":"view"},{"type":"function","name":"matchOrder","inputs":[{"name":"orderId","type":"uint256","internalType":"uint256"},{"name":"fillAmount","type":"uint256","internalType":"uint256"}],"outputs":[],"stateMutability":"nonpayable"},{"type":"function","name":"orderCount","inputs":[],"outputs":[{"name":"","type":"uint256","internalType":"uint256"}],"stateMutability":"view"},{"type":"function","name":"orders","inputs":[{"name":"","type":"uint256","internalType":"uint256"}],"outputs":[{"name":"user","type":"address","internalType":"address"},{"name":"isBuy","type":"bool","internalType":"bool"},{"name":"price","type":"uint256","internalType":"uint256"},{"name":"amount","type":"uint256","internalType":"uint256"},{"name":"filled","type":"uint256","internalType":"uint256"},{"name":"deadline","type":"uint256","internalType":"uint256"},{"name":"finished","type":"bool","internalType":"bool"}],"stateMutability":"view"},{"type":"function","name":"placeOrder","inputs":[{"name":"isBuy","type":"bool","internalType":"bool"},{"name":"price","type":"uint256","internalType":"uint256"},{"name":"amount","type":"uint256","internalType":"uint256"},{"name":"deadline","type":"uint256","internalType":"uint256"}],"outputs":[],"stateMutability":"nonpayable"},{"type":"function","name":"quoteToken","inputs":[],"outputs":[{"name":"","type":"address","internalType":"address"}],"stateMutability":"view"},{"type":"function","name":"withdraw","inputs":[{"name":"amount","type":"uint256","internalType":"uint256"}],"outputs":[],"stateMutability":"nonpayable"},{"type":"event","name":"CancelOrder","inputs":[{"name":"user","type":"address","indexed":true,"internalType":"address"},{"name":"orderId","type":"uint256","indexed":false,"internalType":"uint256"}],"anonymous":false},{"type":"event","name":"Deposited","inputs":[{"name":"user","type":"address","indexed":true,"internalType":"address"},{"name":"amount","type":"uint256","indexed":false,"internalType":"uint256"}],"anonymous":false},{"type":"event","name":"MatchOrder","inputs":[{"name":"orderId","type":"uint256","indexed":false,"internalType":"uint256"},{"name":"taker","type":"address","indexed":true,"internalType":"address"},{"name":"fillAmount","type":"uint256","indexed":false,"internalType":"uint256"}],"anonymous":false},{"type":"event","name":"PlaceOrder","inputs":[{"name":"user","type":"address","indexed":true,"internalType":"address"},{"name":"isBuy","type":"bool","indexed":false,"internalType":"bool"},{"name":"price","type":"uint256","indexed":false,"internalType":"uint256"},{"name":"amount","type":"uint256","indexed":false,"internalType":"uint256"},{"name":"orderId","type":"uint256","indexed":false,"internalType":"uint256"},{"name":"deadline","type":"uint256","indexed":false,"internalType":"uint256"}],"anonymous":false},{"type":"event","name":"Withdrawn","inputs":[{"name":"user","type":"address","indexed":true,"internalType":"address"},{"name":"amount","type":"uint256","indexed":false,"internalType":"uint256"}],"anonymous":false},{"type":"error","name":"IonDexInsufficientBalance","inputs":[]},{"type":"error","name":"IonDexSettlementDisabled","inputs":[]},{"type":"error","name":"IonDexUnauthorized","inputs":[]},{"type":"error","name":"IonDexUnsupportedOrderSide","inputs":[]},{"type":"error","name":"IonDexZeroAddress","inputs":[]},{"type":"error","name":"IonDexZeroAmount","inputs":[]},{"type":"error","name":"ReentrancyGuardReentrantCall","inputs":[]}],"bytecode":{"object":"0x608060405234801561000f575f80fd5b506040516110cf3803806110cf83398101604081905261002e916100dd565b818160017f9b779b17422d0df92223018b32b4d1fa46e071723d6817e2486d003becc55f00556001600160a01b038216158061007157506001600160a01b038116155b1561008f576040516394844c1960e01b815260040160405180910390fd5b5f80546001600160a01b039384166001600160a01b031991821617909155600180549290931691161790555061010e9050565b80516001600160a01b03811681146100d8575f80fd5b919050565b5f80604083850312156100ee575f80fd5b6100f7836100c2565b9150610105602084016100c2565b90509250929050565b610fb48061011b5f395ff3fe608060405234801561000f575f80fd5b50600436106100b1575f3560e01c8063514fcac71161006e578063514fcac71461015157806363c69f0814610164578063a85c38ef14610184578063b6b55f25146101d8578063d09ef241146101eb578063f851a4401461025c575f80fd5b80630ca41aac146100b5578063217a4b70146100ca578063238243da146100fa5780632453ffa81461010d57806327e235e31461011f5780632e1a7d4d1461013e575b5f80fd5b6100c86100c3366004610dc0565b61026e565b005b6001546100dd906001600160a01b031681565b6040516001600160a01b0390911681526020015b60405180910390f35b6100c8610108366004610ded565b61038d565b6002545b6040519081526020016100f1565b61011161012d366004610e25565b60036020525f908152604090205481565b6100c861014c366004610e52565b610731565b6100c861015f366004610e52565b6108a1565b610177610172366004610e25565b6109ec565b6040516100f19190610e69565b610197610192366004610e52565b610b18565b604080516001600160a01b0390981688529515156020880152948601939093526060850191909152608084015260a0830152151560c082015260e0016100f1565b6100c86101e6366004610e52565b610b75565b6101fe6101f9366004610e52565b610c9e565b6040516100f1919081516001600160a01b0316815260208083015115159082015260408083015190820152606080830151908201526080808301519082015260a0828101519082015260c09182015115159181019190915260e00190565b5f546100dd906001600160a01b031681565b610276610d74565b5f6002838154811061028a5761028a610eac565b5f9182526020909120600690910201600581015490915060ff16156102e75760405162461bcd60e51b815260206004820152600e60248201526d13dc99195c88199a5b9a5cda195960921b60448201526064015b60405180910390fd5b806004015442111561032b5760405162461bcd60e51b815260206004820152600d60248201526c13dc99195c88195e1c1a5c9959609a1b60448201526064016102de565b815f0361034b576040516377b0874f60e11b815260040160405180910390fd5b8054600160a01b900460ff166103745760405163055088cd60e21b815260040160405180910390fd5b604051631a536cfb60e01b815260040160405180910390fd5b610395610d74565b5f8054906101000a90046001600160a01b03166001600160a01b0316635c975abb6040518163ffffffff1660e01b8152600401602060405180830381865afa1580156103e3573d5f803e3d5ffd5b505050506040513d601f19601f820116820180604052508101906104079190610ec0565b1561043d5760405162461bcd60e51b815260206004820152600660248201526514185d5cd95960d21b60448201526064016102de565b821580610448575081155b156104855760405162461bcd60e51b815260206004820152600d60248201526c24b73b30b634b21037b93232b960991b60448201526064016102de565b804211156104c55760405162461bcd60e51b815260206004820152600d60248201526c13dc99195c88195e1c1a5c9959609a1b60448201526064016102de565b836104e35760405163055088cd60e21b815260040160405180910390fd5b5f6104ee8385610eef565b335f9081526003602052604090205490915081111561052057604051632f9e462f60e21b815260040160405180910390fd5b335f908152600360205260408120805483929061053e908490610f0c565b90915550506040805160e0810182523380825287151560208301908152928201878152606083018781525f6080850181815260a0860189815260c0870183815260028054600180820183559582905298517f405787fa12a823e0f2b7631cc41b3ba8828b3321ca811111fa75cd3aa3bb5ace6006909a02998a0180549b516001600160a01b039092166001600160a81b0319909c169b909b17600160a01b911515919091021790995594517f405787fa12a823e0f2b7631cc41b3ba8828b3321ca811111fa75cd3aa3bb5acf88015592517f405787fa12a823e0f2b7631cc41b3ba8828b3321ca811111fa75cd3aa3bb5ad0870155517f405787fa12a823e0f2b7631cc41b3ba8828b3321ca811111fa75cd3aa3bb5ad186015590517f405787fa12a823e0f2b7631cc41b3ba8828b3321ca811111fa75cd3aa3bb5ad285015590517f405787fa12a823e0f2b7631cc41b3ba8828b3321ca811111fa75cd3aa3bb5ad3909301805460ff19169315159390931790925591547f20572b3be7b2e760b34e9ba7d6939ca0b1b3f3df27f02b40628ba571d8d1e304918891889188916106e89190610f0c565b60408051941515855260208501939093529183015260608201526080810185905260a00160405180910390a25061072b60015f80516020610f5f83398151915255565b50505050565b610739610d74565b805f03610759576040516377b0874f60e11b815260040160405180910390fd5b335f9081526003602052604090205481111561078857604051632f9e462f60e21b815260040160405180910390fd5b335f90815260036020526040812080548392906107a6908490610f0c565b909155505060015460405163a9059cbb60e01b8152336004820152602481018390526001600160a01b039091169063a9059cbb906044016020604051808303815f875af11580156107f9573d5f803e3d5ffd5b505050506040513d601f19601f8201168201806040525081019061081d9190610ec0565b6108535760405162461bcd60e51b815260206004820152600760248201526615118819985a5b60ca1b60448201526064016102de565b60405181815233907f7084f5476618d8e60b11ef0d7d3f06914655adb8793e28ff7f018d4c76d505d59060200160405180910390a261089e60015f80516020610f5f83398151915255565b50565b6108a9610d74565b5f600282815481106108bd576108bd610eac565b5f918252602090912060069091020180549091506001600160a01b0316331415806108ec5750600581015460ff165b156109295760405162461bcd60e51b815260206004820152600d60248201526c24b73b30b634b21037b93232b960991b60448201526064016102de565b60058101805460ff19166001179055600381015460028201545f9161094d91610f0c565b90505f8111801561096657508154600160a01b900460ff165b1561099f5780826001015461097b9190610eef565b335f9081526003602052604081208054909190610999908490610f1f565b90915550505b60405183815233907fc0e68d6b69f741c21e955cad2ae4d505b6f6735c7e7b278251b3f6283a5f07eb9060200160405180910390a2505061089e60015f80516020610f5f83398151915255565b60605f805b600254811015610a4c57836001600160a01b031660028281548110610a1857610a18610eac565b5f9182526020909120600690910201546001600160a01b031603610a445781610a4081610f32565b9250505b6001016109f1565b505f8167ffffffffffffffff811115610a6757610a67610f4a565b604051908082528060200260200182016040528015610a90578160200160208202803683370190505b5090505f805b600254811015610b0e57856001600160a01b031660028281548110610abd57610abd610eac565b5f9182526020909120600690910201546001600160a01b031603610b0657808383610ae781610f32565b945081518110610af957610af9610eac565b6020026020010181815250505b600101610a96565b5090949350505050565b60028181548110610b27575f80fd5b5f9182526020909120600690910201805460018201546002830154600384015460048501546005909501546001600160a01b038516965060ff600160a01b9095048516959394929391921687565b805f03610b95576040516377b0874f60e11b815260040160405180910390fd5b6001546040516323b872dd60e01b8152336004820152306024820152604481018390526001600160a01b03909116906323b872dd906064016020604051808303815f875af1158015610be9573d5f803e3d5ffd5b505050506040513d601f19601f82011682018060405250810190610c0d9190610ec0565b610c435760405162461bcd60e51b815260206004820152600760248201526615118819985a5b60ca1b60448201526064016102de565b335f9081526003602052604081208054839290610c61908490610f1f565b909155505060405181815233907f2da466a7b24304f47e87fa2e1e5a81b9831ce54fec19055ce277ca2f39ba42c49060200160405180910390a250565b610ce46040518060e001604052805f6001600160a01b031681526020015f151581526020015f81526020015f81526020015f81526020015f81526020015f151581525090565b60028281548110610cf757610cf7610eac565b5f9182526020918290206040805160e081018252600690930290910180546001600160a01b038116845260ff600160a01b90910481161515948401949094526001810154918301919091526002810154606083015260038101546080830152600481015460a083015260050154909116151560c082015292915050565b610d7c610d8f565b60025f80516020610f5f83398151915255565b5f80516020610f5f83398151915254600203610dbe57604051633ee5aeb560e01b815260040160405180910390fd5b565b5f8060408385031215610dd1575f80fd5b50508035926020909101359150565b801515811461089e575f80fd5b5f805f8060808587031215610e00575f80fd5b8435610e0b81610de0565b966020860135965060408601359560600135945092505050565b5f60208284031215610e35575f80fd5b81356001600160a01b0381168114610e4b575f80fd5b9392505050565b5f60208284031215610e62575f80fd5b5035919050565b602080825282518282018190525f9190848201906040850190845b81811015610ea057835183529284019291840191600101610e84565b50909695505050505050565b634e487b7160e01b5f52603260045260245ffd5b5f60208284031215610ed0575f80fd5b8151610e4b81610de0565b634e487b7160e01b5f52601160045260245ffd5b8082028115828204841417610f0657610f06610edb565b92915050565b81810381811115610f0657610f06610edb565b80820180821115610f0657610f06610edb565b5f60018201610f4357610f43610edb565b5060010190565b634e487b7160e01b5f52604160045260245ffdfe9b779b17422d0df92223018b32b4d1fa46e071723d6817e2486d003becc55f00a2646970667358221220f637312f68679d5b31008ceec705385211574b3903fd9df6556826c17a91ae8964736f6c63430008180033","linkReferences":{}},"methodIdentifiers":{"admin()":"f851a440","balances(address)":"27e235e3","cancelOrder(uint256)":"514fcac7","deposit(uint256)":"b6b55f25","getOrder(uint256)":"d09ef241","getUserOrders(address)":"63c69f08","matchOrder(uint256,uint256)":"0ca41aac","orderCount()":"2453ffa8","orders(uint256)":"a85c38ef","placeOrder(bool,uint256,uint256,uint256)":"238243da","quoteToken()":"217a4b70","withdraw(uint256)":"2e1a7d4d"},"id":24}