{"abi":[{"type":"constructor","inputs":[{"name":"_admin","type":"address","internalType":"address"}],"stateMutability":"nonpayable"},{"type":"function","name":"admin","inputs":[],"outputs":[{"name":"","type":"address","internalType":"contract AdminManager"}],"stateMutability":"view"},{"type":"function","name":"cancelOrder","inputs":[{"name":"orderId","type":"uint256","internalType":"uint256"}],"outputs":[],"stateMutability":"nonpayable"},{"type":"function","name":"getOrder","inputs":[{"name":"orderId","type":"uint256","internalType":"uint256"}],"outputs":[{"name":"","type":"tuple","internalType":"struct OrderBook.Order","components":[{"name":"user","type":"address","internalType":"address"},{"name":"isBuy","type":"bool","internalType":"bool"},{"name":"price","type":"uint256","internalType":"uint256"},{"name":"amount","type":"uint256","internalType":"uint256"},{"name":"filled","type":"uint256","internalType":"uint256"},{"name":"finished","type":"bool","internalType":"bool"}]}],"stateMutability":"view"},{"type":"function","name":"getUserOrders","inputs":[{"name":"user","type":"address","internalType":"address"}],"outputs":[{"name":"","type":"uint256[]","internalType":"uint256[]"}],"stateMutability":"view"},{"type":"function","name":"matchOrder","inputs":[{"name":"orderId","type":"uint256","internalType":"uint256"},{"name":"fillAmount","type":"uint256","internalType":"uint256"}],"outputs":[],"stateMutability":"nonpayable"},{"type":"function","name":"orderCount","inputs":[],"outputs":[{"name":"","type":"uint256","internalType":"uint256"}],"stateMutability":"view"},{"type":"function","name":"orders","inputs":[{"name":"","type":"uint256","internalType":"uint256"}],"outputs":[{"name":"user","type":"address","internalType":"address"},{"name":"isBuy","type":"bool","internalType":"bool"},{"name":"price","type":"uint256","internalType":"uint256"},{"name":"amount","type":"uint256","internalType":"uint256"},{"name":"filled","type":"uint256","internalType":"uint256"},{"name":"finished","type":"bool","internalType":"bool"}],"stateMutability":"view"},{"type":"function","name":"placeOrder","inputs":[{"name":"isBuy","type":"bool","internalType":"bool"},{"name":"price","type":"uint256","internalType":"uint256"},{"name":"amount","type":"uint256","internalType":"uint256"}],"outputs":[],"stateMutability":"nonpayable"},{"type":"event","name":"CancelOrder","inputs":[{"name":"user","type":"address","indexed":true,"internalType":"address"},{"name":"orderId","type":"uint256","indexed":false,"internalType":"uint256"}],"anonymous":false},{"type":"event","name":"MatchOrder","inputs":[{"name":"orderId","type":"uint256","indexed":false,"internalType":"uint256"},{"name":"taker","type":"address","indexed":true,"internalType":"address"},{"name":"fillAmount","type":"uint256","indexed":false,"internalType":"uint256"}],"anonymous":false},{"type":"event","name":"PlaceOrder","inputs":[{"name":"user","type":"address","indexed":true,"internalType":"address"},{"name":"isBuy","type":"bool","indexed":false,"internalType":"bool"},{"name":"price","type":"uint256","indexed":false,"internalType":"uint256"},{"name":"amount","type":"uint256","indexed":false,"internalType":"uint256"},{"name":"orderId","type":"uint256","indexed":false,"internalType":"uint256"}],"anonymous":false},{"type":"error","name":"ReentrancyGuardReentrantCall","inputs":[]}],"bytecode":{"object":"0x608060405234801561000f575f80fd5b50604051610bdf380380610bdf83398101604081905261002e91610076565b60017f9b779b17422d0df92223018b32b4d1fa46e071723d6817e2486d003becc55f00555f80546001600160a01b0319166001600160a01b03929092169190911790556100a3565b5f60208284031215610086575f80fd5b81516001600160a01b038116811461009c575f80fd5b9392505050565b610b2f806100b05f395ff3fe608060405234801561000f575f80fd5b5060043610610085575f3560e01c8063a85c38ef11610058578063a85c38ef146100e7578063ca8b4f7a14610133578063d09ef24114610146578063f851a440146101ad575f80fd5b80630ca41aac146100895780632453ffa81461009e578063514fcac7146100b457806363c69f08146100c7575b5f80fd5b61009c610097366004610958565b6101d7565b005b6001546040519081526020015b60405180910390f35b61009c6100c2366004610978565b610334565b6100da6100d536600461098f565b610421565b6040516100ab91906109bc565b6100fa6100f5366004610978565b61054d565b604080516001600160a01b03909716875294151560208701529385019290925260608401526080830152151560a082015260c0016100ab565b61009c610141366004610a0c565b6105a4565b610159610154366004610978565b610855565b6040516100ab919081516001600160a01b0316815260208083015115159082015260408083015190820152606080830151908201526080808301519082015260a09182015115159181019190915260c00190565b5f546101bf906001600160a01b031681565b6040516001600160a01b0390911681526020016100ab565b6101df61090c565b5f600183815481106101f3576101f3610a3e565b5f9182526020909120600590910201600481015490915060ff16156102505760405162461bcd60e51b815260206004820152600e60248201526d13dc99195c88199a5b9a5cda195960921b60448201526064015b60405180910390fd5b81816003015482600201546102659190610a66565b10156102a75760405162461bcd60e51b8152602060048201526011602482015270457863656564732072656d61696e696e6760781b6044820152606401610247565b81816003015f8282546102ba9190610a7f565b909155505060028101546003820154106102de5760048101805460ff191660011790555b604080518481526020810184905233917f64636e643acfcd8b6a0c9ea156e4bc0c5389e25d3ce734b88644e0653fdd1558910160405180910390a25061033060015f80516020610ada83398151915255565b5050565b61033c61090c565b5f6001828154811061035057610350610a3e565b5f918252602090912060059091020180549091506001600160a01b0316331480156103805750600481015460ff16155b6103bc5760405162461bcd60e51b815260206004820152600d60248201526c24b73b30b634b21037b93232b960991b6044820152606401610247565b60048101805460ff1916600117905560405133907fc0e68d6b69f741c21e955cad2ae4d505b6f6735c7e7b278251b3f6283a5f07eb906103ff9085815260200190565b60405180910390a25061041e60015f80516020610ada83398151915255565b50565b60605f805b60015481101561048157836001600160a01b03166001828154811061044d5761044d610a3e565b5f9182526020909120600590910201546001600160a01b031603610479578161047581610a92565b9250505b600101610426565b505f8167ffffffffffffffff81111561049c5761049c610aaa565b6040519080825280602002602001820160405280156104c5578160200160208202803683370190505b5090505f805b60015481101561054357856001600160a01b0316600182815481106104f2576104f2610a3e565b5f9182526020909120600590910201546001600160a01b03160361053b5780838361051c81610a92565b94508151811061052e5761052e610a3e565b6020026020010181815250505b6001016104cb565b5090949350505050565b6001818154811061055c575f80fd5b5f918252602090912060059091020180546001820154600283015460038401546004909401546001600160a01b038416955060ff600160a01b90940484169492939192911686565b6105ac61090c565b5f8054906101000a90046001600160a01b03166001600160a01b0316635c975abb6040518163ffffffff1660e01b8152600401602060405180830381865afa1580156105fa573d5f803e3d5ffd5b505050506040513d601f19601f8201168201806040525081019061061e9190610abe565b156106545760405162461bcd60e51b815260206004820152600660248201526514185d5cd95960d21b6044820152606401610247565b5f8211801561066257505f81115b61069e5760405162461bcd60e51b815260206004820152600d60248201526c24b73b30b634b21037b93232b960991b6044820152606401610247565b6040805160c0810182523380825285151560208301908152928201858152606083018581525f6080850181815260a0860182815260018054808201825593819052965160059093027fb10e2d527612073b26eecdfd717e6a320cf44b4afac2b0732d9fcbe2b7fa0cf68101805499511515600160a01b026001600160a81b0319909a166001600160a01b0395909516949094179890981790925592517fb10e2d527612073b26eecdfd717e6a320cf44b4afac2b0732d9fcbe2b7fa0cf787015590517fb10e2d527612073b26eecdfd717e6a320cf44b4afac2b0732d9fcbe2b7fa0cf886015590517fb10e2d527612073b26eecdfd717e6a320cf44b4afac2b0732d9fcbe2b7fa0cf9850155517fb10e2d527612073b26eecdfd717e6a320cf44b4afac2b0732d9fcbe2b7fa0cfa909301805493151560ff199094169390931790925580547f7f9c480796e5263ee6554c3b7d04a43344be7713857495b40df8e22fca417420918691869186916108159190610a66565b604080519415158552602085019390935291830152606082015260800160405180910390a261085060015f80516020610ada83398151915255565b505050565b6040805160c0810182525f80825260208201819052918101829052606081018290526080810182905260a08101919091526001828154811061089957610899610a3e565b5f9182526020918290206040805160c081018252600590930290910180546001600160a01b038116845260ff600160a01b9091048116151594840194909452600181015491830191909152600281015460608301526003810154608083015260040154909116151560a082015292915050565b610914610927565b60025f80516020610ada83398151915255565b5f80516020610ada8339815191525460020361095657604051633ee5aeb560e01b815260040160405180910390fd5b565b5f8060408385031215610969575f80fd5b50508035926020909101359150565b5f60208284031215610988575f80fd5b5035919050565b5f6020828403121561099f575f80fd5b81356001600160a01b03811681146109b5575f80fd5b9392505050565b602080825282518282018190525f9190848201906040850190845b818110156109f3578351835292840192918401916001016109d7565b50909695505050505050565b801515811461041e575f80fd5b5f805f60608486031215610a1e575f80fd5b8335610a29816109ff565b95602085013595506040909401359392505050565b634e487b7160e01b5f52603260045260245ffd5b634e487b7160e01b5f52601160045260245ffd5b81810381811115610a7957610a79610a52565b92915050565b80820180821115610a7957610a79610a52565b5f60018201610aa357610aa3610a52565b5060010190565b634e487b7160e01b5f52604160045260245ffd5b5f60208284031215610ace575f80fd5b81516109b5816109ff56fe9b779b17422d0df92223018b32b4d1fa46e071723d6817e2486d003becc55f00a2646970667358221220bac3c18e22f199539c7a76398ffa6dcf5034b1f4cd648d0303a311a579873e8b64736f6c63430008180033","linkReferences":{}},"methodIdentifiers":{"admin()":"f851a440","cancelOrder(uint256)":"514fcac7","getOrder(uint256)":"d09ef241","getUserOrders(address)":"63c69f08","matchOrder(uint256,uint256)":"0ca41aac","orderCount()":"2453ffa8","orders(uint256)":"a85c38ef","placeOrder(bool,uint256,uint256)":"ca8b4f7a"},"id":18}