{"abi":[{"type":"function","name":"createToken","inputs":[{"name":"name","type":"string","internalType":"string"},{"name":"symbol","type":"string","internalType":"string"},{"name":"totalSupply","type":"uint256","internalType":"uint256"}],"outputs":[{"name":"","type":"address","internalType":"address"}],"stateMutability":"nonpayable"},{"type":"event","name":"TokenCreated","inputs":[{"name":"creator","type":"address","indexed":true,"internalType":"address"},{"name":"token","type":"address","indexed":false,"internalType":"address"},{"name":"name","type":"string","indexed":false,"internalType":"string"},{"name":"symbol","type":"string","indexed":false,"internalType":"string"},{"name":"totalSupply","type":"uint256","indexed":false,"internalType":"uint256"}],"anonymous":false}],"bytecode":{"object":"0x60808060405234601557610c36908161001a8239f35b5f80fdfe6080806040526004361015610012575f80fd5b5f3560e01c635b06053014610025575f80fd5b346101655760603660031901126101655760043567ffffffffffffffff811161016557610056903690600401610169565b9160243567ffffffffffffffff811161016557610077903690600401610169565b909360443592610a4980820182811067ffffffffffffffff8211176101515782916101b88339608081526100c16100b260808301868a610197565b8281036020840152868a610197565b9086604082015260603391015203905ff08015610146576020957f6e6ae68e7d7d45fbd855c40d1eaafa8de46c5fbec3ee26f1af88730e400bc92c936101246101329360018060a01b0316976040519589875260808b8801526080870191610197565b918483036040860152610197565b9260608201528033930390a2604051908152f35b6040513d5f823e3d90fd5b634e487b7160e01b5f52604160045260245ffd5b5f80fd5b9181601f840112156101655782359167ffffffffffffffff8311610165576020838186019501011161016557565b908060209392818452848401375f828201840152601f01601f191601019056fe6080604052346103c757610a4980380380610019816103cb565b9283398101906080818303126103c75780516001600160401b0381116103c757826100459183016103f0565b602082015190926001600160401b0382116103c7576100659183016103f0565b604082015160609092015190916001600160a01b038216918290036103c75783516001600160401b0381116102cd57600354600181811c911680156103bd575b60208210146102af57601f811161034f575b50602094601f82116001146102ec579481929394955f926102e1575b50508160011b915f199060031b1c1916176003555b82516001600160401b0381116102cd57600454600181811c911680156102c3575b60208210146102af57601f8111610241575b506020601f82116001146101de57819293945f926101d3575b50508160011b915f199060031b1c1916176004555b81156101c057600254908082018092116101ac5760207fddf252ad1be2c89b69c2b068fc378daa952ba7f163c4a11628f55a4df523b3ef915f9360025584845283825260408420818154019055604051908152a360405161060790816104428239f35b634e487b7160e01b5f52601160045260245ffd5b63ec442f0560e01b5f525f60045260245ffd5b015190505f80610134565b601f1982169060045f52805f20915f5b81811061022957509583600195969710610211575b505050811b01600455610149565b01515f1960f88460031b161c191690555f8080610203565b9192602060018192868b0151815501940192016101ee565b8181111561011b5760045f52601f820160051c7f8a35acfbc15ff81a39ae7d344fd709f28e8600b4aa8c65c6b64bfe7fe36bd19b602084106102a7575b81601f9101920160051c03905f5b82811061029a57505061011b565b5f8282015560010161028c565b5f915061027e565b634e487b7160e01b5f52602260045260245ffd5b90607f1690610109565b634e487b7160e01b5f52604160045260245ffd5b015190505f806100d3565b601f1982169560035f52805f20915f5b8881106103375750836001959697981061031f575b505050811b016003556100e8565b01515f1960f88460031b161c191690555f8080610311565b919260206001819286850151815501940192016102fc565b818111156100b75760035f52601f820160051c7fc2575a0e9e593c00f959f8c92f12db2869c3395a3b0502d05e2516446f71f85b602084106103b5575b81601f9101920160051c03905f5b8281106103a85750506100b7565b5f8282015560010161039a565b5f915061038c565b90607f16906100a5565b5f80fd5b6040519190601f01601f191682016001600160401b038111838210176102cd57604052565b81601f820112156103c7578051906001600160401b0382116102cd5761041f601f8301601f19166020016103cb565b92828452602083830101116103c757815f9260208093018386015e830101529056fe6080806040526004361015610012575f80fd5b5f3560e01c90816306fdde03146103ef57508063095ea7b31461036d57806318160ddd1461035057806323b872dd14610271578063313ce5671461025657806370a082311461021f57806395d89b4114610104578063a9059cbb146100d35763dd62ed3e1461007f575f80fd5b346100cf5760403660031901126100cf576100986104e8565b6100a06104fe565b6001600160a01b039182165f908152600160209081526040808320949093168252928352819020549051908152f35b5f80fd5b346100cf5760403660031901126100cf576100f96100ef6104e8565b6024359033610514565b602060405160018152f35b346100cf575f3660031901126100cf576040515f6004548060011c90600181168015610215575b602083108114610201578285529081156101e55750600114610190575b50819003601f01601f191681019067ffffffffffffffff82118183101761017c57610178829182604052826104be565b0390f35b634e487b7160e01b5f52604160045260245ffd5b905060045f527f8a35acfbc15ff81a39ae7d344fd709f28e8600b4aa8c65c6b64bfe7fe36bd19b5f905b8282106101cf57506020915082010182610148565b60018160209254838588010152019101906101ba565b90506020925060ff191682840152151560051b82010182610148565b634e487b7160e01b5f52602260045260245ffd5b91607f169161012b565b346100cf5760203660031901126100cf576001600160a01b036102406104e8565b165f525f602052602060405f2054604051908152f35b346100cf575f3660031901126100cf57602060405160128152f35b346100cf5760603660031901126100cf5761028a6104e8565b6102926104fe565b6001600160a01b0382165f818152600160209081526040808320338452909152902054909260443592915f1981106102d0575b506100f99350610514565b83811061033557841561032257331561030f576100f9945f52600160205260405f2060018060a01b0333165f526020528360405f2091039055846102c5565b634a1406b160e11b5f525f60045260245ffd5b63e602df0560e01b5f525f60045260245ffd5b8390637dc7a0d960e11b5f523360045260245260445260645ffd5b346100cf575f3660031901126100cf576020600254604051908152f35b346100cf5760403660031901126100cf576103866104e8565b602435903315610322576001600160a01b031690811561030f57335f52600160205260405f20825f526020528060405f20556040519081527f8c5be1e5ebec7d5bd14f71427d1e84f3dd0314c0f7b2291e5b200ac8c7c3b92560203392a3602060405160018152f35b346100cf575f3660031901126100cf575f6003548060011c906001811680156104b4575b602083108114610201578285529081156101e5575060011461045f5750819003601f01601f191681019067ffffffffffffffff82118183101761017c57610178829182604052826104be565b905060035f527fc2575a0e9e593c00f959f8c92f12db2869c3395a3b0502d05e2516446f71f85b5f905b82821061049e57506020915082010182610148565b6001816020925483858801015201910190610489565b91607f1691610413565b602060409281835280519182918282860152018484015e5f828201840152601f01601f1916010190565b600435906001600160a01b03821682036100cf57565b602435906001600160a01b03821682036100cf57565b6001600160a01b03169081156105be576001600160a01b03169182156105ab57815f525f60205260405f205481811061059257817fddf252ad1be2c89b69c2b068fc378daa952ba7f163c4a11628f55a4df523b3ef92602092855f525f84520360405f2055845f525f825260405f20818154019055604051908152a3565b8263391434e360e21b5f5260045260245260445260645ffd5b63ec442f0560e01b5f525f60045260245ffd5b634b637e8f60e11b5f525f60045260245ffdfea26469706673582212205c3614e9081d39715245336d0f7f4f6400e264f926d2f23964a5ca9f90a4f76d64736f6c63430008230033a2646970667358221220f2c4c54b17d145411b7054f7196b42b9a6e542187358c1c622a7027aaf336f9064736f6c63430008230033","linkReferences":{}},"methodIdentifiers":{"createToken(string,string,uint256)":"5b060530"},"id":15}