{"abi":[{"type":"constructor","inputs":[{"name":"name","type":"string","internalType":"string"},{"name":"symbol","type":"string","internalType":"string"},{"name":"_tokenA","type":"address","internalType":"address"},{"name":"_tokenB","type":"address","internalType":"address"},{"name":"_admin","type":"address","internalType":"address"},{"name":"_dex","type":"address","internalType":"address"}],"stateMutability":"nonpayable"},{"type":"function","name":"addLiquidity","inputs":[{"name":"amountA","type":"uint256","internalType":"uint256"},{"name":"amountB","type":"uint256","internalType":"uint256"}],"outputs":[{"name":"lpAmount","type":"uint256","internalType":"uint256"}],"stateMutability":"nonpayable"},{"type":"function","name":"admin","inputs":[],"outputs":[{"name":"","type":"address","internalType":"contract AdminManager"}],"stateMutability":"view"},{"type":"function","name":"allowance","inputs":[{"name":"owner","type":"address","internalType":"address"},{"name":"spender","type":"address","internalType":"address"}],"outputs":[{"name":"","type":"uint256","internalType":"uint256"}],"stateMutability":"view"},{"type":"function","name":"approve","inputs":[{"name":"spender","type":"address","internalType":"address"},{"name":"value","type":"uint256","internalType":"uint256"}],"outputs":[{"name":"","type":"bool","internalType":"bool"}],"stateMutability":"nonpayable"},{"type":"function","name":"balanceOf","inputs":[{"name":"account","type":"address","internalType":"address"}],"outputs":[{"name":"","type":"uint256","internalType":"uint256"}],"stateMutability":"view"},{"type":"function","name":"decimals","inputs":[],"outputs":[{"name":"","type":"uint8","internalType":"uint8"}],"stateMutability":"view"},{"type":"function","name":"dexContract","inputs":[],"outputs":[{"name":"","type":"address","internalType":"address"}],"stateMutability":"view"},{"type":"function","name":"name","inputs":[],"outputs":[{"name":"","type":"string","internalType":"string"}],"stateMutability":"view"},{"type":"function","name":"owner","inputs":[],"outputs":[{"name":"","type":"address","internalType":"address"}],"stateMutability":"view"},{"type":"function","name":"removeLiquidity","inputs":[{"name":"lpAmount","type":"uint256","internalType":"uint256"}],"outputs":[],"stateMutability":"nonpayable"},{"type":"function","name":"setDexContract","inputs":[{"name":"_dex","type":"address","internalType":"address"}],"outputs":[],"stateMutability":"nonpayable"},{"type":"function","name":"symbol","inputs":[],"outputs":[{"name":"","type":"string","internalType":"string"}],"stateMutability":"view"},{"type":"function","name":"tokenA","inputs":[],"outputs":[{"name":"","type":"address","internalType":"address"}],"stateMutability":"view"},{"type":"function","name":"tokenB","inputs":[],"outputs":[{"name":"","type":"address","internalType":"address"}],"stateMutability":"view"},{"type":"function","name":"totalSupply","inputs":[],"outputs":[{"name":"","type":"uint256","internalType":"uint256"}],"stateMutability":"view"},{"type":"function","name":"transfer","inputs":[{"name":"to","type":"address","internalType":"address"},{"name":"value","type":"uint256","internalType":"uint256"}],"outputs":[{"name":"","type":"bool","internalType":"bool"}],"stateMutability":"nonpayable"},{"type":"function","name":"transferFrom","inputs":[{"name":"from","type":"address","internalType":"address"},{"name":"to","type":"address","internalType":"address"},{"name":"value","type":"uint256","internalType":"uint256"}],"outputs":[{"name":"","type":"bool","internalType":"bool"}],"stateMutability":"nonpayable"},{"type":"event","name":"AddLiquidity","inputs":[{"name":"user","type":"address","indexed":true,"internalType":"address"},{"name":"amountA","type":"uint256","indexed":false,"internalType":"uint256"},{"name":"amountB","type":"uint256","indexed":false,"internalType":"uint256"},{"name":"lpMinted","type":"uint256","indexed":false,"internalType":"uint256"}],"anonymous":false},{"type":"event","name":"Approval","inputs":[{"name":"owner","type":"address","indexed":true,"internalType":"address"},{"name":"spender","type":"address","indexed":true,"internalType":"address"},{"name":"value","type":"uint256","indexed":false,"internalType":"uint256"}],"anonymous":false},{"type":"event","name":"RemoveLiquidity","inputs":[{"name":"user","type":"address","indexed":true,"internalType":"address"},{"name":"lpBurned","type":"uint256","indexed":false,"internalType":"uint256"},{"name":"amountA","type":"uint256","indexed":false,"internalType":"uint256"},{"name":"amountB","type":"uint256","indexed":false,"internalType":"uint256"}],"anonymous":false},{"type":"event","name":"Transfer","inputs":[{"name":"from","type":"address","indexed":true,"internalType":"address"},{"name":"to","type":"address","indexed":true,"internalType":"address"},{"name":"value","type":"uint256","indexed":false,"internalType":"uint256"}],"anonymous":false},{"type":"error","name":"ERC20InsufficientAllowance","inputs":[{"name":"spender","type":"address","internalType":"address"},{"name":"allowance","type":"uint256","internalType":"uint256"},{"name":"needed","type":"uint256","internalType":"uint256"}]},{"type":"error","name":"ERC20InsufficientBalance","inputs":[{"name":"sender","type":"address","internalType":"address"},{"name":"balance","type":"uint256","internalType":"uint256"},{"name":"needed","type":"uint256","internalType":"uint256"}]},{"type":"error","name":"ERC20InvalidApprover","inputs":[{"name":"approver","type":"address","internalType":"address"}]},{"type":"error","name":"ERC20InvalidReceiver","inputs":[{"name":"receiver","type":"address","internalType":"address"}]},{"type":"error","name":"ERC20InvalidSender","inputs":[{"name":"sender","type":"address","internalType":"address"}]},{"type":"error","name":"ERC20InvalidSpender","inputs":[{"name":"spender","type":"address","internalType":"address"}]},{"type":"error","name":"ReentrancyGuardReentrantCall","inputs":[]}],"bytecode":{"object":"0x60c0604052346103fb576115fa80380380610019816103ff565b92833981019060c0818303126103fb5780516001600160401b0381116103fb5782610045918301610424565b602082015190926001600160401b0382116103fb57610065918301610424565b61007160408301610475565b61007d60608401610475565b9161009660a061008f60808701610475565b9501610475565b855190956001600160401b0382116102f65760035490600182811c921680156103f1575b60208310146102d85781601f84931161037b575b50602090601f8311600114610315575f9261030a575b50508160011b915f199060031b1c1916176003555b8051906001600160401b0382116102f65760045490600182811c921680156102ec575b60208310146102d85781601f849311610262575b50602090601f83116001146101fc575f926101f1575b50508160011b915f199060031b1c1916176004555b60017f9b779b17422d0df92223018b32b4d1fa46e071723d6817e2486d003becc55f005560805260a052600680546001600160a01b039283166001600160a01b03199182161790915560058054939092169216919091179055604051611170908161048a8239608051818181610241015281816106a50152610d1f015260a0518181816102ad015281816106fa0152610b200152f35b015190505f80610146565b60045f9081528281209350601f198516905b81811061024a5750908460019594939210610232575b505050811b0160045561015b565b01515f1960f88460031b161c191690555f8080610224565b9293602060018192878601518155019501930161020e565b828111156101305760045f52909150601f830160051c7f8a35acfbc15ff81a39ae7d344fd709f28e8600b4aa8c65c6b64bfe7fe36bd19b602085106102d0575b849392601f0160051c82900391015f5b8281106102c0575050610130565b5f818301558594506001016102b2565b5f91506102a2565b634e487b7160e01b5f52602260045260245ffd5b91607f169161011c565b634e487b7160e01b5f52604160045260245ffd5b015190505f806100e4565b60035f9081528281209350601f198516905b818110610363575090846001959493921061034b575b505050811b016003556100f9565b01515f1960f88460031b161c191690555f808061033d565b92936020600181928786015181550195019301610327565b828111156100ce5760035f52909150601f830160051c7fc2575a0e9e593c00f959f8c92f12db2869c3395a3b0502d05e2516446f71f85b602085106103e9575b849392601f0160051c82900391015f5b8281106103d95750506100ce565b5f818301558594506001016103cb565b5f91506103bb565b91607f16916100ba565b5f80fd5b6040519190601f01601f191682016001600160401b038111838210176102f657604052565b81601f820112156103fb578051906001600160401b0382116102f657610453601f8301601f19166020016103ff565b92828452602083830101116103fb57815f9260208093018386015e8301015290565b51906001600160a01b03821682036103fb5756fe6080806040526004361015610012575f80fd5b5f3560e01c90816306fdde0314610dd057508063095ea7b314610d4e5780630fc63d1014610d0a57806318160ddd14610ced57806323b872dd14610c0e578063313ce56714610bf357806347d5f66814610b4f5780635f64b55b14610b0b57806370a0823114610ad45780638da5cb5b14610aa857806395d89b41146109a45780639c8f9f231461061f5780639cd441da146101ac578063a9059cbb1461017b578063c9b9f43514610153578063dd62ed3e146101035763f851a440146100d7575f80fd5b346100ff575f3660031901126100ff576006546040516001600160a01b039091168152602090f35b5f80fd5b346100ff5760403660031901126100ff5761011c610eb2565b610124610ec8565b6001600160a01b039182165f908152600160209081526040808320949093168252928352819020549051908152f35b346100ff575f3660031901126100ff576005546040516001600160a01b039091168152602090f35b346100ff5760403660031901126100ff576101a1610197610eb2565b602435903361103e565b602060405160018152f35b346100ff5760403660031901126100ff576024356004356101cb6110d5565b600654604051635c975abb60e01b815290602090829060049082906001600160a01b03165afa801561053757610209915f91610600575b5015610fa2565b801515806105f7575b156105c4576040516323b872dd60e01b8152336004820152306024820152604481018290526001600160a01b037f000000000000000000000000000000000000000000000000000000000000000016906020816064815f865af1801561053757610283915f916105a5575b50611008565b6040516323b872dd60e01b8152336004820152306024820152604481018490526001600160a01b037f00000000000000000000000000000000000000000000000000000000000000001691906020816064815f875af18015610537576102ef915f916105765750611008565b6002549182610469575050506103058282610fd7565b905f600383111561045a5750818060011c6001810180911161044657905b8382106104275750505b6103e882106103f1575b33156103de577fbeb3885786d637a474cbc287c0a44587231633a077f0bd30354d5a4b18996fce8260209461036e8260025461110d565b600255335f525f865260405f208281540190556040518281525f7fddf252ad1be2c89b69c2b068fc378daa952ba7f163c4a11628f55a4df523b3ef883393a36040805194855260208501919091528301523391606090a260015f51602061111b5f395f51905f5255604051908152f35b63ec442f0560e01b5f525f60045260245ffd5b60405162461bcd60e51b815260206004820152600e60248201526d135a5b881314081b9bdd081b595d60921b6044820152606490fd5b90925061043d836104388184610fea565b61110d565b60011c90610323565b634e487b7160e01b5f52601160045260245ffd5b911561032d576001915061032d565b602460206104778587610fd7565b93604051928380926370a0823160e01b82523060048301525afa908115610537575f91610542575b506104b86104b1602092602495610fea565b9487610fd7565b91604051938480926370a0823160e01b82523060048301525afa908115610537575f91610501575b6104ea9250610fea565b808210156104fa57505b90610337565b90506104f4565b90506020823d60201161052f575b8161051c60209383610ede565b810103126100ff576104ea9151906104e0565b3d915061050f565b6040513d5f823e3d90fd5b90506020813d60201161056e575b8161055d60209383610ede565b810103126100ff57516104b861049f565b3d9150610550565b610598915060203d60201161059e575b6105908183610ede565b810190610f8a565b8661027d565b503d610586565b6105be915060203d60201161059e576105908183610ede565b8561027d565b60405162461bcd60e51b815260206004820152600b60248201526a416d6f756e74207a65726f60a81b6044820152606490fd5b50811515610212565b610619915060203d60201161059e576105908183610ede565b84610202565b346100ff5760203660031901126100ff5760043561063b6110d5565b600654604051635c975abb60e01b815290602090829060049082906001600160a01b03165afa801561053757610678915f91610985575015610fa2565b801561095657335f525f6020528060405f20541061091f576040516370a0823160e01b81523060048201527f00000000000000000000000000000000000000000000000000000000000000006001600160a01b0316602082602481845afa918215610537575f926108eb575b506040516370a0823160e01b81523060048201527f00000000000000000000000000000000000000000000000000000000000000006001600160a01b031692602082602481875afa918215610537575f926108b5575b50610754610754610759610760936002549384918a610fd7565b610fea565b9387610fd7565b9133156108a257335f525f6020528460405f205481811061088957335f525f6020520360405f205584600254036002555f6040518681527fddf252ad1be2c89b69c2b068fc378daa952ba7f163c4a11628f55a4df523b3ef60203392a360405163a9059cbb60e01b81523360048201526024810183905290602090829060449082905f905af18015610537576107fc915f916105765750611008565b60405163a9059cbb60e01b81523360048201526024810183905292602090849060449082905f905af1928315610537577f59c3a0b60c6ab7deb62e1440c9e72441db6db7dfe514dba8cb18e60c0d896efa9361085e915f916105765750611008565b6040805194855260208501919091528301523391606090a260015f51602061111b5f395f51905f5255005b63391434e360e21b5f523360045260245260445260645ffd5b634b637e8f60e11b5f525f60045260245ffd5b9091506020813d6020116108e3575b816108d160209383610ede565b810103126100ff57519061075461073a565b3d91506108c4565b9091506020813d602011610917575b8161090760209383610ede565b810103126100ff575190836106e4565b3d91506108fa565b60405162461bcd60e51b815260206004820152600f60248201526e0496e73756666696369656e74204c5608c1b6044820152606490fd5b60405162461bcd60e51b81526020600482015260076024820152664c50207a65726f60c81b6044820152606490fd5b61099e915060203d60201161059e576105908183610ede565b83610202565b346100ff575f3660031901126100ff576040515f6004548060011c90600181168015610a9e575b602083108114610a8a57828552908115610a665750600114610a08575b610a04836109f881850382610ede565b60405191829182610e88565b0390f35b91905060045f527f8a35acfbc15ff81a39ae7d344fd709f28e8600b4aa8c65c6b64bfe7fe36bd19b915f905b808210610a4c575090915081016020016109f86109e8565b919260018160209254838588010152019101909291610a34565b60ff191660208086019190915291151560051b840190910191506109f890506109e8565b634e487b7160e01b5f52602260045260245ffd5b91607f16916109cb565b346100ff575f3660031901126100ff576020610ac2610f14565b6040516001600160a01b039091168152f35b346100ff5760203660031901126100ff576001600160a01b03610af5610eb2565b165f525f602052602060405f2054604051908152f35b346100ff575f3660031901126100ff576040517f00000000000000000000000000000000000000000000000000000000000000006001600160a01b03168152602090f35b346100ff5760203660031901126100ff57610b68610eb2565b6006546001600160a01b031633148015610bda575b15610ba457600580546001600160a01b0319166001600160a01b0392909216919091179055005b60405162461bcd60e51b815260206004820152600e60248201526d139bdd08185d5d1a1bdc9a5e995960921b6044820152606490fd5b506001600160a01b03610beb610f14565b163314610b7d565b346100ff575f3660031901126100ff57602060405160128152f35b346100ff5760603660031901126100ff57610c27610eb2565b610c2f610ec8565b6001600160a01b0382165f818152600160209081526040808320338452909152902054909260443592915f198110610c6d575b506101a1935061103e565b838110610cd2578415610cbf573315610cac576101a1945f52600160205260405f2060018060a01b0333165f526020528360405f209103905584610c62565b634a1406b160e11b5f525f60045260245ffd5b63e602df0560e01b5f525f60045260245ffd5b8390637dc7a0d960e11b5f523360045260245260445260645ffd5b346100ff575f3660031901126100ff576020600254604051908152f35b346100ff575f3660031901126100ff576040517f00000000000000000000000000000000000000000000000000000000000000006001600160a01b03168152602090f35b346100ff5760403660031901126100ff57610d67610eb2565b602435903315610cbf576001600160a01b0316908115610cac57335f52600160205260405f20825f526020528060405f20556040519081527f8c5be1e5ebec7d5bd14f71427d1e84f3dd0314c0f7b2291e5b200ac8c7c3b92560203392a3602060405160018152f35b346100ff575f3660031901126100ff575f6003548060011c90600181168015610e7e575b602083108114610a8a57828552908115610a665750600114610e2057610a04836109f881850382610ede565b91905060035f527fc2575a0e9e593c00f959f8c92f12db2869c3395a3b0502d05e2516446f71f85b915f905b808210610e64575090915081016020016109f86109e8565b919260018160209254838588010152019101909291610e4c565b91607f1691610df4565b602060409281835280519182918282860152018484015e5f828201840152601f01601f1916010190565b600435906001600160a01b03821682036100ff57565b602435906001600160a01b03821682036100ff57565b90601f8019910116810190811067ffffffffffffffff821117610f0057604052565b634e487b7160e01b5f52604160045260245ffd5b600654604051638da5cb5b60e01b815290602090829060049082906001600160a01b03165afa908115610537575f91610f4b575090565b90506020813d602011610f82575b81610f6660209383610ede565b810103126100ff57516001600160a01b03811681036100ff5790565b3d9150610f59565b908160209103126100ff575180151581036100ff5790565b15610fa957565b60405162461bcd60e51b815260206004820152600660248201526514185d5cd95960d21b6044820152606490fd5b8181029291811591840414171561044657565b8115610ff4570490565b634e487b7160e01b5f52601260045260245ffd5b1561100f57565b60405162461bcd60e51b815260206004820152600760248201526615118819985a5b60ca1b6044820152606490fd5b6001600160a01b03169081156108a2576001600160a01b03169182156103de57815f525f60205260405f20548181106110bc57817fddf252ad1be2c89b69c2b068fc378daa952ba7f163c4a11628f55a4df523b3ef92602092855f525f84520360405f2055845f525f825260405f20818154019055604051908152a3565b8263391434e360e21b5f5260045260245260445260645ffd5b60025f51602061111b5f395f51905f5254146110fe5760025f51602061111b5f395f51905f5255565b633ee5aeb560e01b5f5260045ffd5b919082018092116104465756fe9b779b17422d0df92223018b32b4d1fa46e071723d6817e2486d003becc55f00a26469706673582212204141cfde70833b8fee038026a3fbcdf61cae753cbaeedded6242cf1ece824da464736f6c63430008230033","linkReferences":{}},"methodIdentifiers":{"addLiquidity(uint256,uint256)":"9cd441da","admin()":"f851a440","allowance(address,address)":"dd62ed3e","approve(address,uint256)":"095ea7b3","balanceOf(address)":"70a08231","decimals()":"313ce567","dexContract()":"c9b9f435","name()":"06fdde03","owner()":"8da5cb5b","removeLiquidity(uint256)":"9c8f9f23","setDexContract(address)":"47d5f668","symbol()":"95d89b41","tokenA()":"0fc63d10","tokenB()":"5f64b55b","totalSupply()":"18160ddd","transfer(address,uint256)":"a9059cbb","transferFrom(address,address,uint256)":"23b872dd"},"id":10}